:020000022000DC
:10700000C0E7002091B00200B5EA04007DB00200A4
:107010007DB002007DB002007DB0020000000000E3
:10702000000000000000000000000000C9B00200E5
:107030007DB0020000000000C9B202007DB0020075
:1070400045B3020051D3030045B3020045B302002B
:1070500045B3020045B3020045B3020045B3020048
:1070600045B3020045B3020045B3020045B3020038
:1070700045B3020045B3020045B3020045B3020028
:1070800045B3020045B3020045B3020045B3020018
:1070900045B3020045B3020045B3020045B3020008
:1070A00045B3020045B3020045B3020045B30200F8
:1070B00045B3020045B3020045B3020045B30200E8
:1070C00045B3020045B3020045B3020045B30200D8
:1070D00045B3020045B3020045B3020045B30200C8
:1070E00045B3020045B3020045B3020045B30200B8
:1070F00045B3020045B3020045B3020045B30200A8
:1071000053B94AB9002908BF00281CBF4FF0FF310E
:107110004FF0FF3000F00CB8ADF1080C6DE904CE73
:1071200000F022F8DDF804E0DDE9022304B0704746
:10713000704700BF10F8012B11F8013B012A28BF4E
:107140009A42F7D0D01A7047034611F8012B03F882
:10715000012B002AF9D17047034613F8012B002AAE
:10716000FBD1181A013870472DE9F0478C468E463E
:10717000089E154604461946002B40F0D080724503
:1071800047D9B2FA82F74FB1C7F120030EFA07FCD4
:1071900020FA03F3BD4043EA0C0CBC404FEA154E05
:1071A000A8B2BCFBFEF8230C0EFB18CC08FB00F9C0
:1071B00043EA0C43994528D9EB1808F1FF3204D271
:1071C000994502D9A8F102022B44A3EB0903A4B20A
:1071D000B3FBFEFC0EFB1C330CFB00F044EA034443
:1071E000A04214D92C190CF1FF3304D2A04202D9C9
:1071F000ACF102032C44241A43EA02401EB1FC40C5
:10720000002334607360BDE8F0874246DDE76346E3
:10721000F1E7002A79D0B2FA82F3002B3FD0194669
:10722000C1F1200302FA01F52EFA03F20EFA01FE73
:1072300020FA03F343EA0E034FEA154E00FA01F475
:10724000B2FBFEFCAFB20EFB1C201A0C0CFB07F8C5
:1072500042EA004290455AD9AA180CF1FF3004D2F4
:10726000904502D9ACF102002A44A2EB08029BB27D
:10727000B2FBFEFC0EFB1C220CFB07F743EA0243A9
:107280009F4246D9EB180CF1FF3204D29F4202D93B
:10729000ACF102022B44DB1B42EA004202E0AEEBFF
:1072A000020301224FEA154EAFB2B3FBFEFC200CE5
:1072B0000EFB1C330CFB07F840EA034398452AD920
:1072C000EB180CF1FF3004D2984502D9ACF1020062
:1072D0002B44A3EB0803A4B2B3FBFEFC0EFB1C3350
:1072E0000CFB07F744EA0344A74216D92C190CF10A
:1072F000FF3304D2A74202D9ACF102032C44E41BB1
:1073000043EA00400F46114678E71F2188E76046B0
:10731000ABE76246BFE76046DBE76346EFE77345EE
:1073200006D916B9002108466DE7C6E9000EF9E74F
:10733000B3FA83F787B9734501D3824207D8841A19
:107340006EEB030301209C461EB900215BE7384623
:10735000FAE7C6E9004CF8E7C7F1200CBB4022FA77
:107360000CF51D4320FA0CF12EFA0CF30EFA07FE71
:1073700041EA0E014FEA154900FA07F4B3FBF9F8A8
:107380001FFA85FE09FB18300B0C08FB0EFA43EAC6
:1073900000439A4502FA07F240D9EB1808F1FF3092
:1073A00004D29A4502D9A8F102002B44A3EB0A03A8
:1073B00089B2B3FBF9F809FB183308FB0EFE41EA6A
:1073C00003418E452CD9691808F1FF3304D28E454C
:1073D00002D9A8F10203294443EA0040A0FB029825
:1073E000A1EB0E014145CE46434602D306D14C45A2
:1073F00004D2B9EB020E68EB05030138002EA4D0CD
:10740000B4EB0E0261EB030101FA0CFC22FA07F364
:107410004CEA0303F940C6E9003196E74046C5E768
:107420004346D9E700000000F7B50022114640F6B8
:10743000034006F0FBF90446002853D106F016F984
:10744000214601AA41F2030006F0F0F904460028A3
:1074500048D1019A254DD168D1F80100D1F8051025
:1074600005F1880303C3104604F010FA214601AA6F
:1074700041F2010006F0DAF9044698BB0198C368AE
:107480005A7885F880205A88A5F882201A7985F8DC
:107490008120B3F80720A5F88420B3F80530A5F8BB
:1074A000863004F0F3F9214601AA41F2020006F009
:1074B000BDF90446B0B9019FFA6805F19006531C66
:1074C000413218685968344603C40833934226464B
:1074D000F7D1384604F0DAF995F88C305F0607D416
:1074E0006FF01204204603B0F0BD00BFA8000020DA
:1074F00001AA002142F2030006F098F90446002890
:10750000F0D1019BC44EDA68D2F80100D2F8051020
:1075100003C6184604F0BAF9214601AA42F2020055
:1075200006F084F904460028DCD1019CE368B3F836
:10753000012091B249B1D97839B1A5F81421DA788E
:10754000114606F1280031F0B3FB204604F09EF905
:1075500095F88C601F2316F02006A5F8303119D15C
:107560004FF0FF304FF0FF3106F0A8F80446002836
:1075700000F0698102210C3027F07AFB01230370AF
:1075800046702146324640F66D4006F04FF90446FB
:107590000028A7D195F8AC301E0712D501AA00210A
:1075A00042F21C0006F042F9044600289AD10198E4
:1075B000C368D3F80120D3F80530C5E93C2304F0B3
:1075C00065F995F8E8309C0625D50DF1020168466D
:1075D00029F03EF80446002884D14FF0FF304FF0E8
:1075E000FF3106F06BF80646002800F02C810421DC
:1075F0000C3027F03DFBBDF800300380BDF80230B1
:1076000043802246314642F2240006F00FF9044638
:1076100000287FF467AF95F8E83058062BD54FF077
:10762000FF304FF0FF3106F049F80446002800F023
:107630000A8102210C3027F01BFBB5F8E0310380F2
:107640002146002242F22E0006F0F0F804460028FF
:107650007FF448AF014601AA42F22A0006F0E6F89C
:10766000044600287FF43EAF0198C3685B7885F834
:10767000323104F00BF94FF0FF304FF0FF3106F0DC
:107680001DF80646002800F0DE8008210C3027F0A7
:10769000EFFA95F8E84014F0400F40F2022308BFDB
:1076A0000323A10795F8E9104CBF43F02C0343F0E6
:1076B0000C03A70648BF43F0400311F0090F18BFA1
:1076C00043F4006304F001040246002143EA04107D
:1076D00028F096FE0022314642F2010006F0A6F89C
:1076E000044600287FF4FEAE95F88C30B5F81411EE
:1076F000980600F18380C9B901AA41F2050006F09D
:1077000095F8044600287FF4EDAEB5F81431019CDD
:107710004BB9E368B3F80120A5F814219A883F48D3
:10772000114631F0C5FA204604F0B0F84FF0FF30B2
:107730004FF0FF3105F0C2FF0446002800F08380BF
:1077400008210C3027F094FA95F8E830D907024662
:1077500059D433484FF0005128F052FE2146002200
:1077600040F6014006F062F8044600287FF4BAAE05
:10777000014601AA4FF6014006F058F8044620BB26
:10778000019804F083F8214601AA4FF6024006F062
:107790004DF80446C8B90198C368B3F80130A5F89C
:1077A000D13004F073F895F8D1305A070DD501AAFD
:1077B00021464FF6034006F039F830B90198C36806
:1077C0005B7885F8D03004F061F86B7D63BB06F020
:1077D000B7FF044600287FF485AE08F0E5F90446BB
:1077E00000287FF47FAE6B7D002B3FF47BAE082139
:1077F0000C4828F01AFD05F0BFFF73E6002995D16B
:107800006FF004046EE602A1D1E90001A4E700BF15
:10781000908800020080002090010020C00100201C
:10782000108800028C0100202E78002ECFD195F810
:10783000D1309B061ED54FF0FF304FF0FF3105F0E1
:107840003DFF044610B96FF068044BE606210C308A
:1078500027F00EFAD5F801300360084B9B8883802F
:10786000214632464FF6064005F0E0FF0446002868
:10787000ADD037E66FF0850434E600BFA9000020E4
:107880002DE9F843D0E90738856903EB08042F3464
:10789000A5420F46164619D8DFF86C80A3FB0801F5
:1078A00017A3D3E90023FFF72BFC0346601BA0FBC3
:1078B000080123F07F4412A3D3E90023FFF720FC43
:1078C00020F07F403C603060BDE8F883DFF83890FE
:1078D0000BA3D3E90023A5FB0901FFF711FC20F05E
:1078E0007F440A480A2106A3D3E90023E8FB0901E3
:1078F000FFF706FC20F07F403C603060BDE8F88375
:107900008D49FD1A0700000000CA9A3B00166BF172
:10791000002800F051812DE9F04FCB4C94F85E2007
:1079200012F001058DB040F03481607EFF2300F03D
:107930000300A37615F04CF994F85E00420700F1BD
:107940002C81627F94F8293004EB820204EB8303DC
:10795000166AD3F82C8086B1BB4831460FF030FD53
:1079600033785B0605D506210BF016FC002800F0E5
:107970005581B54841460FF023FD337813F00E0FC3
:1079800040F0918063691BB10C200DB0BDE8F08F11
:107990000DF016FC8146002800F049810DF01CFC1A
:1079A0008246002800F040810FF02CFF0546002899
:1079B00000F05A81D0F888004FF6FF73AB8405F1D0
:1079C000100B002800F0358105F17C0205F17801EB
:1079D0000BF0EEFBB5F8763023F4EF6323F00703EA
:1079E00043F48C7343F00103A5F8763095F83730F3
:1079F00003F03F0363F07F0385F8373095F88E304E
:107A000023F0070385F88E3095F83C3023F00F0300
:107A1000002785F83C304FF4C023C5F88E31284646
:107A2000C5E91277C5F88870A5F88C7085F83970AB
:107A30006F85C5F82E702F65A5F86071A5F8947153
:107A4000A5F88A7111F074FE85F86471C5F8689123
:107A500010F0A0F995F89C3160F3020385F89C3191
:107A600010F09EF995F89C3160F3C50385F89C31C0
:107A700095F8623167F34103012185F862312846A8
:107A800010F022FD05F1E00011F072FCC4E9159A36
:107A9000C4F814B0C5E902772F702D6116F002F911
:107AA000002840F0BD80237E0121C3F342030DF185
:107AB0002B008DF82B300BF01DFD024600287DD0E9
:107AC000414630460FF074FA604A614BB4F85C806E
:107AD0000721E0FB023100251846C4E9025558A3EE
:107AE000D3E900232570FFF70BFB60600CF098FED4
:107AF00000F10907B8F1000F07D1357805F00F053F
:107B0000A5F10105B5FA85F56D09207E636865F379
:107B1000000010F00105207657D04E4A099200204F
:107B2000106002254C4ADFF8348104930BAE0193B8
:107B300005920321CDE90200069400903B46CDF862
:107B40001C8008962A460B950CF08EFD31460DF0F0
:107B5000CDFB98BB424905914AF2D8330093CDE959
:107B60000300CDE90100CDF81C80089606943B4641
:107B7000012203210B950CF05BFD31460DF0B6FBA5
:107B8000E0B994F85E300120034384F85E3015F0CC
:107B900001F800200DB0BDE8F08F2A4604F15F0126
:107BA000C0F3C00015F04CF9FF28A0763FF4C9AE31
:107BB000284615F027F8C4E60FF092B96369002B48
:107BC0003FF4E2AE0FF062F9DEE6224A2548049364
:107BD00003F247130694029591211360A8FB00035A
:107BE00001FB08311D4B07931B4B05934FF6FF73A9
:107BF00009924FF0020803930BAE11A3D3E90023BF
:107C0000CDF82C800896FFF77BFA3B46CDE9005073
:107C10004246284603210CF027FDAEE71220B4E6C9
:107C20000FF034F90320B0E648460DF0CFFA0720F4
:107C3000ABE605F18000C5F88800C5E6AFF300802B
:107C40008D49FD1A07000000F448002000CA9A3B45
:107C50008C49FD1AE8480020297003001D490300E3
:107C60004D6D0300002AE78450460DF0BBFA4846EC
:107C70000DF0ACFADBE700BF70B5037E8AB0C3F34A
:107C800042030D46044601210DF1230016468DF8EE
:107C900023300BF02FFC3146024628460FF088F9BE
:107CA0001D4A1E4B0721E0FB0231184618A3D3E9F9
:107CB0000023FFF725FA63689842054621D21B1A74
:107CC00000220192164A0293164BA21AA3FB02321B
:107CD0000221520900230A4409AE09911249059173
:107CE000CDE9033303210696D2B2009318460CF077
:107CF00011FD31460DF0FAFA38B9656000200AB07E
:107D000070BDFBD9C21A0023DBE70C200AB070BD9E
:107D10008D49FD1A0700000000CA9A3B8C49FD1AE4
:107D2000F44800204FECC44E1D4903000000000041
:107D30002DE9F04F05468BB08B4601200221994674
:107D4000144617F095FD00220221824601200BF017
:107D500083FA2F494FF4D47228460BF009FAC61C57
:107D60002C4B0093F6B201954B4632460121002080
:107D70000CF01EFD10F0FD0F42D1274BA4FB034871
:107D8000204621A3D3E900234146FFF7B9F908951E
:107D900006956B680493214B20F07F47A7FB0331C6
:107DA000E01A1F4B07934FF007021E4B059302FB8F
:107DB00007114FF6FE7368EB010103934FF47A72DB
:107DC0000023FFF79DF9CDF800B0CDE901704B46D7
:107DD0003246012100200CF02BFC10F0FD0F0DD1DC
:107DE000BAF1000F02D10BB0BDE8F08F01220221E1
:107DF00010460BB0BDE8F04F0BF02EBA00DEEFE7F7
:107E000000DEBAE7AFF300808D49FD1A07000000DD
:107E1000E0190020C176030000CA9A3B8D49FD1A83
:107E2000A97603004DC003002DE9F0418468A28CBF
:107E30004FF6FF739A428CB000F0C0800546204692
:107E400011F0F2FE2B7D012B00F0E680022B00F0FA
:107E5000B88033B994F88E3003F01803182B00F073
:107E60001C8194F86471002F40F0AE802B8AE68D5F
:107E700094F93720CDE90A77002B00F0AC80002A76
:107E8000C0F221810023A4F89031AB7CA28D03F0D5
:107E90000303551C012BADB200F0BA80B4F8943145
:107EA000002B00F0BF80AB4240F237815B1B9BB2DE
:107EB000062BA4F894314FF000028CBF002301235D
:107EC000E2851F4694F83C2063F3820284F83C204C
:107ED00029460DF12702204611F066FC743000F0AF
:107EE0001681B4F88E312BB1AB4240F2BF805B1BE0
:107EF000A4F88E31B4F88A312BB1AB4240F2C6807F
:107F00005B1BA4F88A31E58D17B9AE4200F0AC8056
:107F10000135ADB294F8D13013F0010609D1DDE995
:107F20000AC3B3BBBCF1000F00F0E9801E4619463E
:107F300030E094F9372023F00103002A84F8D1308F
:107F4000C0F28A8094F87600C0F3C00100F0070008
:107F500015F026FDB4F86E20B4F86C301344E28BB3
:107F600003F23F13134418448D4A8E4B0721E0FB64
:107F70000231184688A3D3E90023FFF7C1F86168EE
:107F800020F07F408142DDE90AC380F0B280461ACA
:107F900060600021A28C24690694CDE90357033266
:107FA000814D0291CDE900C6D2B201210020059594
:107FB0000CF0B0FB10F0FD0F40F0B4800CB0BDE849
:107FC000F0813D2784F86471394620460CB0BDE845
:107FD000F0410FF09FBF002AB8BF84F8D570AB7C8A
:107FE000A28D03F00303551C012BADB210D0B4F8E1
:107FF0009031002B3FF452AFAB4240F29A805B1BB2
:10800000A4F89031B4F89431002B7FF44CAF59E7C9
:108010000023A4F8943155E70023A4F88E31A4F886
:108020008A311EE7E38C052B8BBF40F2E2424FF40E
:10803000FA725A4303FB0222B4F8923142F21071F1
:1080400001FB0323013BB3FBF2F39BB2A4F8943191
:10805000002B7FF428AF35E794F87700012100F07A
:10806000070015F09FFC75E73D4653E70DF0FAF861
:108070000146002864D00023A4F88E31A38CC3806D
:108080001B23037100680DF0BFF833E70023A4F849
:108090008A31204611F01AFC35E7218DB4F88C2185
:1080A0008B1D9A42C4BF931F5B1AB4F88811CCBFD2
:1080B0009BB21346994256D0A4F88831A4F88A316D
:1080C000A4F88E21CDE694F8D530002B3CD0013BAE
:1080D00084F8D53004F1E008404611F08BF900280F
:1080E00055D0404611F086F9002842D00023E385A0
:1080F000C8E6091A6060A3BB51EA0C021ED115B98B
:10810000002F3FF45BAF00263146334642E79DF82F
:10811000271020460FF0FEFE50E7082120460FF002
:10812000F9FE4BE70DF00CF984423FF447AF00DE57
:1081300044E73E2120460FF0EDFE3FE71E4629E7CB
:108140000123A4F88E31D5E60AAA0BA92846FFF729
:1081500097FBDDE90A231343BCD0237884F8D5309C
:10816000B8E7002616E7B4F88E1100297FF479AE3F
:10817000A4E70246D4E91E010BF032F80028B5D17D
:1081800094F83C301B0744BF238DE3857AE6FF203B
:108190000FF082FEA5E700BF8D49FD1A0700000021
:1081A00000CA9A3B8C49FD1A0177030000000000C9
:1081B0002DE9F04F87B0B0F86071BDF84C90009198
:1081C000CDE90423B0F82431BDF840A01F44BFB26C
:1081D0000446A7EB090390F87600D4F81C819EB200
:1081E000BDF844300193C0F3C001BDF84830039698
:1081F00000F00700029315F0D3FBE58C052D40F24B
:10820000A38015FB06F5ADB240F2E24BBAF1050FC3
:1082100040F28E80B4F86E20B4F86C30134403F250
:10822000D5130344764A77480721E3FB02014FF058
:108230009613E361962323846FA3D3E90023FEF70B
:108240005FFF564620F07F4040F2E2430BFB05F211
:1082500003FB06F6531E3344B3FBF6F31FFA83FB0E
:1082600060600BFB06F082425D4653D26449801A7F
:10827000A0FB010160A3D3E90023FEF741FF20F03A
:108280007F408044B4F82421B4F86031A9EB070999
:108290004D44ADB213442B44A4F86031638D1344B4
:1082A0001D4494F837306585DB0955D100DE002781
:1082B0003546019B2385029BA4F892313146204626
:1082C000A4F826A011F09CFA4F4B218D3344881D51
:1082D000B3FBF6F39AB29042A4F88C2104D2C1F514
:1082E0007F41FA310A4492B2009BA4F8882113B16D
:1082F0000023A4F8943143462A4639462046FFF726
:1083000017FD94F8623143F0010384F8623107B03D
:10831000BDE8F08F121A3A48A2FB000136A3D3E958
:108320000023FEF7EDFE20F07F40A8EB0008A9E750
:108330004FF096130AF10106E36196232384B6B247
:108340000A204FF4FA7381E7039B013515FB03F50F
:10835000ADB24FF4FA7B59E7216CA36C284F01FBB7
:108360000233039A01FB1233A3640023C4F8DC3008
:1083700015F0EAFC054694F8D400C0F3420015F06D
:10838000E5FC054406FB05F5204B1E4805F5742564
:1083900005F23F25A3FB0535AD0CA36C25640BFB53
:1083A00005FB72085B44963A934228BF1346C4E922
:1083B0001123049B40F2E24909FB03F307212365E3
:1083C000EBFB07010CA3D3E90023FEF799FE104B4A
:1083D000059AA8EB0008A3FB0230800A09FB00F015
:1083E000A0FB070104A3D3E90023FEF789FE751B58
:1083F00020F07F475DE700BF8D49FD1A07000000B0
:1084000000CA9A3B8C49FD1A7FC3C90183DE1B4316
:108410005917B7D1000000002DE9F04F0D4616683E
:1084200095F8118009681446027FD1F8009093B046
:108430008346C2F38012D0F81E008DF83720B8F1C1
:10844000FF0FBBF822201090ADF8442057D110AB9D
:1084500093E803000E90ADF83C105A46BBF82E107E
:1084600052F82EAB9278A2722181DBF82A2062604A
:10847000DBF83A20C4F8222004F122009BF83E20C9
:10848000027105210BF036F894F8272000F03F0028
:1084900060F3050284F827209BF83F20C2F3040113
:1084A00084F82810BBF83410E182012802F01F0282
:1084B00089B20AD91B3202F01F020B2A05D80639ED
:1084C00089B240F67A42914225D90021C9F80810B4
:1084D00094F82C2061F3000284F82C20DBF80C4087
:1084E0000125504659468BF804500CF081FE206857
:1084F000257121460CF088FE13B0BDE8F08F0EAA5E
:108500000DF13701404614F0A3F89DF837200232F0
:108510008DF83720A1E72A6800215160BBF836208A
:10852000E78A228340F2E24303FB07F73046BBF8B9
:1085300032300B9311F078F99BF83F2096F8D41065
:10854000520962F3430186F8D41015F0FDFB0A903E
:1085500096F8D400C0F3420015F0F8FB0A9A1044D4
:1085600007FB00F0AE4A00F5742000F23F20A2FBAA
:1085700000207A08800C963A206362639BF83120D1
:1085800040F2E24303FB02F26264BBF83820A6F833
:1085900092213946304611F033F9A24AA249C6F871
:1085A00098113A44B2FBF7F290B2A6F88C01218BF5
:1085B00001F1060C604504DDC1F57F41FA3101444B
:1085C00088B25A46A6F8880112F81C3FC3F340133C
:1085D000D2070A9300F115814FF48072ABF81C208A
:1085E00099F81A0014F060FD002800F0EA80DBF82A
:1085F0002420CBF82B20BBF82820ABF82F20B8F193
:10860000FF0F00F0F880BDF844201098ABF8292047
:10861000CBF825009DF837208BF81E200E98BDF86A
:108620003C20CBF81F00ABF82320E28AABF83220C5
:10863000228BABF83420B6F89221ABF8362096F8AE
:10864000D420C2F342028BF8382030460FF0E6F80F
:10865000A082ABF80600D5F80480504659460CF0CD
:10866000C7FD1C23A28A88F804300A9BD8F800A012
:10867000A8F80620002B40F0B180DDF828B088F87B
:108680001CB0414650460CF0BFFD94F86700B4F8AA
:108690005CA0B4F85E80012100F0070015F082F9BB
:1086A000D04408F2D51808EB00038246DFF87C813D
:1086B0005F480721E3FB08014FF09613C4E9033339
:1086C00055A3D3E90023FEF71BFD20F07F40706027
:1086D000EB680B98226B40F2E24101FB003404F29C
:1086E000B3440221A41A0120BF1A00220AF0B4FDEB
:1086F00048460EF023FEA4EB0A0447A3D3E9002367
:108700008246A4FB0801FEF7FBFCCDF80490AB68A1
:108710004849009120F07F480AF10202363BD2B26C
:108720004344012100200CF043F801286BD099F854
:108730001830DB074AD430460FF070F83B4CA7FBEB
:10874000044935A3D3E90023834649462046FEF772
:10875000D7FCAB68384A0792A3F1360A374B069626
:1087600020F07F47A7FB0331E01A354B05934FF408
:10877000F8730893736804934FF0070303FB071122
:1087800069EB010100244FF47A7200230394FEF791
:10879000B7FC0BF10305EDB2CDE90170CDF8008017
:1087A00053462A46012120460BF042FF10F0FD0FF0
:1087B0002FD10122022110460AF04EFD13B0BDE870
:1087C000F08FCBF82B00ABF82F0018E70023012225
:1087D0000093184611460BF0B5FFACE794F827302C
:1087E00043F0400384F82730201D13F01DFD4FF0A7
:1087F000010B208543E70021CBF82510ABF82910A9
:1088000008E700DEE8E60CF09BFD81458FD000DE36
:108810008DE700DECDE700BF8D49FD1A070000009F
:1088200083DE1B437FC3C901404B4C0000CA9A3B07
:108830008C49FD1AD5C0030025C003008D49FD1ADF
:108840004DC00300000000002DE9F04F8DB0484EF0
:10885000484D82460BF0E4FFF16807460BF0E2FF5B
:108860007168F76040A3D3E900230446A1FB05012A
:10887000FEF746FC20F07F439C4257D30DF12F01B9
:108880000DF12E000CF01EFDDFF8E8803568A5FB29
:10889000085935A3D3E9002328464946FEF730FCA2
:1088A000CDF818A004467068334B0593A0FB08016F
:1088B0002DA3D3E900234FF00008CDE90788FEF788
:1088C0001FFC2E4BCDF80C8024F07F44A4FB033119
:1088D00020F07F40072202FB04110490E81A69EBA4
:1088E00001014FF47A720023FEF70AFC9DF82FB0C5
:1088F0009DF82EA0CDF80080CDE901403B465A46B8
:10890000504603210BF094FE10F0FD0404D06FF0EC
:108910008B000DB0BDE8F08F19481A4A002321F0F2
:1089200067FA90B930690DB0BDE8F08F30680EA3DA
:10893000D3E90023A0FB0501FEF7E2FB20F07F4115
:1089400038460BF06FFF074698E79DF82F209DF8FB
:108950002E000094234603210BF0F4FE6FF0730009
:10896000D7E700BFAFF300808D49FD1A0700000074
:10897000101D002000CA9A3BE9D203008D49FD1A60
:10898000EC4E0020447B0B0038B50F4D04460BF035
:1089900047FFA9680BF046FF696803460B48B3FB25
:1089A000F4F4A1FB00011C4405A3D3E90023FEF766
:1089B000A7FB20F07F40844294BF0020012038BDF7
:1089C0008D49FD1A07000000101D002000CA9A3BC7
:1089D000F0B5C468636883B00546002B54D116F027
:1089E0008DFA002016F0AEFA0021084616F09CFA27
:1089F00000222521082016F003FB414B019301A81A
:108A000016F0EAFA3F4940F25B6016F09BFB237ACE
:108A1000C3F3420262F306132372204615F024FBCF
:108A200014F0CAFB637A03F0030348BBFBB9276861
:108A30002E68384614F06EFF06446A6806F1090194
:108A4000012016F0C7FC16F087FD20460EF082FCD0
:108A5000811C3246C9B2384614F05EFF054600BBA1
:108A6000204614F033FFD0B9002003B0F0BD012040
:108A700014F086F84178821C007816F04BFCD6E79B
:108A8000181E18BF0120F3E793F82C309B07A6D0DF
:108A90001D48214616F006FA16F0FEFAE4E700DE5D
:108AA000E2E71A4A1A491B4840F2114325F036F80A
:108AB000194B0721A5FB030301FB05310EA3D3E9E5
:108AC0000023FEF71DFB15490246154825F026F840
:108AD000002585F31188BFF36F8F0323184602DF4B
:108AE0001048214616F0DEF916F0D6FA6FF08B002A
:108AF000BBE700BFAFF3008000CA9A3B0000000054
:108B0000D6BE898E555555005DDA0300FCBB0500C5
:108B100048BC0500C4BB05008D49FD1A90BD050089
:108B20004CBC050059DD03002DE9F043C468A28A5E
:108B30004FF6FF739A4283B000F0FD80064615F0B1
:108B400047FD3389628B208C94F82710A3831A4445
:108B500092B2104480B2431C23840023638301F04B
:108B60003F034906E28300F1A48094F828100093A3
:108B700004F1290004F1220313F018FB0546D4E99F
:108B80000C31A26BA08BA36303FB0022E36B8A4230
:108B900094BF9B185B188B4228BF0B46626CE36343
:108BA000236C94F867101A4494F82C3061F3061380
:108BB0000021C4E9101294F87E2084F82C3012F0C1
:108BC000040200F0898016F099F9002016F0BAF935
:108BD000201D16F001FA2389A17A40F25B6043EA76
:108BE000014116F0AFFA284614F0A6FE2146584877
:108BF00016F058F9A08916F0E1FB94F8662094F875
:108C00006700C2F3C003002102F0070200F0070072
:108C100016F0FEFA204615F075FDD4F8008037688E
:108C2000404614F077FE0744726807F109010020FE
:108C300016F0D0FB814616F063FC002016F07AFC9B
:108C4000E36B94F8670003F12F02636C012100F0DD
:108C5000070003EB420516F011FA4D44054494F861
:108C6000670000F00700022834D004280CBF4FF43E
:108C7000BC73282301211D4416F002FA284416F083
:108C800031FCA18A03313A46C9B2404614F044FE91
:108C90000546A8B1B37A13F002062BD000252D4863
:108CA000214616F0FFF816F0F7F9284603B0BDE8A4
:108CB000F083218D04F1220213F0BAFA05465EE733
:108CC000204614F003FE00283CD10025284603B0BE
:108CD000BDE8F0831823CDE7D4E91A010AF080FA41
:108CE00000287FF470AF94F87E3043F0040384F8DA
:108CF0007E3068E7184A194919484FF4AC7324F0DC
:108D00000DFF18480721A5FB000301FB05310EA349
:108D1000D3E90023FEF7F4F913490246134824F07F
:108D2000FDFE86F31188BFF36F8F0323184602DF21
:108D30006FF08B05B3E70E48214616F0B3F816F036
:108D4000ABF9C2E700DEC0E700CA9A3B00000000B2
:108D500029E9030039DA030078BC050048BC0500A6
:108D6000C4BB05008D49FD1A9CBD05004CBC050027
:108D70005DDA0300034B04480A461978013124F0F8
:108D8000C0BE00BFA47D002002CB0500024B0348FB
:108D90001978013124F0B5BEA47D00202BCB05004D
:108DA00030B5164D164C89B005F0DEFE14220021B8
:108DB00003A831F0E0FE29781248635C8DF80C308E
:108DC0000722A023CDE90423F0230F4A06930023B2
:108DD00052F82120009350F8211003A805F0F2FC6E
:108DE000014638B929780948625C013124F089FECE
:108DF00009B030BD064824F084FEF9E7A47D0020C8
:108E0000200B002004B50500F8B4050053CB050085
:108E10008ECB050008B5094909480B7803220133B8
:108E2000B3FBF2F202EB42029B1A01220B7001F03B
:108E3000C3FCBDE80840FFF7B3BF00BFA47D00201E
:108E4000B1CB050070B51449064614461D46FEF721
:108E500071F928B9114901222846A047002070BDA8
:108E60000F493046FEF766F910B90E490322F3E7C1
:108E70000D493046FEF75EF910B90C491822EBE7B0
:108E80000B493046FEF756F918B90A494FF4997262
:108E9000E2E76FF00100E2E7B5CB0500A47D00201A
:108EA000C5CD0500200B0020CDD00500230B0020F0
:108EB000D8D00500C00900201FB507240294044C37
:108EC0000194BDF81840009429F057F904B010BD82
:108ED000A78B060038B530F0E3F94FF47A72A0FBA7
:108EE000020302FB01310C4AC30BD2E9004043EA02
:108EF00041431C1B4FEAD13140F2E93561EB0000E0
:108F0000AC4270F1000006DBC2E900310348BDE865
:108F1000384021F043B938BDB81200208C0300203E
:108F200008B50A4824F0EDFD05F01EFE084B186850
:108F300038B1084B01221A70BDE80840132127F010
:108F400082BFBDE80840044821F028B9B8CB05002D
:108F500070230020A37D00207C03002038B50C4D39
:108F60002B6883420C4603D106F050F900232B6096
:108F70000848214624F0C5FD074B1A7832B100227B
:108F800006481A70BDE8384021F008B90448F9E7EE
:108F900070230020E9CB0500A37D00207C03002086
:108FA0005C03002008B559B927F031FF054B186064
:108FB000054B06481978BDE80840013124F0A1BDF1
:108FC00008BD00BF70230020A47D002009CC05004F
:108FD000F0B403460A461979DB88006813430A4A4D
:108FE0000669876834689A4308BF83F440230125E3
:108FF0008D4023F48012DB074CBF2C43AC4334601C
:109000003B68F0BC184700BF0100100010B51548C0
:1090100024F077FD05F0A8FD134B186810B113215B
:1090200027F011FF114C124824F06BFD204624F06C
:10903000F7FA60B1A3689B684BB14FF400424FF45C
:109040006C212046984710B90A4824F05AFD0A4876
:1090500024F057FD4FF40040002124F042FB012092
:1090600001F036F824CC050070230020ECAF050099
:1090700064CC0500A1CC0500D3CC0500F7B5204891
:1090800024F0CEFA38B91F4824F03BFD1E4B1F4A8E
:109090001A6003B0F0BD1A4D1B4FAE68002418488B
:1090A000F3684C219847002807DA194B3B604FF4CE
:1090B0000040002124F015FBF1E72F2133696A46B7
:1090C00028469847C0B9009BB3B11C443C2194FB8F
:1090D000F1F383B10F4802681A4402608C420E4AD1
:1090E000B4BF4FF0FF30012010600C48026801321D
:1090F000026001FB13443C604FF42470D9E700BFC9
:1091000040B00500FDCC0500A423002019FCFFFFA2
:1091100088FCFFFFA02300209C2300209823002030
:109120002DE9F047ADF5567D11220221012016F000
:10913000C7FC061EC0F2B4800121039104230093F2
:10914000062203AB16F00AFE574B0020CDE905308E
:10915000082205A9304616F013FD0028C0F2A080B1
:10916000DFF84891DFF84881524F04AB08221A60BB
:10917000019356AD07AB00934FF4007200232946CC
:10918000304616F0B5FD002805DA4FF48040002186
:1091900024F0A7FAE9E7484B1B78002BE5D0EF282D
:1091A000E3DD2B78012BE0D1F02271E0352902F1CB
:1091B000010366D1911C814264DAEC5C002C61D021
:1091C00015F801A00AF0FD03012BCED10BAC4FF432
:1091D00096720021204631F0CEFC4FF4817323803B
:1091E0000623A3706B6863605DAB0FCB12AD85E89F
:1091F0000F00BAF1010F40F23513A4F8F03014BF9C
:109200000523022384F8F230362384F8F3302B4A06
:109210002B4BC4F8EC70C4E93D232A4A332384F86D
:10922000FF300423116884F8003145F20113A4F8DB
:109230000231CDF833114FF478635168A4F804314A
:109240001289CDF837110A231F4984F806314FF6E9
:10925000FF70ADF83B2109AB4FF0FF32C4E9049831
:10926000A4F8FC0084F81101C3E900120822CDE93A
:109270000032214600234FF48972304616F002FD79
:1092800073E721B1984208DDEB5C023313441A46C0
:10929000824202DAA95CFF2988D14FF0000A91E7E7
:1092A0000DF5567DBDE8F08701000043C0A804021B
:1092B000C0A8040163825363A27D002004C0A804F7
:1092C000010104FF1CCD05000100004438B52FF05A
:1092D000E7FF4FF47A72A0FB020302FB01310D4A53
:1092E000C30BD2E9004043EA41431C1B4FEAD13192
:1092F00040F2E93561EB0000AC4270F1000007DBA1
:10930000C2E900310448BDE83840012130F08DB990
:1093100038BD00BFA8120020F80D002038B52FF08E
:10932000BFFF4FF47A72A0FB020302FB01310C4A2B
:10933000C30BD2E9004043EA41431C1B4FEAD13141
:1093400040F2DD5561EB0000AC4270F1000006DB3D
:10935000C2E900310348BDE8384020F01FBF38BDE6
:10936000B01200206C0300202DE9F04781EAE1747F
:10937000A4EBE1740A236425002107465B48B4FB93
:10938000F3F6B4FBF5F903FB164605FB1945B5FBEF
:10939000F3FA24F06FF95648002124F06BF9554890
:1093A000002124F067F94FF00008B8454CDB4FF47A
:1093B0008030002124F095F94FF00008C84558D1BD
:1093C0004FF40040002124F08CF9092D66DD4FF0A8
:1093D00000084748012124F04DF943F234300021C0
:1093E00024F07FF94248002124F044F908F10108F3
:1093F00043F23430002124F074F9C245E9DC4FF423
:109400000040002124F06DF9002E5CD04FF00008E0
:109410003848012124F02EF943F23430002124F0A1
:1094200060F93448002124F025F908F1010843F2DD
:109430003430002124F055F94645E9D14FF400308D
:10944000002124F04EF9AEE72848012124F012F95A
:1094500042F26760002124F044F92448002124F0FE
:1094600009F942F26760002124F03BF908F1010894
:109470009BE71E48012124F0FDF843F2343000211F
:1094800024F02FF91948002124F0F4F843F2343085
:10949000002124F026F908F101088FE7632CAEDDE6
:1094A0001348012124F0E6F840F6CD40002124F0D5
:1094B00018F90F48002124F0DDF843F23430002180
:1094C00024F00FF99BE70B48012124F0D3F840F674
:1094D000CD40002124F005F93146064824F0CAF8B1
:1094E00043F23430002124F0FCF8A7E738B6050039
:1094F00030B6050028B605002DE9F04F0021ADF586
:10950000097D4FF4C03024F0ECF8A54824F0F9FAB6
:10951000A44824F0F6FAA44824F0F3FAA34824F06F
:109520007FF820B1A2484FF4B011FFF751FD9F48DA
:1095300024F076F820B19F484FF4B011FFF748FDB2
:109540009A4824F06DF820B19B484FF4B011FFF712
:109550003FFD964824F064F880B14FF4803197487D
:10956000FFF736FD954824F099F8954A954B5360DE
:109570008E4810231146936024F076F8924824F028
:109580004FF888B14FF480319048FFF721FD8F48A4
:1095900024F084F88E4A8F4B53608B484FF400635D
:1095A0001146936024F060F8874824F039F888B1B8
:1095B0004FF480318848FFF70BFD874824F06EF8A0
:1095C000864A874B536080484FF48053114693601E
:1095D00024F04AF88348844F06F0CEFA13AC0020FA
:1095E00028AD04F0CBFA25F01EF9214603232846C6
:1095F000139304F093FE1399032916AE18AC05D10A
:109600007A78FF2A02D0BB78FF2B5AD1774824F012
:1096100078FA012004F0F4FE022004F0F1FE95E84F
:109620000300ADF85410090C0DF1500914908DF899
:10963000561099E803003060ADF85C10C0F30720C5
:10964000C1F307414FF00108013061F03F01707034
:10965000B17186F800800021304604F071FE0028C8
:10966000B8BF4046787099E803002060ADF86410F8
:10967000C0F30720C1F30741023061F03F01607081
:10968000A17184F800800021204604F059FE0028D2
:10969000B8BF02205449B8700322554801F08CF835
:1096A000BB787A783978534824F02BFAFFF778FBA7
:1096B0005149524825F078FC014628B10120FFF7B6
:1096C00053FE39784E48EFE74E494C4825F06CFC84
:1096D00001460028F2D14C49484825F065FC014676
:1096E0000028EBD14949454825F05EFC0146002899
:1096F000E4D1474A414825F03EFF024610B10146F9
:109700000320DCE743493D48012326F00EF80146DB
:1097100008B10420D3E74049384826F0FDF9014656
:1097200008B10520CBE7354825F053FB014608B1C9
:109730000620C4E718F06AFB074610B9012108208B
:10974000BDE74FF08052D2F8A430D2F8A81069706B
:109750000A0A62F03F022A701A0EAA701A0C5BBA4B
:10976000EA70AB8018F0E6FE30232C4900933A46AD
:109770002B46012017F016FE011E01DA0A209EE793
:1097800027493246012019F01DF8002303223146F3
:10979000384618F049FC002844D1012109208EE701
:1097A00027CD050052CD050028CD050044AF0500AA
:1097B00038B6050030B6050028B6050020B605000D
:1097C0008C230020D58E020028AF050018B60500B6
:1097D000802300201D93020010B605007423002092
:1097E000CD92020034030020200B00207ECD050026
:1097F000C1CD0500C9CD0500F002002000110020F8
:1098000005CE0500D8020020C0020020A8020020DA
:10981000080300204FCE05001FD604000000905022
:1098200059CE0500BE492246012018F0CBFF224642
:10983000314638462AF0D3FB01210622084616F0AD
:109840003FF9031E0D93C0F2D9834FF00109C6F80A
:1098500000900423009302223346494616F07EFA14
:109860004FF00008AF4BCDF86480236008220D98BC
:10987000214616F085F90A210D9816F0ADF901225E
:109880000023CDE92823C5F8088010231422009373
:1098900049462B460D98A44C16F060FA4146A34861
:1098A00084F8008023F0E6FE4146A14823F0E2FE62
:1098B000A04824F026F9A04824F023F94FF0FF3304
:1098C0004FF0FF32CDE90023494642469B482FF036
:1098D000B7FE9A4841462FF0ABFE994824F011F9A3
:1098E000984824F00EF9964824F00BF9964825F094
:1098F000A0FA384618F0E2FD8C48494623F0BAFE3B
:109900000021384623F0A5FE002840D00821384623
:1099100023F09FFE1090002839D08448002123F0C6
:10992000A9FE83480121217023F0A4FE874824F07A
:10993000E8F8082314930D9814AA314616F076F926
:10994000044600220023CDE900237C4801212FF0AA
:1099500077FE074608B3794800212FF069FE002CF6
:1099600002DB204629F066FB794824F0CAF8002182
:109970004FF4004023F0B5FE734825F09DFA40F601
:10998000CD40002123F0ADFE002000F0A1FB40F609
:10999000CD40002123F0A5FEB2E7002CC9DB6348CF
:1099A000012123F067FE6B484FF40062394631F025
:1099B000E2F8B8464FF4FA7966494FF0000AC7F565
:1099C000FF62CDE900AA402307323944204616F051
:1099D0008FF9002839DD5F4980445E4801F808A00E
:1099E0005D4931F034F9002840D05C49594831F0E4
:1099F0002EF9002840D05A4B1F683846FDF7ACFBC3
:109A000039460246204623F078FEDDF840800121E9
:109A1000204616F087F864274FF000094023CDE96F
:109A200000991A462946204616F062F9002840F0AF
:109A3000DB82204629F0FEFA3C48002123F01AFE82
:109A4000B8F1000F3FF475AF8EE709D0A4200021D4
:109A5000A9F1050923F045FEB9F1000F4746ABDC3B
:109A6000B8F1000FC1D14FF00008D0E740F2FE730B
:109A7000984547469EDDB8E73A49364831F0E7F861
:109A8000074670B101212A4823F0F4FD344B1F68CA
:109A90003846FDF761FB39460246204623F02DFE8D
:109AA000E1E731492B4831F0D2F808B13946EAE70D
:109AB0002E49284831F0CBF810B12D492D22ECE782
:109AC0002C49244831F0C3F888B12B4B0193A3F102
:109AD00008020092103B294A4FF48071284623F077
:109AE00059F82846FDF738FB29460246D5E72449B0
:109AF0001848152231F064F800284AD1154B5B7DD7
:109B0000303B022B40D8662253431E4A03F14401E6
:109B10001144019103F12201114400911344DAE749
:109B200065CE050001000050A27D002028B605008A
:109B300030B6050073CE0500A4CE0500F80D002058
:109B400028CD0500F1CE05000011002043CF05000F
:109B5000ADD20500A275002052D305008FCF0500BD
:109B6000A002002099CF0500A5CF0500B2CF0500C7
:109B7000C3CF0500F1CF0500330B002003D0050053
:109B80005AD00500C00900208D4928A8FDF7DCFA4D
:109B9000A7E78C498C48102231F012F88346002840
:109BA00040F0C8808949884831F051F807460028BC
:109BB0003FF46CAF8649844831F049F800283FF4FF
:109BC00065AFFB78303B022B0E933FF65FAFC37857
:109BD0000F93303B022B3FF659AF7E497A4831F064
:109BE00036F87D498146784831F031F80746B9F1B9
:109BF000000F20D00023CDE9283309F106090DF12B
:109C0000A00A984619F80320202A04D0262A02D058
:109C1000B8F1070F44D128AB4FF000090E9A03F8B2
:109C200008906E4B03EBC20328A90822184630F0B7
:109C3000D9FF80F807903FB30023CDE928330637DA
:109C40000DF1A00998464FF0200A17F80830202B94
:109C500004D0262B02D0BBF1070F47D10F9B0E99E2
:109C6000A3F1300228AB002703F80B706623594399
:109C70000B46222101FB0233594A134428A908222A
:109C8000184630F0AFFFC77154495648182200F00B
:109C900093FD534954484FF4997200F08DFDF5E659
:109CA000252A08F1010803F1010115D109EB010092
:109CB00019F80110C1B109EB03018978A1B118AA03
:109CC0004A49119322F090FF119B189A8AF80020BC
:109CD00003330AF1010A95E72B2A05D10B464FF011
:109CE00020028AF80020F4E70133FAE7252B0BF174
:109CF000010B08F1010212D1B818BA5CAAB107EB46
:109D0000080292788AB1394918AA22F06DFF189B8F
:109D100089F8003008F1030809F1010995E72B2BB8
:109D200003D1904689F800A0F6E708F1010889F808
:109D30000030F1E72E4924480E2230F041FF002880
:109D40005CD12249204830F082FF214907461E4855
:109D500030F07DFF002F31D000282FD0FB78303B32
:109D6000022B2BD8C278303AD1B2022926D86621EC
:109D70004B43222101FB0233194A1A4428A8118CB3
:109D800013890B91D18B0A91918B0991518B089179
:109D9000118B0791D18A0691918A0591518A04917C
:109DA000118A0391D189029191890191528900927E
:109DB0004FF4C0710F4A22F0EDFE92E60E49E4E640
:109DC00070D00500A2D00500A27500206CD005005F
:109DD000B3D00500B7D00500BED00500230B00208E
:109DE000C0090020C9D00500D4D00500C5D00500A9
:109DF000E1D00500F0D005009FD1050082498348DD
:109E0000102230F0DDFE8046002840F0A08080491E
:109E10007E4830F01CFF074600283FF437AE7D49EE
:109E20007A4830F014FF824600283FF42FAE7A497A
:109E3000764830F00CFF814600283FF427AE774982
:109E4000724830F004FF00283FF420AE0A220021BF
:109E50000530FF789AF803A00DF1A00B22F058FF0F
:109E60000023CBE90033303F09F102095A4619F8C3
:109E7000013F262B04D0202B02D0B8F1070F23D1AD
:109E80000023022F0BF808303FF600AEAAF1300A8B
:109E90005FFA8AF3022B3FF6F9AD9BF80030A3F18D
:109EA0003102082A1FFA80F813D89BF8012082B9E2
:109EB0000AEB0A1A332202FB07AA9A44AAF12D0AD6
:109EC000574B23F81A80E4E602F8013B08F1010839
:109ED000CDE754495846FDF72DF948B966232222AB
:109EE0007B4302FB0A334E4A1344A3F81A80D0E6A0
:109EF0004D495846FDF71EF948B9662322227B4397
:109F000002FB0A33464A1344A3F81C80C1E64749C2
:109F10005846FDF70FF948B9662322227B4302FB1E
:109F20000A333F4A1344A3F81E80B2E6404958461C
:109F3000FDF700F900287FF4ACAE66235F432223CF
:109F400003FB0A77364B3B44A3F82080A1E639494E
:109F50002E4830F07CFED0B1374B384A384939486A
:109F60001B68126809680068009218AFCDE90110FB
:109F7000354A4021384622F00DFE344A0097034608
:109F8000C02128A822F006FE28A9024685E530490E
:109F90001E4830F05CFE30B92E491C4830F057FEA8
:109FA00000283FF48AAD2C4BDFF8B0A01F6838467C
:109FB000FDF7D2F839460246204623F09EFB0027E3
:109FC0004BF202094BF20108A9EB07020AEB070169
:109FD000204623F092FB00287FF745AD0744474514
:109FE000F2DD40E5642719E5FCDAA4200021053FF5
:109FF00023F077FB002F7FF71CAD0FE54FF0FF300C
:10A000000DF5097DBDE8F08FD1D10500A2750020C6
:10A010006CD00500B3D00500E2D10500E6D1050003
:10A02000C0090020ECD10500F2D10500F8D10500EF
:10A03000FCD1050000D205009C230020A4230020B1
:10A04000A02300209823002011D2050039D205005A
:10A0500096D205009DD20500A40200207CDB0500FD
:10A06000014B1B68184700BF9C03002030B5044615
:10A0700085B00D4610220021684630F07CFD022399
:10A080008DF802302A46044B01932146684622F09F
:10A09000A5FE05B030BD00BF61A0020080B5054639
:10A0A0000E461746984620F079FC034601F05CF90D
:10A0B000DFF81890044649F80030424630463946E9
:10A0C000A84754F8090001F0E9F800BF08000000B3
:10A0D00008B50446EFF31183202383F31288BFF3FE
:10A0E0006F8F1EF0CDFA204601F018FD024823F0D4
:10A0F00008FD24F0F4FCFCE713D405002DE9F0473B
:10A10000058B0446280717460CD501290CBF45F0DE
:10A11000100545F02005258387F31188BFF36F8F65
:10A12000BDE8F087022905F0070540F0948020463D
:10A1300023F08DFD052864D801A353F820F000BF5B
:10A1400019A1020057A2020003A20200C5A1020049
:10A15000DFA10200F1A1020001F007035A1F012A4A
:10A160001FD8002221F00701062BD4F8008089B205
:10A17000C4E9002209D1434603E0628B01326283C5
:10A180001B68002BF9D141F002012183204623F006
:10A190005EFD4FF0000900286DD041F020012183C1
:10A1A00069E0042B0AD121F0070189B221832046FE
:10A1B00023F04DFD10B141F0200121834FF0000844
:10A1C000C14658E02369D3F80090238B23F007039E
:10A1D00043F0060323834FF0000846464BE0236913
:10A1E000D3F80490238B23F0070343F00403F1E733
:10A1F0002369D3F80890238B23F0070343F005036A
:10A20000E8E74FF00008C146E7E7012243F0080302
:10A21000238387F31188BFF36F8F002A3BD1B8F1F6
:10A22000000F4AD1B9F1000F02D02D492046C8478E
:10A23000EFF31187202383F31288BFF36F8F238BF3
:10A2400023F008039BB22383D9063FD523F01002E5
:10A25000228303F007056669218B002EBFF67CAFD1
:10A260000023D4F8008021F00701C4E9003341F055
:10A27000010121839946238B03F0070AAA4502D0E6
:10A28000A268002AC1D1B8F1000F02D1B9F1000FC4
:10A29000DAD00022BAE7A1680029C0D00D680029F1
:10A2A000BDD04F68334652462046B8471DB12B6893
:10A2B00029461D46F3E72B46FAE741463346524608
:10A2C0002046D8F8008023F0EEFCA8E79A067FF538
:10A2D00023AF23F02002228303F0070527E700BF06
:10A2E000D3DC040037B504460821C06A124D23F0C0
:10A2F000D5FE00234FF6FF72ADF804306368ADF869
:10A3000000208DF80620E26819182B401344181A13
:10A3100060606846ADF8021023F018FE69462046DA
:10A3200023F0DBFE211D204623F0EAFD63682B406D
:10A33000A36003B030BD00BF0000FFFF2DE9F7436D
:10A340000F4681460821C06A144D23F0A7FE3C68E1
:10A35000241A80463C6004EA0506B4421CD3A0B22D
:10A3600010B903B0BDE8F08308236A462146484689
:10A3700023F08DFD0028F4D16946A0B223F07AFEC7
:10A3800038B1BDF80230BDF804203C602E401344C3
:10A390001E44A4EB0804E0E70020E2E70000FFFF12
:10A3A0002DE9F047044688B000F1140738462EF036
:10A3B00084FBA06A8368DB689847E06228B96FF085
:10A3C0001505284608B0BDE8F087A06A8368DB68F9
:10A3D00098470368013B1F2BF1D8E368B3F5803F32
:10A3E000EDD8A06A216805AA2DF077F90028E6D1FA
:10A3F000E568002DE3D0069BB5FBF3F203FB125595
:10A40000002DDCD1238A012BD9D9E36A009593F87A
:10A4100005804FF0FF334FF0FF3238461FF0BAFB94
:10A42000E06A082123F03AFEA9460646238A1FFA6D
:10A4300085FA534544D8238A4B4500F0FF809A455E
:10A440000BD1009908234246891B204623F02DFD9D
:10A4500018B96946204623F053FD69462046FFF7A8
:10A460006DFF0546002840F0EB80009961604FEADF
:10A4700011494FEA0949C4F80890A3688B420DD8E6
:10A48000082301AA204623F002FDB8B901AB13F856
:10A49000012B904532D101300828F8D16368694614
:10A4A0006FF30F032046009323F02AFDE368009921
:10A4B0004246204623F0F9FC00283CDA0546BFE07E
:10A4C000E1682B04891B13FA81F1424608232046D8
:10A4D000009123F0EAFC78B16946204623F010FD94
:10A4E00009F1010900990823424620461FFA89F91B
:10A4F00023F0DBFC00289ED0013597E7A08801A956
:10A5000023F0B8FD626810B9911B6160B5E7BDF832
:10A5100008A0BDF80610E06AC4F80890514423F082
:10A52000BDFD48448242A060EED1BAF1000FEBD0ED
:10A530006FF01C0584E05DD063684FF6FF7906EB91
:10A540000308E368CDF800801FFA88F29B1B9A424B
:10A550001CD34FF000086168B8F1000F30D06FF3E2
:10A560000F0100912046694623F0CAFC009920465D
:10A5700023F0D3FC0028A1D1E368A288A3EB460313
:10A580009A425DD1204623F0C5FD97E7082303AA30
:10A590004146204623F07BFC00288FD103A91FFAF7
:10A5A00088F023F067FD30B1BDF80C304B4502D187
:10A5B000BDF810300BB1B044C3E74FF00108CAE753
:10A5C000204623F0AAFC00287FF478AF6368214A74
:10A5D000E16813400B44A3EB460363601340A360A0
:10A5E0004146204623F01AFEC4E7E26AA3681268D7
:10A5F0001344A360D4E901318B4208D95B1A424667
:10A60000204623F052FC0028FFF658AFEDD16168D8
:10A61000E36801EB46029A42AED10E4BA06801EA14
:10A6200003029042A8D0204623F077FC00287FF454
:10A6300045AF6268074B1A40A2609DE76FF02C059A
:10A6400038461FF019FB002D7FF4BBAE0123A37425
:10A65000B7E600BF0000FFFF014B0360002070471A
:10A6600040B6050070B5104B1C680D46B4B10F4BD9
:10A67000196800238B4202DB6FF0010070BD224697
:10A6800012F8106B864202D001331446F2E7E068FC
:10A690002EF016F928B12C600020EFE76FF00C00C7
:10A6A000ECE76FF01200E9E7A003002040B60500D8
:10A6B00010B588B0436802938368C068CDE903325F
:10A6C0000A680023CDE906230C4601AA0449059334
:10A6D0002DF007F8079808B9059B236008B010BD56
:10A6E00015E7040007B51B491B4824F05DFC70BB4F
:10A6F0001A49194824F058FC48BB1949164824F057
:10A7000053FC20BB1749144824F04EFCF8B901460D
:10A71000154A114824F02FFFC8B9024613490E48C4
:10A72000012325F002F890B901230093014602238A
:10A730000948EF2224F024FB48B9074824F049FBDC
:10A7400028B9054803B05DF804EB24F072BB03B0F0
:10A750005DF804FB18040020841000200004002091
:10A76000E8030020D0030020A40300203CD405000F
:10A770001FB507240294044C0194BDF818400094BE
:10A7800027F0FBFC04B010BD560B002010B5DFF81D
:10A7900024C086B04FF42814CDE904C408240294E0
:10A7A00004AC0194BDF82040009427F0E6FC06B00C
:10A7B00010BD00BF180028002DE9F0410C4B1C68AB
:10A7C00005460E4617467CB100F018F9636820462E
:10A7D000D3F8108032463B462946C047044600F075
:10A7E00017F92046BDE8F0816FF00104F9E700BFDA
:10A7F000A823002000230360044B5A6812B9C3E960
:10A800000000704710605860704700BFAC23002004
:10A81000014B1860704700BFA823002030B585B0F9
:10A820000023CDE902330546019000F0E7F8094B1B
:10A830001C6844B9284600F083F8044600F0E8F8A4
:10A84000204605B030BD636820461B6801A99847C3
:10A850002468EEE7AC2300201FB5CDE90101039287
:10A8600000F0CCF8074B1C6824B900F0D1F8204662
:10A8700004B010BD636820461B6801A9984724688E
:10A88000F2E700BFAC230020024B0022C3E9002204
:10A89000704700BFAC230020024B0022C3E9002216
:10A8A000FFF7F2BFB42300202DE9F74307460C461B
:10A8B00009B100230B601F4DDFF87C9000264D4549
:10A8C0000FD31E4B1D6885B355F8188C01AA41465D
:10A8D0003846183D23F0AEFF10B3D6B914BB2E4650
:10A8E0001EE0D5F8008001AA4146384623F0A2FFB9
:10A8F00050B116B954B92E4606E0316800224046E0
:10A9000023F098FF0028F5D11835D8E7019B236084
:10A91000F1E731680022404623F08CFF0028DDD1AA
:10A92000AD69D0E7019B2360D9E7304603B0BDE8AD
:10A93000F08300BFB0B3050058B40500B423002075
:10A940002DE9F047DFF8A890DFF8A8A080464FF087
:10A9500000470026284C3D464C450DD3DAF8004010
:10A96000002C40D0183CB8F1000F24D1226952BB12
:10A97000A469F5E72F46EDE7B8F1000F03D122698E
:10A980004AB91834E8E720680022414623F052FF14
:10A990000028F4D1F5E76368BB4206DDAF4202D080
:10A9A000AB42A8BF2B461D46EBE7EAD19047002EED
:10A9B00008BF0646E5E720680022414623F03AFF3B
:10A9C0000028D3D1D4E76368BB4206DDAF4202D092
:10A9D000AB42A8BF2B461D46CAE7C9D19047002EFF
:10A9E00008BF0646C4E7AF42C4D13046BDE8F08791
:10A9F00058B40500B4230020B0B3050003484FF05D
:10AA0000FF324FF0FF331FF0C5B800BF340D0020F8
:10AA100001481FF031B900BF340D002038B5094D91
:10AA2000FFF7ECFF2B785BB9FFF736FF00F068F813
:10AA3000044608B901232B70FFF7EAFF204638BD12
:10AA40000024F9E7A57D00202DE9F043048F0134AF
:10AA500099B006460F46A4B200F10808651EADB2D3
:10AA6000B5F5004F47D04A2305AA2946404623F0B2
:10AA700049FE04F57F543F34A4B2814621460123A8
:10AA80000DF10B02404623F03DFEB9F1000F0146E7
:10AA900010DC002810DC338FAB4209D132466B1E2C
:10AAA00022F8383F4FF400410223404623F0F5FCE2
:10AAB0002C46D3E7002808DC2946404623F0C9FD90
:10AAC0002146404623F0C5FDE5E709F160030DEBA3
:10AAD0000309002309F84C3C084A009703AB05A87A
:10AAE000CDF80C80ADF8104023F0DAFE0028DFD05E
:10AAF00019B0BDE8F0830020FAE700BF0FE90400B9
:10AB00007FB50123694602200193FFF7ABFD0446A0
:10AB100060BB02AA01A9022023F01EFE044610B168
:10AB200010F10C0F22D10399B1F5803F23D2009A86
:10AB3000002394681846084484421AD30133082B32
:10AB4000F9D10E4D69612B835368AB602846D368F9
:10AB5000EB6323F072FF044640B9094E6E6028464D
:10AB6000FFF748FE28466E60FFF752FE204604B00D
:10AB700070BD9BB2E5E76FF02004F7E7BC2300202F
:10AB80009CB7050008B50348034A0021121A23F0B8
:10AB900089FF08BD98110020847E00200748084ADC
:10ABA000084908B5121A23F07FFF0748074A0849E9
:10ABB000BDE80840121A23F077BF00BF0000002054
:10ABC000941100205C8F060000000020000000208F
:10ABD0005C8F060038B505460C4699B1D1E90123D2
:10ABE0000F48096822F08DFFD4E90423E1680D487D
:10ABF00022F087FFE1690C4822F083FFA1690B482E
:10AC000022F07FFF012D05D1EFF3058108481039AF
:10AC100022F077FF21462846BDE838401EF05ABD95
:10AC200063D4050093D40500C3D40500D3D4050034
:10AC300002D5050030BFFFF7FDBF00BF2DE9F04191
:10AC40000B4EDFF8308006EB0807CC1B054632467A
:10AC5000094920462FF068FFA01942460021083C10
:10AC60002FF089FFEC6707F10800BDE8F08100BF15
:10AC7000000000000800000058B405002DE9F8436A
:10AC8000324D804632488946174622F03AFFAB6A79
:10AC9000DE0622D52F4822F034FF1124AB6A1D07AF
:10ACA00003D52D4822F02DFF1224284DAB6A9807BA
:10ACB00015D52A4822F025FF6E6BAB6A190642D5DE
:10ACC0002748314622F01DFFB9F1000F03D0AB6ACF
:10ACD00023F08003AB62132403E01024DEE76FF05F
:10ACE00015061A4DAB6ADA0703D51E4822F009FF94
:10ACF0001424AB6A9B0603D51B4822F002FF1524DF
:10AD0000124B9A6AD50602D49A6A90070AD55B68F4
:10AD1000190507D54146304600F076FA10B180F3A8
:10AD200009880224094B9A6A920642BF5A6A22F4A1
:10AD300000525A629A6A42F0FF029A6200233B7004
:10AD40002046BDE8F8836FF01506C4E700ED00E08B
:10AD500016D505002DD5050061D5050075D5050072
:10AD60008ED50500A5D50500C5D5050010B51D4C2F
:10AD70001D4822F0C6FEA36A990130D51B4822F077
:10AD8000C0FE1E20A36ADA0103D5194822F0B9FEDD
:10AD90001F20144CA36A1B0303D5164822F0B1FEF2
:10ADA0002120A36A590303D5134822F0AAFE2220CA
:10ADB0000C4CA36A9A0303D5104822F0A2FE23206C
:10ADC000A36ADB0303D50E4822F09BFE2420054A2C
:10ADD000936A6FEA03436FEA1343936210BD1D2029
:10ADE000D0E700BF00ED00E0F5D505000ED6050068
:10ADF00022D605003DD605005CD6050082D60500AA
:10AE00009DD6050070B5244C064624480D4622F018
:10AE100078FEA36AD90435D5214822F072FE1720A6
:10AE2000A36A1A0503D51F4822F06BFE18201A4C9E
:10AE3000A36A9B050FD51C4822F063FEA16BA36A91
:10AE4000180407D5194822F05CFE1EB1A36A23F44A
:10AE50000043A3621920104CA36A590503D5144876
:10AE600022F04FFE1A20A36ADA050DD5114822F010
:10AE700048FE1B20084A936A43F47F4393620023F1
:10AE80002B7070BD1620CBE7A36A9B04F2D50A484D
:10AE900022F037FE1C20EDE700ED00E0C9D60500EA
:10AEA000E0D6050061D50500F2D605000CD70500F7
:10AEB00022D705003ED70500C5D505002DE9F04194
:10AEC0005D4B5F688AB00446C7F30806002585F32A
:10AED0001188BFF36F8F02F07F43B3F17F4F06D12C
:10AEE00002F00C03082B13D1544822F00AFE00256F
:10AEF0002C464FF00008F31E8DF80780092B00F256
:10AF00008C80DFE803F00A80847C8A8A8A8A8A88B7
:10AF100010074CBF0C460125EBE74948464E22F08E
:10AF2000F0FD8DF80780F36A9A0704D5454822F0B2
:10AF3000E8FD00232AE0F36A002B01DA4248F6E735
:10AF4000F36A5B00F5D5414822F0DBFD7369A26925
:10AF500043F480737361BFF34F8FBFF36F8F32F889
:10AF6000023C726922F480727261BFF34F8FBFF3AB
:10AF70006F8F03F47F42B2F55F4F27D1DBB2022B14
:10AF800024D12168324822F0BCFD23689DF80720B7
:10AF9000CAB902AE04F1200720686168324603C2D4
:10AFA0000834BC421646F7D1099A002D41D0C2F3AD
:10AFB000080121B96FEA52226FEA4222099202A9DE
:10AFC0001846FFF707FE0AB0BDE8F0811A4B9A6AEF
:10AFD000D2B232B10DF1070201212046FFF74EFE39
:10AFE0000FE09A6A12F47F4F05D00DF1070101209E
:10AFF000FFF708FF05E09B6AB3F5803F99D3FFF7A1
:10B00000B5FE0346C2E70DF107020021E5E70DF1A9
:10B0100007010020ECE70F4889E70F4B0F49104864
:10B0200017F4F87FA6F1100208BF194622F069FD57
:10B030007FE76FF30802C1E700ED00E085D7050068
:10B04000B1D70500C9D70500EBD70500FAD7050031
:10B050001AD8050037D8050057D705006CD705006A
:10B060005CD80500044B5A6942F010025A615A69D3
:10B0700022F008025A61704700ED00E0EFF308800B
:10B08000EFF3098101B57246FFF718FF01BD00BF5C
:10B090000B4880F308881DF013FB202080F31188F3
:10B0A00008484FF40461401880F30988EFF31480D6
:10B0B0000221084380F31488BFF36F8F00F06CF80F
:10B0C000C0E7002000CE00201EF0040F0CBFEFF3FD
:10B0D0000880EFF30980816911F8021C0229FFD072
:10B0E00001B5724623F0E2FC01BD00BF40B200286A
:10B0F00007DB044A4109012300F01F00834042F8A6
:10B100002130704700E100E040B200280CDB430929
:10B11000064900F01F0020330122824041F823201D
:10B12000BFF34F8FBFF36F8F704700BF00E100E0A8
:10B13000054B420900F01F0053F82220012303FAB7
:10B1400000F01040704700BF00E100E040B200286E
:10B15000A8BF00F1604001F10101B8BF064B4FEA02
:10B160004111ACBF00F5614000F00F00C9B2B4BF9F
:10B17000195480F80013704714ED00E0044B054AA1
:10B1800023F07F039360BFF34F8FBFF36F8F704740
:10B190000070020000ED00E008B5FFF7EFFF0B4A7A
:10B1A000D2F8883023F47003C2F88830EFF31483A8
:10B1B00023F0040383F31488BFF36F8FFFF7E2FCDF
:10B1C000FFF7ECFC00F0B2F81EF04CFB00ED00E0E5
:10B1D00042F8203C009B42F81C3C0A49019B42F883
:10B1E000183C029B42F8143C21F001014FF080739F
:10B1F00042F8043C42F8081C0023203A0265C0F8DB
:10B20000803070479DA00200094A0346906870B1E3
:10B2100013F1160FC06E05D0A0F14002934205D382
:10B22000834203D2814228BF00207047002070472C
:10B23000986E002008B515460B4A0C4B9060C26F03
:10B240001A600E4600F0A2F82C4686F3098800200A
:10B25000034B98472046002100220023014C204741
:10B26000D1EA04009DA00200986E0020FC2300207B
:10B27000014B10221A61704700ED00E0054B5A693E
:10B280009B689A421FBF044A536843F0805353603F
:10B29000704700BF986E002000ED00E0084B9B68EF
:10B2A00083420BD1EFF3058343B1064B5A6842F05A
:10B2B00080525A605A6A22F400425A621FF074BBEC
:10B2C000986E002000ED00E015498A684FF03000CC
:10B2D0001044EFF3098C80E8F01F202080F31288DF
:10B2E000BFF36F8F0F4F4FF000664A698A603E6070
:10B2F000D06F0D4C2060D2F880000023C2F880305F
:10B3000080F3118804B5104600F040F8BDE8044011
:10B3100002F1300090E8F01F8CF3098870470000BC
:10B32000986E002004ED00E0FC2300200448002378
:10B330002021C2180133302B82F80013F9D1704755
:10B3400000E100E008B5EFF30583064A103B02EB8D
:10B35000C30152F8330049688847BDE80840FFF749
:10B360008DBF00BF5CB00500014800687047000059
:10B37000FC230020024B034A0348012100F076B869
:10B380000000042000000020B8B70500C36E054A85
:10B39000403B1360044B4021C2E9011310460121D8
:10B3A00000F06EB80024002000000B15084AC2F817
:10B3B00098000B6823F01F03034343F01003C2F807
:10B3C0009C308B6843F00103C2F8A030704700BF87
:10B3D00000ED00E02DE9F043DFF8608085B00E4617
:10B3E0001F4604464FF00009B14523DA6068D8B122
:10B3F0003FB1411E08421BD11F2819D923681942A9
:10B4000016D12368019323F086FBA36803430393BB
:10B41000D8F89050C5F30725D0B2013DA84207D80F
:10B4200001A9FFF7C3FF421C09F101090C34DBE756
:10B430006FF01502104605B0BDE8F08300ED00E0A6
:10B44000044B0522C3F89420BFF34F8FBFF36F8FD7
:10B45000704700BF00ED00E0BFF35F8F024B00229A
:10B46000C3F89420704700BF00ED00E010B5034C16
:10B4700001232278FFF7AEFF207010BDA67D0020CB
:10B4800008B50B4A00231278FFF7A4FF10F1160F3E
:10B4900007D0084A0021D2F89030C3F3072398421E
:10B4A00000DB08BDC2F89800C2F8A0100130F2E736
:10B4B000A67D002000ED00E02DE9F0435A4B5B4DE6
:10B4C000D3F890302C68C3F307239C4285B000F278
:10B4D000A780FFF7C1FF00200C2684421AD1544EEA
:10B4E000DFF8449134706846FFF7B6F8514C524D7E
:10B4F00080460027B84514D133784B490020D1F855
:10B500009020C2F307229342C0F28480FFF798FF95
:10B51000002045E0696806FB0011FFF747FF013096
:10B52000DBE7009800EB07114FEA071CCB682340CC
:10B53000B3F5000F4DD00AD8B3F5001F33D0B3F5E3
:10B54000800F3BD0B3F5801F13D00137D2E7B3F1A2
:10B55000007F47D0B3F1805F4DD0B3F1807FF4D14D
:10B5600050F80C3088684A6823F0D5FA40F08870AB
:10B5700009E050F80C3088684A6823F0CCFA40F0B3
:10B58000885040F43020CDE901230390D9F8903061
:10B590003078C3F30723013B984234D96FF015008C
:10B5A00005B0BDE8F08350F80C3088684A6823F095
:10B5B000B2FA40F0885040F40020E4E750F80C3034
:10B5C00088684A6823F0A7FA40F0007040F4003021
:10B5D000D9E750F80C3088684A6823F09CFA40F0AC
:10B5E0008270D0E750F80C3088684A6823F093FAEC
:10B5F00040F48020C7E750F80C3088684A6823F090
:10B600008AFA2843BFE701A9FFF7D0FE3378013358
:10B6100033709AE7C1F89830C1F8A00001336EE7A3
:10B620004FF0FF30BCE700BF00ED00E0C4B70500FD
:10B63000A67D00200000F0FF0000021108B50649B9
:10B64000064821F00701C1F1005202F5802222F0E4
:10B6500015FA002008BD00BFFBB501200C24002016
:10B6600003484FF0FF324FF0FF331EF093BA00BF94
:10B670006004002001481EF0FFBA00BF60040020F3
:10B6800038B50546FFF7ECFF08482A46082122F0A6
:10B6900084F9044628B925B1FFF766FE044B0C2255
:10B6A0001A50FFF7E7FF204638BD00BF0C240020EA
:10B6B0000C00000010B50446FFF7D2FF21460348F6
:10B6C00022F0E5F8BDE81040FFF7D4BF0C240020BD
:10B6D00070B5A0FB015434B92846FFF7D1FF0646E8
:10B6E00040B9304670BDFFF73FFE054B0C221A50A3
:10B6F0000026F6E72A4621462FF03DFAF1E700BF83
:10B700000C00000070B54169867A0B4D044659B1B2
:10B71000437ADB0706D42C2303FB06535B6A1B68C2
:10B720009B689847002363612C20214600FB06504C
:10B73000BDE870402DF09BBA240E0020024B2C2255
:10B7400002FB0030704700BF240E0020827A064BB7
:10B750002C2101FB02339A6A1B7F1B33801A23F0D2
:10B760000303B0FBF3F07047240E002038B5074BFD
:10B77000827A2C2404FB02335B6AD3E901240C6037
:10B780001568FFF7E3FF04FB005038BD240E0020CE
:10B790002DE9F04385B005466846039190461C4666
:10B7A0002DF080FDDDE90067EFF31189202383F39D
:10B7B0001288BFF36F8F6B8B002B41D02A8B9A427C
:10B7C00025D90022002328461EF0A6FA0446F0B12F
:10B7D00089F31188BFF36F8F039B002B41D0324652
:10B7E0003B4668462DF083FDA27A264B2C2101FBB7
:10B7F000023320465B6A1B6803A91D68DDE900234C
:10B80000A847606170BB2046FFF77CFF24E0698B8E
:10B810004B1E6B8389F31188BFF36F8F2B7F2A8BAD
:10B82000AC6A1B3323F00303521A02FB0344154B8B
:10B83000154AEB1A9B105343A3722B7FE372CBE79D
:10B8400089F31188BFF36F8F2346424628461EF0C6
:10B8500063FA04460028BFD10024204605B0BDE8A5
:10B86000F0836361012300252381039B6382E27AD5
:10B870006560294604F118002FF07DF9636925827F
:10B88000E360EAE7240E0020A38B2EBA70B50D4CBE
:10B890002C2500B970BD037A4668002BFAD0013B15
:10B8A000DBB20372002BF5D1C3604360837A05FBE2
:10B8B00003431B6A13B198473046EAE7FFF722FFBC
:10B8C000FAE700BF240E0020202800B508D9FFF7B2
:10B8D0004BFD094B09221A504FF0FF305DF804FB75
:10B8E00030235843054BBFF35B8F1B58BFF35B8F6F
:10B8F000002BECD00020F1E70C00000020240020F9
:10B9000030B530231049434308330B44BFF35B8FFA
:10B910001A68BFF35B8FB2B1BFF35B8F541E53E85D
:10B92000005F954204D143E8004CBCF1000FF6D112
:10B93000BFF35B8FEAD1012A05D1302358430A189F
:10B9400000230B50536030BD1824002038B5044646
:10B950001546FFF7B9FF01300DD0084A3023634385
:10B96000D0184068086015B10C3313442B603023A5
:10B970005C43105938BD0020FCE700BF18240020AC
:10B9800070B54FF0FF331D484FF0FF3223F0D8F968
:10B990001B4B0025BFF35B8F1A68BFF35B8F82B12F
:10B9A0000135212D03F13003F4D1FFF7DDFC154BF8
:10B9B00017221A504FF0FF35104823F0C3F92846DC
:10B9C00070BD30246C43BFF35B8F53E8000F013030
:10B9D00043E800010029F8D1BFF35B8F0A4E331909
:10B9E00032515A609A6204F10C0030442DF065F82F
:10B9F00004F1200030442DF09CFADDE7D00C00204B
:10BA0000202400200C000000182400202DE9F04123
:10BA1000164630240F4A4443101911514660C36240
:10BA2000B6B1F368A3B1FFF79FFC0B4F0C3450F88D
:10BA300007801319054640F20512304623F071F9CC
:10BA4000B8F15F0F04D0EB595F2B08BF45F80780B2
:10BA5000BDE8F081182400200C0000002DE9F04121
:10BA60000546FFF731FF431C044621D03026DFF89E
:10BA70004C806E4306F10C0747444FF0FF324FF005
:10BA8000FF33384623F05CF908EB06035A689468E4
:10BA900044B1DB6A58F8060013F4404F0BD0294636
:10BAA000A0470446384623F04DF92846FFF728FF03
:10BAB0002046BDE8F081A047F3E700BF182400202E
:10BAC0000C4B0122C3F840254FF080434FF08051CA
:10BAD000C3F87825D1F83001082805D1D1F8341100
:10BAE000022908BFC3F838260122C3F880250020A8
:10BAF000704700BF00E0014048B1054B054A1B6894
:10BB0000B3FBF2F35843044B43F00103184770476B
:10BB10009C09002040420F00F0B40500BFF34F8F96
:10BB20000549064BCA6802F4E0621343CB60BFF3D9
:10BB30004F8F00BFFDE700BF00ED00E00400FA05F5
:10BB400008B5054A054B136010463C2353601CF0B2
:10BB50008DFE002008BD00BF482A00203FC00F0016
:10BB6000F7B506460D461446124F38462CF0A8FE8F
:10BB7000E0B1BB68AAB21B68314638469847002836
:10BB800002DB002003B0F0BD002CFBD1AC42F8D2A8
:10BB90002F1B042F28BF04272CF0D9F93A46019017
:10BBA00001A930192EF0C0FF3C44EFE76FF01200FE
:10BBB000E8E700BF60AF05002DE9F04190F82830BC
:10BBC00003F01F03012B04460F4600F128062FD077
:10BBD000022B18D08BB394F82910204623F08AF951
:10BBE000024678B3304623F06FFA1D4D002834D159
:10BBF00013693BB33A463146204698470346FFF760
:10BC0000B3FB2B5024E0818DC9B223F054FD0546CF
:10BC10000028E0D0304623F057FA0246686883686F
:10BC2000CAB99B6873B13A463146BDE8F04118473E
:10BC3000818DC9B223F026FDE9E790F8291023F0A1
:10BC40005DFDE4E7FFF790FB054B6FF085021A50AE
:10BC50000020BDE8F081DB68E4E7D368C9E700BFF6
:10BC60000C0000002DE9F04F0B7E33F0800893B0FC
:10BC700004460D46164640F08E847AB10846FFF71A
:10BC800005FE6B7EDF0703D49E0711D52B7E7BB9A3
:10BC9000204613B0BDE8F04F23F042BA4A7E00F1CF
:10BCA0002809900708D5802B0CD12846FFF7EEFD18
:10BCB000404613B0BDE8F08F910700F02784002BB9
:10BCC00040F02484D2072FD52B8A082B40F006841D
:10BCD000EA681368A3625368C9F804302946002053
:10BCE00022F084FF054610B1FFF7D0FDEFE0484693
:10BCF00023F0EAF9E28D70B9B2B12946A0692BF0C0
:10BD0000EFFA0146002800F02D84204613B0BDE86C
:10BD1000F04F23F076BE3AB11146204623F06CFE78
:10BD20000546002800F01E84FFF71EFB94F82880CB
:10BD3000B14F002318F0600FC351C8F3411307D06F
:10BD4000032B40F0BD81FFF70FFB6FF0850337E059
:10BD5000484623F0B9F994F82930002840F04E8184
:10BD6000013B0A2BEFD801A252F823F0E3BE0200F8
:10BD700047BD02006FBF020047BD020099BD02002F
:10BD800047BD020047BD020047BD020009BE0200D8
:10BD900047BD02006BBE0200618D7F29D3D8A38D01
:10BDA000002BD0D1E38D002BCDD118F01F0FCAD1BD
:10BDB00094F83030022B05D1FFF7D6FA4FF0FF335D
:10BDC0003B5076E0A069036993F880301B0707D5E4
:10BDD000C9B223F0DBF9804628B1002D6CD167E7AA
:10BDE000012384F8393094F83030012B0AD1638D67
:10BDF00043B984F83030FFF7B7FA3B58002B00F016
:10BE0000858056E00123F4E7204622F0B4FF628DDE
:10BE1000FF2A014697D8E38D002B94D194F828305F
:10BE2000D80690D194F83030002BC5D02AB1D2B2C8
:10BE3000204623F04DFB0028BED0618D94F83830A9
:10BE40008B42D8D0C9B2204623F049FB8046002857
:10BE5000C3D1628D002A14BF0223012384F830303D
:10BE60000521204623F06EFEC5E708F01F08B8F153
:10BE7000010F7FF468AFE38D002B7FF464AF628D18
:10BE8000FF2A3FF660AFA18DFF293FF65CAF94F823
:10BE90003030022B90D1D2B2C9B2204623F02FFD10
:10BEA00010F1020F804640F01081FFF75DFA47F86D
:10BEB000008065B14FF000082846FFF7E7FCB8F1B5
:10BEC000000F7FF4F5AEFFF74FFA3B58F3B1484649
:10BED00023F0FAF80346A069002B00F04F8380217D
:10BEE00055E3E38D002B7FF42EAF94F83030002B18
:10BEF0003FF462AF012BA18D02D100297FF45CAF2A
:10BF000018F01F080CD0B8F1020F16D0E38D002BEB
:10BF100040F0D782204623F0EDF80028D7D1B7E6CD
:10BF200000297FF449AF638D012BEFD194F86C3079
:10BF300061F3C30384F86C30E8E7B4F82AA0BAF1DF
:10BF4000000FE3D15FFA81F84146204623F0CAFD95
:10BF50000346FFF709FA3B50013302D14FF0FF3897
:10BF60003BE752464146204623F0B4F843E7E38DD1
:10BF7000002B7FF4E8AE628DA38D022A5FFA83FA6C
:10BF800011D108F01F085AEA08087FF4DCAEA06956
:10BF90000122190A23F0D7F800287FF4D4AE012338
:10BFA00084F8393027E794F8301000293FF404AFC3
:10BFB000012902D1002B7FF4FFAE18F01F0811D029
:10BFC000B8F1020FA2D1002AA0D15146204623F099
:10BFD00074FD0346FFF7C8F93B500133BED0012280
:10BFE0005146C0E7002B7FF4E7AE012A8ED194F8CA
:10BFF0006C3043F008039DE70C0000000A2B3FF66D
:10C00000A2AE01A252F823F035C0020047BD0200E3
:10C0100047BD020047BD020047BD020047BD020008
:10C02000AFC0020047BD02003FC4020047BD02008E
:10C0300069C40200E38D022B7FF485AE94F83030A2
:10C04000002B3FF4B9AE012BA18D02D100297FF462
:10C05000B3AE18F01F0811D0B8F1020F1CD04FF08A
:10C06000000805F10C0A504623F026F8E38D9842AB
:10C0700018D2FFF779F96FF00B03A1E600297FF4DE
:10C080009BAE94F86C304FEA930808F00208C3F3B3
:10C09000001348EA0308E4E7C9B2204623F031FD63
:10C0A0008046DEE74146504622F0F9FDA3E6B4F8AB
:10C0B0002AA018F01F0F4FEA1A235FFA8AFA09D054
:10C0C00029462046FFF778FD8046B8F1000F7FF43F
:10C0D00084AE90E6013B0E2B3FF635AE01A252F83E
:10C0E00023F000BF21C1020061C102000BC20200A7
:10C0F00047BD020047BD020003C2020003C20200A6
:10C1000047BD020047BD020047BD020047BD020017
:10C1100047BD020047BD020047BD02004DC30200FB
:10C1200005F10C08404622F0C7FF83462046B4F8CC
:10C130002EA022F020FE20B101287FF404AE616F12
:10C1400000E0216F002900F02A820A78DA4528BF32
:10C15000DA46524528BF5246404622F08FFD4AE655
:10C16000204622F008FE0AF1010201900146D2B2F7
:10C17000204623F087F9804600283FF4E4AD05F11E
:10C180000C0AD0F804B0504622F096FF9BF800202D
:10C19000824228BF02465946504622F06FFDD8F829
:10C1A0000CB0BBF1000F09D1298AE38D99427FF6CB
:10C1B00022AEC91A504622F07CFD1CE6DBF80400D2
:10C1C00083681B6B13B9DBF800B0EAE70199984765
:10C1D0000028F8D0A0F1040858F8041F0029F2D074
:10C1E0000A78002AEFD05046CDE9022122F064FF00
:10C1F000029A0399904238BF82B2504622F03EFD27
:10C20000EAE7204622F0B7FD9DE55246032120468D
:10C2100022F0B0FE824600283FF495AD22F047FFA1
:10C22000B4F82EB09AF81530C8B99AF814808DF881
:10C2300028808DF82930DAF8103005F10C0A1B88B7
:10C24000ADF82A30504622F037FFC3455A4628BF82
:10C250004246824228BF02460AA950467DE7DAF8E4
:10C2600008208DF81530C14B1340C14A4FF000082B
:10C2700093428DF8148058D1102106A82BF0FCFCB5
:10C28000021EFFF660AD0AA9102ADFF8E8E20DF100
:10C29000180C084628BF1022424501F1020133D88C
:10C2A000920002325FFA82F88DF81480034605F19D
:10C2B0000C0A5046029322F0FFFED845424628BFA2
:10C2C0005A46904228BF104602288346804628BF1F
:10C2D0004FF0020B5A46A8EB0B0805A9504622F076
:10C2E000CDFC4FEA58030193029B9B4603EB580297
:10C2F000934521D118F0010F3FF47DAD019A995C6F
:10C30000504622F0C4FC76E51CF8013B4FEA131AB4
:10C3100003F00F031EF80AA01EF8033001F802AC68
:10C3200001F8013C08F10108B6E79AF81480DAF840
:10C3300010308DF81480BAE71BF8011B5046CDE988
:10C34000023222F0ACFCDDE90232D1E7204622F0D5
:10C3500012FD38B101282CD0FFF706F86FF08503E5
:10C360003B5048E5236F002B00F019815B88B3F543
:10C37000007FF1D9804B0A9300238DF82C30E36CB9
:10C3800004F14C0B9B4508BF0023BDF82A10A3B154
:10C390005A7D0F2A08D11A7D0A44ADF82A209DF84B
:10C3A0002C2001328DF82C20226D934203D01B6883
:10C3B000EBE7636FD7E7BDF82A10019105F10C0A8E
:10C3C000504622F079FEB4F82E800199884528BFA6
:10C3D0008846804528BF80464246052A28BF052258
:10C3E0000AA95046019222F049FC019AB8EB0208D2
:10C3F0003FF401ADE36C5B453FF4FDAC002B3FF433
:10C40000FAAC5A7D0F2A14D11A7D1969019342455D
:10C4100028BF4246504622F031FC019B1A7D42451E
:10C4200094BFA8EB0208A8EB0808B8F1000F3FF48E
:10C43000E2AC226D93423FF4DEAC1B68DEE794F879
:10C440003030002B3FF4B8ACE38D012B7FF47BAC94
:10C4500005F10C08404622F02FFE00283FF409AEFB
:10C4600094F8381040464CE708F01F08B8F1010F67
:10C470007FF4A2AC204623F019F800283FF49CACCE
:10C48000B4F82CA0BAF1FF0F3FF65DAC43681B79FE
:10C490005345FFF458AC5FFA8AF30F2B3FF653ACC9
:10C4A000E38D012B7FF44FAC05F10C08404622F0E0
:10C4B00003FE00283FF4DDAD04EB0A0393F83A10C5
:10C4C000D0E7484622F000FE18B92846FFF7DEF90B
:10C4D00020E52946204623F094FA08B1284603E4D3
:10C4E000A069036993F8801011F004017FF4D0ABC8
:10C4F0002AF00AFF054600283FF4E9AC0146204631
:10C5000023F07FFA00283FF4C3ABE7E752077FF53B
:10C51000DEAC002B3FF4C9AB2846FFF7B7F994F81F
:10C520003930002B3FF4C4AB94F82930052B05D1EA
:10C53000618DA069C9B222F029FE064694F829301F
:10C54000032B09D1638D022B06D1A18DA069002296
:10C55000090A22F0F8FD0646002384F83930B04677
:10C56000FFF7A6BB6FF00B06B1E400BF00FF0200AF
:10C5700000030200E58B0600050F0500E38D002B8C
:10C580003FF4ADAC16F10C0118BF0121C9012AF02E
:10C59000BEFDFFF77DBB6FF00408FFF789BB6FF0AE
:10C5A00015081AE40B78062B10B414D10369D3F8DC
:10C5B0009C20EFF31184202383F31288BFF36F8F45
:10C5C0004B6800201860506A58B9C2E9083384F3F8
:10C5D0001188BFF36F8F044810BC002200232CF099
:10C5E0005DBA03605362F2E78C0D00202DE9FF4134
:10C5F00020264FF0FF335E484FF0FF3201A91DF0B7
:10C6000065FA039B1B69D3F89C40236A93B1EFF34F
:10C61000118286F31288BFF36F8F216A29B1606A95
:10C620000B682362814208BF636282F31188BFF303
:10C630006F8FC9B99DF80430062BDAD0072BD8D8F4
:10C6400001A252F823F000BF9BC602008FC6020071
:10C65000BBC60200A1C60200DFC60200D5C60200AA
:10C66000F3C5020069C702000B7ED1F81E205D06EB
:10C67000204609D1FFF7F6FA02460028C5D0072167
:10C68000204623F05FFAC0E723F00CF8F4E700221D
:10C690000121204623F056FAABE700221146F8E7C5
:10C6A00094F86C3043F0040301A984F86C30204600
:10C6B00022F094FD00220321EBE794F86C3023F084
:10C6C000040301A984F86C30204622F087FD002283
:10C6D0000221DEE701A9204622F080FD89E794F8D7
:10C6E0006C30A76923F0040384F86C30D7F8088015
:10C6F0003B69BFF35B8FD3F8A030BFF35B8F9A0722
:10C700002FD5D8F83C3038469847D8F82430002147
:10C7100038469847D8F84030054638469847ADB96E
:10C720002946204622F0DBFE054678B9A0692AF0AA
:10C730000AFE831E5842584194F86C3084F83050F9
:10C7400023F0680343EA401384F86C30002204218C
:10C75000204623F0F7F9002D3FF44BAF2A4607217E
:10C7600097E74FF0FF35F1E7029A062191E700BF06
:10C770008C0D002030B589B000220023CDE90623BE
:10C7800000246FF00703CDE90334CDE901441A4BCF
:10C790001A4900944FF4806219481DF085FE19492A
:10C7A00017482CF0D0FB184B18498B4207D3184B75
:10C7B000184900208B4210D3002009B030BD03F18E
:10C7C0001402BFF35B8F52E8000F42E80045002DD2
:10C7D000F9D1BFF35B8F1833E7E703F11402BFF31E
:10C7E0005B8F52E8004F42E80005002DF9D1BFF3FE
:10C7F0005B8F1833DEE700BFEDC50200408F0020DD
:10C80000C0120020DAD305007C1100209411002012
:10C81000941100209411002038B5024609490546BC
:10C8200080692AF0F6FD044648B985F838002846A4
:10C8300022F02BFD044610B1A8692AF01DFE204607
:10C8400038BD00BFA5C5020070B5084C084E0546AE
:10C85000B44202D30024204670BD6368284619689C
:10C86000FAF768FC0028F6D01834F1E77C110020B4
:10C870009411002070B50646EFF31181202383F355
:10C880001288BFF36F8F1B4D2A6881F31188BFF3A5
:10C890006F8F526892F86C20D20705D4BDE87040C3
:10C8A000212200231DF01EBDEFF3118283F31288B5
:10C8B000BFF36F8F2C682CB1696823682B608C42A2
:10C8C00008BF6B6082F31188BFF36F8F44B160685B
:10C8D00004F10801C3699847074821462CF08EF8F7
:10C8E0002B6833B130460022BDE8704000231DF0B4
:10C8F000C5BC70BD502A00208C0C002030B585B01E
:10C90000CDE90012054600221448002303A91DF0BA
:10C9100043F80246E8B9039BDDE900015D60083396
:10C9200083E80300EFF31180202383F31288BFF321
:10C930006F8F039B1A600A4A516861B9C2E90033DC
:10C9400080F31188BFF36F8F0648002200231DF08B
:10C9500095FC05B030BD0B605360F1E78C0C0020F6
:10C96000502A0020000000200B7803F01F03012B49
:10C9700000B506D14B78432B09D003F0FD03842B7F
:10C9800005D0FEF7F1FC034B6FF085021A50002032
:10C990005DF804FB0C00000010B5002204460023E3
:10C9A000024822F0CEF800B1047610BD7C0E0020C3
:10C9B00010B504690B4904F148002CF061FAD4F871
:10C9C0001A10228B52EA31424FF0000308D16376ED
:10C9D000A37602232376032104F11B0022F0B6F98B
:10C9E000002010BDE9C902002DE9FF4150F8483C84
:10C9F0000446002128381E6923F0DEF8002844D0C0
:10CA0000356995F8247077BB2B68586822F0B3F924
:10CA1000224B234A3946002814BF904698461022DC
:10CA200068462EF0A8F842F6A123ADF80030AB68B6
:10CA300030699B7AADF80430102208236946CDE9AD
:10CA40000288ADF8063023F0AEF9002802DB03239C
:10CA500085F8243040F6CD420023204604B0BDE8DE
:10CA6000F0411DF03FBC042F07D10121304623F0D7
:10CA7000CCF90028EEDB0123EAE7022F02D10523DF
:10CA800085F8243004B0BDE8F08104F8240C304669
:10CA900023F0BBF90028F5D0DCE700BF001BB7008E
:10CAA00000389C1C70B50B7803F06003202B88B015
:10CAB000154605D0FEF758FC134B86221A501FE08E
:10CAC0004B78802B08D0852BF4D1104AD069116A9D
:10CAD00001AB03C308220EE00C4B01AC03F11806B6
