:020000022000DC
:1070000040D4002031AD020079E404001DAD02003F
:107010001DAD02001DAD02001DAD0200000000000C
:1070200000000000000000000000000069AD020048
:107030001DAD02000000000069AF02001DAD02009E
:10704000E5AF0200F1CF0300E5AF0200E5AF0200BB
:10705000E5AF0200E5AF0200E5AF0200E5AF0200D8
:10706000E5AF0200E5AF0200E5AF0200E5AF0200C8
:10707000E5AF0200E5AF0200E5AF0200E5AF0200B8
:10708000E5AF0200E5AF0200E5AF0200E5AF0200A8
:10709000E5AF0200E5AF0200E5AF0200E5AF020098
:1070A000E5AF0200E5AF0200E5AF0200E5AF020088
:1070B000E5AF0200E5AF0200E5AF0200E5AF020078
:1070C000E5AF0200E5AF0200E5AF0200E5AF020068
:1070D000E5AF0200E5AF0200E5AF0200E5AF020058
:1070E000E5AF0200E5AF0200E5AF0200E5AF020048
:1070F000E5AF0200E5AF0200E5AF0200E5AF020038
:1071000053B94AB9002908BF00281CBF4FF0FF310E
:107110004FF0FF3000F00CB8ADF1080C6DE904CE73
:1071200000F022F8DDF804E0DDE9022304B0704746
:10713000704700BF10F8012B11F8013B012A28BF4E
:107140009A42F7D0D01A7047034611F8012B03F882
:10715000012B002AF9D17047034613F8012B002AAE
:10716000FBD1181A013870472DE9F0478C468E463E
:10717000089E154604461946002B40F0D080724503
:1071800047D9B2FA82F74FB1C7F120030EFA07FCD4
:1071900020FA03F3BD4043EA0C0CBC404FEA154E05
:1071A000A8B2BCFBFEF8230C0EFB18CC08FB00F9C0
:1071B00043EA0C43994528D9EB1808F1FF3204D271
:1071C000994502D9A8F102022B44A3EB0903A4B20A
:1071D000B3FBFEFC0EFB1C330CFB00F044EA034443
:1071E000A04214D92C190CF1FF3304D2A04202D9C9
:1071F000ACF102032C44241A43EA02401EB1FC40C5
:10720000002334607360BDE8F0874246DDE76346E3
:10721000F1E7002A79D0B2FA82F3002B3FD0194669
:10722000C1F1200302FA01F52EFA03F20EFA01FE73
:1072300020FA03F343EA0E034FEA154E00FA01F475
:10724000B2FBFEFCAFB20EFB1C201A0C0CFB07F8C5
:1072500042EA004290455AD9AA180CF1FF3004D2F4
:10726000904502D9ACF102002A44A2EB08029BB27D
:10727000B2FBFEFC0EFB1C220CFB07F743EA0243A9
:107280009F4246D9EB180CF1FF3204D29F4202D93B
:10729000ACF102022B44DB1B42EA004202E0AEEBFF
:1072A000020301224FEA154EAFB2B3FBFEFC200CE5
:1072B0000EFB1C330CFB07F840EA034398452AD920
:1072C000EB180CF1FF3004D2984502D9ACF1020062
:1072D0002B44A3EB0803A4B2B3FBFEFC0EFB1C3350
:1072E0000CFB07F744EA0344A74216D92C190CF10A
:1072F000FF3304D2A74202D9ACF102032C44E41BB1
:1073000043EA00400F46114678E71F2188E76046B0
:10731000ABE76246BFE76046DBE76346EFE77345EE
:1073200006D916B9002108466DE7C6E9000EF9E74F
:10733000B3FA83F787B9734501D3824207D8841A19
:107340006EEB030301209C461EB900215BE7384623
:10735000FAE7C6E9004CF8E7C7F1200CBB4022FA77
:107360000CF51D4320FA0CF12EFA0CF30EFA07FE71
:1073700041EA0E014FEA154900FA07F4B3FBF9F8A8
:107380001FFA85FE09FB18300B0C08FB0EFA43EAC6
:1073900000439A4502FA07F240D9EB1808F1FF3092
:1073A00004D29A4502D9A8F102002B44A3EB0A03A8
:1073B00089B2B3FBF9F809FB183308FB0EFE41EA6A
:1073C00003418E452CD9691808F1FF3304D28E454C
:1073D00002D9A8F10203294443EA0040A0FB029825
:1073E000A1EB0E014145CE46434602D306D14C45A2
:1073F00004D2B9EB020E68EB05030138002EA4D0CD
:10740000B4EB0E0261EB030101FA0CFC22FA07F364
:107410004CEA0303F940C6E9003196E74046C5E768
:107420004346D9E700000000F7B50022114640F6B8
:10743000034006F04BF80446002853D105F066FFE0
:10744000214601AA41F2030006F040F80446002854
:1074500048D1019A254DD168D1F80100D1F8051025
:1074600005F1880303C3104604F060F8214601AA21
:1074700041F2010006F02AF8044698BB0198C3685F
:107480005A7885F880205A88A5F882201A7985F8DC
:107490008120B3F80720A5F88420B3F80530A5F8BB
:1074A000863004F043F8214601AA41F2020006F0BA
:1074B0000DF80446B0B9019FFA6805F19006531C17
:1074C000413218685968344603C40833934226464B
:1074D000F7D1384604F02AF895F88C305F0607D4C7
:1074E0006FF01204204603B0F0BD00BFA8000020DA
:1074F00001AA002142F2030005F0E8FF044600283B
:10750000F0D1019BC44EDA68D2F80100D2F8051020
:1075100003C6184604F00AF8214601AA42F2020006
:1075200005F0D4FF04460028DCD1019CE368B3F8E1
:10753000012091B249B1D97839B1A5F81421DA788E
:10754000114606F1280030F00CFF204603F0EEFF54
:1075500095F88C601F2316F02006A5F8303119D15C
:107560004FF0FF304FF0FF3105F0F8FE04460028E1
:1075700000F0698102210C3027F05CF801230370D0
:1075800046702146324640F66D4005F09FFF0446A6
:107590000028A7D195F8AC301E0712D501AA00210A
:1075A00042F21C0005F092FF044600289AD101988F
:1075B000C368D3F80120D3F80530C5E93C2303F0B4
:1075C000B5FF95F8E8309C0625D50DF10201684617
:1075D00028F002FD0446002884D14FF0FF304FF020
:1075E000FF3105F0BBFE0646002800F02C81042187
:1075F0000C3027F01FF8BDF800300380BDF80230D2
:1076000043802246314642F2240005F05FFF0446E3
:1076100000287FF467AF95F8E83058062BD54FF077
:10762000FF304FF0FF3105F099FE0446002800F0CE
:107630000A8102210C3026F0FDFFB5F8E03103800D
:107640002146002242F22E0005F040FF04460028A9
:107650007FF448AF014601AA42F22A0005F036FF46
:10766000044600287FF43EAF0198C3685B7885F834
:10767000323103F05BFF4FF0FF304FF0FF3105F088
:107680006DFE0646002800F0DE8008210C3026F052
:10769000D1FF95F8E84014F0400F40F2022308BFF4
:1076A0000323A10795F8E9104CBF43F02C0343F0E6
:1076B0000C03A70648BF43F0400311F0090F18BFA1
:1076C00043F4006304F001040246002143EA04107D
:1076D00028F05AFB0022314642F2010005F0F6FE86
:1076E000044600287FF4FEAE95F88C30B5F81411EE
:1076F000980600F18380C9B901AA41F2050005F09E
:10770000E5FE044600287FF4EDAEB5F81431019C87
:107710004BB9E368B3F80120A5F814219A883F48D3
:10772000114630F01EFE204603F000FF4FF0FF3000
:107730004FF0FF3105F012FE0446002800F0838070
:1077400008210C3026F076FF95F8E830D90702467C
:1077500059D433484FF0005128F016FB214600223F
:1077600040F6014005F0B2FE044600287FF4BAAEB0
:10777000014601AA4FF6014005F0A8FE044620BBD1
:10778000019803F0D3FE214601AA4FF6024005F00E
:107790009DFE0446C8B90198C368B3F80130A5F846
:1077A000D13003F0C3FE95F8D1305A070DD501AAA8
:1077B00021464FF6034005F089FE30B90198C368B1
:1077C0005B7885F8D03003F0B1FE6B7D63BB06F0CB
:1077D00007FE044600287FF485AE08F035F804461D
:1077E00000287FF47FAE6B7D002B3FF47BAE082139
:1077F0000C4828F0DEF905F00FFE73E6002995D15C
:107800006FF004046EE602A1D1E90001A4E700BF15
:10781000908800020080002090010020C00100201C
:10782000108800028C0100202E78002ECFD195F810
:10783000D1309B061ED54FF0FF304FF0FF3105F0E1
:107840008DFD044610B96FF068044BE606210C303C
:1078500026F0F0FED5F801300360084B9B8883804A
:10786000214632464FF6064005F030FE0446002819
:10787000ADD037E66FF0850434E600BFA9000020E4
:107880002DE9F843D0E90738856903EB08042F3464
:10789000A5420F46164619D8DFF86C80A3FB0801F5
:1078A00017A3D3E90023FFF72BFC0346601BA0FBC3
:1078B000080123F07F4412A3D3E90023FFF720FC43
:1078C00020F07F403C603060BDE8F883DFF83890FE
:1078D0000BA3D3E90023A5FB0901FFF711FC20F05E
:1078E0007F440A480A2106A3D3E90023E8FB0901E3
:1078F000FFF706FC20F07F403C603060BDE8F88375
:107900008D49FD1A0700000000CA9A3B00166BF172
:10791000002800F051812DE9F04FCB4C94F85E2007
:1079200012F001058DB040F03481607EFF2300F03D
:107930000300A37614F09CFF94F85E00420700F168
:107940002C81627F94F8293004EB820204EB8303DC
:10795000166AD3F82C8086B1BB4831460FF080FB05
:1079600033785B0605D506210BF066FA002800F097
:107970005581B54841460FF073FB337813F00E0F75
:1079800040F0918063691BB10C200DB0BDE8F08F11
:107990000DF066FA8146002800F049810DF06CFA7E
:1079A0008246002800F040810FF07CFD054600284B
:1079B00000F05A81D0F888004FF6FF73AB8405F1D0
:1079C000100B002800F0358105F17C0205F17801EB
:1079D0000BF03EFAB5F8763023F4EF6323F007039B
:1079E00043F48C7343F00103A5F8763095F83730F3
:1079F00003F03F0363F07F0385F8373095F88E304E
:107A000023F0070385F88E3095F83C3023F00F0300
:107A1000002785F83C304FF4C023C5F88E31284646
:107A2000C5E91277C5F88870A5F88C7085F83970AB
:107A30006F85C5F82E702F65A5F86071A5F8947153
:107A4000A5F88A7111F0C4FC85F86471C5F86891D5
:107A50000FF0F0FF95F89C3160F3020385F89C313C
:107A60000FF0EEFF95F89C3160F3C50385F89C316B
:107A700095F8623167F34103012185F862312846A8
:107A800010F072FB05F1E00011F0C2FAC4E9159A9A
:107A9000C4F814B0C5E902772F702D6115F052FFBC
:107AA000002840F0BD80237E0121C3F342030DF185
:107AB0002B008DF82B300BF06DFB024600287DD09B
:107AC000414630460FF0C4F8604A614BB4F85C8020
:107AD0000721E0FB023100251846C4E9025558A3EE
:107AE000D3E900232570FFF70BFB60600CF0E8FC86
:107AF00000F10907B8F1000F07D1357805F00F053F
:107B0000A5F10105B5FA85F56D09207E636865F379
:107B1000000010F00105207657D04E4A099200204F
:107B2000106002254C4ADFF8348104930BAE0193B8
:107B300005920321CDE90200069400903B46CDF862
:107B40001C8008962A460B950CF0DEFB31460DF0A2
:107B50001DFA98BB424905914AF2D8330093CDE90A
:107B60000300CDE90100CDF81C80089606943B4641
:107B7000012203210B950CF0ABFB31460DF006FA08
:107B8000E0B994F85E300120034384F85E3014F0CD
:107B900051FE00200DB0BDE8F08F2A4604F15F01D0
:107BA000C0F3C00014F09CFFFF28A0763FF4C9AEDC
:107BB000284614F077FEC4E60EF0E2BF6369002B9E
:107BC0003FF4E2AE0EF0B2FFDEE6224A254804930F
:107BD00003F247130694029591211360A8FB00035A
:107BE00001FB08311D4B07931B4B05934FF6FF73A9
:107BF00009924FF0020803930BAE11A3D3E90023BF
:107C0000CDF82C800896FFF77BFA3B46CDE9005073
:107C10004246284603210CF077FBAEE71220B4E67B
:107C20000EF084FF0320B0E648460DF01FF9072050
:107C3000ABE605F18000C5F88800C5E6AFF300802B
:107C40008D49FD1A070000000448002000CA9A3B35
:107C50008C49FD1AF8470020C96C0300BD4503009C
:107C6000ED690300002AE78450460DF00BF9484601
:107C70000DF0FCF8DBE700BF70B5037E8AB0C3F3FC
:107C800042030D46044601210DF1230016468DF8EE
:107C900023300BF07FFA3146024628460EF0D8FF1B
:107CA0001D4A1E4B0721E0FB0231184618A3D3E9F9
:107CB0000023FFF725FA63689842054621D21B1A74
:107CC00000220192164A0293164BA21AA3FB02321B
:107CD0000221520900230A4409AE09911249059173
:107CE000CDE9033303210696D2B2009318460CF077
:107CF00061FB31460DF04AF938B9656000200AB0E1
:107D000070BDFBD9C21A0023DBE70C200AB070BD9E
:107D10008D49FD1A0700000000CA9A3B8C49FD1AE4
:107D2000044800204FECC44EBD4503000000000095
:107D30002DE9F04F05468BB08B4601200221994674
:107D4000144617F0E5FB00220221824601200BF0C9
:107D5000D3F82F494FF4D47228460BF059F8C61CBB
:107D60002C4B0093F6B201954B4632460121002080
:107D70000CF06EFB10F0FD0F42D1274BA4FB034823
:107D8000204621A3D3E900234146FFF7B9F908951E
:107D900006956B680493214B20F07F47A7FB0331C6
:107DA000E01A1F4B07934FF007021E4B059302FB8F
:107DB00007114FF6FE7368EB010103934FF47A72DB
:107DC0000023FFF79DF9CDF800B0CDE901704B46D7
:107DD0003246012100200CF07BFA10F0FD0F0DD18E
:107DE000BAF1000F02D10BB0BDE8F08F01220221E1
:107DF00010460BB0BDE8F04F0BF07EB800DEEFE7A9
:107E000000DEBAE7AFF300808D49FD1A07000000DD
:107E1000001900206173030000CA9A3B8D49FD1AC6
:107E200049730300EDBC03002DE9F0418468A28C86
:107E30004FF6FF739A428CB000F0C0800546204692
:107E400011F042FD2B7D012B00F0E680022B00F0AB
:107E5000B88033B994F88E3003F01803182B00F073
:107E60001C8194F86471002F40F0AE802B8AE68D5F
:107E700094F93720CDE90A77002B00F0AC80002A76
:107E8000C0F221810023A4F89031AB7CA28D03F0D5
:107E90000303551C012BADB200F0BA80B4F8943145
:107EA000002B00F0BF80AB4240F237815B1B9BB2DE
:107EB000062BA4F894314FF000028CBF002301235D
:107EC000E2851F4694F83C2063F3820284F83C204C
:107ED00029460DF12702204611F0B6FA743000F061
:107EE0001681B4F88E312BB1AB4240F2BF805B1BE0
:107EF000A4F88E31B4F88A312BB1AB4240F2C6807F
:107F00005B1BA4F88A31E58D17B9AE4200F0AC8056
:107F10000135ADB294F8D13013F0010609D1DDE995
:107F20000AC3B3BBBCF1000F00F0E9801E4619463E
:107F300030E094F9372023F00103002A84F8D1308F
:107F4000C0F28A8094F87600C0F3C00100F0070008
:107F500015F076FBB4F86E20B4F86C301344E28B65
:107F600003F23F13134418448D4A8E4B0721E0FB64
:107F70000231184688A3D3E90023FFF7C1F86168EE
:107F800020F07F408142DDE90AC380F0B280461ACA
:107F900060600021A28C24690694CDE90357033266
:107FA000814D0291CDE900C6D2B201210020059594
:107FB0000CF000FA10F0FD0F40F0B4800CB0BDE8FA
:107FC000F0813D2784F86471394620460CB0BDE845
:107FD000F0410FF0EFBD002AB8BF84F8D570AB7C3C
:107FE000A28D03F00303551C012BADB210D0B4F8E1
:107FF0009031002B3FF452AFAB4240F29A805B1BB2
:10800000A4F89031B4F89431002B7FF44CAF59E7C9
:108010000023A4F8943155E70023A4F88E31A4F886
:108020008A311EE7E38C052B8BBF40F2E2424FF40E
:10803000FA725A4303FB0222B4F8923142F21071F1
:1080400001FB0323013BB3FBF2F39BB2A4F8943191
:10805000002B7FF428AF35E794F87700012100F07A
:10806000070015F0EFFA75E73D4653E70CF04AFFBD
:108070000146002864D00023A4F88E31A38CC3806D
:108080001B23037100680CF00FFF33E70023A4F8F3
:108090008A31204611F06AFA35E7218DB4F88C2137
:1080A0008B1D9A42C4BF931F5B1AB4F88811CCBFD2
:1080B0009BB21346994256D0A4F88831A4F88A316D
:1080C000A4F88E21CDE694F8D530002B3CD0013BAE
:1080D00084F8D53004F1E008404610F0DBFF0028BA
:1080E00055D0404610F0D6FF002842D00023E3854B
:1080F000C8E6091A6060A3BB51EA0C021ED115B98B
:10810000002F3FF45BAF00263146334642E79DF82F
:10811000271020460FF04EFD50E7082120460FF0B3
:1081200049FD4BE70CF05CFF84423FF447AF00DEB3
:1081300044E73E2120460FF03DFD3FE71E4629E77C
:108140000123A4F88E31D5E60AAA0BA92846FFF729
:1081500097FBDDE90A231343BCD0237884F8D5309C
:10816000B8E7002616E7B4F88E1100297FF479AE3F
:10817000A4E70246D4E91E010AF082FE0028B5D128
:1081800094F83C301B0744BF238DE3857AE6FF203B
:108190000FF0D2FCA5E700BF8D49FD1A07000000D3
:1081A00000CA9A3B8C49FD1AA1730300000000002D
:1081B0002DE9F04F87B0B0F86071BDF84C90009198
:1081C000CDE90423B0F82431BDF840A01F44BFB26C
:1081D0000446A7EB090390F87600D4F81C819EB200
:1081E000BDF844300193C0F3C001BDF84830039698
:1081F00000F00700029315F023FAE58C052D40F2FC
:10820000A38015FB06F5ADB240F2E24BBAF1050FC3
:1082100040F28E80B4F86E20B4F86C30134403F250
:10822000D5130344764A77480721E3FB02014FF058
:108230009613E361962323846FA3D3E90023FEF70B
:108240005FFF564620F07F4040F2E2430BFB05F211
:1082500003FB06F6531E3344B3FBF6F31FFA83FB0E
:1082600060600BFB06F082425D4653D26449801A7F
:10827000A0FB010160A3D3E90023FEF741FF20F03A
:108280007F408044B4F82421B4F86031A9EB070999
:108290004D44ADB213442B44A4F86031638D1344B4
:1082A0001D4494F837306585DB0955D100DE002781
:1082B0003546019B2385029BA4F892313146204626
:1082C000A4F826A011F0ECF84F4B218D3344881D03
:1082D000B3FBF6F39AB29042A4F88C2104D2C1F514
:1082E0007F41FA310A4492B2009BA4F8882113B16D
:1082F0000023A4F8943143462A4639462046FFF726
:1083000017FD94F8623143F0010384F8623107B03D
:10831000BDE8F08F121A3A48A2FB000136A3D3E958
:108320000023FEF7EDFE20F07F40A8EB0008A9E750
:108330004FF096130AF10106E36196232384B6B247
:108340000A204FF4FA7381E7039B013515FB03F50F
:10835000ADB24FF4FA7B59E7216CA36C284F01FBB7
:108360000233039A01FB1233A3640023C4F8DC3008
:1083700015F03AFB054694F8D400C0F3420015F01E
:1083800035FB054406FB05F5204B1E4805F5742515
:1083900005F23F25A3FB0535AD0CA36C25640BFB53
:1083A00005FB72085B44963A934228BF1346C4E922
:1083B0001123049B40F2E24909FB03F307212365E3
:1083C000EBFB07010CA3D3E90023FEF799FE104B4A
:1083D000059AA8EB0008A3FB0230800A09FB00F015
:1083E000A0FB070104A3D3E90023FEF789FE751B58
:1083F00020F07F475DE700BF8D49FD1A07000000B0
:1084000000CA9A3B8C49FD1A7FC3C90183DE1B4316
:108410005917B7D1000000002DE9F04F0D4616683E
:1084200095F8118009681446027FD1F8009093B046
:108430008346C2F38012D0F81E008DF83720B8F1C1
:10844000FF0FBBF822201090ADF8442057D110AB9D
:1084500093E803000E90ADF83C105A46BBF82E107E
:1084600052F82EAB9278A2722181DBF82A2062604A
:10847000DBF83A20C4F8222004F122009BF83E20C9
:10848000027105210AF086FE94F8272000F03F00D3
:1084900060F3050284F827209BF83F20C2F3040113
:1084A00084F82810BBF83410E182012802F01F0282
:1084B00089B20AD91B3202F01F020B2A05D80639ED
:1084C00089B240F67A42914225D90021C9F80810B4
:1084D00094F82C2061F3000284F82C20DBF80C4087
:1084E0000125504659468BF804500CF0D1FC206809
:1084F000257121460CF0D8FC13B0BDE8F08F0EAA10
:108500000DF13701404613F0F3FE9DF8372002329B
:108510008DF83720A1E72A6800215160BBF836208A
:10852000E78A228340F2E24303FB07F73046BBF8B9
:1085300032300B9310F0C8FF9BF83F2096F8D41010
:10854000520962F3430186F8D41015F04DFA0A90EF
:1085500096F8D400C0F3420015F048FA0A9A104485
:1085600007FB00F0AE4A00F5742000F23F20A2FBAA
:1085700000207A08800C963A206362639BF83120D1
:1085800040F2E24303FB02F26264BBF83820A6F833
:1085900092213946304610F083FFA24AA249C6F81C
:1085A00098113A44B2FBF7F290B2A6F88C01218BF5
:1085B00001F1060C604504DDC1F57F41FA3101444B
:1085C00088B25A46A6F8880112F81C3FC3F340133C
:1085D000D2070A9300F115814FF48072ABF81C208A
:1085E00099F81A0014F0B0FB002800F0EA80DBF8DC
:1085F0002420CBF82B20BBF82820ABF82F20B8F193
:10860000FF0F00F0F880BDF844201098ABF8292047
:10861000CBF825009DF837208BF81E200E98BDF86A
:108620003C20CBF81F00ABF82320E28AABF83220C5
:10863000228BABF83420B6F89221ABF8362096F8AE
:10864000D420C2F342028BF8382030460EF036FFB9
:10865000A082ABF80600D5F80480504659460CF0CD
:1086600017FC1C23A28A88F804300A9BD8F800A0C3
:10867000A8F80620002B40F0B180DDF828B088F87B
:108680001CB0414650460CF00FFC94F86700B4F85B
:108690005CA0B4F85E80012100F0070014F0D2FF66
:1086A000D04408F2D51808EB00038246DFF87C813D
:1086B0005F480721E3FB08014FF09613C4E9033339
:1086C00055A3D3E90023FEF71BFD20F07F40706027
:1086D000EB680B98226B40F2E24101FB003404F29C
:1086E000B3440221A41A0120BF1A00220AF004FC9C
:1086F00048460EF073FCA4EB0A0447A3D3E9002319
:108700008246A4FB0801FEF7FBFCCDF80490AB68A1
:108710004849009120F07F480AF10202363BD2B26C
:108720004344012100200BF093FE01286BD099F8FF
:108730001830DB074AD430460EF0C0FE3B4CA7FB96
:10874000044935A3D3E90023834649462046FEF772
:10875000D7FCAB68384A0792A3F1360A374B069626
:1087600020F07F47A7FB0331E01A354B05934FF408
:10877000F8730893736804934FF0070303FB071122
:1087800069EB010100244FF47A7200230394FEF791
:10879000B7FC0BF10305EDB2CDE90170CDF8008017
:1087A00053462A46012120460BF092FD10F0FD0FA2
:1087B0002FD10122022110460AF09EFB13B0BDE822
:1087C000F08FCBF82B00ABF82F0018E70023012225
:1087D0000093184611460BF005FEACE794F82730DD
:1087E00043F0400384F82730201D13F06DFB4FF059
:1087F000010B208543E70021CBF82510ABF82910A9
:1088000008E700DEE8E60CF0EBFB81458FD000DEE8
:108810008DE700DECDE700BF8D49FD1A070000009F
:1088200083DE1B437FC3C901404B4C0000CA9A3B07
:108830008C49FD1A75BD0300C5BC03008D49FD1AA6
:10884000EDBC0300000000002DE9F04F8DB0484E54
:10885000484D82460BF034FEF16807460BF032FEBD
:108860007168F76040A3D3E900230446A1FB05012A
:10887000FEF746FC20F07F439C4257D30DF12F01B9
:108880000DF12E000CF06EFBDFF8E8803568A5FBDB
:10889000085935A3D3E9002328464946FEF730FCA2
:1088A000CDF818A004467068334B0593A0FB08016F
:1088B0002DA3D3E900234FF00008CDE90788FEF788
:1088C0001FFC2E4BCDF80C8024F07F44A4FB033119
:1088D00020F07F40072202FB04110490E81A69EBA4
:1088E00001014FF47A720023FEF70AFC9DF82FB0C5
:1088F0009DF82EA0CDF80080CDE901403B465A46B8
:10890000504603210BF0E4FC10F0FD0404D06FF09E
:108910008B000DB0BDE8F08F19481A4A002320F0F3
:108920004BFF90B930690DB0BDE8F08F30680EA3F1
:10893000D3E90023A0FB0501FEF7E2FB20F07F4115
:1089400038460BF0BFFD074698E79DF82F209DF8AD
:108950002E000094234603210BF044FD6FF07300BA
:10896000D7E700BFAFF300808D49FD1A0700000074
:10897000301C002000CA9A3B89CF03008D49FD1AA4
:10898000FC4D0020447B0B0038B50F4D04460BF026
:1089900097FDA9680BF096FD696803460B48B3FB89
:1089A000F4F4A1FB00011C4405A3D3E90023FEF766
:1089B000A7FB20F07F40844294BF0020012038BDF7
:1089C0008D49FD1A07000000301C002000CA9A3BA8
:1089D000F0B5C468636883B00546002B54D116F027
:1089E000DDF8002016F0FEF80021084616F0ECF83D
:1089F00000222521082016F053F9414B019301A8CC
:108A000016F03AF93F4940F25B6016F0EBF9237A31
:108A1000C3F3420262F306132372204615F074F981
:108A200014F01AFA637A03F0030348BBFBB9276812
:108A30002E68384614F0BEFD06446A6806F1090146
:108A4000012016F017FB16F0D7FB20460EF0D2FAE5
:108A5000811C3246C9B2384614F0AEFD054600BB53
:108A6000204614F083FDD0B9002003B0F0BD0120F2
:108A700013F0D6FE4178821C007816F09BFAD6E7F8
:108A8000181E18BF0120F3E793F82C309B07A6D0DF
:108A90001D48214616F056F816F04EF9E4E700DEC0
:108AA000E2E71A4A1A491B4840F2114324F018FD24
:108AB000194B0721A5FB030301FB05310EA3D3E9E5
:108AC0000023FEF71DFB15490246154824F008FD5A
:108AD000002585F31188BFF36F8F0323184602DF4B
:108AE0001048214616F02EF816F026F96FF08B008C
:108AF000BBE700BFAFF3008000CA9A3B0000000054
:108B0000D6BE898E55555500FDD60300FCB1050033
:108B100048B20500C4B105008D49FD1A90B30500A7
:108B20004CB20500F9D903002DE9F043C468A28ACC
:108B30004FF6FF739A4283B000F0FD80064615F0B1
:108B400097FB3389628B208C94F82710A3831A44F7
:108B500092B2104480B2431C23840023638301F04B
:108B60003F034906E28300F1A48094F828100093A3
:108B700004F1290004F1220313F068F90546D4E951
:108B80000C31A26BA08BA36303FB0022E36B8A4230
:108B900094BF9B185B188B4228BF0B46626CE36343
:108BA000236C94F867101A4494F82C3061F3061380
:108BB0000021C4E9101294F87E2084F82C3012F0C1
:108BC000040200F0898015F0E9FF002016F00AF891
:108BD000201D16F051F82389A17A40F25B6043EA28
:108BE000014116F0FFF8284614F0F6FC21465848DB
:108BF00015F0A8FFA08916F031FA94F8662094F8D1
:108C00006700C2F3C003002102F0070200F0070072
:108C100016F04EF9204615F0C5FBD4F800803768F1
:108C2000404614F0C7FC0744726807F109010020B0
:108C300016F020FA814616F0B3FA002016F0CAFAB0
:108C4000E36B94F8670003F12F02636C012100F0DD
:108C5000070003EB420516F061F84D44054494F813
:108C6000670000F00700022834D004280CBF4FF43E
:108C7000BC73282301211D4416F052F8284416F035
:108C800081FAA18A03313A46C9B2404614F094FCF5
:108C90000546A8B1B37A13F002062BD000252D4863
:108CA000214615F04FFF16F047F8284603B0BDE8FF
:108CB000F083218D04F1220213F00AF905465EE7E4
:108CC000204614F053FC00283CD10025284603B070
:108CD000BDE8F0831823CDE7D4E91A010AF0D0F8F3
:108CE00000287FF470AF94F87E3043F0040384F8DA
:108CF0007E3068E7184A194919484FF4AC7324F0DC
:108D0000EFFB18480721A5FB000301FB05310EA36B
:108D1000D3E90023FEF7F4F913490246134824F07F
:108D2000DFFB86F31188BFF36F8F0323184602DF42
:108D30006FF08B05B3E70E48214615F003FF15F0E1
:108D4000FBFFC2E700DEC0E700CA9A3B000000005C
:108D5000C9E50300D9D6030078B2050048B2050082
:108D6000C4B105008D49FD1A9CB305004CB2050045
:108D7000FDD60300034B04480A461978013124F05C
:108D8000A2BB00BFA0720020E6C00500024B034852
:108D90001978013124F097BBA07200200FC10500A3
:108DA00030B5164D164C89B005F02EFD1422002169
:108DB00003A831F039FA29781248635C8DF80C3039
:108DC0000722A023CDE90423F0230F4A06930023B2
:108DD00052F82120009350F8211003A805F042FB1F
:108DE000014638B929780948625C013124F06BFBEF
:108DF00009B030BD064824F066FBF9E7A0720020F8
:108E0000C80A002004AB0500F8AA050037C1050018
:108E100072C1050008B5094909480B7803220133DE
:108E2000B3FBF2F202EB42029B1A01220B7001F03B
:108E300013FBBDE80840FFF7B3BF00BFA0720020DE
:108E400095C1050070B51449064614461D46FEF747
:108E500071F928B9114901222846A047002070BDA8
:108E60000F493046FEF766F910B90E490322F3E7C1
:108E70000D493046FEF75EF910B90C491822EBE7B0
:108E80000B493046FEF756F918B90A494FF4997262
:108E9000E2E76FF00100E2E799C10500A07200204F
:108EA0008AC30500C80A002092C60500CB0A00202C
:108EB0009DC60500680900201FB507240294044CD4
:108EC0000194BDF81840009428F01BFE04B010BDBA
:108ED0001A13060038B52FF03CFD4FF47A72A0FB50
:108EE000020302FB01310C4AC30BD2E9004043EA02
:108EF00041431C1B4FEAD13140F2E93561EB0000E0
:108F0000AC4270F1000006DBC2E900310348BDE865
:108F1000384020F027BE38BDD81100208C03002037
:108F200008B50A4824F0CFFA05F06EFC084B186823
:108F300038B1084B01221A70BDE80840132127F010
:108F400046BCBDE80840044820F00CBE9CC10500AA
:108F5000902200209F7200207C03002038B50C4D29
:108F60002B6883420C4603D105F0A0FF00232B6041
:108F70000848214624F0A7FA074B1A7832B100229C
:108F800006481A70BDE8384020F0ECBD0448F9E707
:108F900090220020CDC105009F7200207C0300209C
:108FA0005C03002008B559B927F0F5FB054B1860A4
:108FB000054B06481978BDE80840013124F083BA12
:108FC00008BD00BF90220020A0720020EDC1050066
:108FD000F0B403460A461979DB88006813430A4A4D
:108FE0000669876834689A4308BF83F440230125E3
:108FF0008D4023F48012DB074CBF2C43AC4334601C
:109000003B68F0BC184700BF010010002DE9F04795
:10901000ADF5567D11220221012016F0A1FB061E9E
:10902000C0F2B4800121039104230093062203AB14
:1090300016F0E4FC574B0020CDE90530082205A9C5
:10904000304616F0EDFB0028C0F2A080DFF8489112
:10905000DFF84881524F04AB08221A60019356ADE5
:1090600007AB00934FF4007200232946304616F0F8
:109070008FFC002805DA4FF48040002124F013F81B
:10908000E9E7484B1B78002BE5D0EF28E3DD2B7890
:10909000012BE0D1F02271E0352902F1010366D104
:1090A000911C814264DAEC5C002C61D015F801A0BF
:1090B0000AF0FD03012BCED10BAC4FF496720021C8
:1090C000204631F0B1F84FF4817323800623A3705A
:1090D0006B6863605DAB0FCB12AD85E80F00BAF132
:1090E000010F40F23513A4F8F03014BF052302231A
:1090F00084F8F230362384F8F3302B4A2B4BC4F833
:10910000EC70C4E93D232A4A332384F8FF3004235A
:10911000116884F8003145F20113A4F80231CDF84A
:1091200033114FF478635168A4F804311289CDF8F3
:1091300037110A231F4984F806314FF6FF70ADF846
:109140003B2109AB4FF0FF32C4E90498A4F8FC00BE
:1091500084F81101C3E900120822CDE9003221464A
:1091600000234FF48972304616F0DCFB73E721B11F
:10917000984208DDEB5C023313441A46824202DA5D
:10918000A95CFF2988D14FF0000A91E70DF5567DC3
:10919000BDE8F08701000043C0A80402C0A8040194
:1091A000638253639E72002004C0A804010104FF7F
:1091B00008C205000100004438B52FF0CAFB4FF487
:1091C0007A72A0FB020302FB01310D4AC30BD2E904
:1091D000004043EA41431C1B4FEAD13140F2E935DC
:1091E00061EB0000AC4270F1000007DBC2E9003126
:1091F0000448BDE8384001212FF070BD38BD00BFE4
:10920000C81100209C0D002038B52FF0A2FB4FF4B0
:109210007A72A0FB020302FB01310C4AC30BD2E9B4
:10922000004043EA41431C1B4FEAD13140F2DD5577
:1092300061EB0000AC4270F1000006DBC2E90031D6
:109240000348BDE8384020F08DBC38BDD011002067
:109250006C03002010B5154824F035F905F0D4FA58
:10926000134B186810B1132127F0B1FA114824F0FC
:109270002AF9114C20462EF07CFE60B1A3689B6851
:109280004BB14FF400424FF46C212046984710B97F
:109290000A4824F018F90A4824F015F94FF4004060
:1092A000002123F000FF012000F062FD13C2050041
:1092B0009022002053C205008CA6050090C2050034
:1092C000C2C205002DE9F04781EAE174A4EBE17424
:1092D0000A236425002107465B48B4FBF3F6B4FB80
:1092E000F5F903FB164605FB1945B5FBF3FA23F028
:1092F000A3FE5648002123F09FFE5548002123F08D
:109300009BFE4FF00008B8454CDB4FF48030002145
:1093100023F0C9FE4FF00008C84558D14FF4004073
:10932000002123F0C0FE092D66DD4FF000084748FC
:10933000012123F081FE43F23430002123F0B3FEFB
:109340004248002123F078FE08F1010843F234304E
:10935000002123F0A8FEC245E9DC4FF400400021C3
:1093600023F0A1FE002E5CD04FF000083848012108
:1093700023F062FE43F23430002123F094FE34489F
:10938000002123F059FE08F1010843F23430002196
:1093900023F089FE4645E9D14FF40030002123F047
:1093A00082FEAEE72848012123F046FE42F26760C4
:1093B000002123F078FE2448002123F03DFE42F2F4
:1093C0006760002123F06FFE08F101089BE71E484B
:1093D000012123F031FE43F23430002123F063FEFB
:1093E0001948002123F028FE43F23430002123F0F5
:1093F0005AFE08F101088FE7632CAEDD1348012106
:1094000023F01AFE40F6CD40002123F04CFE0F4819
:10941000002123F011FE43F23430002123F043FEFB
:109420009BE70B48012123F007FE40F6CD400021C9
:1094300023F039FE3146064823F0FEFD43F2343076
:10944000002123F030FEA7E738AC050030AC050062
:1094500028AC05002DE9F04F0021ADF23C5D4FF442
:10946000C03023F020FEA74824F02DF8A64824F0B1
:109470002AF8A64824F027F8A5482EF07AFD20B156
:10948000A4484FF4B011FFF7A3FDA1482EF071FDE1
:1094900020B1A1484FF4B011FFF79AFD9C482EF07F
:1094A00068FD20B19D484FF4B011FFF791FD984839
:1094B0002EF05FFD80B14FF480319948FFF788FDB1
:1094C000974823F0CDFD974A974B53609048082367
:1094D0001146936023F0AAFD94482EF04AFD88B10E
:1094E0004FF480319248FFF773FD914823F0B8FDA7
:1094F000904A914B53608D484FF40063114693603E
:1095000023F094FD89482EF034FD88B14FF480316A
:109510008A48FFF75DFD894823F0A2FD884A894B00
:10952000536082484FF480531146936023F07EFDD0
:109530008548864E06F070F90DF1240A002004F0EB
:109540006DF94EAC24F051FE03235146CAF80030A9
:10955000204604F033FDDAF8001003290CAD0EAFFD
:1095600005D17278FF2A02D0B378FF2B5AD1784800
:1095700023F0A9FF012004F093FD022004F090FDE8
:1095800094E80300ADF82C10090C0DF128090A909D
:109590008DF82E1099E803002860ADF83410C0F360
:1095A0000720C1F307414FF00108013061F03F018E
:1095B0006870A97185F800800021284604F010FD2C
:1095C0000028B8BF4046707099E803003860ADF8D5
:1095D0003C10C0F30720C1F30741023061F03F01A6
:1095E0007870B97187F800800021384604F0F8FCE3
:1095F0000028B8BF02205549B0700322554800F03A
:109600002BFFB37872783178534823F05CFFFFF773
:10961000C7FB5249524825F08BF9014628B1012079
:10962000FFF750FE31784F48EFE74F494C4825F09F
:109630007FF901460028F2D14C49494825F078F9D4
:1096400001460028EBD14A49454825F071F9014609
:109650000028E4D1474A424825F051FC024610B1A7
:1096600001460320DCE744493D48012325F021FD64
:10967000014608B10420D3E74049394825F010FFDE
:10968000014608B10520CBE7354825F084F80146AE
:1096900008B10620C4E718F009FA064610B90121FE
:1096A0000820BDE74FF08052D2F8A430D2F8A810BD
:1096B00061700A0A62F03F0222701A0EA2701A0C40
:1096C0005BBAE270A38018F085FD30232C4900932B
:1096D00032462346012017F0B5FC011E01DA0A20AC
:1096E0009EE728492A46012018F0BCFE00230322E9
:1096F0002946304618F0E8FA002845D10121092012
:109700008EE700BFECC2050017C30500EDC20500DF
:10971000E4A5050038AC050030AC050028AC050018
:1097200020AC0500AC220020D58E0200C8A50500A3
:1097300018AC0500A02200200992020010AC050020
:1097400094220020B991020034030020C80A0020AE
:1097500043C3050086C305008EC30500F002002048
:10976000A8100020CAC30500D8020020C0020020B3
:10977000A80200200803002014C40500E7CF04005D
:10978000000090501EC40500BA493A46012018F066
:1097900069FE3A46294630462AF0E5F801210622BC
:1097A000084615F0DDFF031E0393C0F287824FF0D9
:1097B0000108C5F800800423009302222B4641468D
:1097C00016F01CF94FF00009AB4BCDF83C903B6014
:1097D00008220398394616F023F80A21039816F058
:1097E0004BF801220023C4E90023C4F80890102399
:1097F00014220093414623460398A04D16F0FEF82C
:1098000049469F4885F8009023F016FC49469D483C
:1098100023F012FC9C4823F056FE9C4823F053FE94
:109820004FF0FF334FF0FF32CDE9002341464A4667
:1098300097482FF05EFA964849462FF052FA95481D
:1098400023F041FE944823F03EFE924823F03BFE75
:10985000924824F0D0FF304618F080FC88484146FA
:1098600023F0EAFB0021304623F0D5FB002838D056
:109870000821304623F0CFFB069090B380480021AA
:1098800023F0DAFB7F480121297023F0D5FB8448BF
:1098900023F019FE0823CAF80030039852460CA999
:1098A00016F014F8054600220023CDE9002378487D
:1098B00001212FF01EFA0646C8B1754800212FF08D
:1098C00010FA002D02DB284629F078F8754823F0BD
:1098D000FAFD4FF48040002123F0E5FB002000F06A
:1098E00047FA40F6CD40002123F0DDFBBAE7002D1A
:1098F000D0DB6348012123F09FFB4FF480623146A7
:10990000204630F091FC37464FF4FA7840F2FF3BA6
:10991000B1464023CDE90099ABEB0602A1192846D8
:1099200016F036F8002835DD07445F49204630F050
:10993000E7FC00283ED05D49204630F0E1FC0028DD
:1099400040D05B4B1E683046FDF706FC31460246B0
:10995000284623F0B4FB069E0121284615F032FF6D
:1099600000274023CDE9007780220EA9284616F073
:109970000FF80028F5DC40F26760002123F093FB2C
:10998000284629F01BF83E48002123F055FB002E05
:1099900080D09BE70AD040F267600021A8F132082E
:1099A00023F081FBB8F1000F3E46B2DC002FC2D19C
:1099B0000026D1E740F2FE339F423E46BBDC4FF427
:1099C000FA78A6E73B49204630F09AFC064670B18B
:1099D00001212C4823F030FB354B1E683046FDF743
:1099E000BBFB31460246284623F069FBE0E73249DB
:1099F000204630F085FC08B13146EAE72F49204681
:109A000030F07EFC10B12E492D22ECE72D49204686
:109A100030F076FC88B12C4B0193A3F10802009240
:109A2000103B2A4A4FF480710EA822F097FD0EA831
:109A3000FDF792FB0EA90246D5E7254915222046DF
:109A400030F017FC002849D1637D303B022B0CD845
:109A5000662253431F4A03F144011144019103F16B
:109A60002201114400911344DBE71B490EA8FDF7C6
:109A70006BFBDCE72AC40500010000509E72002049
:109A800028AC050030AC050038C4050069C40500E9
:109A90009C0D0020EDC20500B6C40500A8100020F2
:109AA00008C50500BDC6050062C7050054C5050010
:109AB000A00200205EC505006AC5050077C5050047
:109AC00088C50500B6C50500DB0A0020C8C505002D
:109AD0001FC605006809002035C605007A49102216
:109AE000204630F0C6FB8346002840F0BC80774912
:109AF000204630F005FC0646002861D07449204617
:109B000030F0FEFB00285BD0F378303B022B04934F
:109B100056D8C3780593303B022B51D86D494EA8D7
:109B200030F0EEFB6C4907464EA830F0E9FB0646E4
:109B3000FFB107F106080027CDE90E770DF13809CE
:109B40003B4618F80320202A03D0262A01D0072FED
:109B500042D10EAB4FF00008049A03F807805F4B28
:109B600003EBC2030EA90822184630F094FB80F8DC
:109B700007802EB30027CDE90E7706360DF13808A1
:109B80004FF02009F35D202B04D0262B02D0BBF12F
:109B9000070F47D1059B0499A3F130020EAB0026B5
:109BA00003F80B60662359430B46222101FB023365
:109BB0004B4A13440EA90822184630F06CFBC671BC
:109BC00046494848182200F047FC454946484FF4AA
:109BD000997200F041FCFFE6252A07F1010703F125
:109BE000010115D108EB010018F80110C1B108EB13
:109BF00003018978A1B10AAA3C49079322F0D8FC55
:109C0000079B0A9A89F80020033309F1010998E7B4
:109C10002B2A05D10B464FF0200289F80020F4E7EB
:109C20000133FAE7252B0BF1010B07F1010210D1EB
:109C3000B018B25C9AB1F219927882B12B490AAA93
:109C400022F0B6FC0A9B88F80030033708F10108BF
:109C500098E72B2B03D1174688F80090F6E70137D9
:109C600088F80030F2E72249204630F049FB30B94D
:109C70002049204630F044FB00283FF4C4AE1E4B80
:109C8000DFF878901E683046FDF766FA31460246E6
:109C9000284623F014FA002644F2933844F292370F
:109CA000A8EB060209EB0601284623F008FA002873
:109CB0007FF77EAE0644BE42F2DD79E64FF0FF301C
:109CC0000DF23C5DBDE8F08F67C6050031C60500AA
:109CD00078C605007CC6050083C60500CB0A0020B7
:109CE000680900208EC6050099C605008AC60500D1
:109CF000A6C60500ADC60500A40200205ECF050083
:109D0000014B1B68184700BF9C03002030B5044678
:109D100085B00D4610220021684630F085FA0223F6
:109D20008DF802302A46044B01932146684622F002
:109D300039FD05B030BD00BF019D020080B505466C
:109D40000E461746984620F00DFB034601F05CF9DD
:109D5000DFF81890044649F800304246304639464C
:109D6000A84754F8090001F0E9F800BF0800000016
:109D700008B50446EFF31183202383F31288BFF361
:109D80006F8F1EF07FF9204601F018FD024823F086
:109D90009AFB24F086FBFCE711C805002DE9F0478B
:109DA000058B0446280717460CD501290CBF45F042
:109DB000100545F02005258387F31188BFF36F8FC9
:109DC000BDE8F087022905F0070540F094802046A1
:109DD00023F01FFC052864D801A353F820F000BF2E
:109DE000B99D0200F79E0200A39E0200659E02003C
:109DF0007F9E0200919E020001F007035A1F012A74
:109E00001FD8002221F00701062BD4F8008089B268
:109E1000C4E9002209D1434603E0628B0132628328
:109E20001B68002BF9D141F002012183204623F069
:109E3000F0FB4FF0000900286DD041F02001218394
:109E400069E0042B0AD121F0070189B22183204661
:109E500023F0DFFB10B141F0200121834FF0000817
:109E6000C14658E02369D3F80090238B23F0070301
:109E700043F0060323834FF0000846464BE0236976
:109E8000D3F80490238B23F0070343F00403F1E796
:109E90002369D3F80890238B23F0070343F00503CD
:109EA000E8E74FF00008C146E7E7012243F0080366
:109EB000238387F31188BFF36F8F002A3BD1B8F15A
:109EC000000F4AD1B9F1000F02D02D492046C847F2
:109ED000EFF31187202383F31288BFF36F8F238B57
:109EE00023F008039BB22383D9063FD523F0100249
:109EF000228303F007056669218B002EBFF67CAF35
:109F00000023D4F8008021F00701C4E9003341F0B8
:109F1000010121839946238B03F0070AAA4502D049
:109F2000A268002AC1D1B8F1000F02D1B9F1000F27
:109F3000DAD00022BAE7A1680029C0D00D68002954
:109F4000BDD04F68334652462046B8471DB12B68F6
:109F500029461D46F3E72B46FAE74146334652466B
:109F60002046D8F8008023F080FBA8E79A067FF50A
:109F700023AF23F02002228303F0070527E700BF69
:109F800097D6040037B504460821C06A124D23F065
:109F900067FD00234FF6FF72ADF804306368ADF83B
:109FA00000208DF80620E26819182B401344181A77
:109FB00060606846ADF8021023F0AAFC69462046AE
:109FC00023F06DFD211D204623F07CFC63682B40AF
:109FD000A36003B030BD00BF0000FFFF2DE9F743D1
:109FE0000F4681460821C06A144D23F039FD3C68B4
:109FF000241A80463C6004EA0506B4421CD3A0B291
:10A0000010B903B0BDE8F08308236A4621464846EC
:10A0100023F01FFC0028F4D16946A0B223F00CFD08
:10A0200038B1BDF80230BDF804203C602E40134426
:10A030001E44A4EB0804E0E70020E2E70000FFFF75
:10A040002DE9F047044688B000F1140738462EF099
:10A050008DF8A06A8368DB689847E06228B96FF0E2
:10A060001505284608B0BDE8F087A06A8368DB685C
:10A0700098470368013B1F2BF1D8E368B3F5803F95
:10A08000EDD8A06A216805AA2CF0EBFF0028E6D1E4
:10A09000E568002DE3D0069BB5FBF3F203FB1255F8
:10A0A000002DDCD1238A012BD9D9E36A009593F8DE
:10A0B00005804FF0FF334FF0FF3238461FF04EFA65
:10A0C000E06A082123F0CCFCA9460646238A1FFA41
:10A0D00085FA534544D8238A4B4500F0FF809A45C2
:10A0E0000BD1009908234246891B204623F0BFFB71
:10A0F00018B96946204623F0E5FB69462046FFF77C
:10A100006DFF0546002840F0EB80009961604FEA42
:10A1100011494FEA0949C4F80890A3688B420DD849
:10A12000082301AA204623F094FBB8B901AB13F829
:10A13000012B904532D101300828F8D16368694677
:10A140006FF30F032046009323F0BCFBE3680099F4
:10A150004246204623F08BFB00283CDA0546BFE050
:10A16000E1682B04891B13FA81F14246082320463B
:10A17000009123F07CFB78B16946204623F0A2FBD6
:10A1800009F1010900990823424620461FFA89F97E
:10A1900023F06DFB00289ED0013597E7A08801A928
:10A1A00023F04AFC626810B9911B6160B5E7BDF805
:10A1B00008A0BDF80610E06AC4F80890514423F0E6
:10A1C0004FFC48448242A060EED1BAF1000FEBD0C0
:10A1D0006FF01C0584E05DD063684FF6FF7906EBF5
:10A1E0000308E368CDF800801FFA88F29B1B9A42AF
:10A1F0001CD34FF000086168B8F1000F30D06FF346
:10A200000F0100912046694623F05CFB009920462F
:10A2100023F065FB0028A1D1E368A288A3EB4603E5
:10A220009A425DD1204623F057FC97E7082303AA02
:10A230004146204623F00DFB00288FD103A91FFAC9
:10A2400088F023F0F9FB30B1BDF80C304B4502D15A
:10A25000BDF810300BB1B044C3E74FF00108CAE7B6
:10A26000204623F03CFB00287FF478AF6368214A46
:10A27000E16813400B44A3EB460363601340A36003
:10A280004146204623F0ACFCC4E7E26AA3681268AA
:10A290001344A360D4E901318B4208D95B1A4246CA
:10A2A000204623F0E4FA0028FFF658AFEDD16168AC
:10A2B000E36801EB46029A42AED10E4BA06801EA78
:10A2C00003029042A8D0204623F009FB00287FF427
:10A2D00045AF6268074B1A40A2609DE76FF02C05FE
:10A2E00038461FF0ADF9002D7FF4BBAE0123A374F7
:10A2F000B7E600BF0000FFFF014B0360002070477E
:10A3000040AC050070B5104B1C680D46B4B10F4B46
:10A31000196800238B4202DB6FF0010070BD2246FA
:10A3200012F8106B864202D001331446F2E7E0685F
:10A330002DF01FFE28B12C600020EFE76FF00C001D
:10A34000ECE76FF01200E9E7A003002040AC050045
:10A3500010B588B0436802938368C068CDE90332C2
:10A360000A680023CDE906230C4601AA0449059397
:10A370002CF07BFE079808B9059B236008B010BD40
:10A38000D9E0040007B51B491B4824F0D1FA70BB83
:10A390001A49194824F0CCFA48BB1949164824F048
:10A3A000C7FA20BB1749144824F0C2FAF8B901468D
:10A3B000154A114824F0A3FDC8B9024613490E48B6
:10A3C000012324F076FE90B9012300930146022375
:10A3D0000948EF2224F0B6F948B9074824F0DBF920
:10A3E00028B9054803B05DF804EB24F004BA03B0C3
:10A3F0005DF804FB180400202C100020000400204D
:10A40000E8030020D0030020A40300203AC8050080
:10A410001FB507240294044C0194BDF81840009421
:10A4200027F06FFB04B010BDFE0A002010B5DFF866
:10A4300024C086B04FF42814CDE904C40824029443
:10A4400004AC0194BDF82040009427F05AFB06B0FC
:10A4500010BD00BF180028002DE9F0410C4B1C680E
:10A4600005460E4617467CB100F018F96368204691
:10A47000D3F8108032463B462946C047044600F0D8
:10A4800017F92046BDE8F0816FF00104F9E700BF3D
:10A49000B822002000230360044B5A6812B9C3E9B4
:10A4A0000000704710605860704700BFBC22002059
:10A4B000014B1860704700BFB822002030B585B04E
:10A4C0000023CDE902330546019000F0E7F8094B7F
:10A4D0001C6844B9284600F083F8044600F0E8F808
:10A4E000204605B030BD636820461B6801A9984727
:10A4F0002468EEE7BC2200201FB5CDE901010392DC
:10A5000000F0CCF8074B1C6824B900F0D1F82046C5
:10A5100004B010BD636820461B6801A998472468F1
:10A52000F2E700BFBC220020024B0022C3E9002258
:10A53000704700BFBC220020024B0022C3E900226A
:10A54000FFF7F2BFC42200202DE9F74307460C466F
:10A5500009B100230B601F4DDFF87C9000264D45AC
:10A560000FD31E4B1D6885B355F8188C01AA4146C0
:10A570003846183D23F040FE10B3D6B914BB2E4622
:10A580001EE0D5F8008001AA4146384623F034FE8B
:10A5900050B116B954B92E4606E031680022404643
:10A5A00023F02AFE0028F5D11835D8E7019B236057
:10A5B000F1E731680022404623F01EFE0028DDD17D
:10A5C000AD69D0E7019B2360D9E7304603B0BDE811
:10A5D000F08300BFB0A9050058AA0500C4220020DE
:10A5E0002DE9F047DFF8A890DFF8A8A080464FF0EB
:10A5F00000470026284C3D464C450DD3DAF8004074
:10A60000002C40D0183CB8F1000F24D1226952BB75
:10A61000A469F5E72F46EDE7B8F1000F03D12269F1
:10A620004AB91834E8E720680022414623F0E4FDE7
:10A630000028F4D1F5E76368BB4206DDAF4202D0E3
:10A64000AB42A8BF2B461D46EBE7EAD19047002E50
:10A6500008BF0646E5E720680022414623F0CCFD0E
:10A660000028D3D1D4E76368BB4206DDAF4202D0F5
:10A67000AB42A8BF2B461D46CAE7C9D19047002E62
:10A6800008BF0646C4E7AF42C4D13046BDE8F087F4
:10A6900058AA0500C4220020B0A9050003484FF0C5
:10A6A000FF324FF0FF331EF059BF00BFD80C00201F
:10A6B00001481EF0C5BF00BFD80C002038B5094DB9
:10A6C000FFF7ECFF2B785BB9FFF736FF00F068F877
:10A6D000044608B901232B70FFF7EAFF204638BD76
:10A6E0000024F9E7A17200202DE9F043048F013422
:10A6F00099B006460F46A4B200F10808651EADB237
:10A70000B5F5004F47D04A2305AA2946404623F015
:10A71000DBFC04F57F543F34A4B28146214601237B
:10A720000DF10B02404623F0CFFCB9F1000F0146BA
:10A7300010DC002810DC338FAB4209D132466B1E8F
:10A7400022F8383F4FF400410223404623F087FBB4
:10A750002C46D3E7002808DC2946404623F05BFC62
:10A760002146404623F057FCE5E709F160030DEB75
:10A770000309002309F84C3C084A009703AB05A8DD
:10A78000CDF80C80ADF8104023F06CFD0028DFD030
:10A7900019B0BDE8F0830020FAE700BFD3E204005F
:10A7A0007FB50123694602200193FFF7ABFD044604
:10A7B00060BB02AA01A9022023F0B0FC044610B13C
:10A7C00010F10C0F22D10399B1F5803F23D2009AEA
:10A7D000002394681846084484421AD30133082B96
:10A7E000F9D10E4D69612B835368AB602846D3685D
:10A7F000EB6323F004FE044640B9094E6E60284620
:10A80000FFF748FE28466E60FFF752FE204604B070
:10A8100070BD9BB2E5E76FF02004F7E7CC22002083
:10A820009CAD050008B50348034A0021121A23F025
:10A830001BFE08BD40110020807300200748084A15
:10A84000084908B5121A23F011FE0748074A0849BB
:10A85000BDE80840121A23F009BE00BF0000002026
:10A860003C110020D016060000000020000000204F
:10A87000D016060038B505460C4699B1D1E901233A
:10A880000F48096822F01FFED4E90423E1680D484F
:10A8900022F019FEE1690C4822F015FEA1690B486F
:10A8A00022F011FE012D05D1EFF305810848103982
:10A8B00022F009FE21462846BDE838401EF0EEBBD6
:10A8C00061C8050091C80500C1C80500D1C80500D0
:10A8D00000C9050030BFFFF7FDBF00BF2DE9F04103
:10A8E0000B4EDFF8308006EB0807CC1B05463246DE
:10A8F000094920462FF071FCA01942460021083C6E
:10A900002FF092FCEC6707F10800BDE8F08100BF72
:10A91000000000000800000058AA05002DE9F843D7
:10A92000324D804632488946174622F0CCFDAB6A4C
:10A93000DE0622D52F4822F0C6FD1124AB6A1D0782
:10A9400003D52D4822F0BFFD1224284DAB6A98078D
:10A9500015D52A4822F0B7FD6E6BAB6A190642D5B1
:10A960002748314622F0AFFDB9F1000F03D0AB6AA2
:10A9700023F08003AB62132403E01024DEE76FF0C2
:10A9800015061A4DAB6ADA0703D51E4822F09BFD67
:10A990001424AB6A9B0603D51B4822F094FD1524B2
:10A9A000124B9A6AD50602D49A6A90070AD55B6858
:10A9B000190507D54146304600F076FA10B180F30C
:10A9C00009880224094B9A6A920642BF5A6A22F405
:10A9D00000525A629A6A42F0FF029A6200233B7068
:10A9E0002046BDE8F8836FF01506C4E700ED00E0EF
:10A9F00014C905002BC905005FC9050073C905000E
:10AA00008CC90500A3C90500C3C9050010B51D4CBC
:10AA10001D4822F058FDA36A990130D51B4822F049
:10AA200052FD1E20A36ADA0103D5194822F04BFD1E
:10AA30001F20144CA36A1B0303D5164822F043FDC4
:10AA40002120A36A590303D5134822F03CFD22209C
:10AA50000C4CA36A9A0303D5104822F034FD23203E
:10AA6000A36ADB0303D50E4822F02DFD2420054AFE
:10AA7000936A6FEA03436FEA1343936210BD1D208C
:10AA8000D0E700BF00ED00E0F3C905000CCA0500E7
:10AA900020CA05003BCA05005ACA050080CA050045
:10AAA0009BCA050070B5244C064624480D4622F08A
:10AAB0000AFDA36AD90435D5214822F004FD1720E8
:10AAC000A36A1A0503D51F4822F0FDFC18201A4C72
:10AAD000A36A9B050FD51C4822F0F5FCA16BA36A65
:10AAE000180407D5194822F0EEFC1EB1A36A23F41E
:10AAF0000043A3621920104CA36A590503D51448DA
:10AB000022F0E1FC1A20A36ADA050DD5114822F0E3
:10AB1000DAFC1B20084A936A43F47F4393620023C4
:10AB20002B7070BD1620CBE7A36A9B04F2D50A48B0
:10AB300022F0C9FC1C20EDE700ED00E0C7CA0500CB
:10AB4000DECA05005FC90500F0CA05000ACB050092
:10AB500020CB05003CCB0500C3C905002DE9F04121
:10AB60005D4B5F688AB00446C7F30806002585F38D
:10AB70001188BFF36F8F02F07F43B3F17F4F06D18F
:10AB800002F00C03082B13D1544822F09CFC002542
:10AB90002C464FF00008F31E8DF80780092B00F2B9
:10ABA0008C80DFE803F00A80847C8A8A8A8A8A881B
:10ABB00010074CBF0C460125EBE74948464E22F0F2
:10ABC00082FC8DF80780F36A9A0704D5454822F085
:10ABD0007AFC00232AE0F36A002B01DA4248F6E708
:10ABE000F36A5B00F5D5414822F06DFC7369A269F8
:10ABF00043F480737361BFF34F8FBFF36F8F32F8ED
:10AC0000023C726922F480727261BFF34F8FBFF30E
:10AC10006F8F03F47F42B2F55F4F27D1DBB2022B77
:10AC200024D12168324822F04EFC23689DF8072089
:10AC3000CAB902AE04F1200720686168324603C237
:10AC40000834BC421646F7D1099A002D41D0C2F310
:10AC5000080121B96FEA52226FEA4222099202A941
:10AC60001846FFF707FE0AB0BDE8F0811A4B9A6A52
:10AC7000D2B232B10DF1070201212046FFF74EFE9C
:10AC80000FE09A6A12F47F4F05D00DF10701012001
:10AC9000FFF708FF05E09B6AB3F5803F99D3FFF704
:10ACA000B5FE0346C2E70DF107020021E5E70DF10D
:10ACB00007010020ECE70F4889E70F4B0F491048C8
:10ACC00017F4F87FA6F1100208BF194622F0FBFB2B
:10ACD0007FE76FF30802C1E700ED00E083CB0500DA
:10ACE000AFCB0500C7CB0500E9CB0500F8CB0500CD
:10ACF00018CC050035CC050055CB05006ACB050006
:10AD00005ACC0500044B5A6942F010025A615A6944
:10AD100022F008025A61704700ED00E0EFF308806E
:10AD2000EFF3098101B57246FFF718FF01BD00BFBF
:10AD30000B4880F308881DF0C5F9202080F31188A6
:10AD400008484FF40461401880F30988EFF3148039
:10AD50000221084380F31488BFF36F8F00F06CF872
:10AD600040D4002080BA00201EF0040F0CBFEFF387
:10AD70000880EFF30980816911F8021C0229FFD0D5
:10AD800001B5724623F074FB01BD00BF40B200283C
:10AD900007DB044A4109012300F01F00834042F809
:10ADA0002130704700E100E040B200280CDB43098D
:10ADB000064900F01F0020330122824041F8232081
:10ADC000BFF34F8FBFF36F8F704700BF00E100E00C
:10ADD000054B420900F01F0053F82220012303FA1B
:10ADE00000F01040704700BF00E100E040B20028D2
:10ADF000A8BF00F1604001F10101B8BF064B4FEA66
:10AE00004111ACBF00F5614000F00F00C9B2B4BF02
:10AE1000195480F80013704714ED00E0044B054A04
:10AE200023F07F039360BFF34F8FBFF36F8F7047A3
:10AE30000070020000ED00E008B5FFF7EFFF0B4ADD
:10AE4000D2F8883023F47003C2F88830EFF314830B
:10AE500023F0040383F31488BFF36F8FFFF7E2FC42
:10AE6000FFF7ECFC00F0B2F81EF0E0F900ED00E0B6
:10AE700042F8203C009B42F81C3C0A49019B42F8E6
:10AE8000183C029B42F8143C21F001014FF0807302
:10AE900042F8043C42F8081C0023203A0265C0F83E
:10AEA000803070473D9D0200094A0346906870B1AA
:10AEB00013F1160FC06E05D0A0F14002934205D3E6
:10AEC000834203D2814228BF002070470020704790
:10AED000946B002008B515460B4A0C4B9060C26F6E
:10AEE0001A600E4600F0A2F82C4686F3098800206E
:10AEF000034B98472046002100220023014C2047A5
:10AF000095E404003D9D0200946B00200C2300207A
:10AF1000014B10221A61704700ED00E0054B5A69A1
:10AF20009B689A421FBF044A536843F080535360A2
:10AF3000704700BF946B002000ED00E0084B9B6859
:10AF400083420BD1EFF3058343B1064B5A6842F0BD
:10AF500080525A605A6A22F400425A621FF008BABC
:10AF6000946B002000ED00E015498A684FF0300036
:10AF70001044EFF3098C80E8F01F202080F3128842
:10AF8000BFF36F8F0F4F4FF000664A698A603E60D3
:10AF9000D06F0D4C2060D2F880000023C2F88030C2
:10AFA00080F3118804B5104600F040F8BDE8044075
:10AFB00002F1300090E8F01F8CF309887047000020
:10AFC000946B002004ED00E00C23002004480023D3
:10AFD0002021C2180133302B82F80013F9D17047B9
:10AFE00000E100E008B5EFF30583064A103B02EBF1
:10AFF000C30152F8330049688847BDE80840FFF7AD
:10B000008DBF00BFC4A6050001480068704700005E
:10B010000C230020024B034A0348012100F076B8BC
:10B020000000042000000020B8AD0500C36E054AF2
:10B03000403B1360044B4021C2E90113104601213B
:10B0400000F06EB81023002000000B15084AC2F86B
:10B0500098000B6823F01F03034343F01003C2F86A
:10B060009C308B6843F00103C2F8A030704700BFEA
:10B0700000ED00E02DE9F043DFF8608085B00E467A
:10B080001F4604464FF00009B14523DA6068D8B185
:10B090003FB1411E08421BD11F2819D9236819420C
:10B0A00016D12368019323F018FAA368034303938E
:10B0B000D8F89050C5F30725D0B2013DA84207D873
:10B0C00001A9FFF7C3FF421C09F101090C34DBE7BA
:10B0D0006FF01502104605B0BDE8F08300ED00E00A
:10B0E000044B0522C3F89420BFF34F8FBFF36F8F3B
:10B0F000704700BF00ED00E0BFF35F8F024B0022FE
:10B10000C3F89420704700BF00ED00E010B5034C79
:10B1100001232278FFF7AEFF207010BDA27200203D
:10B1200008B50B4A00231278FFF7A4FF10F1160FA1
:10B1300007D0084A0021D2F89030C3F30723984281
:10B1400000DB08BDC2F89800C2F8A0100130F2E799
:10B15000A272002000ED00E02DE9F0435A4B5B4D58
:10B16000D3F890302C68C3F307239C4285B000F2DB
:10B17000A780FFF7C1FF00200C2684421AD1544E4D
:10B18000DFF8449134706846FFF7B6F8514C524DE1
:10B1900080460027B84514D133784B490020D1F8B8
:10B1A0009020C2F307229342C0F28480FFF798FFF9
:10B1B000002045E0696806FB0011FFF747FF0130FA
:10B1C000DBE7009800EB07114FEA071CCB68234030
:10B1D000B3F5000F4DD00AD8B3F5001F33D0B3F547
:10B1E000800F3BD0B3F5801F13D00137D2E7B3F106
:10B1F000007F47D0B3F1805F4DD0B3F1807FF4D1B1
:10B2000050F80C3088684A6823F067F940F088707D
:10B2100009E050F80C3088684A6823F05EF940F085
:10B22000885040F43020CDE901230390D9F89030C4
:10B230003078C3F30723013B984234D96FF01500EF
:10B2400005B0BDE8F08350F80C3088684A6823F0F8
:10B2500044F940F0885040F40020E4E750F80C3006
:10B2600088684A6823F039F940F0007040F40030F3
:10B27000D9E750F80C3088684A6823F02EF940F07E
:10B280008270D0E750F80C3088684A6823F025F9BE
:10B2900040F48020C7E750F80C3088684A6823F0F3
:10B2A0001CF92843BFE701A9FFF7D0FE337801332B
:10B2B00033709AE7C1F89830C1F8A00001336EE707
:10B2C0004FF0FF30BCE700BF00ED00E0C4AD05006B
:10B2D000A27200200000F0FF0000021108B506492C
:10B2E000064821F00701C1F1005202F5802222F048
:10B2F000A7F8002008BD00BF7BA201201C2300206E
:10B3000003484FF0FF324FF0FF331EF027B900BF64
:10B310006004002001481EF093B900BF60040020C3
:10B3200038B50546FFF7ECFF08482A46082122F009
:10B3300016F8044628B925B1FFF766FE044B0C2227
:10B340001A50FFF7E7FF204638BD00BF1C2300203E
:10B350000C00000010B50446FFF7D2FF2146034859
:10B3600021F077FFBDE81040FFF7D4BF1C23002079
:10B3700070B5A0FB015434B92846FFF7D1FF06464B
:10B3800040B9304670BDFFF73FFE054B0C221A5006
:10B390000026F6E72A4621462EF046FFF1E700BFD9
:10B3A0000C00000070B54169867A0B4D044659B116
:10B3B000437ADB0706D42C2303FB06535B6A1B6826
:10B3C0009B689847002363612C20214600FB0650B0
:10B3D000BDE870402CF0A4BFC80D0020024B2C2209
:10B3E00002FB0030704700BFC80D0020827A064B78
:10B3F0002C2101FB02339A6A1B7F1B33801A23F036
:10B400000303B0FBF3F07047C80D002038B5074BBD
:10B41000827A2C2404FB02335B6AD3E901240C609A
:10B420001568FFF7E3FF04FB005038BDC80D00208E
:10B430002DE9F04385B005466846039190461C46C9
:10B440002DF089FADDE90067EFF31189202383F3FA
:10B450001288BFF36F8F6B8B002B41D02A8B9A42DF
:10B4600025D90022002328461EF03AF90446F0B1FF
:10B4700089F31188BFF36F8F039B002B41D03246B5
:10B480003B4668462DF08CFAA27A264B2C2101FB14
:10B49000023320465B6A1B6803A91D68DDE90023AF
:10B4A000A847606170BB2046FFF77CFF24E0698BF2
:10B4B0004B1E6B8389F31188BFF36F8F2B7F2A8B11
:10B4C000AC6A1B3323F00303521A02FB0344154BEF
:10B4D000154AEB1A9B105343A3722B7FE372CBE701
:10B4E00089F31188BFF36F8F2346424628461EF02A
:10B4F000F7F804460028BFD10024204605B0BDE877
:10B50000F0836361012300252381039B6382E27A38
:10B510006560294604F118002EF086FE63692582D5
:10B52000E360EAE7C80D0020A38B2EBA70B50D4C7E
:10B530002C2500B970BD037A4668002BFAD0013B78
:10B54000DBB20372002BF5D1C3604360837A05FB45
:10B5500003431B6A13B198473046EAE7FFF722FF1F
:10B56000FAE700BFC80D0020202800B508D9FFF772
:10B570004BFD094B09221A504FF0FF305DF804FBD8
:10B5800030235843054BBFF35B8F1B58BFF35B8FD2
:10B59000002BECD00020F1E70C000000302300204D
:10B5A00030B530231049434308330B44BFF35B8F5E
:10B5B0001A68BFF35B8FB2B1BFF35B8F541E53E8C1
:10B5C000005F954204D143E8004CBCF1000FF6D176
:10B5D000BFF35B8FEAD1012A05D1302358430A1803
:10B5E00000230B50536030BD2823002038B504469B
:10B5F0001546FFF7B9FF01300DD0084A30236343E9
:10B60000D0184068086015B10C3313442B60302308
:10B610005C43105938BD0020FCE700BF2823002000
:10B6200070B54FF0FF331D484FF0FF3223F06AF83A
:10B630001B4B0025BFF35B8F1A68BFF35B8F82B192
:10B640000135212D03F13003F4D1FFF7DDFC154B5B
:10B6500017221A504FF0FF35104823F055F82846AE
:10B6600070BD30246C43BFF35B8F53E8000F013093
:10B6700043E800010029F8D1BFF35B8F0A4E33196C
:10B6800032515A609A6204F10C0030442CF06EFD85
:10B6900004F1200030442CF0A5FFDDE7740C0020FD
:10B6A000302300200C000000282300202DE9F04169
:10B6B000164630240F4A4443101911514660C362A4
:10B6C000B6B1F368A3B1FFF79FFC0B4F0C3450F8F1
:10B6D00007801319054640F20512304623F003F89F
:10B6E000B8F15F0F04D0EB595F2B08BF45F8078016
:10B6F000BDE8F081282300200C0000002DE9F04176
:10B700000546FFF731FF431C044621D03026DFF801
:10B710004C806E4306F10C0747444FF0FF324FF068
:10B72000FF33384622F0EEFF08EB06035A689468B0
:10B7300044B1DB6A58F8060013F4404F0BD0294699
:10B74000A0470446384622F0DFFF2846FFF728FFCF
:10B750002046BDE8F081A047F3E700BF2823002082
:10B760000C4B0122C3F840254FF080434FF080512D
:10B77000C3F87825D1F83001082805D1D1F8341163
:10B78000022908BFC3F838260122C3F8802500200B
:10B79000704700BF00E0014048B1054B054A1B68F7
:10B7A000B3FBF2F35843044B43F0010318477047CF
:10B7B0004409002040420F00F0AA0500BFF34F8F5C
:10B7C0000549064BCA6802F4E0621343CB60BFF33D
:10B7D0004F8F00BFFDE700BF00ED00E00400FA0559
:10B7E00008B5054A054B136010463C2353601CF016
:10B7F0003FFD002008BD00BF582900203FC00F00BA
:10B80000F7B506460D461446124F38462CF0B1FBEC
:10B81000E0B1BB68AAB21B68314638469847002899
:10B8200002DB002003B0F0BD002CFBD1AC42F8D20B
:10B830002F1B042F28BF04272BF0D7FF3A46019077
:10B8400001A930192EF0C9FC3C44EFE76FF012005B
:10B85000E8E700BF00A605002DE9F04190F8283088
:10B8600003F01F03012B04460F4600F128062FD0DA
:10B87000022B18D08BB394F82910204622F0FEFF3B
:10B88000024678B3304623F0E3F81D4D002834D14A
:10B8900013693BB33A463146204698470346FFF7C3
:10B8A000B3FB2B5024E0818DC9B223F0C8FB0546C1
:10B8B0000028E0D0304623F0CBF802466868836861
:10B8C000CAB99B6873B13A463146BDE8F0411847A2
:10B8D000818DC9B223F09AFBE9E790F8291023F093
:10B8E000D1FBE4E7FFF790FB054B6FF085021A50A0
:10B8F0000020BDE8F081DB68E4E7D368C9E700BF5A
:10B900000C0000002DE9F04F0B7E33F0800893B05F
:10B9100004460D46164640F08E847AB10846FFF77D
:10B9200005FE6B7EDF0703D49E0711D52B7E7BB906
:10B93000204613B0BDE8F04F23F0B6B84A7E00F1C0
:10B940002809900708D5802B0CD12846FFF7EEFD7B
:10B95000404613B0BDE8F08F910700F02784002B1C
:10B9600040F02484D2072FD52B8A082B40F0068480
:10B97000EA681368A3625368C9F8043029460020B6
:10B9800022F016FE054610B1FFF7D0FDEFE0484665
:10B9900023F05EF8E28D70B9B2B12946A0692BF0B0
:10B9A00063F90146002800F02D84204613B0BDE85D
:10B9B000F04F23F0EABC3AB11146204623F0E0FCF8
:10B9C0000546002800F01E84FFF71EFB94F828802F
:10B9D000B14F002318F0600FC351C8F3411307D0D3
:10B9E000032B40F0BD81FFF70FFB6FF0850337E0BD
:10B9F000484623F02DF894F82930002840F04E8175
:10BA0000013B0A2BEFD801A252F823F083BB0200BE
:10BA1000E7B902000FBC0200E7B9020039BA020020
:10BA2000E7B90200E7B90200E7B90200A9BA0200CB
:10BA3000E7B902000BBB0200618D7F29D3D8A38D2B
:10BA4000002BD0D1E38D002BCDD118F01F0FCAD120
:10BA500094F83030022B05D1FFF7D6FA4FF0FF33C0
:10BA60003B5076E0A069036993F880301B0707D547
:10BA7000C9B223F04FF8804628B1002D6CD167E79A
:10BA8000012384F8393094F83030012B0AD1638DCA
:10BA900043B984F83030FFF7B7FA3B58002B00F079
:10BAA000858056E00123F4E7204622F046FE628DB1
:10BAB000FF2A014697D8E38D002B94D194F82830C3
:10BAC000D80690D194F83030002BC5D02AB1D2B22C
:10BAD000204623F0C1F90028BED0618D94F838309B
:10BAE0008B42D8D0C9B2204623F0BDF98046002849
:10BAF000C3D1628D002A14BF0223012384F83030A1
:10BB00000521204623F0E2FCC5E708F01F08B8F144
:10BB1000010F7FF468AFE38D002B7FF464AF628D7B
:10BB2000FF2A3FF660AFA18DFF293FF65CAF94F886
:10BB30003030022B90D1D2B2C9B2204623F0A3FB01
:10BB400010F1020F804640F01081FFF75DFA47F8D0
:10BB5000008065B14FF000082846FFF7E7FCB8F118
:10BB6000000F7FF4F5AEFFF74FFA3B58F3B14846AC
:10BB700022F06EFF0346A069002B00F04F83802166
:10BB800055E3E38D002B7FF42EAF94F83030002B7B
:10BB90003FF462AF012BA18D02D100297FF45CAF8D
:10BBA00018F01F080CD0B8F1020F16D0E38D002B4F
:10BBB00040F0D782204622F061FF0028D7D1B7E6B7
:10BBC00000297FF449AF638D012BEFD194F86C30DD
:10BBD00061F3C30384F86C30E8E7B4F82AA0BAF143
:10BBE000000FE3D15FFA81F84146204623F03EFC86
:10BBF0000346FFF709FA3B50013302D14FF0FF38FB
:10BC00003BE752464146204622F028FF43E7E38DBA
:10BC1000002B7FF4E8AE628DA38D022A5FFA83FACF
:10BC200011D108F01F085AEA08087FF4DCAEA069B9
:10BC30000122190A22F04BFF00287FF4D4AE012321
:10BC400084F8393027E794F8301000293FF404AF26
:10BC5000012902D1002B7FF4FFAE18F01F0811D08C
:10BC6000B8F1020FA2D1002AA0D15146204623F0FC
:10BC7000E8FB0346FFF7C8F93B500133BED0012271
:10BC80005146C0E7002B7FF4E7AE012A8ED194F82D
:10BC90006C3043F008039DE70C0000000A2B3FF6D0
:10BCA000A2AE01A252F823F0D5BC0200E7B902000F
:10BCB000E7B90200E7B90200E7B90200E7B90200FC
:10BCC0004FBD0200E7B90200DFC00200E7B9020081
:10BCD00009C10200E38D022B7FF485AE94F8303069
:10BCE000002B3FF4B9AE012BA18D02D100297FF4C6
:10BCF000B3AE18F01F0811D0B8F1020F1CD04FF0EE
:10BD0000000805F10C0A504622F09AFEE38D984295
:10BD100018D2FFF779F96FF00B03A1E600297FF441
:10BD20009BAE94F86C304FEA930808F00208C3F316
:10BD3000001348EA0308E4E7C9B2204623F0A5FB54
:10BD40008046DEE74146504622F08BFCA3E6B4F87D
:10BD50002AA018F01F0F4FEA1A235FFA8AFA09D0B7
:10BD600029462046FFF778FD8046B8F1000F7FF4A2
:10BD700084AE90E6013B0E2B3FF635AE01A252F8A1
:10BD800023F000BFC1BD020001BE0200ABBE020035
:10BD9000E7B90200E7B90200A3BE0200A3BE020099
:10BDA000E7B90200E7B90200E7B90200E7B902000B
:10BDB000E7B90200E7B90200E7B90200EDBF0200EF
:10BDC00005F10C08404622F03BFE83462046B4F8BD
:10BDD0002EA022F0B2FC20B101287FF404AE616FE6
:10BDE00000E0216F002900F02A820A78DA4528BF96
:10BDF000DA46524528BF5246404622F021FC4AE628
:10BE0000204622F09AFC0AF1010201900146D2B2CA
:10BE1000204622F0FBFF804600283FF4E4AD05F108
:10BE20000C0AD0F804B0504622F00AFE9BF800201D
:10BE3000824228BF02465946504622F001FCD8F8FB
:10BE40000CB0BBF1000F09D1298AE38D99427FF62E
:10BE500022AEC91A504622F00EFC1CE6DBF80400A4
:10BE600083681B6B13B9DBF800B0EAE701999847C8
:10BE70000028F8D0A0F1040858F8041F0029F2D0D7
:10BE80000A78002AEFD05046CDE9022122F0D8FDF1
:10BE9000029A0399904238BF82B2504622F0D0FBFA
:10BEA000EAE7204622F049FC9DE552460321204660
:10BEB00022F024FD824600283FF495AD22F0BBFD20
:10BEC000B4F82EB09AF81530C8B99AF814808DF8E5
:10BED00028808DF82930DAF8103005F10C0A1B881B
:10BEE000ADF82A30504622F0ABFDC3455A4628BF74
:10BEF0004246824228BF02460AA950467DE7DAF848
:10BF000008208DF81530C14B1340C14A4FF000088E
:10BF100093428DF8148058D1102106A82BF070FBA5
:10BF2000021EFFF660AD0AA9102ADFF8E8E20DF163
:10BF3000180C084628BF1022424501F1020133D8EF
:10BF4000920002325FFA82F88DF81480034605F100
:10BF50000C0A5046029322F073FDD845424628BF92
:10BF60005A46904228BF104602288346804628BF82
:10BF70004FF0020B5A46A8EB0B0805A9504622F0D9
:10BF80005FFB4FEA58030193029B9B4603EB580269
:10BF9000934521D118F0010F3FF47DAD019A995CD2
:10BFA000504622F056FB76E51CF8013B4FEA131A87
:10BFB00003F00F031EF80AA01EF8033001F802ACCC
:10BFC00001F8013C08F10108B6E79AF81480DAF8A4
:10BFD00010308DF81480BAE71BF8011B5046CDE9EC
:10BFE000023222F03EFBDDE90232D1E7204622F0A8
:10BFF000A4FB38B101282CD0FFF706F86FF08503B9
:10C000003B5048E5236F002B00F019815B88B3F5A6
:10C01000007FF1D9804B0A9300238DF82C30E36C1C
:10C0200004F14C0B9B4508BF0023BDF82A10A3B1B7
:10C030005A7D0F2A08D11A7D0A44ADF82A209DF8AE
:10C040002C2001328DF82C20226D934203D01B68E6
:10C05000EBE7636FD7E7BDF82A10019105F10C0AF1
:10C06000504622F0EDFCB4F82E800199884528BF97
:10C070008846804528BF80464246052A28BF0522BB
:10C080000AA95046019222F0DBFA019AB8EB0208A5
:10C090003FF401ADE36C5B453FF4FDAC002B3FF496
:10C0A000FAAC5A7D0F2A14D11A7D196901934245C1
:10C0B00028BF4246504622F0C3FA019B1A7D4245F2
:10C0C00094BFA8EB0208A8EB0808B8F1000F3FF4F2
:10C0D000E2AC226D93423FF4DEAC1B68DEE794F8DD
:10C0E0003030002B3FF4B8ACE38D012B7FF47BACF8
:10C0F00005F10C08404622F0A3FC00283FF409AEED
:10C1000094F8381040464CE708F01F08B8F1010FCA
:10C110007FF4A2AC204622F08DFE00283FF49CACB8
:10C12000B4F82CA0BAF1FF0F3FF65DAC43681B7961
:10C130005345FFF458AC5FFA8AF30F2B3FF653AC2C
:10C14000E38D012B7FF44FAC05F10C08404622F043
:10C1500077FC00283FF4DDAD04EB0A0393F83A10B6
:10C16000D0E7484622F074FC18B92846FFF7DEF9FC
:10C1700020E52946204623F008F908B1284603E4C3
:10C18000A069036993F8801011F004017FF4D0AB2B
:10C190002AF07EFD054600283FF4E9AC0146204622
:10C1A00023F0F3F800283FF4C3ABE7E752077FF52D
:10C1B000DEAC002B3FF4C9AB2846FFF7B7F994F883
:10C1C0003930002B3FF4C4AB94F82930052B05D14E
:10C1D000618DA069C9B222F09DFC064694F8293011
:10C1E000032B09D1638D022B06D1A18DA0690022FA
:10C1F000090A22F06CFC0646002384F83930B04668
:10C20000FFF7A6BB6FF00B06B1E400BF00FF020012
:10C210000003020058130600050F0500E38D002BF4
:10C220003FF4ADAC16F10C0118BF0121C9012AF091
:10C2300032FCFFF77DBB6FF00408FFF789BB6FF09E
:10C2400015081AE40B78062B10B414D10369D3F83F
:10C250009C20EFF31184202383F31288BFF36F8FA8
:10C260004B6800201860506A58B9C2E9083384F35B
:10C270001188BFF36F8F044810BC002200232BF0FD
:10C2800066BF03605362F2E7300D00202DE9FF41E5
:10C2900020264FF0FF335E484FF0FF3201A91DF01A
:10C2A000F9F8039B1B69D3F89C40236A93B1EFF321
:10C2B000118286F31288BFF36F8F216A29B1606AF9
:10C2C0000B682362814208BF636282F31188BFF367
:10C2D0006F8FC9B99DF80430062BDAD0072BD8D858
:10C2E00001A252F823F000BF3BC302002FC302009B
:10C2F0005BC3020041C302007FC3020075C302009A
:10C3000093C2020009C402000B7ED1F81E205D0614
:10C31000204609D1FFF7F6FA02460028C5D00721CA
:10C32000204623F0D3F8C0E722F080FEF4E7002295
:10C330000121204623F0CAF8ABE700221146F8E7B6
:10C3400094F86C3043F0040301A984F86C30204663
:10C3500022F008FC00220321EBE794F86C3023F074
:10C36000040301A984F86C30204622F0FBFB002274
:10C370000221DEE701A9204622F0F4FB89E794F8C8
:10C380006C30A76923F0040384F86C30D7F8088078
:10C390003B69BFF35B8FD3F8A030BFF35B8F9A0785
:10C3A0002FD5D8F83C3038469847D8F824300021AB
:10C3B00038469847D8F84030054638469847ADB9D2
:10C3C0002946204622F04FFD054678B9A0692AF09B
:10C3D0007EFC831E5842584194F86C3084F83050EB
:10C3E00023F0680343EA401384F86C3000220421F0
:10C3F000204623F06BF8002D3FF44BAF2A4607216F
:10C4000097E74FF0FF35F1E7029A062191E700BF69
:10C41000300D002030B589B000220023CDE906237D
:10C4200000246FF00703CDE90334CDE901441A4B32
:10C430001A4900944FF4806219481DF019FD1949FA
:10C4400017482CF0D9F8184B18498B4207D3184BD2
:10C45000184900208B4210D3002009B030BD03F1F1
:10C460001402BFF35B8F52E8000F42E80045002D35
:10C47000F9D1BFF35B8F1833E7E703F11402BFF381
:10C480005B8F52E8004F42E80005002DF9D1BFF361
:10C490005B8F1833DEE700BF8DC20200C07B002037
:10C4A000E0110020EAC70500241100203C11002003
:10C4B0003C1100203C11002038B5024609490546D0
:10C4C00080692AF06AFC044648B985F83800284695
:10C4D00022F09FFB044610B1A8692AF091FC204687
:10C4E00038BD00BF45C2020070B5084C084E054675
:10C4F000B44202D30024204670BD63682846196800
:10C50000FAF718FE0028F6D01834F1E724110020BD
:10C510003C11002070B50646EFF31181202383F310
:10C520001288BFF36F8F1B4D2A6881F31188BFF308
:10C530006F8F526892F86C20D20705D4BDE8704026
:10C54000212200231DF0B2BBEFF3118283F3128886
:10C55000BFF36F8F2C682CB1696823682B608C4205
:10C5600008BF6B6082F31188BFF36F8F44B16068BE
:10C5700004F10801C3699847074821462BF097FD4D
:10C580002B6833B130460022BDE8704000231DF017
:10C5900059BB70BD60290020300C002030B585B03B
:10C5A000CDE90012054600221448002303A91CF01F
:10C5B000D7FE0246E8B9039BDDE900015D60083360
:10C5C00083E80300EFF31180202383F31288BFF385
:10C5D0006F8F039B1A600A4A516861B9C2E9003340
:10C5E00080F31188BFF36F8F0648002200231DF0EF
:10C5F00029FB05B030BD0B605360F1E7300C002023
:10C6000060290020000000200B7803F01F03012B9D
:10C6100000B506D14B78432B09D003F0FD03842BE2
:10C6200005D0FEF7F1FC034B6FF085021A50002095
:10C630005DF804FB0C00000010B500220446002346
:10C64000024821F060FF00B1047610BD200E0020EA
:10C6500010B504690B4904F148002BF06AFFD4F8C7
:10C660001A10228B52EA31424FF0000308D1637650
:10C67000A37602232376032104F11B0022F048F85D
:10C68000002010BD89C602002DE9FF4150F8483C4A
:10C690000446002128381E6922F052FF002844D0A9
:10C6A000356995F8247077BB2B68586822F045F8F7
:10C6B000224B234A3946002814BF90469846102240
:10C6C00068462DF0B1FD42F6A123ADF80030AB680D
:10C6D00030699B7AADF80430102208236946CDE911
:10C6E0000288ADF8063023F022F8002802DB03238D
:10C6F00085F8243040F6CD420023204604B0BDE842
:10C70000F0411DF0D3BA042F07D10121304623F0A8
:10C7100040F80028EEDB0123EAE7022F02D10523CF
:10C7200085F8243004B0BDE8F08104F8240C3046CC
:10C7300023F02FF80028F5D0DCE700BF001BB7007E
:10C7400000389C1C70B50B7803F06003202B88B078
:10C75000154605D0FEF758FC134B86221A501FE0F1
:10C760004B78802B08D0852BF4D1104AD069116A00
:10C7700001AB03C308220EE00C4B01AC03F1180619
:10C7800018685968224603C20833B3421446F7D1E9
:10C79000186810601C2201A905F10C0021F050FF5F
:10C7A000002008B070BD00BF0C00000090AA05007A
:10C7B0002DE9F04F03691C690B7E9046A268814603
:10C7C00092F85700984285B00F4640F0BC80B8F10F
:10C7D000000F40F09280098A0B2940F28E80FE689B
:10C7E000B3880C2B40F089803268714B9A4240F03C
:10C7F0008480F3881B2903F1010323857DD93389C4
:10C8000099427AD1B1F5006F77D873890B2B74D91F
:10C81000A1F11002934270D8F518AA880F2A6CD99A
:10C82000F058DFF890C120F08070604565D1E8884D
:10C83000002862D19208901E0833032833445CD844
:10C8400002F18042033A03EB820033F82220002AEF
:10C8500053D14288002A50D11A8812B15888002832
:10C8600044D140F6CD40002116F024FC05460028B6
:10C8700043D0394628F0CBF995F8373043F001031F
:10C8800085F8373073891E44083636F8043C083B77
:10C89000C3F38F030393039B984521DA33880293F4
:10C8A000B6F802A0E3B1BAF1000F19D04FF0FF3291
:10C8B0004FF0FF336069CDE9002300231A4651464B
:10C8C00016F0F6FC834658B1284628F09AF90299EA
:10C8D000284628F0E5F9002821DA584628F0FEF825
:10C8E0000023AB60284628F0F9F806E0914204D313
:10C8F00002448A4203F10403AEDD3846FEF716FE19
:10C90000032104F1200022F04BFE012122F018FE49
:10C9100008B3484605B0BDE8F04F22F07FBF52464D
:10C920002946584628F0DBF90028D6DB60695946CD
:10C9300026F031FD002802DA584628F0CFF808F139
:10C9400001080436A7E792F85000984207D104F195
:10C950002C001CF0F7FE002005B0BDE8F08F92F827
:10C9600030209A421CD1B8F1000F06D0002384F881
:10C9700024303846FEF7DAFDEDE794F82430032B37
:10C9800008D1042384F824302122002304F1480034
:10C990001DF08CF994F82430012BEAD10223E6E74C
:10C9A000D9F8040005B0BDE8F04F22F047BD00BF44
:10C9B0004E434D484E434D30F7B5284C054616467C
:10C9C0001F46BFF35B8F2368BFF35B8FDA0726D563
:10C9D00018B96FF0010003B0F0BD01A921F030FCDF
:10C9E0000228024622D11E4928462DF025FC0028A7
:10C9F000EFD1BFF35B8F2368BFF35B8FC3F3C00539
:10CA00001B070CD4E43C152221463846B0470628C3
:10CA100007D81522294620462DF006FC6575002012
:10CA2000D9E70723B0FBF3F06075F8E70328D0D10E
:10CA300028460C492DF000FC05460028C9D13022BB
:10CA400004F19C013846B0470F28E8D83022294627
:10CA500004F19C002DF0E8FBE1E700BF8C01002011
:10CA60001BC705007DCC05002DE9F04389B09D79F9
:10CA7000DDF840905E791F7993F803C093F802E0E7
:10CA800093F801801B780C46B9F1000F15D0CDE961
:10CA90000639CDE904E81346CDE9027CCDE900561C
:10CAA0000D4A1FF05BFD002813DBA0422CBF6FF086
:10CAB0001500002009B0BDE8F083CDE90583CDE97C
:10CAC00003CE1346CDE90167044A00951FF046FDE9
:10CAD000E9E76FF01500EDE781CC0500A5CC050076
