:020000022000DC
:10700000C0C00020E59C020057B10400D19C0200E2
:10701000D19C0200D19C0200D19C02000000000023
:107020000000000000000000000000001D9D0200A4
:10703000D19C0200000000001D9F0200D19C0200B4
:10704000999F020095AC0300999F0200999F02004E
:10705000999F0200999F0200999F0200999F020048
:10706000999F0200999F0200999F0200999F020038
:10707000999F0200999F0200999F0200999F020028
:10708000999F0200999F0200999F0200999F020018
:10709000999F0200999F0200999F0200999F020008
:1070A000999F0200999F0200999F0200999F0200F8
:1070B000999F0200999F0200999F0200999F0200E8
:1070C000999F0200999F0200999F0200999F0200D8
:1070D000999F0200999F0200999F0200999F0200C8
:1070E000999F0200999F0200999F0200999F0200B8
:1070F000999F0200999F0200999F0200999F0200A8
:1071000053B94AB9002908BF00281CBF4FF0FF310E
:107110004FF0FF3000F00CB8ADF1080C6DE904CE73
:1071200000F01AF8DDF804E0DDE9022304B070474E
:10713000704700BF10F8012B11F8013B012A28BF4E
:107140009A42F7D0D01A7047034613F8012B002A51
:10715000FBD1181A013870472DE9F0478C468E464E
:10716000089E154604461946002B40F0D080724513
:1071700047D9B2FA82F74FB1C7F120030EFA07FCE4
:1071800020FA03F3BD4043EA0C0CBC404FEA154E15
:10719000A8B2BCFBFEF8230C0EFB18CC08FB00F9D0
:1071A00043EA0C43994528D9EB1808F1FF3204D281
:1071B000994502D9A8F102022B44A3EB0903A4B21A
:1071C000B3FBFEFC0EFB1C330CFB00F044EA034453
:1071D000A04214D92C190CF1FF3304D2A04202D9D9
:1071E000ACF102032C44241A43EA02401EB1FC40D5
:1071F000002334607360BDE8F0874246DDE76346F4
:10720000F1E7002A79D0B2FA82F3002B3FD0194679
:10721000C1F1200302FA01F52EFA03F20EFA01FE83
:1072200020FA03F343EA0E034FEA154E00FA01F485
:10723000B2FBFEFCAFB20EFB1C201A0C0CFB07F8D5
:1072400042EA004290455AD9AA180CF1FF3004D204
:10725000904502D9ACF102002A44A2EB08029BB28D
:10726000B2FBFEFC0EFB1C220CFB07F743EA0243B9
:107270009F4246D9EB180CF1FF3204D29F4202D94B
:10728000ACF102022B44DB1B42EA004202E0AEEB0F
:10729000020301224FEA154EAFB2B3FBFEFC200CF5
:1072A0000EFB1C330CFB07F840EA034398452AD930
:1072B000EB180CF1FF3004D2984502D9ACF1020072
:1072C0002B44A3EB0803A4B2B3FBFEFC0EFB1C3360
:1072D0000CFB07F744EA0344A74216D92C190CF11A
:1072E000FF3304D2A74202D9ACF102032C44E41BC1
:1072F00043EA00400F46114678E71F2188E76046C1
:10730000ABE76246BFE76046DBE76346EFE77345FE
:1073100006D916B9002108466DE7C6E9000EF9E75F
:10732000B3FA83F787B9734501D3824207D8841A29
:107330006EEB030301209C461EB900215BE7384633
:10734000FAE7C6E9004CF8E7C7F1200CBB4022FA87
:107350000CF51D4320FA0CF12EFA0CF30EFA07FE81
:1073600041EA0E014FEA154900FA07F4B3FBF9F8B8
:107370001FFA85FE09FB18300B0C08FB0EFA43EAD6
:1073800000439A4502FA07F240D9EB1808F1FF30A2
:1073900004D29A4502D9A8F102002B44A3EB0A03B8
:1073A00089B2B3FBF9F809FB183308FB0EFE41EA7A
:1073B00003418E452CD9691808F1FF3304D28E455C
:1073C00002D9A8F10203294443EA0040A0FB029835
:1073D000A1EB0E014145CE46434602D306D14C45B2
:1073E00004D2B9EB020E68EB05030138002EA4D0DD
:1073F000B4EB0E0261EB030101FA0CFC22FA07F375
:107400004CEA0303F940C6E9003196E74046C5E778
:107410004346D9E700000000F7B50022114640F6C8
:10742000034004F0AFFE0446002853D104F0CAFD27
:10743000214601AA41F2030004F0A4FE04460028FC
:1074400048D1019A254DD168D1F80100D1F8051035
:1074500005F1880303C3104603F042F8214601AA50
:1074600041F2010004F08EFE044698BB0198C36807
:107470005A7885F880205A88A5F882201A7985F8EC
:107480008120B3F80720A5F88420B3F80530A5F8CB
:10749000863003F025F8214601AA41F2020004F0EB
:1074A00071FE0446B0B9019FFA6805F19006531CBD
:1074B000413218685968344603C40833934226465B
:1074C000F7D1384603F00CF895F88C305F0607D4F6
:1074D0006FF01204204603B0F0BD00BFA8000020EA
:1074E00001AA002142F2030004F04CFE04460028E9
:1074F000F0D1019BC44EDA68D2F80100D2F8051031
:1075000003C6184602F0ECFF214601AA42F202002F
:1075100004F038FE04460028DCD1019CE368B3F88F
:10752000012091B249B1D97839B1A5F81421DA789E
:10753000114606F128002CF0ECFE204602F0D0FFA8
:1075400095F88C601F2316F02006A5F8303119D16C
:107550004FF0FF304FF0FF3104F05CFD044600288F
:1075600000F0698102210C3023F0A8FE0123037092
:1075700046702146324640F66D4004F003FE044654
:107580000028A7D195F8AC301E0712D501AA00211A
:1075900042F21C0004F0F6FD044600289AD101983E
:1075A000C368D3F80120D3F80530C5E93C2302F0C5
:1075B00097FF95F8E8309C0625D50DF10201684645
:1075C00025F01AF90446002884D14FF0FF304FF01F
:1075D000FF3104F01FFD0646002800F02C81042135
:1075E0000C3023F06BFEBDF800300380BDF8023094
:1075F00043802246314642F2240004F0C3FD044693
:1076000000287FF467AF95F8E83058062BD54FF087
:10761000FF304FF0FF3104F0FDFC0446002800F07D
:107620000A8102210C3023F049FEB5F8E0310380D5
:107630002146002242F22E0004F0A4FD0446002858
:107640007FF448AF014601AA42F22A0004F09AFDF5
:10765000044600287FF43EAF0198C3685B7885F844
:10766000323102F03DFF4FF0FF304FF0FF3104F0B8
:10767000D1FC0646002800F0DE8008210C3023F003
:107680001DFE95F8E84014F0400F40F2022308BFB9
:107690000323A10795F8E9104CBF43F02C0343F0F6
:1076A0000C03A70648BF43F0400311F0090F18BFB1
:1076B00043F4006304F001040246002143EA04108D
:1076C00025F07EF80022314642F2010004F05AFD16
:1076D000044600287FF4FEAE95F88C30B5F81411FE
:1076E000980600F18380C9B901AA41F2050004F0AF
:1076F00049FD044600287FF4EDAEB5F81431019C35
:107700004BB9E368B3F80120A5F814219A883F48E3
:1077100011462CF0FEFD204602F0E2FE4FF0FF3055
:107720004FF0FF3104F076FC0446002800F083801F
:1077300008210C3023F0C2FD95F8E830D907024645
:1077400059D433484FF0005125F03AF82146002231
:1077500040F6014004F016FD044600287FF4BAAE5E
:10776000014601AA4FF6014004F00CFD044620BB7F
:10777000019802F0B5FE214601AA4FF6024004F03E
:1077800001FD0446C8B90198C368B3F80130A5F8F3
:10779000D13002F0A5FE95F8D1305A070DD501AAD7
:1077A00021464FF6034004F0EDFC30B90198C36860
:1077B0005B7885F8D03002F093FE6B7D63BB05F0FB
:1077C000E5F9044600287FF485AE05F0CDFF0446B8
:1077D00000287FF47FAE6B7D002B3FF47BAE082149
:1077E0000C4824F0CDFF04F073FC73E6002995D11A
:1077F0006FF004046EE602A1D1E90001A4E700BF26
:10780000908800020080002090010020C00100202C
:10781000108800028C0100202E78002ECFD195F820
:10782000D1309B061ED54FF0FF304FF0FF3104F0F2
:10783000F1FB044610B96FF068044BE606210C30EA
:1078400023F03CFDD5F801300360084B9B88838012
:10785000214632464FF6064004F094FC04460028C8
:10786000ADD037E66FF0850434E600BFA9000020F4
:107870002DE9F843D0E90738856903EB08042F3474
:10788000A5420F46164619D8DFF86C80A3FB080105
:1078900017A3D3E90023FFF733FC0346601BA0FBCB
:1078A000080123F07F4412A3D3E90023FFF728FC4B
:1078B00020F07F403C603060BDE8F883DFF838900E
:1078C0000BA3D3E90023A5FB0901FFF719FC20F066
:1078D0007F440A480A2106A3D3E90023E8FB0901F3
:1078E000FFF70EFC20F07F403C603060BDE8F8837D
:1078F0008D49FD1A0700000000CA9A3B00166BF183
:10790000002800F051812DE9F04FCB4C94F85E2017
:1079100012F001058DB040F03481607EFF2300F04D
:107920000300A37612F0F6FD94F85E00420700F122
:107930002C81627F94F8293004EB820204EB8303EC
:10794000166AD3F82C8086B1BB4831460DF0DAF9BF
:1079500033785B0605D5062109F0C0F8002800F051
:107960005581B54841460DF0CDF9337813F00E0F2F
:1079700040F0918063691BB10C200DB0BDE8F08F21
:107980000BF0C0F88146002800F049810BF0C6F8E2
:107990008246002800F040810DF0D6FB0546002805
:1079A00000F05A81D0F888004FF6FF73AB8405F1E0
:1079B000100B002800F0358105F17C0205F17801FB
:1079C00009F098F8B5F8763023F4EF6323F0070355
:1079D00043F48C7343F00103A5F8763095F8373003
:1079E00003F03F0363F07F0385F8373095F88E305E
:1079F00023F0070385F88E3095F83C3023F00F0311
:107A0000002785F83C304FF4C023C5F88E31284656
:107A1000C5E91277C5F88870A5F88C7085F83970BB
:107A20006F85C5F82E702F65A5F86071A5F8947163
:107A3000A5F88A710FF01EFB85F86471C5F868918E
:107A40000DF04AFE95F89C3160F3020385F89C31F5
:107A50000DF048FE95F89C3160F3C50385F89C3124
:107A600095F8623167F34103012185F862312846B8
:107A70000EF0CCF905F1E0000FF01CF9C4E9159AFD
:107A8000C4F814B0C5E902772F702D6113F0ACFD76
:107A9000002840F0BD80237E0121C3F342030DF195
:107AA0002B008DF82B3009F0C7F9024600287DD055
:107AB000414630460CF01EFF604A614BB4F85C80D2
:107AC0000721E0FB023100251846C4E9025558A3FE
:107AD000D3E900232570FFF713FB60600AF042FB37
:107AE00000F10907B8F1000F07D1357805F00F054F
:107AF000A5F10105B5FA85F56D09207E636865F38A
:107B0000000010F00105207657D04E4A099200205F
:107B1000106002254C4ADFF8348104930BAE0193C8
:107B200005920321CDE90200069400903B46CDF872
:107B30001C8008962A460B950AF038FA31460BF05D
:107B400077F898BB424905914AF2D8330093CDE9C2
:107B50000300CDE90100CDF81C80089606943B4651
:107B6000012203210B950AF005FA31460BF060F86B
:107B7000E0B994F85E300120034384F85E3012F0DF
:107B8000ABFC00200DB0BDE8F08F2A4604F15F0188
:107B9000C0F3C00012F0F6FDFF28A0763FF4C9AE96
:107BA000284612F0D1FCC4E60CF03CBE6369002B01
:107BB0003FF4E2AE0CF00CFEDEE6224A25480493C8
:107BC00003F247130694029591211360A8FB00036A
:107BD00001FB08311D4B07931B4B05934FF6FF73B9
:107BE00009924FF0020803930BAE11A3D3E90023CF
:107BF000CDF82C800896FFF783FA3B46CDE900507C
:107C00004246284603210AF0D1F9AEE71220B4E635
:107C10000CF0DEFD0320B0E648460AF079FF0720AD
:107C2000ABE605F18000C5F88800C5E6AFF300803B
:107C30008D49FD1A07000000C444002000CA9A3B89
:107C40008C49FD1AB84400206D49030061220300ED
:107C500091460300002AE78450460AF065FF484633
:107C60000AF056FFDBE700BF70B5037E8AB0C3F3AE
:107C700042030D46044601210DF1230016468DF8FE
:107C8000233009F0D9F83146024628460CF032FE7E
:107C90001D4A1E4B0721E0FB0231184618A3D3E909
:107CA0000023FFF72DFA63689842054621D21B1A7C
:107CB00000220192164A0293164BA21AA3FB02322B
:107CC0000221520900230A4409AE09911249059183
:107CD000CDE9033303210696D2B2009318460AF089
:107CE000BBF931460AF0A4FF38B9656000200AB03C
:107CF00070BDFBD9C21A0023DBE70C200AB070BDAF
:107D00008D49FD1A0700000000CA9A3B8C49FD1AF4
:107D1000C44400204FECC44E612203000000000068
:107D20002DE9F04F05468BB08B4601200221994684
:107D3000144615F03FFA002202218246012008F085
:107D40002DFF2F494FF4D472284608F0B3FEC61C0D
:107D50002C4B0093F6B201954B4632460121002090
:107D60000AF0C8F910F0FD0F42D1274BA4FB0348DD
:107D7000204621A3D3E900234146FFF7C1F9089526
:107D800006956B680493214B20F07F47A7FB0331D6
:107D9000E01A1F4B07934FF007021E4B059302FB9F
:107DA00007114FF6FE7368EB010103934FF47A72EB
:107DB0000023FFF7A5F9CDF800B0CDE901704B46DF
:107DC0003246012100200AF0D5F810F0FD0F0DD148
:107DD000BAF1000F02D10BB0BDE8F08F01220221F1
:107DE00010460BB0BDE8F04F08F0D8BE00DEEFE75C
:107DF00000DEBAE7AFF300808D49FD1A07000000EE
:107E0000481600200550030000CA9A3B8D49FD1A10
:107E1000ED4F0300919903002DE9F0418468A28C95
:107E20004FF6FF739A428CB000F0C08005462046A2
:107E30000FF09CFB2B7D012B00F0E680022B00F065
:107E4000B88033B994F88E3003F01803182B00F083
:107E50001C8194F86471002F40F0AE802B8AE68D6F
:107E600094F93720CDE90A77002B00F0AC80002A86
:107E7000C0F221810023A4F89031AB7CA28D03F0E5
:107E80000303551C012BADB200F0BA80B4F8943155
:107E9000002B00F0BF80AB4240F237815B1B9BB2EE
:107EA000062BA4F894314FF000028CBF002301236D
:107EB000E2851F4694F83C2063F3820284F83C205C
:107EC00029460DF1270220460FF010F9743000F01A
:107ED0001681B4F88E312BB1AB4240F2BF805B1BF0
:107EE000A4F88E31B4F88A312BB1AB4240F2C6808F
:107EF0005B1BA4F88A31E58D17B9AE4200F0AC8067
:107F00000135ADB294F8D13013F0010609D1DDE9A5
:107F10000AC3B3BBBCF1000F00F0E9801E4619464E
:107F200030E094F9372023F00103002A84F8D1309F
:107F3000C0F28A8094F87600C0F3C00100F0070018
:107F400013F0D0F9B4F86E20B4F86C301344E28B1F
:107F500003F23F13134418448D4A8E4B0721E0FB74
:107F60000231184688A3D3E90023FFF7C9F86168F6
:107F700020F07F408142DDE90AC380F0B280461ADA
:107F800060600021A28C24690694CDE90357033276
:107F9000814D0291CDE900C6D2B2012100200595A4
:107FA0000AF05AF810F0FD0F40F0B4800CB0BDE8B4
:107FB000F0813D2784F86471394620460CB0BDE855
:107FC000F0410DF049BC002AB8BF84F8D570AB7CF5
:107FD000A28D03F00303551C012BADB210D0B4F8F1
:107FE0009031002B3FF452AFAB4240F29A805B1BC2
:107FF000A4F89031B4F89431002B7FF44CAF59E7DA
:108000000023A4F8943155E70023A4F88E31A4F896
:108010008A311EE7E38C052B8BBF40F2E2424FF41E
:10802000FA725A4303FB0222B4F8923142F2107101
:1080300001FB0323013BB3FBF2F39BB2A4F89431A1
:10804000002B7FF428AF35E794F87700012100F08A
:10805000070013F049F975E73D4653E70AF0A4FD20
:108060000146002864D00023A4F88E31A38CC3807D
:108070001B23037100680AF069FD33E70023A4F8AD
:108080008A3120460FF0C4F835E7218DB4F88C21F1
:108090008B1D9A42C4BF931F5B1AB4F88811CCBFE2
:1080A0009BB21346994256D0A4F88831A4F88A317D
:1080B000A4F88E21CDE694F8D530002B3CD0013BBE
:1080C00084F8D53004F1E00840460EF035FE002873
:1080D00055D040460EF030FE002842D00023E38504
:1080E000C8E6091A6060A3BB51EA0C021ED115B99B
:1080F000002F3FF45BAF00263146334642E79DF840
:10810000271020460DF0A8FB50E7082120460DF06F
:10811000A3FB4BE70AF0B6FD84423FF447AF00DE15
:1081200044E73E2120460DF097FB3FE71E4629E736
:108130000123A4F88E31D5E60AAA0BA92846FFF739
:1081400097FBDDE90A231343BCD0237884F8D530AC
:10815000B8E7002616E7B4F88E1100297FF479AE4F
:10816000A4E70246D4E91E0108F0DCFC0028B5D1E2
:1081700094F83C301B0744BF238DE3857AE6FF204B
:108180000DF02CFBA5E700BF8D49FD1A070000008C
:1081900000CA9A3B8C49FD1A4550030000000000BC
:1081A0002DE9F04F87B0B0F86071BDF84C900091A8
:1081B000CDE90423B0F82431BDF840A01F44BFB27C
:1081C0000446A7EB090390F87600D4F81C819EB210
:1081D000BDF844300193C0F3C001BDF848300396A8
:1081E00000F00700029313F07DF8E58C052D40F2B6
:1081F000A38015FB06F5ADB240F2E24BBAF1050FD4
:1082000040F28E80B4F86E20B4F86C30134403F260
:10821000D5130344764A77480721E3FB02014FF068
:108220009613E361962323846FA3D3E90023FEF71B
:1082300067FF564620F07F4040F2E2430BFB05F219
:1082400003FB06F6531E3344B3FBF6F31FFA83FB1E
:1082500060600BFB06F082425D4653D26449801A8F
:10826000A0FB010160A3D3E90023FEF749FF20F042
:108270007F408044B4F82421B4F86031A9EB0709A9
:108280004D44ADB213442B44A4F86031638D1344C4
:108290001D4494F837306585DB0955D100DE002791
:1082A0003546019B2385029BA4F892313146204636
:1082B000A4F826A00EF046FF4F4B218D3344881DB5
:1082C000B3FBF6F39AB29042A4F88C2104D2C1F524
:1082D0007F41FA310A4492B2009BA4F8882113B17D
:1082E0000023A4F8943143462A4639462046FFF736
:1082F00017FD94F8623143F0010384F8623107B04E
:10830000BDE8F08F121A3A48A2FB000136A3D3E968
:108310000023FEF7F5FE20F07F40A8EB0008A9E758
:108320004FF096130AF10106E36196232384B6B257
:108330000A204FF4FA7381E7039B013515FB03F51F
:10834000ADB24FF4FA7B59E7216CA36C284F01FBC7
:108350000233039A01FB1233A3640023C4F8DC3018
:1083600013F094F9054694F8D400C0F3420013F0DA
:108370008FF9054406FB05F5204B1E4805F57425CD
:1083800005F23F25A3FB0535AD0CA36C25640BFB63
:1083900005FB72085B44963A934228BF1346C4E932
:1083A0001123049B40F2E24909FB03F307212365F3
:1083B000EBFB07010CA3D3E90023FEF7A1FE104B52
:1083C000059AA8EB0008A3FB0230800A09FB00F025
:1083D000A0FB070104A3D3E90023FEF791FE751B60
:1083E00020F07F475DE700BF8D49FD1A07000000C0
:1083F00000CA9A3B8C49FD1A7FC3C90183DE1B4327
:108400005917B7D1000000002DE9F04F0D4616684E
:1084100095F8118009681446027FD1F8009093B056
:108420008346C2F38012D0F81E008DF83720B8F1D1
:10843000FF0FBBF822201090ADF8442057D110ABAD
:1084400093E803000E90ADF83C105A46BBF82E108E
:1084500052F82EAB9278A2722181DBF82A2062605A
:10846000DBF83A20C4F8222004F122009BF83E20D9
:108470000271052108F0E0FC94F8272000F03F008D
:1084800060F3050284F827209BF83F20C2F3040123
:1084900084F82810BBF83410E182012802F01F0292
:1084A00089B20AD91B3202F01F020B2A05D80639FD
:1084B00089B240F67A42914225D90021C9F80810C4
:1084C00094F82C2061F3000284F82C20DBF80C4097
:1084D0000125504659468BF804500AF02BFB2068C2
:1084E000257121460AF032FB13B0BDE8F08F0EAAC9
:1084F0000DF13701404611F04DFD9DF83720023255
:108500008DF83720A1E72A6800215160BBF836209A
:10851000E78A228340F2E24303FB07F73046BBF8C9
:1085200032300B930EF022FE9BF83F2096F8D410C9
:10853000520962F3430186F8D41013F0A7F80A90A9
:1085400096F8D400C0F3420013F0A2F80A9A10443F
:1085500007FB00F0AE4A00F5742000F23F20A2FBBA
:1085600000207A08800C963A206362639BF83120E1
:1085700040F2E24303FB02F26264BBF83820A6F843
:108580009221394630460EF0DDFDA24AA249C6F8D6
:1085900098113A44B2FBF7F290B2A6F88C01218B05
:1085A00001F1060C604504DDC1F57F41FA3101445B
:1085B00088B25A46A6F8880112F81C3FC3F340134C
:1085C000D2070A9300F115814FF48072ABF81C209A
:1085D00099F81A0012F00AFA002800F0EA80DBF895
:1085E0002420CBF82B20BBF82820ABF82F20B8F1A3
:1085F000FF0F00F0F880BDF844201098ABF8292058
:10860000CBF825009DF837208BF81E200E98BDF87A
:108610003C20CBF81F00ABF82320E28AABF83220D5
:10862000228BABF83420B6F89221ABF8362096F8BE
:10863000D420C2F342028BF8382030460CF090FD73
:10864000A082ABF80600D5F80480504659460AF0DF
:1086500071FA1C23A28A88F804300A9BD8F800A07B
:10866000A8F80620002B40F0B180DDF828B088F88B
:108670001CB0414650460AF069FA94F86700B4F815
:108680005CA0B4F85E80012100F0070012F02CFE1F
:10869000D04408F2D51808EB00038246DFF87C814D
:1086A0005F480721E3FB08014FF09613C4E9033349
:1086B00055A3D3E90023FEF723FD20F07F4070602F
:1086C000EB680B98226B40F2E24101FB003404F2AC
:1086D000B3440221A41A0120BF1A002208F05EFA56
:1086E00048460CF0CDFAA4EB0A0447A3D3E90023D3
:1086F0008246A4FB0801FEF703FDCDF80490AB68A9
:108700004849009120F07F480AF10202363BD2B27C
:1087100043440121002009F0EDFC01286BD099F8B9
:108720001830DB074AD430460CF01AFD3B4CA7FB4F
:10873000044935A3D3E90023834649462046FEF782
:10874000DFFCAB68384A0792A3F1360A374B06962E
:1087500020F07F47A7FB0331E01A354B05934FF418
:10876000F8730893736804934FF0070303FB071132
:1087700069EB010100244FF47A7200230394FEF7A1
:10878000BFFC0BF10305EDB2CDE90170CDF800801F
:1087900053462A460121204609F0ECFB10F0FD0F5C
:1087A0002FD101220221104608F0F8F913B0BDE8DC
:1087B000F08FCBF82B00ABF82F0018E70023012235
:1087C00000931846114609F05FFCACE794F8273097
:1087D00043F0400384F82730201D11F0C7F94FF013
:1087E000010B208543E70021CBF82510ABF82910B9
:1087F00008E700DEE8E60AF045FA81458FD000DEA2
:108800008DE700DECDE700BF8D49FD1A07000000AF
:1088100083DE1B437FC3C901404B4C0000CA9A3B17
:108820008C49FD1A199A0300699903008D49FD1AB4
:1088300091990300000000002DE9F04F8DB0484EE3
:10884000484D824609F08EFCF168074609F08CFC21
:108850007168F76040A3D3E900230446A1FB05013A
:10886000FEF74EFC20F07F439C4257D30DF12F01C1
:108870000DF12E000AF0C8F9DFF8E8803568A5FB95
:10888000085935A3D3E9002328464946FEF738FCAA
:10889000CDF818A004467068334B0593A0FB08017F
:1088A0002DA3D3E900234FF00008CDE90788FEF798
:1088B00027FC2E4BCDF80C8024F07F44A4FB033121
:1088C00020F07F40072202FB04110490E81A69EBB4
:1088D00001014FF47A720023FEF712FC9DF82FB0CD
:1088E0009DF82EA0CDF80080CDE901403B465A46C8
:1088F0005046032109F03EFB10F0FD0404D06FF058
:108900008B000DB0BDE8F08F19481A4A00231EF005
:1089100077FD90B930690DB0BDE8F08F30680EA3D7
:10892000D3E90023A0FB0501FEF7EAFB20F07F411D
:10893000384609F019FC074698E79DF82F209DF866
:108940002E0000942346032109F09EFB6FF0730074
:10895000D7E700BFAFF300808D49FD1A0700000084
:108960007819002000CA9A3B2DAC03008D49FD1AEE
:10897000BC4A0020447B0B0038B50F4D044609F07B
:10898000F1FBA96809F0F0FB696803460B48B3FBEB
:10899000F4F4A1FB00011C4405A3D3E90023FEF776
:1089A000AFFB20F07F40844294BF0020012038BDFF
:1089B0008D49FD1A070000007819002000CA9A3B73
:1089C000F0B5C468636883B00546002B54D113F03A
:1089D00037FF002013F058FF0021084613F046FF30
:1089E00000222521082013F0ADFF414B019301A87F
:1089F00013F094FF3F4940F25B6014F045F8237A8E
:108A0000C3F3420262F306132372204612F0CEFF34
:108A100012F074F8637A03F0030348BBFBB92768CC
:108A20002E68384612F018FC06446A6806F10901FF
:108A3000012014F071F914F031FA20460CF02CF9F1
:108A4000811C3246C9B2384612F008FC054600BB0C
:108A5000204612F0DDFBD0B9002003B0F0BD0120AC
:108A600011F030FD4178821C007814F0F5F8D6E75B
:108A7000181E18BF0120F3E793F82C309B07A6D0EF
:108A80001D48214613F0B0FE13F0A8FFE4E700DE16
:108A9000E2E71A4A1A491B4840F2114322F018F93A
:108AA000194B0721A5FB030301FB05310EA3D3E9F5
:108AB0000023FEF725FB15490246154822F008F968
:108AC000002585F31188BFF36F8F0323184602DF5B
:108AD0001048214613F088FE13F080FF6FF08B00E2
:108AE000BBE700BFAFF3008000CA9A3B0000000064
:108AF000D6BE898E55555500A1B30300FC6D050007
:108B0000486E0500C46D05008D49FD1A906F050083
:108B10004C6E05009DB603002DE9F043C468A28A9F
:108B20004FF6FF739A4283B000F0FD80064613F0C3
:108B3000F1F93389628B208C94F82710A3831A44AF
:108B400092B2104480B2431C23840023638301F05B
:108B50003F034906E28300F1A48094F828100093B3
:108B600004F1290004F1220310F0C2FF0546D4E904
:108B70000C31A26BA08BA36303FB0022E36B8A4240
:108B800094BF9B185B188B4228BF0B46626CE36353
:108B9000236C94F867101A4494F82C3061F3061390
:108BA0000021C4E9101294F87E2084F82C3012F0D1
:108BB000040200F0898013F043FE002013F064FEED
:108BC000201D13F0ABFE2389A17A40F25B6043EADB
:108BD000014113F059FF284612F050FB2146584836
:108BE00013F002FEA08914F08BF894F8662094F834
:108BF0006700C2F3C003002102F0070200F0070083
:108C000013F0A8FF204613F01FFAD4F8008037684D
:108C1000404612F021FB0744726807F10901002069
:108C200014F07AF8814614F00DF9002014F024F9BC
:108C3000E36B94F8670003F12F02636C012100F0ED
:108C4000070003EB420513F0BBFE4D44054494F8C6
:108C5000670000F00700022834D004280CBF4FF44E
:108C6000BC73282301211D4413F0ACFE284414F0EA
:108C7000DBF8A18A03313A46C9B2404612F0EEFA57
:108C80000546A8B1B37A13F002062BD000252D4873
:108C9000214613F0A9FD13F0A1FE284603B0BDE85C
:108CA000F083218D04F1220210F064FF05465EE797
:108CB000204612F0ADFA00283CD10025284603B02A
:108CC000BDE8F0831823CDE7D4E91A0107F02AFFA5
:108CD00000287FF470AF94F87E3043F0040384F8EA
:108CE0007E3068E7184A194919484FF4AC7321F0EF
:108CF000EFFF18480721A5FB000301FB05310EA378
:108D0000D3E90023FEF7FCF913490246134821F08A
:108D1000DFFF86F31188BFF36F8F0323184602DF4E
:108D20006FF08B05B3E70E48214613F05DFD13F09D
:108D300055FEC2E700DEC0E700CA9A3B0000000013
:108D40006DC203007DB30300786E0500486E050018
:108D5000C46D05008D49FD1A9C6F05004C6E050021
:108D6000A1B303002DE9F047ADF5567D1122022194
:108D7000012014F031FB061EC0F2A88001210391EE
:108D800004230093062203AB14F074FC514B002023
:108D9000CDE90530082205A9304614F07DFB0028F6
:108DA000C0F29480DFF83091DFF830814C4F04AB93
:108DB00008221A60019356AD07AB00934FF400727E
:108DC00000232946304614F01FFCEF28EFDD2B78F6
:108DD000012BECD1F02271E0352902F1010366D1BB
:108DE000911C814264DAEC5C002C61D015F801A082
:108DF0000AF0FD03012BDAD10BAC4FF4967200217F
:108E000020462DF0E5F94FF4817323800623A370EB
:108E10006B6863605DAB0FCB12AD85E80F00BAF1F4
:108E2000010F40F23513A4F8F03014BF05230223DC
:108E300084F8F230362384F8F3302A4A2A4BC4F8F7
:108E4000EC70C4E93D23294A332384F8FF3004231E
:108E5000116884F8003145F20113A4F80231CDF80D
:108E600033114FF478635168A4F804311289CDF8B6
:108E700037110A231E4984F806314FF6FF70ADF80A
:108E80003B2109AB4FF0FF32C4E90498A4F8FC0081
:108E900084F81101C3E900120822CDE9003221460D
:108EA00000234FF48972304614F078FB7FE721B13C
:108EB000984208DDEB5C023313441A46824202DA20
:108EC000A95CFF2988D14FF0000A91E70DF5567D86
:108ED000BDE8F08701000043C0A80402C0A8040157
:108EE0006382536304C0A804010104FFB67C05003B
:108EF000010000442DE9F04781EAE174A4EBE1743C
:108F00000A236425002107465B48B4FBF3F6B4FB53
:108F1000F5F903FB164605FB1945B5FBF3FA21F0FD
:108F200096FC5648002121F092FC5548002121F082
:108F30008EFC4FF00008B8454CDB4FF48030002128
:108F400021F0B3FC4FF00008C84558D14FF4004061
:108F5000002121F0AAFC092D66DD4FF000084748EA
:108F6000012121F074FC43F23430002121F09DFCFA
:108F70004248002121F06BFC08F1010843F2343033
:108F8000002121F092FCC245E9DC4FF400400021B1
:108F900021F08BFC002E5CD04FF0000838480121F6
:108FA00021F055FC43F23430002121F07EFC34489E
:108FB000002121F04CFC08F1010843F2343000217B
:108FC00021F073FC4645E9D14FF40030002121F037
:108FD0006CFCAEE72848012121F039FC42F26760C1
:108FE000002121F062FC2448002121F030FC42F2F3
:108FF0006760002121F059FC08F101089BE71E4839
:10900000012121F024FC43F23430002121F04DFCF9
:109010001948002121F01BFC43F23430002121F0DB
:1090200044FC08F101088FE7632CAEDD13480121F1
:1090300021F00DFC40F6CD40002121F036FC0F4818
:10904000002121F004FC43F23430002121F02DFCFA
:109050009BE70B48012121F0FAFB40F6CD400021AF
:1090600021F023FC3146064821F0F1FB43F2343075
:10907000002121F01AFCA7E74869050040690500B6
:10908000386905002DE9F04FADF2DC4DAF482AF00C
:1090900048FF10B1AE4821F0EEFBAC482AF041FF8A
:1090A00010B1AC4821F0E7FBA8482AF03AFF10B114
:1090B000A94821F0E0FBA949A94822F07DFA014620
:1090C00010B10120FFF716FFA649A54822F074FA57
:1090D00001460028F5D1A449A14822F06DFA0146C5
:1090E0000028EED1A1499E4822F066FA01460028E8
:1090F000E7D19F4A9A4822F046FD024610B1014648
:109100000320DFE79B499648012322F016FE014623
:1091100008B10420D6E79849914823F005F80146A4
:1091200008B10520CEE78E4822F079F9014608B152
:109130000620C7E78A4822F0A2F9014608B10720B5
:10914000C0E78548012121F082FB16F0EBFA0446C6
:1091500010B901210820B5E74FF080520AADD2F8CE
:10916000A430D2F8A81069700A0A62F03F022A708F
:109170001A0EAA701A0C5BBAEA70AB8016F066FE83
:1091800030237E49009322462B46012015F096FDA0
:10919000011E01DA0A2095E7204616F01BFE002189
:1091A000204621F049FBB8B10821204621F044FBBC
:1091B00090B16948002121F04AFB714903AA0120BE
:1091C00016F08CFF0023032203A9204616F0B8FBFB
:1091D00040B90121092075E740F6CD40002121F07A
:1091E00064FBDCE7674904AA012016F077FF04AAB4
:1091F00003A9204626F0F0FB4FF48040002121F027
:1092000054FB5448012121F022FB0121062208468B
:1092100014F0E2F8071EC0F2EF805B4B0022CDE9AC
:109220000632082206A914F037F90A21384614F04C
:109230005FF94FF00808CDF8148005AA08A9384650
:1092400014F080F9041E05DA4FF4A470002121F017
:109250002CFBF0E74048012136AD21F0F8FA00265A
:1092600000214FF4806228462CF0B2FF4FF4FA79C7
:10927000314640F2FF3BB2464023ABEB0102CDE961
:1092800000AA2944204614F0BFF900281CDD06443A
:109290003E4928462CF0F5FF00283FD03C4928469F
:1092A0002CF0EFFF0646002840D00121294821F08C
:1092B000CEFA384B1D682846FDF746FF2946024680
:1092C000204621F0F4FA0DE00AD0002140F2676058
:1092D000A9F1320921F0E9FAB9F1000F3146CBDCEE
:1092E000002EDBD10121204614F0A8F800254023F0
:1092F000CDE90055802216A9204614F085F90028F2
:10930000F5DC40F26760002121F0CFFA204625F01D
:109310008EFB1148002121F09AFA8CE740F2FE33CF
:109320009E423146BADC4FF4FA79A5E71A4928463D
:109330002CF0A7FF08B13146B8E7184928462CF0B1
:10934000A0FF78B316492D22BAE700BF6464050078
:10935000486905004069050038690500F0020020F1
:10936000B00E0020D8020020C0020020A802002079
:1093700008030020C17C050037A8040000009050BD
:10938000CB7C0500D77C050001000050A77D0500BF
:10939000E57C0500A0020020F17C0500FE7C0500B4
:1093A0000F7D0500174928462CF06BFF28B9164998
:1093B00028462CF066FF0028C4D0144BDFF850A0DC
:1093C0001D682846FDF7C0FE29460246204621F0CA
:1093D0006EFA002543F6252943F62426A9EB05025B
:1093E0000AEB0501204621F062FA00287FF77AAFE8
:1093F0000544B542F2DD75E74FF0FF300DF2DC4D6C
:10940000BDE8F08F3D7D0500447D0500A4020020ED
:109410002A850500014B1B68184700BF3403002054
:1094200030B5044685B00D461022002168462CF068
:10943000CFFE02238DF802302A46044B01932146C9
:10944000684620F0B3FF05B030BD00BF15940200A0
:1094500080B505460E46174698461EF0A7FD034602
:1094600000F0ACFDDFF81890044649F800304246A1
:1094700030463946A84754F8090000F039FD00BFCE
:10948000080000002DE9F047058B04462807174621
:109490000CD501290CBF45F0100545F020052583AA
:1094A00087F31188BFF36F8FBDE8F087022905F0BD
:1094B000070540F09480204621F0A3FC052864D8DD
:1094C00001A353F820F000BFA1940200DF95020031
:1094D0008B9502004D950200679502007995020078
:1094E00001F007035A1F012A1FD8002221F00701AB
:1094F000062BD4F8008089B2C4E9002209D1434682
:1095000003E0628B013262831B68002BF9D141F0CA
:1095100002012183204621F074FC4FF0000900284D
:109520006DD041F02001218369E0042B0AD121F0A4
:10953000070189B22183204621F063FC10B141F07C
:10954000200121834FF00008C14658E02369D3F879
:109550000090238B23F0070343F0060323834FF08F
:10956000000846464BE02369D3F80490238B23F090
:10957000070343F00403F1E72369D3F80890238B32
:1095800023F0070343F00503E8E74FF00008C14666
:10959000E7E7012243F00803238387F31188BFF331
:1095A0006F8F002A3BD1B8F1000F4AD1B9F1000FFB
:1095B00002D02D492046C847EFF31187202383F3BB
:1095C0001288BFF36F8F238B23F008039BB2238392
:1095D000D9063FD523F01002228303F00705666900
:1095E000218B002EBFF67CAF0023D4F8008021F041
:1095F0000701C4E9003341F0010121839946238B1F
:1096000003F0070AAA4502D0A268002AC1D1B8F126
:10961000000F02D1B9F1000FDAD00022BAE7A16839
:109620000029C0D00D680029BDD04F68334652468E
:109630002046B8471DB12B6829461D46F3E72B4647
:10964000FAE74146334652462046D8F8008021F0DA
:1096500004FCA8E79A067FF523AF23F020022283BB
:1096600003F0070527E700BF87AE0400014B036046
:10967000002070475069050007B51B491B4821F0C1
:109680009BFF70BB1A49194821F096FF48BB194946
:10969000164821F091FF20BB1749144821F08CFF98
:1096A000F8B90146154A114822F06DFAC8B90246C8
:1096B00013490E48012322F040FB90B90123009387
:1096C000014602230948EF2221F080FE48B90748ED
:1096D00021F0A5FE28B9054803B05DF804EB21F0A0
:1096E000CEBE03B05DF804FBAC030020340E0020B6
:1096F000940300207C030020640300203803002032
:10970000347E05001FB507240294044C0194BDF873
:109710001840009424F028FB04B010BD120900206A
:1097200010B5DFF824C086B04FF42814CDE904C486
:109730000824029404AC0194BDF82040009424F065
:1097400013FB06B010BD00BF180028002DE9F04142
:109750000C4B1C6805460E4617467CB100F02CF8F1
:1097600063682046D3F8108032463B462946C047FE
:10977000044600F02BF82046BDE8F0816FF00104AC
:10978000F9E700BFC01F00201FB5CDE9010103921A
:1097900000F012F8074B1C6824B900F017F82046B7
:1097A00004B010BD636820461B6801A9984724686F
:1097B000F2E700BFC41F002003484FF0FF324FF014
:1097C000FF331DF0EFBC00BFEC0A002001481DF084
:1097D0005BBD00BFEC0A002008B50348034A002126
:1097E000121A21F0B0FC08BD480F0020387000208C
:1097F0000748084A084908B5121A21F0A6FC07488C
:10980000074A0849BDE80840121A21F09EBC00BF73
:1098100000000020440F002010C3050000000020BD
:109820000000002010C3050038B505460C4699B16C
:10983000D1E901230F48096821F03DFAD4E9042356
:10984000E1680D4821F037FAE1690C4821F033FA5C
:10985000A1690B4821F02FFA012D05D1EFF3058105
:109860000848103921F027FA21462846BDE838403B
:109870001DF038BA5B7E05008B7E0500BB7E0500BF
:10988000CB7E0500FA7E050030BFFFF7FDBF00BFAD
:109890002DE9F0410B4EDFF8308006EB0807CC1BBA
:1098A00005463246094920462CF06BFCA019424679
:1098B0000021083C2CF08CFCEC6707F10800BDE8A7
:1098C000F08100BF0000000008000000986805005B
:1098D0002DE9F843324D804632488946174621F03B
:1098E000EAF9AB6ADE0622D52F4821F0E4F911240B
:1098F000AB6A1D0703D52D4821F0DDF91224284D50
:10990000AB6A980715D52A4821F0D5F96E6BAB6A7A
:10991000190642D52748314621F0CDF9B9F1000F9B
:1099200003D0AB6A23F08003AB62132403E010245E
:10993000DEE76FF015061A4DAB6ADA0703D51E484D
:1099400021F0B9F91424AB6A9B0603D51B4821F01A
:10995000B2F91524124B9A6AD50602D49A6A900776
:109960000AD55B68190507D54146304600F076FAFE
:1099700010B180F309880224094B9A6A920642BF0B
:109980005A6A22F400525A629A6A42F0FF029A62BC
:1099900000233B702046BDE8F8836FF01506C4E74E
:1099A00000ED00E00E7F0500257F0500597F0500D2
:1099B0006D7F0500867F05009D7F0500BD7F05004A
:1099C00010B51D4C1D4821F076F9A36A990130D5D8
:1099D0001B4821F070F91E20A36ADA0103D519484B
:1099E00021F069F91F20144CA36A1B0303D5164804
:1099F00021F061F92120A36A590303D5134821F00E
:109A00005AF922200C4CA36A9A0303D5104821F07E
:109A100052F92320A36ADB0303D50E4821F04BF94A
:109A20002420054A936A6FEA03436FEA1343936263
:109A300010BD1D20D0E700BF00ED00E0ED7F050068
:109A4000068005001A800500358005005480050059
:109A50007A8005009580050070B5244C06462448A0
:109A60000D4621F028F9A36AD90435D5214821F003
:109A700022F91720A36A1A0503D51F4821F01BF904
:109A800018201A4CA36A9B050FD51C4821F013F926
:109A9000A16BA36A180407D5194821F00CF91EB16F
:109AA000A36A23F40043A3621920104CA36A59054A
:109AB00003D5144821F0FFF81A20A36ADA050DD562
:109AC000114821F0F8F81B20084A936A43F47F43B9
:109AD000936200232B7070BD1620CBE7A36A9B0412
:109AE000F2D50A4821F0E7F81C20EDE700ED00E090
:109AF000C1800500D8800500597F0500EA80050077
:109B0000048105001A81050036810500BD7F05002E
:109B10002DE9F0415D4B5F688AB00446C7F3080643
:109B2000002585F31188BFF36F8F02F07F43B3F1F7
:109B30007F4F06D102F00C03082B13D1544821F0BB
:109B4000BAF800252C464FF00008F31E8DF8078068
:109B5000092B00F28C80DFE803F00A80847C8A8A7B
:109B60008A8A8A8810074CBF0C460125EBE74948D2
:109B7000464E21F0A0F88DF80780F36A9A0704D5C5
:109B8000454821F098F800232AE0F36A002B01DA17
:109B90004248F6E7F36A5B00F5D5414821F08BF8BF
:109BA0007369A26943F480737361BFF34F8FBFF38E
:109BB0006F8F32F8023C726922F480727261BFF3D7
:109BC0004F8FBFF36F8F03F47F42B2F55F4F27D102
:109BD000DBB2022B24D12168324821F06CF82368D3
:109BE0009DF80720CAB902AE04F120072068616819
:109BF000324603C20834BC421646F7D1099A002DFA
:109C000041D0C2F3080121B96FEA52226FEA422221
:109C1000099202A91846FFF707FE0AB0BDE8F081D5
:109C20001A4B9A6AD2B232B10DF1070201212046D5
:109C3000FFF74EFE0FE09A6A12F47F4F05D00DF148
:109C400007010120FFF708FF05E09B6AB3F5803F9D
:109C500099D3FFF7B5FE0346C2E70DF107020021D5
:109C6000E5E70DF107010020ECE70F4889E70F4B0E
:109C70000F49104817F4F87FA6F1100208BF1946E3
:109C800021F019F87FE76FF30802C1E700ED00E06B
:109C90007D810500A9810500C1810500E3810500E2
:109CA000F2810500128205002F8205004F81050018
:109CB0006481050054820500044B5A6942F0100289
:109CC0005A615A6922F008025A61704700ED00E0BB
:109CD000EFF30880EFF3098101B57246FFF718FF33
:109CE00001BD00BF0B4880F308881CF00FF820204E
:109CF00080F3118808484FF40461401880F3098804
:109D0000EFF314800221084380F31488BFF36F8FB0
:109D100000F06CF8C0C0002000A700201EF0040F67
:109D20000CBFEFF30880EFF30980816911F8021C82
:109D30000229FFD001B5724621F009FA01BD00BF2A
:109D400040B2002807DB044A4109012300F01F004C
:109D5000834042F82130704700E100E040B2002823
:109D60000CDB4309064900F01F002033012282402A
:109D700041F82320BFF34F8FBFF36F8F704700BFB1
:109D800000E100E0054B420900F01F0053F82220DB
:109D9000012303FA00F01040704700BF00E100E02B
:109DA00040B20028A8BF00F1604001F10101B8BF36
:109DB000064B4FEA4111ACBF00F5614000F00F00C7
:109DC000C9B2B4BF195480F80013704714ED00E015
:109DD000044B054A23F07F039360BFF34F8FBFF31B
:109DE0006F8F70470070020000ED00E008B5FFF7CC
:109DF000EFFF0B4AD2F8883023F47003C2F88830A2
:109E0000EFF3148323F0040383F31488BFF36F8FFD
:109E1000FFF7E2FCFFF7ECFC00F0B2F81DF02AF8C7
:109E200000ED00E042F8203C009B42F81C3C0A494F
:109E3000019B42F8183C029B42F8143C21F00101BE
:109E40004FF0807342F8043C42F8081C0023203A8B
:109E50000265C0F88030704751940200094A0346F9
:109E6000906870B113F1160FC06E05D0A0F14002DA
:109E7000934205D3834203D2814228BF002070471A
:109E8000002070475468002008B515460B4A0C4B5B
:109E90009060C26F1A600E4600F0A2F82C4686F35E
:109EA00009880020034B9847204600210022002308
:109EB000014C204773B10400519402005468002003
:109EC000CC1F0020014B10221A61704700ED00E00A
:109ED000054B5A699B689A421FBF044A536843F076
:109EE00080535360704700BF5468002000ED00E0CD
:109EF000084B9B6883420BD1EFF3058343B1064BBC
:109F00005A6842F080525A605A6A22F400425A62F9
:109F10001EF052B85468002000ED00E015498A6830
:109F20004FF030001044EFF3098C80E8F01F202040
:109F300080F31288BFF36F8F0F4F4FF000664A69AE
:109F40008A603E60D06F0D4C2060D2F88000002304
:109F5000C2F8803080F3118804B5104600F040F854
:109F6000BDE8044002F1300090E8F01F8CF309884E
:109F7000704700005468002004ED00E0CC1F002072
:109F8000044800232021C2180133302B82F800132B
:109F9000F9D1704700E100E008B5EFF30583064A08
:109FA000103B02EBC30152F8330049688847BDE813
:109FB0000840FFF78DBF00BF4465050001480068F9
:109FC00070470000CC1F0020024B034A03480121C8
:109FD00000F076B80000042000000020686A050048
:109FE000C36E054A403B1360044B4021C2E9011394
:109FF0001046012100F06EB8D01F002000000B15A4
:10A00000084AC2F898000B6823F01F03034343F08B
:10A010001003C2F89C308B6843F00103C2F8A030F3
:10A02000704700BF00ED00E02DE9F043DFF86080ED
:10A0300085B00E461F4604464FF00009B14523DAAD
:10A040006068D8B13FB1411E08421BD11F2819D901
:10A050002368194216D12368019321F0ADF8A36853
:10A0600003430393D8F89050C5F30725D0B2013DC0
:10A07000A84207D801A9FFF7C3FF421C09F1010953
:10A080000C34DBE76FF01502104605B0BDE8F08335
:10A0900000ED00E0044B0522C3F89420BFF34F8F7E
:10A0A000BFF36F8F704700BF00ED00E0BFF35F8F1D
:10A0B000024B0022C3F89420704700BF00ED00E07F
:10A0C00010B5034C01232278FFF7AEFF207010BDBE
:10A0D0005C6F002008B50B4A00231278FFF7A4FF3D
:10A0E00010F1160F07D0084A0021D2F89030C3F3C0
:10A0F0000723984200DB08BDC2F89800C2F8A01000
:10A100000130F2E75C6F002000ED00E02DE9F04344
:10A110005A4B5B4DD3F890302C68C3F307239C4215
:10A1200085B000F2A780FFF7C1FF00200C26844213
:10A130001AD1544EDFF8449134706846FFF796FA0E
:10A14000514C524D80460027B84514D133784B49C5
:10A150000020D1F89020C2F307229342C0F28480FD
:10A16000FFF798FF002045E0696806FB0011FFF744
:10A1700047FF0130DBE7009800EB07114FEA071CAF
:10A18000CB682340B3F5000F4DD00AD8B3F5001FBC
:10A1900033D0B3F5800F3BD0B3F5801F13D0013718
:10A1A000D2E7B3F1007F47D0B3F1805F4DD0B3F178
:10A1B000807FF4D150F80C3088684A6820F0FCFFAA
:10A1C00040F0887009E050F80C3088684A6820F048
:10A1D000F3FF40F0885040F43020CDE90123039094
:10A1E000D9F890303078C3F30723013B984234D933
:10A1F0006FF0150005B0BDE8F08350F80C308868AA
:10A200004A6820F0D9FF40F0885040F40020E4E78D
:10A2100050F80C3088684A6820F0CEFF40F000709B
:10A2200040F40030D9E750F80C3088684A6820F0D4
:10A23000C3FF40F08270D0E750F80C3088684A685D
:10A2400020F0BAFF40F48020C7E750F80C3088684F
:10A250004A6820F0B1FF2843BFE701A9FFF7D0FE0D
:10A260003378013333709AE7C1F89830C1F8A00011
:10A2700001336EE74FF0FF30BCE700BF00ED00E0B8
:10A28000746A05005C6F00200000F0FF00000211FE
:10A2900008B50649064821F00701C1F1005202F550
:10A2A000802220F0C5FC002008BD00BFFB8E0120ED
:10A2B000DC1F002003484FF0FF324FF0FF331CF04B
:10A2C00071BF00BFF403002001481CF0DDBF00BFD8
:10A2D000F403002038B50546FFF7ECFF08482A468E
:10A2E000082120F034FC044628B925B1FFF766FEAA
:10A2F000044B0C221A50FFF7E7FF204638BD00BF81
:10A30000DC1F00200C00000010B50446FFF7D2FF50
:10A310002146034820F095FBBDE81040FFF7D4BF6D
:10A32000DC1F002070B5A0FB015434B92846FFF7AC
:10A33000D1FF064640B9304670BDFFF73FFE054BE2
:10A340000C221A500026F6E72A4621462BF040FF41
:10A35000F1E700BF0C00000070B54169867A0B4D33
:10A36000044659B1437ADB0706D42C2303FB06537A
:10A370005B6A1B689B689847002363612C20214619
:10A3800000FB0650BDE8704029F0A2BFD00B0020B2
:10A39000024B2C2202FB0030704700BFD00B002084
:10A3A000827A064B2C2101FB02339A6A1B7F1B33F6
:10A3B000801A23F00303B0FBF3F07047D00B0020AA
:10A3C00038B5074B827A2C2404FB02335B6AD3E94D
:10A3D00001240C601568FFF7E3FF04FB005038BD53
:10A3E000D00B00202DE9F04385B005466846039167
:10A3F00090461C462AF087FADDE90067EFF31189E1
:10A40000202383F31288BFF36F8F6B8B002B41D017
:10A410002A8B9A4225D90022002328461CF084FF6B
:10A420000446F0B189F31188BFF36F8F039B002BB3
:10A4300041D032463B4668462AF08AFAA27A264B39
:10A440002C2101FB023320465B6A1B6803A91D68AF
:10A45000DDE90023A847606170BB2046FFF77CFF61
:10A4600024E0698B4B1E6B8389F31188BFF36F8FD8
:10A470002B7F2A8BAC6A1B3323F00303521A02FB97
:10A480000344154B154AEB1A9B105343A3722B7FC1
:10A49000E372CBE789F31188BFF36F8F23464246FF
:10A4A00028461CF041FF04460028BFD10024204666
:10A4B00005B0BDE8F0836361012300252381039B80
:10A4C0006382E27A6560294604F118002BF080FE71
:10A4D00063692582E360EAE7D00B0020A38B2EBAE4
:10A4E00070B50D4C2C2500B970BD037A4668002B61
:10A4F000FAD0013BDBB20372002BF5D1C36043609D
:10A50000837A05FB03431B6A13B198473046EAE799
:10A51000FFF722FFFAE700BFD00B0020202800B58C
:10A5200008D9FFF74BFD094B09221A504FF0FF30B5
:10A530005DF804FB30235843054BBFF35B8F1B587A
:10A54000BFF35B8F002BECD00020F1E70C00000084
:10A55000F01F002030B530231049434308330B442B
:10A56000BFF35B8F1A68BFF35B8FB2B1BFF35B8F32
:10A57000541E53E8005F954204D143E8004CBCF1FF
:10A58000000FF6D1BFF35B8FEAD1012A05D130234A
:10A5900058430A1800230B50536030BDE81F0020B9
:10A5A00038B504461546FFF7B9FF01300DD0084A0B
:10A5B00030236343D0184068086015B10C3313444E
:10A5C0002B6030235C43105938BD0020FCE700BFEE
:10A5D000E81F002070B54FF0FF331D484FF0FF32E9
:10A5E00020F0D4FE1B4B0025BFF35B8F1A68BFF32E
:10A5F0005B8F82B10135212D03F13003F4D1FFF7D8
:10A60000DDFC154B17221A504FF0FF35104820F093
:10A61000BFFE284670BD30246C43BFF35B8F53E808
:10A62000000F013043E800010029F8D1BFF35B8F30
:10A630000A4E331932515A609A6204F10C003044C8
:10A6400029F06CFD04F12000304429F0A3FFDDE780
:10A65000880A0020F01F00200C000000E81F0020E6
:10A660002DE9F041164630240F4A44431019115188
:10A670004660C362B6B1F368A3B1FFF79FFC0B4F0E
:10A680000C3450F807801319054640F20512304685
:10A6900020F06DFEB8F15F0F04D0EB595F2B08BFBF
:10A6A00045F80780BDE8F081E81F00200C0000009D
:10A6B0002DE9F0410546FFF731FF431C044621D048
:10A6C0003026DFF84C806E4306F10C0747444FF00C
:10A6D000FF324FF0FF33384620F058FE08EB0603F8
:10A6E0005A68946844B1DB6A58F8060013F4404F86
:10A6F0000BD02946A0470446384620F049FE28469C
:10A70000FFF728FF2046BDE8F081A047F3E700BF30
:10A71000E81F00200C4B0122C3F840254FF0804376
:10A720004FF08051C3F87825D1F83001082805D1C1
:10A73000D1F83411022908BFC3F838260122C3F822
:10A7400080250020704700BF00E0014048B1054B64
:10A75000054A1B68B3FBF2F35843044B43F0010373
:10A7600018477047B808002040420F0030690500C4
:10A7700008B5054A054B136010463C2353601BF097
:10A780009BFB002008BD00BF182600203FC00F0023
:10A79000F7B506460D461446124F384629F0C1FB60
:10A7A000E0B1BB68AAB21B6831463846984700281A
:10A7B00002DB002003B0F0BD002CFBD1AC42F8D28C
:10A7C0002F1B042F28BF042728F0E7FF3A460190EB
:10A7D00001A930192BF0D5FC3C44EFE76FF01200D3
:10A7E000E8E700BF806405002DE9F04190F82830CB
:10A7F00003F01F03012B04460F4600F128062FD05B
:10A80000022B18D08BB394F82910204620F07AFE42
:10A81000024678B3304620F05FFF1D4D002834D14A
:10A8200013693BB33A463146204698470346FFF743
:10A83000C5FB2B5024E0818DC9B221F044FA0546B6
:10A840000028E0D0304620F047FF02466868836861
:10A85000CAB99B6873B13A463146BDE8F041184722
:10A86000818DC9B221F016FAE9E790F8291021F09C
:10A870004DFAE4E7FFF7A2FB054B6FF085021A5093
:10A880000020BDE8F081DB68E4E7D368C9E700BFDA
:10A890000C0000002DE9F04F0B7E33F0800893B0E0
:10A8A00004460D46164640F08E847AB10846FFF7FE
:10A8B00017FE6B7EDF0703D49E0711D52B7E7BB975
:10A8C000204613B0BDE8F04F20F032BF4A7E00F1C1
:10A8D0002809900708D5802B0CD12846FFF700FEE9
:10A8E000404613B0BDE8F08F910700F02784002B9D
:10A8F00040F02484D2072FD52B8A082B40F0068401
:10A90000EA681368A3625368C9F804302946002036
:10A9100020F092FC054610B1FFF7E2FDEFE048465B
:10A9200020F0DAFEE28D70B9B2B12946A06928F0B4
:10A93000D4F90146002800F02D84204613B0BDE86C
:10A94000F04F21F066BB3AB11146204621F05CFB86
:10A950000546002800F01E84FFF730FB94F828809D
:10A96000B14F002318F0600FC351C8F3411307D053
:10A97000032B40F0BD81FFF721FB6FF0850337E02B
:10A98000484620F0A9FE94F82930002840F04E8176
:10A99000013B0A2BEFD801A252F823F013AB0200BF
:10A9A00077A902009FAB020077A90200C9A90200A3
:10A9B00077A9020077A9020077A9020039AA02004C
:10A9C00077A902009BAA0200618D7F29D3D8A38DAD
:10A9D000002BD0D1E38D002BCDD118F01F0FCAD1A1
:10A9E00094F83030022B05D1FFF7E8FA4FF0FF332F
:10A9F0003B5076E0A069036993F880301B0707D5C8
:10AA0000C9B220F0CBFE804628B1002D6CD167E79B
:10AA1000012384F8393094F83030012B0AD1638D4A
:10AA200043B984F83030FFF7C9FA3B58002B00F0E7
:10AA3000858056E00123F4E7204620F0C2FC628DB9
:10AA4000FF2A014697D8E38D002B94D194F8283043
:10AA5000D80690D194F83030002BC5D02AB1D2B2AC
:10AA6000204621F03DF80028BED0618D94F83830A2
:10AA70008B42D8D0C9B2204621F039F88046002850
:10AA8000C3D1628D002A14BF0223012384F8303021
:10AA90000521204621F05EFBC5E708F01F08B8F14C
:10AAA000010F7FF468AFE38D002B7FF464AF628DFC
:10AAB000FF2A3FF660AFA18DFF293FF65CAF94F807
:10AAC0003030022B90D1D2B2C9B2204621F01FFA09
:10AAD00010F1020F804640F01081FFF76FFA47F83F
:10AAE000008065B14FF000082846FFF7F9FCB8F187
:10AAF000000F7FF4F5AEFFF761FA3B58F3B148461B
:10AB000020F0EAFD0346A069002B00F04F8380216E
:10AB100055E3E38D002B7FF42EAF94F83030002BFB
:10AB20003FF462AF012BA18D02D100297FF45CAF0D
:10AB300018F01F080CD0B8F1020F16D0E38D002BCF
:10AB400040F0D782204620F0DDFD0028D7D1B7E6BF
:10AB500000297FF449AF638D012BEFD194F86C305D
:10AB600061F3C30384F86C30E8E7B4F82AA0BAF1C3
:10AB7000000FE3D15FFA81F84146204621F0BAFA8E
:10AB80000346FFF71BFA3B50013302D14FF0FF3869
:10AB90003BE752464146204620F0A4FD43E7E38DC3
:10ABA000002B7FF4E8AE628DA38D022A5FFA83FA50
:10ABB00011D108F01F085AEA08087FF4DCAEA0693A
:10ABC0000122190A20F0C7FD00287FF4D4AE01232A
:10ABD00084F8393027E794F8301000293FF404AFA7
:10ABE000012902D1002B7FF4FFAE18F01F0811D00D
:10ABF000B8F1020FA2D1002AA0D15146204621F07F
:10AC000064FA0346FFF7DAF93B500133BED0012264
:10AC10005146C0E7002B7FF4E7AE012A8ED194F8AD
:10AC20006C3043F008039DE70C0000000A2B3FF650
:10AC3000A2AE01A252F823F065AC020077A902008F
:10AC400077A9020077A9020077A9020077A902007C
:10AC5000DFAC020077A902006FB0020077A9020002
:10AC600099B00200E38D022B7FF485AE94F830306A
:10AC7000002B3FF4B9AE012BA18D02D100297FF446
:10AC8000B3AE18F01F0811D0B8F1020F1CD04FF06E
:10AC9000000805F10C0A504620F016FDE38D98429D
:10ACA00018D2FFF78BF96FF00B03A1E600297FF4B0
:10ACB0009BAE94F86C304FEA930808F00208C3F397
:10ACC000001348EA0308E4E7C9B2204621F021FA5C
:10ACD0008046DEE74146504620F007FBA3E6B4F885
:10ACE0002AA018F01F0F4FEA1A235FFA8AFA09D038
:10ACF00029462046FFF778FD8046B8F1000F7FF423
:10AD000084AE90E6013B0E2B3FF635AE01A252F821
:10AD100023F000BF51AD020091AD02003BAE020036
:10AD200077A9020077A9020033AE020033AE020019
:10AD300077A9020077A9020077A9020077A902008B
:10AD400077A9020077A9020077A902007DAF02006F
:10AD500005F10C08404620F0B7FC83462046B4F8C5
:10AD60002EA020F02EFB20B101287FF404AE616FED
:10AD700000E0216F002900F02A820A78DA4528BF16
:10AD8000DA46524528BF5246404620F09DFA4AE630
:10AD9000204620F016FB0AF1010201900146D2B2D2
:10ADA000204620F077FE804600283FF4E4AD05F110
:10ADB0000C0AD0F804B0504620F086FC9BF8002026
:10ADC000824228BF02465946504620F07DFAD8F804
:10ADD0000CB0BBF1000F09D1298AE38D99427FF6AF
:10ADE00022AEC91A504620F08AFA1CE6DBF80400AD
:10ADF00083681B6B13B9DBF800B0EAE70199984749
:10AE00000028F8D0A0F1040858F8041F0029F2D057
:10AE10000A78002AEFD05046CDE9022120F054FCF8
:10AE2000029A0399904238BF82B2504620F04CFA01
:10AE3000EAE7204620F0C5FA9DE552460321204668
:10AE400020F0A0FB824600283FF495AD20F037FCAF
:10AE5000B4F82EB09AF81530C8B99AF814808DF865
:10AE600028808DF82930DAF8103005F10C0A1B889B
:10AE7000ADF82A30504620F027FCC3455A4628BF7B
:10AE80004246824228BF02460AA950467DE7DAF8C8
:10AE900008208DF81530C14B1340C14A4FF000080F
:10AEA00093428DF8148058D1102106A828F080FB19
:10AEB000021EFFF660AD0AA9102ADFF8E8E20DF1E4
:10AEC000180C084628BF1022424501F1020133D870
:10AED000920002325FFA82F88DF81480034605F181
:10AEE0000C0A5046029320F0EFFBD845424628BF9B
:10AEF0005A46904228BF104602288346804628BF03
:10AF00004FF0020B5A46A8EB0B0805A9504620F05B
:10AF1000DBF94FEA58030193029B9B4603EB58026F
:10AF2000934521D118F0010F3FF47DAD019A995C52
:10AF3000504620F0D2F976E51CF8013B4FEA131A8F
:10AF400003F00F031EF80AA01EF8033001F802AC4C
:10AF500001F8013C08F10108B6E79AF81480DAF824
:10AF600010308DF81480BAE71BF8011B5046CDE96C
:10AF7000023220F0BAF9DDE90232D1E7204620F0B2
:10AF800020FA38B101282CD0FFF718F86FF08503AC
:10AF90003B5048E5236F002B00F019815B88B3F527
:10AFA000007FF1D9804B0A9300238DF82C30E36C9D
:10AFB00004F14C0B9B4508BF0023BDF82A10A3B138
:10AFC0005A7D0F2A08D11A7D0A44ADF82A209DF82F
:10AFD0002C2001328DF82C20226D934203D01B6867
:10AFE000EBE7636FD7E7BDF82A10019105F10C0A72
:10AFF000504620F069FBB4F82E800199884528BF9F
:10B000008846804528BF80464246052A28BF05223B
:10B010000AA95046019220F057F9019AB8EB0208AC
:10B020003FF401ADE36C5B453FF4FDAC002B3FF416
:10B03000FAAC5A7D0F2A14D11A7D19690193424541
:10B0400028BF4246504620F03FF9019B1A7D4245F9
:10B0500094BFA8EB0208A8EB0808B8F1000F3FF472
:10B06000E2AC226D93423FF4DEAC1B68DEE794F85D
:10B070003030002B3FF4B8ACE38D012B7FF47BAC78
:10B0800005F10C08404620F01FFB00283FF409AEF4
:10B0900094F8381040464CE708F01F08B8F1010F4B
:10B0A0007FF4A2AC204620F009FD00283FF49CACC0
:10B0B000B4F82CA0BAF1FF0F3FF65DAC43681B79E2
:10B0C0005345FFF458AC5FFA8AF30F2B3FF653ACAD
:10B0D000E38D012B7FF44FAC05F10C08404620F0C6
:10B0E000F3FA00283FF4DDAD04EB0A0393F83A10BD
:10B0F000D0E7484620F0F0FA18B92846FFF7F0F9F3
:10B1000020E52946204620F084FF08B1284603E4C4
:10B11000A069036993F8801011F004017FF4D0ABAB
:10B1200027F0EFFD054600283FF4E9AC0146204634
:10B1300020F06FFF00283FF4C3ABE7E752077FF52D
:10B14000DEAC002B3FF4C9AB2846FFF7C9F994F8F1
:10B150003930002B3FF4C4AB94F82930052B05D1CE
:10B16000618DA069C9B220F019FB064694F8293018
:10B17000032B09D1638D022B06D1A18DA06900227A
:10B18000090A20F0E8FA0646002384F83930B04670
:10B19000FFF7A6BB6FF00B06B1E400BF00FF020093
:10B1A00000030200AFBF0500050F0500E38D002B73
:10B1B0003FF4ADAC16F10C0118BF0121C90127F015
:10B1C000A3FCFFF77DBB6FF00408FFF789BB6FF0AE
:10B1D00015081AE40B78062B10B414D10369D3F8C0
:10B1E0009C20EFF31184202383F31288BFF36F8F29
:10B1F0004B6800201860506A58B9C2E9083384F3DC
:10B200001188BFF36F8F044810BC0022002328F080
:10B2100076BF03605362F2E7440B00202DE9FF4143
:10B2200020264FF0FF335E484FF0FF3201A91BF09C
:10B2300055FF039B1B69D3F89C40236A93B1EFF33E
:10B24000118286F31288BFF36F8F216A29B1606A79
:10B250000B682362814208BF636282F31188BFF3E7
:10B260006F8FC9B99DF80430062BDAD0072BD8D8D8
:10B2700001A252F823F000BFCBB20200BFB202001D
:10B28000EBB20200D1B202000FB3020005B302001C
:10B2900023B2020099B302000B7ED1F81E205D0696
:10B2A000204609D1FFF7F6FA02460028C5D007214B
:10B2B000204620F04FFFC0E720F0FCFCF4E700221E
:10B2C0000121204620F046FFABE700221146F8E7B7
:10B2D00094F86C3043F0040301A984F86C302046E4
:10B2E00020F084FA00220321EBE794F86C3023F07D
:10B2F000040301A984F86C30204620F077FA00227C
:10B300000221DEE701A9204620F070FA89E794F8CF
:10B310006C30A76923F0040384F86C30D7F80880F8
:10B320003B69BFF35B8FD3F8A030BFF35B8F9A0705
:10B330002FD5D8F83C3038469847D8F8243000212B
:10B3400038469847D8F84030054638469847ADB952
:10B350002946204620F0CBFB054678B9A06927F0A6
:10B36000EFFC831E5842584194F86C3084F83050FA
:10B3700023F0680343EA401384F86C300022042170
:10B38000204620F0E7FE002D3FF44BAF2A46072170
:10B3900097E74FF0FF35F1E7029A062191E700BFEA
:10B3A000440B002030B589B000220023CDE90623EC
:10B3B00000246FF00703CDE90334CDE901441A4BB3
:10B3C0001A4900944FF4806219481CF075FB194922
:10B3D000174829F0E9F8184B18498B4207D3184B46
:10B3E000184900208B4210D3002009B030BD03F172
:10B3F0001402BFF35B8F52E8000F42E80045002DB6
:10B40000F9D1BFF35B8F1833E7E703F11402BFF301
:10B410005B8F52E8004F42E80005002DF9D1BFF3E1
:10B420005B8F1833DEE700BF1DB20200807800207A
:10B43000D00F00202F7E05002C0F0020440F00208D
:10B44000440F0020440F002038B502460949054644
:10B45000806927F0DBFC044648B985F838002846A7
:10B4600020F01BFA044610B1A86927F002FD20461F
:10B4700038BD00BFD5B1020070B5084C084E054676
:10B48000B44202D30024204670BD63682846196880
:10B49000FBF750FE0028F6D01834F1E72C0F0020FF
:10B4A000440F002070B50646EFF31181202383F38B
:10B4B0001288BFF36F8F1B4D2A6881F31188BFF389
:10B4C0006F8F526892F86C20D20705D4BDE87040A7
:10B4D000212200231CF00EBAEFF3118283F31288AD
:10B4E000BFF36F8F2C682CB1696823682B608C4286
:10B4F00008BF6B6082F31188BFF36F8F44B160683F
:10B5000004F10801C36998470748214628F0A7FDC0
:10B510002B6833B130460022BDE8704000231CF098
:10B52000B5B970BD20260020440A002030B585B092
:10B53000CDE90012054600221448002303A91BF0A0
:10B5400033FD0246E8B9039BDDE900015D60083385
:10B5500083E80300EFF31180202383F31288BFF305
:10B560006F8F039B1A600A4A516861B9C2E90033C0
:10B5700080F31188BFF36F8F0648002200231CF070
:10B5800085F905B030BD0B605360F1E7440A002037
:10B5900020260020000000200B7803F01F03012B61
:10B5A00000B506D14B78432B09D003F0FD03842B63
:10B5B00005D0FEF703FD034B6FF085021A50002003
:10B5C0005DF804FB0C00000010B5002204460023C7
:10B5D00002481FF007FE00B1047610BD280C0020C1
:10B5E00010B504690B4904F1480028F07AFFD4F83B
:10B5F0001A10228B52EA31424FF0000308D16376D1
:10B60000A37602232376032104F11B001FF0C4FE5E
:10B61000002010BD19B602002DE9FF4150F8483C4A
:10B620000446002128381E6920F0CEFD002844D0B1
:10B63000356995F8247077BB2B6858681FF0C1FEF8
:10B64000224B234A3946002814BF904698461022C0
:10B6500068462AF0BDFD42F6A123ADF80030AB6884
:10B6600030699B7AADF80430102208236946CDE991
:10B670000288ADF8063020F09EFE002802DB03238E
:10B6800085F8243040F6CD420023204604B0BDE8C2
:10B69000F0411CF02FB9042F07D10121304620F0D2
:10B6A000BCFE0028EEDB0123EAE7022F02D10523CE
:10B6B00085F8243004B0BDE8F08104F8240C30464D
:10B6C00020F0ABFE0028F5D0DCE700BF001BB70080
:10B6D00000389C1C70B50B7803F06003202B88B0F9
:10B6E000154605D0FEF76AFC134B86221A501FE060
:10B6F0004B78802B08D0852BF4D1104AD069116A81
:10B7000001AB03C308220EE00C4B01AC03F1180699
:10B7100018685968224603C20833B3421446F7D169
:10B72000186810601C2201A905F10C001FF0CCFD67
:10B73000002008B070BD00BF0C000000C868050004
:10B740002DE9F04F03691C690B7E9046A268814683
:10B7500092F85700984285B00F4640F0BC80B8F18F
:10B76000000F40F09280098A0B2940F28E80FE681B
:10B77000B3880C2B40F089803268714B9A4240F0BC
:10B780008480F3881B2903F1010323857DD9338944
:10B7900099427AD1B1F5006F77D873890B2B74D9A0
:10B7A000A1F11002934270D8F518AA880F2A6CD91B
:10B7B000F058DFF890C120F08070604565D1E888CE
:10B7C000002862D19208901E0833032833445CD8C5
:10B7D00002F18042033A03EB820033F82220002A70
:10B7E00053D14288002A50D11A8812B158880028B3
:10B7F00044D140F6CD40002115F098FA05460028C6
:10B8000043D0394625F03CFA95F8373043F0010330
:10B8100085F8373073891E44083636F8043C083BF7
:10B82000C3F38F030393039B984521DA3388029374
:10B83000B6F802A0E3B1BAF1000F19D04FF0FF3211
:10B840004FF0FF336069CDE9002300231A465146CB
:10B8500015F06AFB834658B1284625F00BFA029989
:10B86000284625F056FA002821DA584625F06FF9C7
:10B870000023AB60284625F06AF906E0914204D324
:10B8800002448A4203F10403AEDD3846FEF728FE87
:10B89000032104F1200020F0C7FC012120F094FCDA
:10B8A00008B3484605B0BDE8F04F20F0FBBD524656
:10B8B0002946584625F04CFA0028D6DB60695946DF
:10B8C00023F0A2FD002802DA584625F040F908F1DD
:10B8D00001080436A7E792F85000984207D104F116
:10B8E0002C001BF053FD002005B0BDE8F08F92F84E
:10B8F00030209A421CD1B8F1000F06D0002384F802
:10B9000024303846FEF7ECFDEDE794F82430032BA5
:10B9100008D1042384F824302122002304F14800B4
:10B920001BF0E8FF94F82430012BEAD10223E6E76C
:10B93000D9F8040005B0BDE8F04F20F0C3BB00BF4C
:10B940004E434D484E434D30F7B5284C05461646FC
:10B950001F46BFF35B8F2368BFF35B8FDA0726D5E3
:10B9600018B96FF0010003B0F0BD01A91FF0D9FBB9
:10B970000228024622D11E4928462AF031FC00281E
:10B98000EFD1BFF35B8F2368BFF35B8FC3F3C005B9
:10B990001B070CD4E43C152221463846B047062844
:10B9A00007D81522294620462AF012FC657500208A
:10B9B000D9E70723B0FBF3F06075F8E70328D0D18F
:10B9C00028460C492AF00CFC05460028C9D1302233
:10B9D00004F19C013846B0470F28E8D830222946A8
:10B9E00004F19C002AF0F4FBE1E700BF8C01002089
:10B9F000607D0500778205002DE9F04389B09D79CF
:10BA0000DDF840905E791F7993F803C093F802E067
:10BA100093F801801B780C46B9F1000F15D0CDE9E1
:10BA20000639CDE904E81346CDE9027CCDE900569C
:10BA30000D4A1EF0B7FB002813DBA0422CBF6FF0AD
:10BA40001500002009B0BDE8F083CDE90583CDE9FC
:10BA500003CE1346CDE90167044A00951EF0A2FB10
:10BA6000E9E76FF01500EDE77B8205009F82050096
:10BA700070B504468CB01E461546AAB129B10A46D7
:10BA800002A804211FF031F902A900912B46224699
:10BA9000242103A8FFF7B0FF70B9109A314603A81C
:10BAA000FDF754FE0CB070BD0346054A242103A8DF
:10BAB0001EF078FB2328F0D96FF01500F2E700BFE5
:10BAC000C082050007B5064B06485A7DC2EBC2028C
:10BAD000009200221146FFF7CBFF03B05DF804FB94
:10BAE000A8000020607D050007B5074B0748A3F5B7
:10BAF000C07300225B7D1B0100931146024BFFF7D0
:10BB0000B7FF03B05DF804FB280200207782050030
:10BB100030B504468DB015469AB129B10A4602A83F
:10BB200004211FF0E2F802A900912B4622462421AD
:10BB300003A8FFF761FF60B903A81FF0CAFA0DB0B0
:10BB400030BD0346044A242103A81EF02BFB232802
:10BB5000F2D96FF01500F2E7C082050007B5009337
:10BB600013460A4601460348FFF782FF03B05DF81B
:10BB700004FB00BFFC8305000A4601460148FFF7AD
:10BB8000C7BF00BFFC83050007B5009313460A46F4
:10BB900001460348FFF76CFF03B05DF804FB00BFEC
:10BBA000F68305000A4601460148FFF7B1BF00BF12
:10BBB000F683050007B5009313460A46014603487D
:10BBC000FFF756FF03B05DF804FB00BFE7830500F5
:10BBD0000A4601460148FFF79BBF00BFE783050007
:10BBE00007B500220346009103481146FFF740FFC6
:10BBF00003B05DF804FB00BFEE83050008B5024802
:10BC00001BF0D4FD002008BD6805002008B50248DF
:10BC10001BF0CCFD002008BD5805002070B51B4C62
:10BC2000BFF35B8F2368BFF35B8F13F0010F2546D3
:10BC30001FD014F8CF3CA4F1E406E3B1BFF35B8F4F
:10BC40002368BFF35B8F5A0701D400F041FABFF3BA
:10BC50005B8F55E8003F23F4006245E8002100298E
:10BC6000F7D1BFF35B8F1B0503D5FFF7C7FFFFF7C6
:10BC7000CDFF002009E000F0D1FE30B9737D002B2C
:10BC8000DCD100F00BFF0028D8D070BD8C01002063
:10BC900007B5009313460A4601460348FFF7E8FE3E
:10BCA00003B05DF804FB00BF028405000A460146AC
:10BCB0000148FFF72DBF00BF0284050010B586B014
:10BCC000094B0A4803930024CDE9044428F003FCFF
:10BCD00003AB0093064905480A234FF4B0621BF0FA
:10BCE0006BFD204606B010BDC9820500581000202B
:10BCF000C07C0020014601481BF09EBD581000206A
:10BD00000146014828F0BCBB5810002030B503782C
:10BD1000012B11D0022B21D06BB9154B0A4603F130
:10BD2000100453F8045B42F8045BA342F9D1438842
:10BD30001A0A8A70CB7030BD0D4B0A4603F110040D
:10BD400053F8045B42F8045BA342F9D143681A0C30
:10BD5000180E4A700870C3F30722EAE700F11003D7
:10BD6000013913F8012901F8012F9842F9D1E2E7CE
:10BD7000E0BF050010B520F0A7FC28F00FFC04463A
:10BD800008B91CF04FF8BFF35B8F064B1B68BFF37D
:10BD90005B8F0BB10A2098471CB9BDE810401CF01E
:10BDA00055B810BD4436002038B5044608481FF089
:10BDB00019FA054648B1631EDBB21F2B96BF054A30
:10BDC0000021D15C0C301FF088FA284638BD00BF36
:10BDD000D80C0020F0BF05000F2810B50CD80D2896
:10BDE0000CD90A481FF0FEF9044618B104210C30A2
:10BDF0001FF073FA204610BD1328F2D009B1044891
:10BE0000F0E7BDE810400220FFF7CEBF300D002064
:10BE1000540C0020F8B506460F4601F051FC0446CC
:10BE200090B93946304604F047FC054600BB394618
:10BE3000304603F0E9FB174B1B6823B153F80C495C
:10BE400004B10C3CC3B9F8BD8378012B4FF000035B
:10BE500004BFD0F8A450C0F8A4304FF0130118BFAD
:10BE60001D4620F0A6FE204601F04AF9002DD8D04C
:10BE7000284622F030FDDAE79B6813B13946304698
:10BE800098472CB1E26802B10C3A23461446D9E730
:10BE90002246FAE7BC36002010B586B003AB00247A
:10BEA00000930749074805944FF0FF334FF4806231
:10BEB000CDE903441BF080FC204606B010BD00BF56
:10BEC00080820020001100202DE9F04788461646A8
:10BED0008246002870D0BFF35B8FDFF8E09000232C
:10BEE00059E8004F49E80032002AF9D1BFF35B8FCF
:10BEF000002C61D02046FEF753FA314D0C2303FB92
:10BF0000005027464388534511D0BFF35B8F59E853
:10BF1000003F49E80072002AF9D1BFF35B8F002B84
:10BF20004AD01F463846BDE8F047FEF7D9BAA642C8
:10BF300008D020461FF051F9328AF16804F10C0054
:10BF40001FF0C2F92046FEF72BFA0C2606FB005024
:10BF50004368ABB1B8F1000F12D12046FEF720FACA
:10BF600006FB005001214268536803F01F00814026
:10BF700010685B0900EB8300137ACBB120F000FC62
:10BF80002046FEF70DFA0C2606FB00508368002BB6
:10BF9000C8D02046FEF704FA704305F8008020461A
:10BFA000FEF7FEF906FB0055A8681BF0EFF9B9E7AC
:10BFB000C94320F0F9FBE3E7BDE8F0870002002069
:10BFC00048360020094BBFF35B8F1A68BFF35B8FC5
:10BFD00002F00B02BFF35B8F53E8001F43E8002021
:10BFE0000028F9D1BFF35B8F704700BF8C010020A0
:10BFF00010B5C1E900239DF808300B720C46FEF71E
:10C00000CFF9034B0C2202FB00335C6010BD00BF74
:10C0100048360020F8B502460B4610481FF0E2F8FB
:10C020000446C0B104210C301FF03DF92046FEF754
:10C03000B7F90B4D0C2707FB005000264680204621
:10C04000FEF7AEF907FB005086602046FEF7A8F920
:10C0500007FB00556E602046F8BD00BFAC0C002009
:10C060004836002037B502280C468DF80700C5B2C7
:10C0700014D829B10B49072220462AF0B1F840B95B
:10C0800009490DF10702284604F0B0FA002003B078
:10C0900030BD21462846FFF7BDFEF7E76FF01500DB
:10C0A000F5E700BFCDBF05009FC7040029289ABF50
:10C0B000014B185C0920704710C00500034B014676
:10C0C000D3F87C0182689268104700BFA800002066
:10C0D0000148042120F054BB8C0100200048704727
:10C0E000518305000149024828F0CAB978050020AB
:10C0F0000011002070B505460C4639B1CB684A697D
:10C100009B1A032B0ED86FF0150509E04FF0FF3096
:10C110004FF0FF31FFF77EFF044618B96FF0680556
:10C12000284670BD2046FEF73BF9144B0C2202FB5B
:10C130000033A618032130465D801FF0E7F8058024
:10C14000238A033B8370012130461FF0E7F840F655
:10C1500035439D4209D12046FFF7B0FF0546002830
:10C16000DED02046FEF7BCF9DAE70548214628F084
:10C17000A4F80025FFF7B6FFD2E700BF483600203D
:10C180000C0200202DE9F043064687B017460C4606
:10C1900069B94FF0FF304FF0FF31FFF73BFF044626
:10C1A00058B96FF06805284607B0BDE8F083887A73
:10C1B000FEF7EEF8304B834258D101220021684649
:10C1C00028F0A7F82046FEF7EBF8DFF8B0900C2334
:10C1D00003FB0090C0F808D020461FF007F8014686
:10C1E0003046FFF787FF054618B12046FEF778F97D
:10C1F000D9E74FF4A022002368461BF001F98046DE
:10C2000090B14FF4F1731E4A1E491F481EF060FDA5
:10C210001E48424631461EF05BFD85F31188BFF390
:10C220006F8F0323184602DF2046FEF7B9F80C2370
:10C23000584319F80060AEB12046093EFEF750F9A8
:10C24000092E0CD8DFE806F0050B0B08150B0B0BBD
:10C250000B126FF06E05A6E76FF00C05A3E76FF009
:10C260000405A0E7002FC0D03C609CE76FF01505E7
:10C2700099E76FF00B0596E7AC0C002048360020DC
:10C28000D28205005C8305003483050065830500C8
:10C2900010B5FBF7C1F8034B1B6813B1BDE81040A4
:10C2A000184710BD6C36002038B51BF0BBFD284D7B
:10C2B000D5F86431002B48D00022002305F5A0708A
:10C2C0001BF09EF8002840D10022002305F5B27033
:10C2D0001BF02AF8044668B91E4A1F491F4840F659
:10C2E000AA431EF0F5FC84F31188BFF36F8F03237C
:10C2F000184602DFD5F8580120B1FEF7F1F8002307
:10C30000C5F8583120461EF071FFC5F85801204687
:10C31000FFF7D4FE98B112481BF038F82046FEF71C
:10C320003FF8104B0C2202FB00301F2140882246B0
:10C33000FFF7CAFD2046FEF7D3F8FFF7D3FEFFF75D
:10C34000D1FEBDE838401BF081BD00F0EBFFF8E7FF
:10C35000A8000020D2820500AA83050034830500CE
:10C36000E80100204836002070B54FF0FF320D463E
:10C370004FF0FF3300210646FFF72EFD044660B95B
:10C380000A4A0B490B481A231EF0A2FC84F31188B9
:10C39000BFF36F8F0323184602DF022104F10C0064
:10C3A0001EF08CFF06704570204670BDAE83050000
:10C3B000AA83050034830500F8B50A4D6F7D064653
:10C3C0000024E3B29F4202D86FF0010007E0294643
:10C3D000304620F069FA0735631C08B12046F8BDE5
:10C3E0001C46EEE7A800002070B50D4DB5F8E04101
:10C3F0004FF47A735C434FF4004C40F2E730002175
:10C400004FF47A720023E4FB0C01FAF779FE02463E
:10C410000B4605F5D870BDE870401BF037BA00BF79
:10C42000A800002002282DE9F0410646884614465F
:10C4300032D84FF0FF304FF0FF31FFF7EBFD0746EA
:10C4400070B327210C301EF039FF414620F034FA3A
:10C4500005462246C31D04F1100152F8040B43F8AF
:10C46000040B8A42F9D1104A183602EB061205F184
:10C47000170302F11005144603CCAC421860596052
:10C48000224603F10803F6D139460022BDE8F04107
:10C4900042F22700FFF776BE6FF01500BDE8F0818D
:10C4A0006FF06800FAE700BFA80000207FB50546DE
:10C4B00014460E4671B32F49304620F0F5F948BBBB
:10C4C0002D4BC5EBC5003146184420F0F5F910227C
:10C4D0000021684629F07CFE274B183503EB051533
:10C4E00074B310226946204629F07AFE40B32B46E9
:10C4F00004F11005206861681A4603C20834AC4292
:10C500001346F7D11D4820F0DEF943072CD4002054
:10C5100004B070BD684620F0C9F80028F8D168461C
:10C52000FFF74AFF0028F5DA134BC5EBC5001844A6
:10C53000694620F0C1F9002EC9D001463046C4E753
:10C54000102128460EF0E2FA0028E1D1002CD9D0C3
:10C550002B4610351A4603CAAA4220606160134672
:10C5600004F10804F6D1CDE7FFF748FBFFF74EFBD7
:10C57000CDE700BFCDBF0500A80000208C01002042
:10C5800070B5144E06223146044629F029FEE0B16A
:10C590004FF0FF304FF0FF31FFF73CFD0546A8B1EB
:10C5A000062221460C301EF08FFE0022294642F260
:10C5B0000500FFF7E7FD40B93346226843F87929C3
:10C5C000A288B280012283F8782070BD6FF06800E5
:10C5D000FBE700BF2101002098B5114BBFF35B8F33
:10C5E00000AF53E8002F22F4807243E800210029B5
:10C5F000F7D1BFF35B8F13F8CF2C6C466AB1D31D14
:10C6000003F4FC73ADEB030D0121684629F0E0FD56
:10C610006946044800F0C6FAA546BD4698BD00BF6D
:10C620008C01002017CA0400022837B5034623D81E
:10C63000134820F048F9C2051CD4124D03F118002C
:10C64000694605EB00101FF0A9FF044620B1FFF773
:10C65000CBFE204603B030BD6846FFF791FF04468D
:10C660000028F4D14FF4807105F1E40020F084F942
:10C67000FFF7BAFE0024ECE76FF01504E9E700BF0E
:10C680008C010020A800002007B5002306488DF883
:10C6900007300DF1070100F085FAFFF79DFF03B0A9
:10C6A0005DF804EB20F0D1B9E1C8040038B50546C7
:10C6B0000C4604484FF4806120F05EF92B7A1C434D
:10C6C0002C7238BD8C01002007B50023CDE9000392
:10C6D00004496A46022003F0ABFF019803B05DF8FD
:10C6E00004FB00BFBBC90400F7B5044670B1404D60
:10C6F00095F8322195F833310AB19A4208D20133C4
:10C7000085F83331237A43F00403237203B0F0BD7C
:10C7100000210222084600F0EDFF064648B12046FF
:10C720000121FFF7C3FF304603B0BDE8F04000F041
:10C73000E7BC01462F4800F035FA95F83331B3B91C
:10C7400095F8332195F832319A421CD100221146D6
:10C7500042F22900FFF716FD70B995F83331013325
:10C7600085F83331237A43F00403237204E0304622
:10C7700020F0E9F80028E3D01F48002103B0BDE80D
:10C78000F04000F00FBA2246671C12F82E0B394613
:10C79000FFF748FE064630BB95F83331013385F884
:10C7A0003331237A43F00403237295F8B7305B07E3
:10C7B00019D53946684620F07FF801234FF0FF3045
:10C7C0004FF0FF318DF80730FFF724FC044650B1DD
:10C7D000082269460C301EF077FD3246214642F2AF
:10C7E0004E00FFF7CFFC012020F0ADF8C4E700BFFA
:10C7F000A800002091C9040003C904002DE9F041FC
:10C80000044600B3364D95F8322195F8333192B194
:10C810000132934210DC00210222084600F06AFF38
:10C82000064690B120460221FFF740FF3046BDE8A2
:10C83000F04100F065BC13B1013B85F83331237A38
:10C8400023F004032372BDE8F0810146254800F07F
:10C85000A9F9304620F077F8074688B995F83331C2
:10C8600095F832219A4217D2013B85F83331237A69
:10C870001D4923F0040302462372022003F0D8FE70
:10C8800095F8333113B1012020F05DF8BDE8F04197
:10C890001648002100F086B94FF0FF304FF0FF310D
:10C8A000FFF7B8FB04F1010806460028E8D007218D
:10C8B0000C301EF003FD41461FF0FEFF3A463146A4
:10C8C00042F22800FFF75EFC0028D9D195F83331F9
:10C8D000013B85F83331237A23F004032372CFE739
:10C8E000A800002091C9040031C9040003C9040054
:10C8F000F0B50E4685B0044600B32B491FF0D4FFB7
:10C90000E0B92046FFF758FD002846DA23785BB9E6
:10C910002648427D002A40D121461FF0CDFF012349
:10C920004375104605B0F0BD012B04D1A37903F087
:10C93000C003C02B02D06FF01500F3E71B4D6B7DD9
:10C94000032B2DD005F1E4001FF0BDFF10F0010115
:10C9500014D11022684629F03BFC002CEBD0124980
:10C9600020461FF0A1FF0028E5D1002EE3D01022C1
:10C970006946304629F034FC0028DCD06F7D324611
:10C980007B1C214638466B75FFF790FD08B9384689
:10C99000C8E76B7D013B6B75C4E76FF07700C1E7BB
:10C9A0006FF00B00BEE700BFCDBF0500A800002060
:10C9B0002DE9F3410446D8B101AA002141F2090052
:10C9C000FFF7E0FB054698B9019E1249D6F80C80A6
:10C9D00008F101070622384629F002FC28B10E4969
:10C9E0000622384629F0FCFB30B93046FDF778FDC9
:10C9F000002002B0BDE8F081D8F80130C4F8013061
:10CA0000BB88A4F8053030462570FDF769FD01208C
:10CA1000EFE700BFDABF0500D4BF050070B58AB0EC
:10CA20006846FFF7C5FF1B4C607570B310220021EC
:10CA300006A829F0CDFB94F8D2309B0716D502AAA0
:10CA400000214FF60A40FFF79DFB78B9029EF2687D
:10CA500006AD531C1132186859682C4603C40833BC
:10CA600093422546F7D13046FDF73AFD02A906A8C4
:10CA700021F0E7FD58B108484FF400611FF07CFF3A
:10CA8000002269460020FFF711FD0AB070BD02AA1E
:10CA9000F7E700BFA80000208C0100202DE9F0413D
:10CAA000384D6C7D98B0002C5FD195F8D230DB0703
:10CAB00013D503AA21464FF60940FFF763FB024650
:10CAC00058B90398C3685C78032C28BF032407AEC9
:10CAD0000233A2420DDBFDF703FD6C7500274FF01A
