:020000022000DC
:1070000040D3002005AB020055DE0400F1AA0200C7
:10701000F1AA0200F1AA0200F1AA02000000000099
:107020000000000000000000000000003DAB020076
:10703000F1AA0200000000003DAD0200F1AA02002A
:10704000B9AD0200C5CD0300B9AD0200B9AD020073
:10705000B9AD0200B9AD0200B9AD0200B9AD020090
:10706000B9AD0200B9AD0200B9AD0200B9AD020080
:10707000B9AD0200B9AD0200B9AD0200B9AD020070
:10708000B9AD0200B9AD0200B9AD0200B9AD020060
:10709000B9AD0200B9AD0200B9AD0200B9AD020050
:1070A000B9AD0200B9AD0200B9AD0200B9AD020040
:1070B000B9AD0200B9AD0200B9AD0200B9AD020030
:1070C000B9AD0200B9AD0200B9AD0200B9AD020020
:1070D000B9AD0200B9AD0200B9AD0200B9AD020010
:1070E000B9AD0200B9AD0200B9AD0200B9AD020000
:1070F000B9AD0200B9AD0200B9AD0200B9AD0200F0
:1071000053B94AB9002908BF00281CBF4FF0FF310E
:107110004FF0FF3000F00CB8ADF1080C6DE904CE73
:1071200000F01AF8DDF804E0DDE9022304B070474E
:10713000704700BF10F8012B11F8013B012A28BF4E
:107140009A42F7D0D01A7047034613F8012B002A51
:10715000FBD1181A013870472DE9F0478C468E464E
:10716000089E154604461946002B40F0D080724513
:1071700047D9B2FA82F74FB1C7F120030EFA07FCE4
:1071800020FA03F3BD4043EA0C0CBC404FEA154E15
:10719000A8B2BCFBFEF8230C0EFB18CC08FB00F9D0
:1071A00043EA0C43994528D9EB1808F1FF3204D281
:1071B000994502D9A8F102022B44A3EB0903A4B21A
:1071C000B3FBFEFC0EFB1C330CFB00F044EA034453
:1071D000A04214D92C190CF1FF3304D2A04202D9D9
:1071E000ACF102032C44241A43EA02401EB1FC40D5
:1071F000002334607360BDE8F0874246DDE76346F4
:10720000F1E7002A79D0B2FA82F3002B3FD0194679
:10721000C1F1200302FA01F52EFA03F20EFA01FE83
:1072200020FA03F343EA0E034FEA154E00FA01F485
:10723000B2FBFEFCAFB20EFB1C201A0C0CFB07F8D5
:1072400042EA004290455AD9AA180CF1FF3004D204
:10725000904502D9ACF102002A44A2EB08029BB28D
:10726000B2FBFEFC0EFB1C220CFB07F743EA0243B9
:107270009F4246D9EB180CF1FF3204D29F4202D94B
:10728000ACF102022B44DB1B42EA004202E0AEEB0F
:10729000020301224FEA154EAFB2B3FBFEFC200CF5
:1072A0000EFB1C330CFB07F840EA034398452AD930
:1072B000EB180CF1FF3004D2984502D9ACF1020072
:1072C0002B44A3EB0803A4B2B3FBFEFC0EFB1C3360
:1072D0000CFB07F744EA0344A74216D92C190CF11A
:1072E000FF3304D2A74202D9ACF102032C44E41BC1
:1072F00043EA00400F46114678E71F2188E76046C1
:10730000ABE76246BFE76046DBE76346EFE77345FE
:1073100006D916B9002108466DE7C6E9000EF9E75F
:10732000B3FA83F787B9734501D3824207D8841A29
:107330006EEB030301209C461EB900215BE7384633
:10734000FAE7C6E9004CF8E7C7F1200CBB4022FA87
:107350000CF51D4320FA0CF12EFA0CF30EFA07FE81
:1073600041EA0E014FEA154900FA07F4B3FBF9F8B8
:107370001FFA85FE09FB18300B0C08FB0EFA43EAD6
:1073800000439A4502FA07F240D9EB1808F1FF30A2
:1073900004D29A4502D9A8F102002B44A3EB0A03B8
:1073A00089B2B3FBF9F809FB183308FB0EFE41EA7A
:1073B00003418E452CD9691808F1FF3304D28E455C
:1073C00002D9A8F10203294443EA0040A0FB029835
:1073D000A1EB0E014145CE46434602D306D14C45B2
:1073E00004D2B9EB020E68EB05030138002EA4D0DD
:1073F000B4EB0E0261EB030101FA0CFC22FA07F375
:107400004CEA0303F940C6E9003196E74046C5E778
:107410004346D9E700000000F7B50022114640F6C8
:10742000034005F03DFF0446002853D105F058FE07
:10743000214601AA41F2030005F032FF044600286C
:1074400048D1019A254DD168D1F80100D1F8051035
:1074500005F1880303C3104603F052FF214601AA39
:1074600041F2010005F01CFF044698BB0198C36877
:107470005A7885F880205A88A5F882201A7985F8EC
:107480008120B3F80720A5F88420B3F80530A5F8CB
:10749000863003F035FF214601AA41F2020005F0D3
:1074A000FFFE0446B0B9019FFA6805F19006531C2F
:1074B000413218685968344603C40833934226465B
:1074C000F7D1384603F01CFF95F88C305F0607D4DF
:1074D0006FF01204204603B0F0BD00BFA8000020EA
:1074E00001AA002142F2030005F0DAFE044600285A
:1074F000F0D1019BC44EDA68D2F80100D2F8051031
:1075000003C6184603F0FCFE214601AA42F202001F
:1075100005F0C6FE04460028DCD1019CE368B3F800
:10752000012091B249B1D97839B1A5F81421DA789E
:10753000114606F1280030F002FC204603F0E0FE80
:1075400095F88C601F2316F02006A5F8303119D16C
:107550004FF0FF304FF0FF3105F0EAFD0446002800
:1075600000F0698102210C3026F052FD01230370E6
:1075700046702146324640F66D4005F091FE0446C5
:107580000028A7D195F8AC301E0712D501AA00211A
:1075900042F21C0005F084FE044600289AD10198AE
:1075A000C368D3F80120D3F80530C5E93C2303F0C4
:1075B000A7FE95F8E8309C0625D50DF10201684636
:1075C00028F0F8F90446002884D14FF0FF304FF03E
:1075D000FF3105F0ADFD0646002800F02C810421A6
:1075E0000C3026F015FDBDF800300380BDF80230E8
:1075F00043802246314642F2240005F051FE044603
:1076000000287FF467AF95F8E83058062BD54FF087
:10761000FF304FF0FF3105F08BFD0446002800F0ED
:107620000A8102210C3026F0F3FCB5F8E03103802A
:107630002146002242F22E0005F032FE04460028C8
:107640007FF448AF014601AA42F22A0005F028FE65
:10765000044600287FF43EAF0198C3685B7885F844
:10766000323103F04DFE4FF0FF304FF0FF3105F0A7
:107670005FFD0646002800F0DE8008210C3026F071
:10768000C7FC95F8E84014F0400F40F2022308BF11
:107690000323A10795F8E9104CBF43F02C0343F0F6
:1076A0000C03A70648BF43F0400311F0090F18BFB1
:1076B00043F4006304F001040246002143EA04108D
:1076C00028F050F80022314642F2010005F0E8FDB2
:1076D000044600287FF4FEAE95F88C30B5F81411FE
:1076E000980600F18380C9B901AA41F2050005F0AE
:1076F000D7FD044600287FF4EDAEB5F81431019CA7
:107700004BB9E368B3F80120A5F814219A883F48E3
:10771000114630F014FB204603F0F2FD4FF0FF302D
:107720004FF0FF3105F004FD0446002800F083808F
:1077300008210C3026F06CFC95F8E830D907024699
:1077400059D433484FF0005128F00CF8214600225C
:1077500040F6014005F0A4FD044600287FF4BAAECF
:10776000014601AA4FF6014005F09AFD044620BBF0
:10777000019803F0C5FD214601AA4FF6024005F02D
:107780008FFD0446C8B90198C368B3F80130A5F865
:10779000D13003F0B5FD95F8D1305A070DD501AAC7
:1077A00021464FF6034005F07BFD30B90198C368D0
:1077B0005B7885F8D03003F0A3FD6B7D63BB06F0EA
:1077C000F9FC044600287FF485AE07F027FF044645
:1077D00000287FF47FAE6B7D002B3FF47BAE082149
:1077E0000C4827F0D4FE05F001FD73E6002995D181
:1077F0006FF004046EE602A1D1E90001A4E700BF26
:10780000908800020080002090010020C00100202C
:10781000108800028C0100202E78002ECFD195F820
:10782000D1309B061ED54FF0FF304FF0FF3105F0F1
:107830007FFC044610B96FF068044BE606210C305B
:1078400026F0E6FBD5F801300360084B9B88838067
:10785000214632464FF6064005F022FD0446002838
:10786000ADD037E66FF0850434E600BFA9000020F4
:107870002DE9F843D0E90738856903EB08042F3474
:10788000A5420F46164619D8DFF86C80A3FB080105
:1078900017A3D3E90023FFF733FC0346601BA0FBCB
:1078A000080123F07F4412A3D3E90023FFF728FC4B
:1078B00020F07F403C603060BDE8F883DFF838900E
:1078C0000BA3D3E90023A5FB0901FFF719FC20F066
:1078D0007F440A480A2106A3D3E90023E8FB0901F3
:1078E000FFF70EFC20F07F403C603060BDE8F8837D
:1078F0008D49FD1A0700000000CA9A3B00166BF183
:10790000002800F051812DE9F04FCB4C94F85E2017
:1079100012F001058DB040F03481607EFF2300F04D
:107920000300A37614F08EFE94F85E00420700F187
:107930002C81627F94F8293004EB820204EB8303EC
:10794000166AD3F82C8086B1BB4831460FF072FA24
:1079500033785B0605D506210BF058F9002800F0B6
:107960005581B54841460FF065FA337813F00E0F94
:1079700040F0918063691BB10C200DB0BDE8F08F21
:107980000DF058F98146002800F049810DF05EF9AC
:107990008246002800F040810FF06EFC054600286A
:1079A00000F05A81D0F888004FF6FF73AB8405F1E0
:1079B000100B002800F0358105F17C0205F17801FB
:1079C0000BF030F9B5F8763023F4EF6323F00703BA
:1079D00043F48C7343F00103A5F8763095F8373003
:1079E00003F03F0363F07F0385F8373095F88E305E
:1079F00023F0070385F88E3095F83C3023F00F0311
:107A0000002785F83C304FF4C023C5F88E31284656
:107A1000C5E91277C5F88870A5F88C7085F83970BB
:107A20006F85C5F82E702F65A5F86071A5F8947163
:107A3000A5F88A7111F0B6FB85F86471C5F86891F4
:107A40000FF0E2FE95F89C3160F3020385F89C315B
:107A50000FF0E0FE95F89C3160F3C50385F89C318A
:107A600095F8623167F34103012185F862312846B8
:107A700010F064FA05F1E00011F0B4F9C4E9159AC8
:107A8000C4F814B0C5E902772F702D6115F044FEDB
:107A9000002840F0BD80237E0121C3F342030DF195
:107AA0002B008DF82B300BF05FFA024600287DD0BA
:107AB000414630460EF0B6FF604A614BB4F85C8038
:107AC0000721E0FB023100251846C4E9025558A3FE
:107AD000D3E900232570FFF713FB60600CF0DAFB9D
:107AE00000F10907B8F1000F07D1357805F00F054F
:107AF000A5F10105B5FA85F56D09207E636865F38A
:107B0000000010F00105207657D04E4A099200205F
:107B1000106002254C4ADFF8348104930BAE0193C8
:107B200005920321CDE90200069400903B46CDF872
:107B30001C8008962A460B950CF0D0FA31460DF0C1
:107B40000FF998BB424905914AF2D8330093CDE929
:107B50000300CDE90100CDF81C80089606943B4651
:107B6000012203210B950CF09DFA31460DF0F8F837
:107B7000E0B994F85E300120034384F85E3014F0DD
:107B800043FD00200DB0BDE8F08F2A4604F15F01EF
:107B9000C0F3C00014F08EFEFF28A0763FF4C9AEFB
:107BA000284614F069FDC4E60EF0D4BE6369002BCC
:107BB0003FF4E2AE0EF0A4FEDEE6224A254804932E
:107BC00003F247130694029591211360A8FB00036A
:107BD00001FB08311D4B07931B4B05934FF6FF73B9
:107BE00009924FF0020803930BAE11A3D3E90023CF
:107BF000CDF82C800896FFF783FA3B46CDE900507C
:107C00004246284603210CF069FAAEE71220B4E69A
:107C10000EF076FE0320B0E648460DF011F807207E
:107C2000ABE605F18000C5F88800C5E6AFF300803B
:107C30008D49FD1A07000000CC46002000CA9A3B7F
:107C40008C49FD1AC04600209D6A03009143030041
:107C5000C1670300002AE78450460CF0FDFF484648
:107C60000CF0EEFFDBE700BF70B5037E8AB0C3F314
:107C700042030D46044601210DF1230016468DF8FE
:107C800023300BF071F93146024628460EF0CAFE49
:107C90001D4A1E4B0721E0FB0231184618A3D3E909
:107CA0000023FFF72DFA63689842054621D21B1A7C
:107CB00000220192164A0293164BA21AA3FB02322B
:107CC0000221520900230A4409AE09911249059183
:107CD000CDE9033303210696D2B2009318460CF087
:107CE00053FA31460DF03CF838B9656000200AB00F
:107CF00070BDFBD9C21A0023DBE70C200AB070BDAF
:107D00008D49FD1A0700000000CA9A3B8C49FD1AF4
:107D1000CC4600204FECC44E91430300000000000D
:107D20002DE9F04F05468BB08B4601200221994684
:107D3000144617F0D7FA00220221824601200AF0E9
:107D4000C5FF2F494FF4D47228460AF04BFFC61CDA
:107D50002C4B0093F6B201954B4632460121002090
:107D60000CF060FA10F0FD0F42D1274BA4FB034842
:107D7000204621A3D3E900234146FFF7C1F9089526
:107D800006956B680493214B20F07F47A7FB0331D6
:107D9000E01A1F4B07934FF007021E4B059302FB9F
:107DA00007114FF6FE7368EB010103934FF47A72EB
:107DB0000023FFF7A5F9CDF800B0CDE901704B46DF
:107DC0003246012100200CF06DF910F0FD0F0DD1AD
:107DD000BAF1000F02D10BB0BDE8F08F01220221F1
:107DE00010460BB0BDE8F04F0AF070BF00DEEFE7C1
:107DF00000DEBAE7AFF300808D49FD1A07000000EE
:107E0000C81700203571030000CA9A3B8D49FD1A3E
:107E10001D710300C1BA03002DE9F0418468A28CF2
:107E20004FF6FF739A428CB000F0C08005462046A2
:107E300011F034FC2B7D012B00F0E680022B00F0CA
:107E4000B88033B994F88E3003F01803182B00F083
:107E50001C8194F86471002F40F0AE802B8AE68D6F
:107E600094F93720CDE90A77002B00F0AC80002A86
:107E7000C0F221810023A4F89031AB7CA28D03F0E5
:107E80000303551C012BADB200F0BA80B4F8943155
:107E9000002B00F0BF80AB4240F237815B1B9BB2EE
:107EA000062BA4F894314FF000028CBF002301236D
:107EB000E2851F4694F83C2063F3820284F83C205C
:107EC00029460DF12702204611F0A8F9743000F080
:107ED0001681B4F88E312BB1AB4240F2BF805B1BF0
:107EE000A4F88E31B4F88A312BB1AB4240F2C6808F
:107EF0005B1BA4F88A31E58D17B9AE4200F0AC8067
:107F00000135ADB294F8D13013F0010609D1DDE9A5
:107F10000AC3B3BBBCF1000F00F0E9801E4619464E
:107F200030E094F9372023F00103002A84F8D1309F
:107F3000C0F28A8094F87600C0F3C00100F0070018
:107F400015F068FAB4F86E20B4F86C301344E28B84
:107F500003F23F13134418448D4A8E4B0721E0FB74
:107F60000231184688A3D3E90023FFF7C9F86168F6
:107F700020F07F408142DDE90AC380F0B280461ADA
:107F800060600021A28C24690694CDE90357033276
:107F9000814D0291CDE900C6D2B2012100200595A4
:107FA0000CF0F2F810F0FD0F40F0B4800CB0BDE81A
:107FB000F0813D2784F86471394620460CB0BDE855
:107FC000F0410FF0E1BC002AB8BF84F8D570AB7C5B
:107FD000A28D03F00303551C012BADB210D0B4F8F1
:107FE0009031002B3FF452AFAB4240F29A805B1BC2
:107FF000A4F89031B4F89431002B7FF44CAF59E7DA
:108000000023A4F8943155E70023A4F88E31A4F896
:108010008A311EE7E38C052B8BBF40F2E2424FF41E
:10802000FA725A4303FB0222B4F8923142F2107101
:1080300001FB0323013BB3FBF2F39BB2A4F89431A1
:10804000002B7FF428AF35E794F87700012100F08A
:10805000070015F0E1F975E73D4653E70CF03CFEEB
:108060000146002864D00023A4F88E31A38CC3807D
:108070001B23037100680CF001FE33E70023A4F812
:108080008A31204611F05CF935E7218DB4F88C2156
:108090008B1D9A42C4BF931F5B1AB4F88811CCBFE2
:1080A0009BB21346994256D0A4F88831A4F88A317D
:1080B000A4F88E21CDE694F8D530002B3CD0013BBE
:1080C00084F8D53004F1E008404610F0CDFE0028D9
:1080D00055D0404610F0C8FE002842D00023E3856A
:1080E000C8E6091A6060A3BB51EA0C021ED115B99B
:1080F000002F3FF45BAF00263146334642E79DF840
:10810000271020460FF040FC50E7082120460FF0D2
:108110003BFC4BE70CF04EFE84423FF447AF00DEE1
:1081200044E73E2120460FF02FFC3FE71E4629E79B
:108130000123A4F88E31D5E60AAA0BA92846FFF739
:1081400097FBDDE90A231343BCD0237884F8D530AC
:10815000B8E7002616E7B4F88E1100297FF479AE4F
:10816000A4E70246D4E91E010AF074FD0028B5D147
:1081700094F83C301B0744BF238DE3857AE6FF204B
:108180000FF0C4FBA5E700BF8D49FD1A07000000F2
:1081900000CA9A3B8C49FD1A75710300000000006B
:1081A0002DE9F04F87B0B0F86071BDF84C900091A8
:1081B000CDE90423B0F82431BDF840A01F44BFB27C
:1081C0000446A7EB090390F87600D4F81C819EB210
:1081D000BDF844300193C0F3C001BDF848300396A8
:1081E00000F00700029315F015F9E58C052D40F21B
:1081F000A38015FB06F5ADB240F2E24BBAF1050FD4
:1082000040F28E80B4F86E20B4F86C30134403F260
:10821000D5130344764A77480721E3FB02014FF068
:108220009613E361962323846FA3D3E90023FEF71B
:1082300067FF564620F07F4040F2E2430BFB05F219
:1082400003FB06F6531E3344B3FBF6F31FFA83FB1E
:1082500060600BFB06F082425D4653D26449801A8F
:10826000A0FB010160A3D3E90023FEF749FF20F042
:108270007F408044B4F82421B4F86031A9EB0709A9
:108280004D44ADB213442B44A4F86031638D1344C4
:108290001D4494F837306585DB0955D100DE002791
:1082A0003546019B2385029BA4F892313146204636
:1082B000A4F826A010F0DEFF4F4B218D3344881D1B
:1082C000B3FBF6F39AB29042A4F88C2104D2C1F524
:1082D0007F41FA310A4492B2009BA4F8882113B17D
:1082E0000023A4F8943143462A4639462046FFF736
:1082F00017FD94F8623143F0010384F8623107B04E
:10830000BDE8F08F121A3A48A2FB000136A3D3E968
:108310000023FEF7F5FE20F07F40A8EB0008A9E758
:108320004FF096130AF10106E36196232384B6B257
:108330000A204FF4FA7381E7039B013515FB03F51F
:10834000ADB24FF4FA7B59E7216CA36C284F01FBC7
:108350000233039A01FB1233A3640023C4F8DC3018
:1083600015F02CFA054694F8D400C0F3420015F03D
:1083700027FA054406FB05F5204B1E4805F5742534
:1083800005F23F25A3FB0535AD0CA36C25640BFB63
:1083900005FB72085B44963A934228BF1346C4E932
:1083A0001123049B40F2E24909FB03F307212365F3
:1083B000EBFB07010CA3D3E90023FEF7A1FE104B52
:1083C000059AA8EB0008A3FB0230800A09FB00F025
:1083D000A0FB070104A3D3E90023FEF791FE751B60
:1083E00020F07F475DE700BF8D49FD1A07000000C0
:1083F00000CA9A3B8C49FD1A7FC3C90183DE1B4327
:108400005917B7D1000000002DE9F04F0D4616684E
:1084100095F8118009681446027FD1F8009093B056
:108420008346C2F38012D0F81E008DF83720B8F1D1
:10843000FF0FBBF822201090ADF8442057D110ABAD
:1084400093E803000E90ADF83C105A46BBF82E108E
:1084500052F82EAB9278A2722181DBF82A2062605A
:10846000DBF83A20C4F8222004F122009BF83E20D9
:10847000027105210AF078FD94F8272000F03F00F2
:1084800060F3050284F827209BF83F20C2F3040123
:1084900084F82810BBF83410E182012802F01F0292
:1084A00089B20AD91B3202F01F020B2A05D80639FD
:1084B00089B240F67A42914225D90021C9F80810C4
:1084C00094F82C2061F3000284F82C20DBF80C4097
:1084D0000125504659468BF804500CF0C3FB206828
:1084E000257121460CF0CAFB13B0BDE8F08F0EAA2F
:1084F0000DF13701404613F0E5FD9DF837200232BB
:108500008DF83720A1E72A6800215160BBF836209A
:10851000E78A228340F2E24303FB07F73046BBF8C9
:1085200032300B9310F0BAFE9BF83F2096F8D4102F
:10853000520962F3430186F8D41015F03FF90A900E
:1085400096F8D400C0F3420015F03AF90A9A1044A4
:1085500007FB00F0AE4A00F5742000F23F20A2FBBA
:1085600000207A08800C963A206362639BF83120E1
:1085700040F2E24303FB02F26264BBF83820A6F843
:1085800092213946304610F075FEA24AA249C6F83B
:1085900098113A44B2FBF7F290B2A6F88C01218B05
:1085A00001F1060C604504DDC1F57F41FA3101445B
:1085B00088B25A46A6F8880112F81C3FC3F340134C
:1085C000D2070A9300F115814FF48072ABF81C209A
:1085D00099F81A0014F0A2FA002800F0EA80DBF8FB
:1085E0002420CBF82B20BBF82820ABF82F20B8F1A3
:1085F000FF0F00F0F880BDF844201098ABF8292058
:10860000CBF825009DF837208BF81E200E98BDF87A
:108610003C20CBF81F00ABF82320E28AABF83220D5
:10862000228BABF83420B6F89221ABF8362096F8BE
:10863000D420C2F342028BF8382030460EF028FED8
:10864000A082ABF80600D5F80480504659460CF0DD
:1086500009FB1C23A28A88F804300A9BD8F800A0E2
:10866000A8F80620002B40F0B180DDF828B088F88B
:108670001CB0414650460CF001FB94F86700B4F87A
:108680005CA0B4F85E80012100F0070014F0C4FE85
:10869000D04408F2D51808EB00038246DFF87C814D
:1086A0005F480721E3FB08014FF09613C4E9033349
:1086B00055A3D3E90023FEF723FD20F07F4070602F
:1086C000EB680B98226B40F2E24101FB003404F2AC
:1086D000B3440221A41A0120BF1A00220AF0F6FABC
:1086E00048460EF065FBA4EB0A0447A3D3E9002338
:1086F0008246A4FB0801FEF703FDCDF80490AB68A9
:108700004849009120F07F480AF10202363BD2B27C
:108710004344012100200BF085FD01286BD099F81E
:108720001830DB074AD430460EF0B2FD3B4CA7FBB5
:10873000044935A3D3E90023834649462046FEF782
:10874000DFFCAB68384A0792A3F1360A374B06962E
:1087500020F07F47A7FB0331E01A354B05934FF418
:10876000F8730893736804934FF0070303FB071132
:1087700069EB010100244FF47A7200230394FEF7A1
:10878000BFFC0BF10305EDB2CDE90170CDF800801F
:1087900053462A46012120460BF084FC10F0FD0FC1
:1087A0002FD10122022110460AF090FA13B0BDE841
:1087B000F08FCBF82B00ABF82F0018E70023012235
:1087C0000093184611460BF0F7FCACE794F82730FD
:1087D00043F0400384F82730201D13F05FFA4FF078
:1087E000010B208543E70021CBF82510ABF82910B9
:1087F00008E700DEE8E60CF0DDFA81458FD000DE08
:108800008DE700DECDE700BF8D49FD1A07000000AF
:1088100083DE1B437FC3C901404B4C0000CA9A3B17
:108820008C49FD1A49BB030099BA03008D49FD1A12
:10883000C1BA0300000000002DE9F04F8DB0484E92
:10884000484D82460BF026FDF16807460BF024FDEB
:108850007168F76040A3D3E900230446A1FB05013A
:10886000FEF74EFC20F07F439C4257D30DF12F01C1
:108870000DF12E000CF060FADFF8E8803568A5FBFA
:10888000085935A3D3E9002328464946FEF738FCAA
:10889000CDF818A004467068334B0593A0FB08017F
:1088A0002DA3D3E900234FF00008CDE90788FEF798
:1088B00027FC2E4BCDF80C8024F07F44A4FB033121
:1088C00020F07F40072202FB04110490E81A69EBB4
:1088D00001014FF47A720023FEF712FC9DF82FB0CD
:1088E0009DF82EA0CDF80080CDE901403B465A46C8
:1088F000504603210BF0D6FB10F0FD0404D06FF0BE
:108900008B000DB0BDE8F08F19481A4A002320F003
:108910003DFE90B930690DB0BDE8F08F30680EA310
:10892000D3E90023A0FB0501FEF7EAFB20F07F411D
:1089300038460BF0B1FC074698E79DF82F209DF8CC
:108940002E000094234603210BF036FC6FF07300D9
:10895000D7E700BFAFF300808D49FD1A0700000084
:10896000F81A002000CA9A3B5DCD03008D49FD1A1C
:10897000C44C0020447B0B0038B50F4D04460BF06F
:1089800089FCA9680BF088FC696803460B48B3FBB7
:10899000F4F4A1FB00011C4405A3D3E90023FEF776
:1089A000AFFB20F07F40844294BF0020012038BDFF
:1089B0008D49FD1A07000000F81A002000CA9A3BF2
:1089C000F0B5C468636883B00546002B54D115F038
:1089D000CFFF002015F0F0FF0021084615F0DEFF64
:1089E00000222521082016F045F8414B019301A8EB
:1089F00016F02CF83F4940F25B6016F0DDF8237A60
:108A0000C3F3420262F306132372204615F066F8A0
:108A100014F00CF9637A03F0030348BBFBB9276831
:108A20002E68384614F0B0FC06446A6806F1090165
:108A3000012016F009FA16F0C9FA20460EF0C4F922
:108A4000811C3246C9B2384614F0A0FC054600BB72
:108A5000204614F075FCD0B9002003B0F0BD012011
:108A600013F0C8FD4178821C007816F08DF9D6E726
:108A7000181E18BF0120F3E793F82C309B07A6D0EF
:108A80001D48214615F048FF16F040F8E4E700DEE7
:108A9000E2E71A4A1A491B4840F2114324F00EFA41
:108AA000194B0721A5FB030301FB05310EA3D3E9F5
:108AB0000023FEF725FB15490246154824F0FEF970
:108AC000002585F31188BFF36F8F0323184602DF5B
:108AD0001048214615F020FF16F018F86FF08B00B3
:108AE000BBE700BFAFF3008000CA9A3B0000000064
:108AF000D6BE898E55555500D1D40300ACAA0500C9
:108B0000F8AA050074AA05008D49FD1A40AC0500BD
:108B1000FCAA0500CDD703002DE9F043C468A28A62
:108B20004FF6FF739A4283B000F0FD80064615F0C1
:108B300089FA3389628B208C94F82710A3831A4416
:108B400092B2104480B2431C23840023638301F05B
:108B50003F034906E28300F1A48094F828100093B3
:108B600004F1290004F1220313F05AF80546D4E970
:108B70000C31A26BA08BA36303FB0022E36B8A4240
:108B800094BF9B185B188B4228BF0B46626CE36353
:108B9000236C94F867101A4494F82C3061F3061390
:108BA0000021C4E9101294F87E2084F82C3012F0D1
:108BB000040200F0898015F0DBFE002015F0FCFEB9
:108BC000201D15F043FF2389A17A40F25B6043EA40
:108BD000014115F0F1FF284614F0E8FB2146584802
:108BE00015F09AFEA08916F023F994F8662094F8FF
:108BF0006700C2F3C003002102F0070200F0070083
:108C000016F040F8204615F0B7FAD4F8008037681F
:108C1000404614F0B9FB0744726807F109010020CF
:108C200016F012F9814616F0A5F9002016F0BCF9ED
:108C3000E36B94F8670003F12F02636C012100F0ED
:108C4000070003EB420515F053FF4D44054494F82B
:108C5000670000F00700022834D004280CBF4FF44E
:108C6000BC73282301211D4415F044FF284416F04D
:108C700073F9A18A03313A46C9B2404614F086FB23
:108C80000546A8B1B37A13F002062BD000252D4873
:108C9000214615F041FE15F039FF284603B0BDE826
:108CA000F083218D04F1220212F0FCFF05465EE7FD
:108CB000204614F045FB00283CD10025284603B08F
:108CC000BDE8F0831823CDE7D4E91A0109F0C2FF0B
:108CD00000287FF470AF94F87E3043F0040384F8EA
:108CE0007E3068E7184A194919484FF4AC7324F0EC
:108CF000E5F818480721A5FB000301FB05310EA389
:108D0000D3E90023FEF7FCF913490246134824F087
:108D1000D5F886F31188BFF36F8F0323184602DF5F
:108D20006FF08B05B3E70E48214615F0F5FD15F001
:108D3000EDFEC2E700DEC0E700CA9A3B000000007B
:108D40009DE30300ADD4030028AB0500F8AA05009D
:108D500074AA05008D49FD1A4CAC0500FCAA05005B
:108D6000D1D40300034B04480A461978013124F09A
:108D700098B800BF6871002096B90500024B0348FF
:108D80001978013124F08DB868710020BFB9050051
:108D900030B5164D164C89B005F020FC1422002188
:108DA00003A830F02FFF29781248635C8DF80C304F
:108DB0000722A023CDE90423F0230F4A06930023C2
:108DC00052F82120009350F8211003A805F034FA3E
:108DD000014638B929780948625C013124F061F80C
:108DE00009B030BD064824F05CF8F9E7687100204E
:108DF00096090020B4A30500A8A30500E7B9050063
:108E000022BA050008B5094909480B780322013345
:108E1000B3FBF2F202EB42029B1A01220B7001F04B
:108E200005FABDE80840FFF7B3BF00BF6871002036
:108E300045BA050070B50C49064614461D46FEF7B6
:108E400079F928B9094901222846A047002070BDB8
:108E500007493046FEF76EF910B906490322F3E7D9
:108E60006FF00100F3E700BF49BA05006871002008
:108E70003ABC0500960900201FB507240294044C53
:108E80000194BDF81840009428F029FB04B010BDEF
:108E9000B0F7050038B52FF04AFA4FF47A72A0FB0C
:108EA000020302FB01310C4AC30BD2E9004043EA42
:108EB00041431C1B4FEAD13140F2E93561EB000020
:108EC000AC4270F1000006DBC2E900310348BDE8A6
:108ED000384020F031BD38BDA01000208C030020A8
:108EE00008B50A4823F0DDFF05F078FB084B186849
:108EF00038B1084B01221A70BDE80840132127F051
:108F000054B9BDE80840044820F016BD4CBA05002D
:108F100058210020677100207C03002038B50C4DDB
:108F20002B6883420C4603D105F0AAFE00232B6078
:108F30000848214623F0B5FF074B1A7832B10022CA
:108F400006481A70BDE8384020F0F6BC0448F9E73E
:108F5000582100207DBA0500677100207C030020A5
:108F60005C03002008B559B927F003F9054B1860D8
:108F7000054B06481978BDE80840013123F091BF40
:108F800008BD00BF58210020687100209DBA05006F
:108F9000F0B403460A461979DB88006813430A4A8D
:108FA0000669876834689A4308BF83F44023012523
:108FB0008D4023F48012DB074CBF2C43AC4334605C
:108FC0003B68F0BC184700BF010010002DE9F047D6
:108FD000ADF5567D11220221012016F0ABFA061ED6
:108FE000C0F2B4800121039104230093062203AB55
:108FF00016F0EEFB574B0020CDE90530082205A9FD
:10900000304616F0F7FA0028C0F2A080DFF8489149
:10901000DFF84881524F04AB08221A60019356AD25
:1090200007AB00934FF4007200232946304616F038
:1090300099FB002805DA4FF48040002123F021FD40
:10904000E9E7484B1B78002BE5D0EF28E3DD2B78D0
:10905000012BE0D1F02271E0352902F1010366D144
:10906000911C814264DAEC5C002C61D015F801A0FF
:109070000AF0FD03012BCED10BAC4FF49672002108
:10908000204630F0BFFD4FF4817323800623A37088
:109090006B6863605DAB0FCB12AD85E80F00BAF172
:1090A000010F40F23513A4F8F03014BF052302235A
:1090B00084F8F230362384F8F3302B4A2B4BC4F873
:1090C000EC70C4E93D232A4A332384F8FF3004239B
:1090D000116884F8003145F20113A4F80231CDF88B
:1090E00033114FF478635168A4F804311289CDF834
:1090F00037110A231F4984F806314FF6FF70ADF887
:109100003B2109AB4FF0FF32C4E90498A4F8FC00FE
:1091100084F81101C3E900120822CDE9003221468A
:1091200000234FF48972304616F0E6FA73E721B156
:10913000984208DDEB5C023313441A46824202DA9D
:10914000A95CFF2988D14FF0000A91E70DF5567D03
:10915000BDE8F08701000043C0A80402C0A80401D4
:10916000638253636671002004C0A804010104FFF8
:10917000B8BA05000100004438B52FF0D8F84FF414
:109180007A72A0FB020302FB01310D4AC30BD2E944
:10919000004043EA41431C1B4FEAD13140F2E9351C
:1091A00061EB0000AC4270F1000007DBC2E9003166
:1091B0000448BDE8384001212FF07EBA38BD00BF19
:1091C00090100020680C002038B52FF0B0F84FF454
:1091D0007A72A0FB020302FB01310C4AC30BD2E9F5
:1091E000004043EA41431C1B4FEAD13140F2DD55B8
:1091F00061EB0000AC4270F1000006DBC2E9003117
:109200000348BDE8384020F097BB38BD98100020D7
:109210006C03002010B5154823F043FE05F0DEF97D
:10922000134B186810B1132126F0BFFF114823F02B
:1092300038FE114C20462EF08AFB60B1A3689B6873
:109240004BB14FF400424FF46C212046984710B9BF
:109250000A4823F026FE0A4823F023FE4FF400407C
:10926000002123F00EFC012000F06CFCC3BA0500C5
:109270005821002003BB0500409F050040BB0500AE
:1092800072BB05002DE9F04781EAE174A4EBE174BB
:109290000A236425002107465B48B4FBF3F6B4FBC0
:1092A000F5F903FB164605FB1945B5FBF3FA23F068
:1092B000B1FB5648002123F0ADFB5548002123F0B7
:1092C000A9FB4FF00008B8454CDB4FF4803000217B
:1092D00023F0D7FB4FF00008C84558D14FF40040A9
:1092E000002123F0CEFB092D66DD4FF00008474832
:1092F000012123F08FFB43F23430002123F0C1FB26
:109300004248002123F086FB08F1010843F2343083
:10931000002123F0B6FBC245E9DC4FF400400021F8
:1093200023F0AFFB002E5CD04FF00008384801213D
:1093300023F070FB43F23430002123F0A2FB3448C9
:10934000002123F067FB08F1010843F234300021CB
:1093500023F097FB4645E9D14FF40030002123F07C
:1093600090FBAEE72848012123F054FB42F26760EE
:10937000002123F086FB2448002123F04BFB42F21E
:109380006760002123F07DFB08F101089BE71E4880
:10939000012123F03FFB43F23430002123F071FB25
:1093A0001948002123F036FB43F23430002123F02A
:1093B00068FB08F101088FE7632CAEDD134801213B
:1093C00023F028FB40F6CD40002123F05AFB0F4844
:1093D000002123F01FFB43F23430002123F051FB26
:1093E0009BE70B48012123F015FB40F6CD400021FF
:1093F00023F047FB3146064823F00CFB43F23430A0
:10940000002123F03EFBA7E7E8A40500E0A4050047
:10941000D8A405002DE9F04F0021ADF22C5D4FF4EA
:10942000C03023F02EFBA54823F03BFDA44823F0D9
:1094300038FDA44823F035FDA3482EF088FA20B16A
:10944000A2484FF4B011FFF7A3FD9F482EF07FFA1A
:1094500020B19F484FF4B011FFF79AFD9A482EF0C3
:1094600076FA20B19B484FF4B011FFF791FD964872
:109470002EF06DFA80B14FF480319748FFF788FDE8
:10948000954823F0DBFA954A954B53608E480823A4
:109490001146936023F0B8FA92482EF058FA88B13A
:1094A0004FF480319048FFF773FD8F4823F0C6FAE0
:1094B0008E4A8F4B53608B484FF400631146936084
:1094C00023F0A2FA87482EF042FA88B14FF4803197
:1094D0008848FFF75DFD874823F0B0FA864A874B3E
:1094E000536080484FF480531146936023F08CFA08
:1094F000834806F07BF805AD00204AAC04F078F80C
:1095000024F061FB294603232046059304F040FC28
:1095100005997C4D032908AF0AAE05D16A78FF2A68
:1095200002D0AB78FF2B5AD1774823F0BAFC012048
:1095300004F0A0FC022004F09DFC94E80300ADF8C8
:109540001C10090C0DF1180906908DF81E1099E8F1
:1095500003003860ADF82410C0F30720C1F30741C1
:109560004FF00108013061F03F017870B97187F860
:1095700000800021384604F01DFC0028B8BF40469A
:10958000687099E803003060ADF82C10C0F3072034
:10959000C1F30741023061F03F017070B17186F88C
:1095A00000800021304604F005FC0028B8BF0220EE
:1095B0005449A8700322554800F038FEAB786A7809
:1095C0002978534823F06DFCFFF7E2FB51495248DC
:1095D00024F09CFE014628B10120FFF753FE2978B4
:1095E0004E48EFE74E494C4824F090FE01460028D3
:1095F000F2D14C49484824F089FE01460028EBD1BD
:109600004949454824F082FE01460028E4D1474AF2
:10961000414825F062F9024610B101460320DCE71B
:1096200043493D48012325F032FA014608B10420A0
:10963000D3E74049384825F021FC014608B1052010
:10964000CBE7354824F095FD014608B10620C4E774
:1096500018F016F9804610B901210820BDE74FF037
:109660008052D2F8A430D2F8A81061700A0A62F0D1
:109670003F0222701A0EA2701A0C5BBAE270A3802D
:1096800018F092FC30232C490093424623460120D7
:1096900017F0C2FB011E01DA0A209EE727493A466D
:1096A000012018F0C9FD002303223946404618F076
:1096B000F5F9002844D1012109208EE79CBB050063
:1096C000C7BB05009DBB0500989E0500E8A40500EA
:1096D000E0A40500D8A40500D0A405007421002052
:1096E000958E02007C9E0500C8A40500682100201C
:1096F000C9910200C0A405005C21002079910200FC
:109700003403002096090020F3BB050036BC050099
:109710003EBC0500F0020020700F00207ABC05005E
:10972000D8020020C0020020A80200200803002068
:10973000C4BC0500C3C9040000009050CEBC0500A5
:10974000B0493246012018F077FD3246394640468E
:1097500029F0F7FD01210622084615F0EBFE031E55
:109760000293C0F2A9814FF0010AC7F800A00423B8
:10977000009302223B46514616F02AF84FF00009AA
:10978000A14BCDF82C90336008220298314615F099
:1097900031FF0A21029815F059FF01220023C4E984
:1097A0000023C4F808901023142200935146234646
:1097B0000298964D16F00CF84946954885F80090A9
:1097C00023F028F94946934823F024F9924823F0DE
:1097D00068FB924823F065FB4FF0FF334FF0FF32F8
:1097E000CDE9002351464A468D482EF070FF8C4843
:1097F00049462EF064FF8B4823F053FB8A4823F040
:1098000050FB884823F04DFB884824F0E2FC40469A
:1098100018F08EFB7E48514623F0FCF800214046AC
:1098200023F0E7F8002837D00821404623F0E1F87C
:10983000039088B37648002123F0ECF875480121A5
:10984000297023F0E7F87A4823F02BFB08230693CE
:10985000029806AA394615F023FF05460022002388
:10986000CDE900236E4801212EF031FF8046C8B1BA
:109870006B4800212EF023FF002D02DB284628F044
:109880008BFD6C4823F00DFB4FF48040002123F04A
:10989000F8F8002000F056F940F6CD40002123F002
:1098A000F0F8BBE7002DD1DB5948012123F0B2F8D5
:1098B0004FF480624146204630F0A4F9C1464FF48F
:1098C000FA7AC346C8F57F72CDE900BB4023033264
:1098D00004EB0801284615F045FF00283ADD8144D5
:1098E0005549204630F0E7F9002845D05349204635
:1098F00030F0E1F9002847D0514BD3F800804046C2
:10990000FDF722FC41460246284623F0C6F8DDF862
:109910000C800121284615F03FFE4FF0000940233E
:10992000CDE9009980223146284615F01BFF00281A
:10993000F5DC40F26760002123F0A3F8284628F008
:109940002BFD3348002123F065F8B8F1000F3FF4F8
:109950007DAF96E70AD040F267600021AAF1320A93
:1099600023F08FF8BAF1000FC846ABDCB9F1000F55
:10997000BCD14FF00008CCE740F2FE339945C84611
:10998000B4DC4FF4FA7A9DE72E49204630F093F983
:10999000804678B101211F4823F03CF8284BD3F8CA
:1099A00000804046FDF7D0FB41460246284623F0A2
:1099B00074F8DEE72449204630F07DF908B14146CD
:1099C000E9E72249204630F076F910B120492D22EE
:1099D000ECE72049204630F06EF9002840D01E4BBD
:1099E0000193A3F108024FF480710092103B1B4ACF
:1099F000304622F09DFC3046FDF7A6FB314602467C
:109A0000D4E700BFDABC05000100005066710020F9
:109A1000D8A40500E0A40500E8BC050019BD0500B8
:109A2000680C00209DBB050066BD0500700F00207E
:109A3000B8BD0500E6BE05008BBF050004BE0500ED
:109A4000A00200200EBE05001ABE050027BE0500BC
:109A500038BE050066BE0500A909002078BE0500D5
:109A60001849204630F027F928B91749204630F028
:109A700022F90028AAD0154BDFF854B0D3F80080A3
:109A80004046FDF761FB41460246284623F005F8B3
:109A90004FF0000843F20C0A43F20B09AAEB08024C
:109AA0000BEB0801284622F0F8FF00287FF761AF92
:109AB0008044C845F2DD5CE74FF0FF300DF22C5DCD
:109AC000BDE8F08FCFBE0500D6BE0500A402002081
:109AD0007BC70500014B1B68184700BF9C03002093
:109AE00030B5044685B00D4610220021684630F09E
:109AF00089F802238DF802302A46044B019321464F
:109B0000684622F019FD05B030BD00BFD59A0200AD
:109B100080B505460E461746984620F00DFB0346D5
:109B200001F05CF9DFF81890044649F8003042462D
:109B300030463946A84754F8090001F0E9F800BF5B
:109B40000800000008B50446EFF31183202383F3D7
:109B50001288BFF36F8F1EF07FF9204601F018FDC9
:109B6000024823F09EF924F08AF9FCE73AC0050088
:109B70002DE9F047058B0446280717460CD5012927
:109B80000CBF45F0100545F02005258387F31188AB
:109B9000BFF36F8FBDE8F087022905F0070540F09D
:109BA0009480204623F023FA052864D801A353F8B3
:109BB00020F000BF8D9B0200CB9C0200779C02002E
:109BC000399C0200539C0200659C020001F00703CF
:109BD0005A1F012A1FD8002221F00701062BD4F8B2
:109BE000008089B2C4E9002209D1434603E0628BB8
:109BF000013262831B68002BF9D141F002012183FD
:109C0000204623F0F4F94FF0000900286DD041F010
:109C10002001218369E0042B0AD121F0070189B2D8
:109C20002183204623F0E3F910B141F02001218384
:109C30004FF00008C14658E02369D3F80090238B09
:109C400023F0070343F0060323834FF00008464642
:109C50004BE02369D3F80490238B23F0070343F0F0
:109C60000403F1E72369D3F80890238B23F007035B
:109C700043F00503E8E74FF00008C146E7E701229B
:109C800043F00803238387F31188BFF36F8F002A03
:109C90003BD1B8F1000F4AD1B9F1000F02D02D49E4
:109CA0002046C847EFF31187202383F31288BFF3C0
:109CB0006F8F238B23F008039BB22383D9063FD5F4
:109CC00023F01002228303F007056669218B002E22
:109CD000BFF67CAF0023D4F8008021F00701C4E96F
:109CE000003341F0010121839946238B03F0070AD9
:109CF000AA4502D0A268002AC1D1B8F1000F02D152
:109D0000B9F1000FDAD00022BAE7A1680029C0D06B
:109D10000D680029BDD04F68334652462046B847EB
:109D20001DB12B6829461D46F3E72B46FAE741464D
:109D3000334652462046D8F8008023F084F9A8E73D
:109D40009A067FF523AF23F02002228303F0070554
:109D500027E700BF73D0040037B504460821C06A66
:109D6000124D23F06BFB00234FF6FF72ADF8043069
:109D70006368ADF800208DF80620E26819182B40C2
:109D80001344181A60606846ADF8021023F0AEFA6A
:109D90006946204623F071FB211D204623F080FAFE
:109DA00063682B40A36003B030BD00BF0000FFFF1D
:109DB0002DE9F7430F4681460821C06A144D23F070
:109DC0003DFB3C68241A80463C6004EA0506B44228
:109DD0001CD3A0B210B903B0BDE8F08308236A46D3
:109DE0002146484623F023FA0028F4D16946A0B260
:109DF00023F010FB38B1BDF80230BDF804203C6000
:109E00002E4013441E44A4EB0804E0E70020E2E7E0
:109E10000000FFFF2DE9F047044688B000F1140769
:109E200038462DF091FEA06A8368DB689847E062AF
:109E300028B96FF01505284608B0BDE8F087A06A7C
:109E40008368DB6898470368013B1F2BF1D8E36800
:109E5000B3F5803FEDD8A06A216805AA2CF0EFFD8C
:109E60000028E6D1E568002DE3D0069BB5FBF3F2B0
:109E700003FB1255002DDCD1238A012BD9D9E36ACB
:109E8000009593F805804FF0FF334FF0FF323846CE
:109E90001FF04EFAE06A082123F0D0FAA9460646E0
:109EA000238A1FFA85FA534544D8238A4B4500F08C
:109EB000FF809A450BD1009908234246891B204612
:109EC00023F0C3F918B96946204623F0E9F9694639
:109ED0002046FFF76DFF0546002840F0EB80009913
:109EE00061604FEA11494FEA0949C4F80890A36834
:109EF0008B420DD8082301AA204623F098F9B8B95F
:109F000001AB13F8012B904532D101300828F8D16C
:109F1000636869466FF30F032046009323F0C0F98E
:109F2000E36800994246204623F08FF900283CDA86
:109F30000546BFE0E1682B04891B13FA81F1424614
:109F400008232046009123F080F978B16946204625
:109F500023F0A6F909F10109009908234246204699
:109F60001FFA89F923F071F900289ED0013597E78F
:109F7000A08801A923F04EFA626810B9911B6160B4
:109F8000B5E7BDF808A0BDF80610E06AC4F808906F
:109F9000514423F053FA48448242A060EED1BAF112
:109FA000000FEBD06FF01C0584E05DD063684FF6C6
:109FB000FF7906EB0308E368CDF800801FFA88F20A
:109FC0009B1B9A421CD34FF000086168B8F1000F48
:109FD00030D06FF30F0100912046694623F060F9FD
:109FE0000099204623F069F90028A1D1E368A288EE
:109FF000A3EB46039A425DD1204623F05BFA97E734
:10A00000082303AA4146204623F011F900288FD1E6
:10A0100003A91FFA88F023F0FDF930B1BDF80C3028
:10A020004B4502D1BDF810300BB1B044C3E74FF03F
:10A030000108CAE7204623F040F900287FF478AFF2
:10A040006368214AE16813400B44A3EB4603636055
:10A050001340A3604146204623F0B0FAC4E7E26A09
:10A06000A36812681344A360D4E901318B4208D974
:10A070005B1A4246204623F0E8F80028FFF658AF66
:10A08000EDD16168E36801EB46029A42AED10E4B16
:10A09000A06801EA03029042A8D0204623F00DF9FF
:10A0A00000287FF445AF6268074B1A40A2609DE725
:10A0B0006FF02C0538461FF0ADF9002D7FF4BBAED4
:10A0C0000123A374B7E600BF0000FFFF014B03604C
:10A0D00000207047F0A4050070B5104B1C680D46B9
:10A0E000B4B10F4B196800238B4202DB6FF0010003
:10A0F00070BD224612F8106B864202D0013314461E
:10A10000F2E7E0682DF023FC28B12C600020EFE797
:10A110006FF00C00ECE76FF01200E9E7A0030020FD
:10A12000F0A4050010B588B0436802938368C06846
:10A13000CDE903320A680023CDE906230C4601AAC3
:10A14000044905932CF07FFC079808B9059B236010
:10A1500008B010BDB5DA040007B51B491B4824F050
:10A16000D5F870BB1A49194824F0D0F848BB1949F2
:10A17000164824F0CBF820BB1749144824F0C6F841
:10A18000F8B90146154A114824F0A7FBC8B90246A0
:10A1900013490E48012324F07AFC90B9012300935F
:10A1A000014602230948EF2223F0BAFF48B90748C5
:10A1B00023F0DFFF28B9054803B05DF804EB24F075
:10A1C00008B803B05DF804FB18040020F40E00206A
:10A1D00000040020E8030020D0030020A403002096
:10A1E00063C005001FB507240294044C0194BDF818
:10A1F0001840009427F073F904B010BDCC0900207A
:10A2000010B5DFF824C086B04FF42814CDE904C49B
:10A210000824029404AC0194BDF82040009427F077
:10A220005EF906B010BD00BF180028002DE9F0410E
:10A230000C4B1C6805460E4617467CB100F018F919
:10A2400063682046D3F8108032463B462946C04713
:10A25000044600F017F92046BDE8F0816FF00104D4
:10A26000F9E700BF8021002000230360044B5A68F7
:10A2700012B9C3E90000704710605860704700BF12
:10A2800084210020014B1860704700BF802100200E
:10A2900030B585B00023CDE902330546019000F0CA
:10A2A000E7F8094B1C6844B9284600F083F80446D7
:10A2B00000F0E8F8204605B030BD636820461B6812
:10A2C00001A998472468EEE7842100201FB5CDE955
:10A2D0000101039200F0CCF8074B1C6824B900F090
:10A2E000D1F8204604B010BD636820461B6801A960
:10A2F00098472468F2E700BF84210020024B002227
:10A30000C3E90022704700BF84210020024B0022D5
:10A31000C3E90022FFF7F2BF8C2100202DE9F743AB
:10A3200007460C4609B100230B601F4DDFF87C90F7
:10A3300000264D450FD31E4B1D6885B355F8188C6C
:10A3400001AA41463846183D23F044FC10B3D6B963
:10A3500014BB2E461EE0D5F8008001AA41463846BF
:10A3600023F038FC50B116B954B92E4606E03168D6
:10A370000022404623F02EFC0028F5D11835D8E7FE
:10A38000019B2360F1E731680022404623F022FC64
:10A390000028DDD1AD69D0E7019B2360D9E73046C5
:10A3A00003B0BDE8F08300BF60A2050008A305006C
:10A3B0008C2100202DE9F047DFF8A890DFF8A8A055
:10A3C00080464FF000470026284C3D464C450DD3B3
:10A3D000DAF80040002C40D0183CB8F1000F24D12E
:10A3E000226952BBA469F5E72F46EDE7B8F1000FEB
:10A3F00003D122694AB91834E8E7206800224146AF
:10A4000023F0E8FB0028F4D1F5E76368BB4206DDE2
:10A41000AF4202D0AB42A8BF2B461D46EBE7EAD1C4
:10A420009047002E08BF0646E5E720680022414617
:10A4300023F0D0FB0028D3D1D4E76368BB4206DD0C
:10A44000AF4202D0AB42A8BF2B461D46CAE7C9D1D6
:10A450009047002E08BF0646C4E7AF42C4D130463D
:10A46000BDE8F08708A305008C21002060A205004C
:10A4700003484FF0FF324FF0FF331EF059BF00BFCB
:10A48000A40B002001481EF0C5BF00BFA40B002094
:10A4900038B5094DFFF7ECFF2B785BB9FFF736FFB6
:10A4A00000F068F8044608B901232B70FFF7EAFFB3
:10A4B000204638BD0024F9E7697100202DE9F043FA
:10A4C000048F013499B006460F46A4B200F1080883
:10A4D000651EADB2B5F5004F47D04A2305AA2946FF
:10A4E000404623F0DFFA04F57F543F34A4B281469E
:10A4F000214601230DF10B02404623F0D3FAB9F1B6
:10A50000000F014610DC002810DC338FAB4209D16C
:10A5100032466B1E22F8383F4FF40041022340467A
:10A5200023F08BF92C46D3E7002808DC2946404667
:10A5300023F05FFA2146404623F05BFAE5E709F194
:10A5400060030DEB0309002309F84C3C084A00970F
:10A5500003AB05A8CDF80C80ADF8104023F070FBDC
:10A560000028DFD019B0BDE8F0830020FAE700BF73
:10A57000AFDC04007FB50123694602200193FFF799
:10A58000ABFD044660BB02AA01A9022023F0B4FA85
:10A59000044610B110F10C0F22D10399B1F5803FA0
:10A5A00023D2009A002394681846084484421AD3A0
:10A5B0000133082BF9D10E4D69612B835368AB60D1
:10A5C0002846D368EB6323F008FC044640B9094EE3
:10A5D0006E602846FFF748FE28466E60FFF752FE81
:10A5E000204604B070BD9BB2E5E76FF02004F7E7AA
:10A5F000942100204CA6050008B50348034A002119
:10A60000121A23F01FFC08BD081000204872002019
:10A610000748084A084908B5121A23F015FC0748EC
:10A62000074A0849BDE80840121A23F00DBC00BFD4
:10A63000000000200410002064FB05000000002042
:10A640000000002064FB050038B505460C4699B1B2
:10A65000D1E901230F48096822F023FCD4E904233F
:10A66000E1680D4822F01DFCE1690C4822F019FC5C
:10A67000A1690B4822F015FC012D05D1EFF30581EE
:10A680000848103922F00DFC21462846BDE8384024
:10A690001EF0EEBB8AC00500BAC00500EAC0050086
:10A6A000FAC0050029C1050030BFFFF7FDBF00BF9C
:10A6B0002DE9F0410B4EDFF8308006EB0807CC1B8C
:10A6C00005463246094920462FF075FAA019424640
:10A6D0000021083C2FF096FAEC6707F10800BDE86E
:10A6E000F08100BF000000000800000008A3050082
:10A6F0002DE9F843324D804632488946174622F00C
:10A70000D0FBAB6ADE0622D52F4822F0CAFB11240B
:10A71000AB6A1D0703D52D4822F0C3FB1224284D38
:10A72000AB6A980715D52A4822F0BBFB6E6BAB6A63
:10A73000190642D52748314622F0B3FBB9F1000F84
:10A7400003D0AB6A23F08003AB62132403E0102430
:10A75000DEE76FF015061A4DAB6ADA0703D51E481F
:10A7600022F09FFB1424AB6A9B0603D51B4822F002
:10A7700098FB1524124B9A6AD50602D49A6A900760
:10A780000AD55B68190507D54146304600F076FAD0
:10A7900010B180F309880224094B9A6A920642BFDD
:10A7A0005A6A22F400525A629A6A42F0FF029A628E
:10A7B00000233B702046BDE8F8836FF01506C4E720
:10A7C00000ED00E03DC1050054C1050088C1050051
:10A7D0009CC10500B5C10500CCC10500ECC1050058
:10A7E00010B51D4C1D4822F05CFBA36A990130D5C1
:10A7F0001B4822F056FB1E20A36ADA0103D5194834
:10A8000022F04FFB1F20144CA36A1B0303D51648EC
:10A8100022F047FB2120A36A590303D5134822F0F5
:10A8200040FB22200C4CA36A9A0303D5104822F067
:10A8300038FB2320A36ADB0303D50E4822F031FB4B
:10A840002420054A936A6FEA03436FEA1343936235
:10A8500010BD1D20D0E700BF00ED00E01CC20500C8
:10A8600035C2050049C2050064C2050083C2050067
:10A87000A9C20500C4C2050070B5244C0646244890
:10A880000D4622F00EFBA36AD90435D5214822F0EB
:10A8900008FB1720A36A1A0503D51F4822F001FB05
:10A8A00018201A4CA36A9B050FD51C4822F0F9FA10
:10A8B000A16BA36A180407D5194822F0F2FA1EB159
:10A8C000A36A23F40043A3621920104CA36A59051C
:10A8D00003D5144822F0E5FA1A20A36ADA050DD54B
:10A8E000114822F0DEFA1B20084A936A43F47F43A2
:10A8F000936200232B7070BD1620CBE7A36A9B04E4
:10A90000F2D50A4822F0CDFA1C20EDE700ED00E078
:10A91000F0C2050007C3050088C1050019C3050082
:10A9200033C3050049C3050065C30500ECC105003C
:10A930002DE9F0415D4B5F688AB00446C7F3080615
:10A94000002585F31188BFF36F8F02F07F43B3F1C9
:10A950007F4F06D102F00C03082B13D1544822F08C
:10A96000A0FA00252C464FF00008F31E8DF8078052
:10A97000092B00F28C80DFE803F00A80847C8A8A4D
:10A980008A8A8A8810074CBF0C460125EBE74948A4
:10A99000464E22F086FA8DF80780F36A9A0704D5AE
:10A9A000454822F07EFA00232AE0F36A002B01DA00
:10A9B0004248F6E7F36A5B00F5D5414822F071FAA8
:10A9C0007369A26943F480737361BFF34F8FBFF360
:10A9D0006F8F32F8023C726922F480727261BFF3A9
:10A9E0004F8FBFF36F8F03F47F42B2F55F4F27D1D4
:10A9F000DBB2022B24D12168324822F052FA2368BC
:10AA00009DF80720CAB902AE04F1200720686168EA
:10AA1000324603C20834BC421646F7D1099A002DCB
:10AA200041D0C2F3080121B96FEA52226FEA4222F3
:10AA3000099202A91846FFF707FE0AB0BDE8F081A7
:10AA40001A4B9A6AD2B232B10DF1070201212046A7
:10AA5000FFF74EFE0FE09A6A12F47F4F05D00DF11A
:10AA600007010120FFF708FF05E09B6AB3F5803F6F
:10AA700099D3FFF7B5FE0346C2E70DF107020021A7
:10AA8000E5E70DF107010020ECE70F4889E70F4BE0
:10AA90000F49104817F4F87FA6F1100208BF1946B5
:10AAA00022F0FFF97FE76FF30802C1E700ED00E055
:10AAB000ACC30500D8C30500F0C3050012C40500EF
:10AAC00021C4050041C405005EC405007EC3050025
:10AAD00093C3050083C40500044B5A6942F0100279
:10AAE0005A615A6922F008025A61704700ED00E08D
:10AAF000EFF30880EFF3098101B57246FFF718FF05
:10AB000001BD00BF0B4880F308881DF0C5F9202067
:10AB100080F3118808484FF40461401880F30988D5
:10AB2000EFF314800221084380F31488BFF36F8F82
:10AB300000F06CF840D3002080B900201EF0040F14
:10AB40000CBFEFF30880EFF30980816911F8021C54
:10AB50000229FFD001B5724623F078F901BD00BF8C
:10AB600040B2002807DB044A4109012300F01F001E
:10AB7000834042F82130704700E100E040B20028F5
:10AB80000CDB4309064900F01F00203301228240FC
:10AB900041F82320BFF34F8FBFF36F8F704700BF83
:10ABA00000E100E0054B420900F01F0053F82220AD
:10ABB000012303FA00F01040704700BF00E100E0FD
:10ABC00040B20028A8BF00F1604001F10101B8BF08
:10ABD000064B4FEA4111ACBF00F5614000F00F0099
:10ABE000C9B2B4BF195480F80013704714ED00E0E7
:10ABF000044B054A23F07F039360BFF34F8FBFF3ED
:10AC00006F8F70470070020000ED00E008B5FFF79D
:10AC1000EFFF0B4AD2F8883023F47003C2F8883073
:10AC2000EFF3148323F0040383F31488BFF36F8FCF
:10AC3000FFF7E2FCFFF7ECFC00F0B2F81EF0E0F9E1
:10AC400000ED00E042F8203C009B42F81C3C0A4921
:10AC5000019B42F8183C029B42F8143C21F0010190
:10AC60004FF0807342F8043C42F8081C0023203A5D
:10AC70000265C0F880307047119B0200094A034604
:10AC8000906870B113F1160FC06E05D0A0F14002AC
:10AC9000934205D3834203D2814228BF00207047EC
:10ACA000002070475C6A002008B515460B4A0C4B23
:10ACB0009060C26F1A600E4600F0A2F82C4686F330
:10ACC00009880020034B98472046002100220023DA
:10ACD000014C204771DE0400119B02005C6A0020D9
:10ACE000D4210020014B10221A61704700ED00E0D2
:10ACF000054B5A699B689A421FBF044A536843F048
:10AD000080535360704700BF5C6A002000ED00E094
:10AD1000084B9B6883420BD1EFF3058343B1064B8D
:10AD20005A6842F080525A605A6A22F400425A62CB
:10AD30001FF008BA5C6A002000ED00E015498A683F
:10AD40004FF030001044EFF3098C80E8F01F202012
:10AD500080F31288BFF36F8F0F4F4FF000664A6980
:10AD60008A603E60D06F0D4C2060D2F880000023D6
:10AD7000C2F8803080F3118804B5104600F040F826
:10AD8000BDE8044002F1300090E8F01F8CF3098820
:10AD9000704700005C6A002004ED00E0D421002030
:10ADA000044800232021C2180133302B82F80013FD
:10ADB000F9D1704700E100E008B5EFF30583064ADA
:10ADC000103B02EBC30152F8330049688847BDE8E5
:10ADD0000840FFF78DBF00BF789F0500014800685D
:10ADE00070470000D4210020024B034A0348012190
:10ADF00000F076B8000004200000002068A60500DE
:10AE0000C36E054A403B1360044B4021C2E9011365
:10AE10001046012100F06EB8D821002000000B156B
:10AE2000084AC2F898000B6823F01F03034343F05D
:10AE30001003C2F89C308B6843F00103C2F8A030C5
:10AE4000704700BF00ED00E02DE9F043DFF86080BF
:10AE500085B00E461F4604464FF00009B14523DA7F
:10AE60006068D8B13FB1411E08421BD11F2819D9D3
:10AE70002368194216D12368019323F01CF8A368B4
:10AE800003430393D8F89050C5F30725D0B2013D92
:10AE9000A84207D801A9FFF7C3FF421C09F1010925
:10AEA0000C34DBE76FF01502104605B0BDE8F08307
:10AEB00000ED00E0044B0522C3F89420BFF34F8F50
:10AEC000BFF36F8F704700BF00ED00E0BFF35F8FEF
:10AED000024B0022C3F89420704700BF00ED00E051
:10AEE00010B5034C01232278FFF7AEFF207010BD90
:10AEF0006A71002008B50B4A00231278FFF7A4FFFF
:10AF000010F1160F07D0084A0021D2F89030C3F391
:10AF10000723984200DB08BDC2F89800C2F8A010D1
:10AF20000130F2E76A71002000ED00E02DE9F04306
:10AF30005A4B5B4DD3F890302C68C3F307239C42E7
:10AF400085B000F2A780FFF7C1FF00200C268442E5
:10AF50001AD1544EDFF8449134706846FFF7B6F8C2
:10AF6000514C524D80460027B84514D133784B4997
:10AF70000020D1F89020C2F307229342C0F28480CF
:10AF8000FFF798FF002045E0696806FB0011FFF716
:10AF900047FF0130DBE7009800EB07114FEA071C81
:10AFA000CB682340B3F5000F4DD00AD8B3F5001F8E
:10AFB00033D0B3F5800F3BD0B3F5801F13D00137EA
:10AFC000D2E7B3F1007F47D0B3F1805F4DD0B3F14A
:10AFD000807FF4D150F80C3088684A6822F06BFF0B
:10AFE00040F0887009E050F80C3088684A6822F018
:10AFF00062FF40F0885040F43020CDE901230390F7
:10B00000D9F890303078C3F30723013B984234D904
:10B010006FF0150005B0BDE8F08350F80C3088687B
:10B020004A6822F048FF40F0885040F40020E4E7EE
:10B0300050F80C3088684A6822F03DFF40F00070FC
:10B0400040F40030D9E750F80C3088684A6822F0A4
:10B0500032FF40F08270D0E750F80C3088684A68C0
:10B0600022F029FF40F48020C7E750F80C308868B0
:10B070004A6822F020FF2843BFE701A9FFF7D0FE6E
:10B080003378013333709AE7C1F89830C1F8A000E3
:10B0900001336EE74FF0FF30BCE700BF00ED00E08A
:10B0A00074A605006A7100200000F0FF0000021184
:10B0B00008B50649064821F00701C1F1005202F522
:10B0C000802221F0ABFE002008BD00BF7BA1012043
:10B0D000E421002003484FF0FF324FF0FF331EF011
:10B0E00027B900BF6004002001481EF093B900BFDB
:10B0F0006004002038B50546FFF7ECFF08482A46F3
:10B10000082121F01AFE044628B925B1FFF766FE92
:10B11000044B0C221A50FFF7E7FF204638BD00BF52
:10B12000E42100200C00000010B50446FFF7D2FF18
:10B130002146034821F07BFDBDE81040FFF7D4BF56
:10B14000E421002070B5A0FB015434B92846FFF774
:10B15000D1FF064640B9304670BDFFF73FFE054BB4
:10B160000C221A500026F6E72A4621462EF04AFD08
:10B17000F1E700BF0C00000070B54169867A0B4D05
:10B18000044659B1437ADB0706D42C2303FB06534C
:10B190005B6A1B689B689847002363612C202146EB
:10B1A00000FB0650BDE870402CF0A8BD940C0020B8
:10B1B000024B2C2202FB0030704700BF940C002091
:10B1C000827A064B2C2101FB02339A6A1B7F1B33C8
:10B1D000801A23F00303B0FBF3F07047940C0020B7
:10B1E00038B5074B827A2C2404FB02335B6AD3E91F
:10B1F00001240C601568FFF7E3FF04FB005038BD25
:10B20000940C00202DE9F04385B005466846039173
:10B2100090461C462DF08DF8DDE90067EFF31189AB
:10B22000202383F31288BFF36F8F6B8B002B41D0E9
:10B230002A8B9A4225D90022002328461EF03AF98B
:10B240000446F0B189F31188BFF36F8F039B002B85
:10B2500041D032463B4668462DF090F8A27A264B04
:10B260002C2101FB023320465B6A1B6803A91D6881
:10B27000DDE90023A847606170BB2046FFF77CFF33
:10B2800024E0698B4B1E6B8389F31188BFF36F8FAA
:10B290002B7F2A8BAC6A1B3323F00303521A02FB69
:10B2A0000344154B154AEB1A9B105343A3722B7F93
:10B2B000E372CBE789F31188BFF36F8F23464246D1
:10B2C00028461EF0F7F804460028BFD10024204687
:10B2D00005B0BDE8F0836361012300252381039B52
:10B2E0006382E27A6560294604F118002EF08AFC38
:10B2F00063692582E360EAE7940C0020A38B2EBAF1
:10B3000070B50D4C2C2500B970BD037A4668002B32
:10B31000FAD0013BDBB20372002BF5D1C36043606E
:10B32000837A05FB03431B6A13B198473046EAE76B
:10B33000FFF722FFFAE700BF940C0020202800B599
:10B3400008D9FFF74BFD094B09221A504FF0FF3087
:10B350005DF804FB30235843054BBFF35B8F1B584C
:10B36000BFF35B8F002BECD00020F1E70C00000056
:10B37000F821002030B530231049434308330B44F3
:10B38000BFF35B8F1A68BFF35B8FB2B1BFF35B8F04
:10B39000541E53E8005F954204D143E8004CBCF1D1
:10B3A000000FF6D1BFF35B8FEAD1012A05D130231C
:10B3B00058430A1800230B50536030BDF021002081
:10B3C00038B504461546FFF7B9FF01300DD0084ADD
:10B3D00030236343D0184068086015B10C33134420
:10B3E0002B6030235C43105938BD0020FCE700BFC0
:10B3F000F021002070B54FF0FF331D484FF0FF32B1
:10B4000022F06EFE1B4B0025BFF35B8F1A68BFF363
:10B410005B8F82B10135212D03F13003F4D1FFF7A9
:10B42000DDFC154B17221A504FF0FF35104822F063
:10B4300059FE284670BD30246C43BFF35B8F53E840
:10B44000000F013043E800010029F8D1BFF35B8F02
:10B450000A4E331932515A609A6204F10C0030449A
:10B460002CF072FB04F1200030442CF0A9FDDDE744
:10B47000400B0020F82100200C000000F0210020EB
:10B480002DE9F041164630240F4A4443101911515A
:10B490004660C362B6B1F368A3B1FFF79FFC0B4FE0
:10B4A0000C3450F807801319054640F20512304657
:10B4B00022F007FEB8F15F0F04D0EB595F2B08BFF5
:10B4C00045F80780BDE8F081F02100200C00000065
:10B4D0002DE9F0410546FFF731FF431C044621D01A
:10B4E0003026DFF84C806E4306F10C0747444FF0DE
:10B4F000FF324FF0FF33384622F0F2FD08EB06032F
:10B500005A68946844B1DB6A58F8060013F4404F57
:10B510000BD02946A0470446384622F0E3FD2846D2
:10B52000FFF728FF2046BDE8F081A047F3E700BF02
:10B53000F02100200C4B0122C3F840254FF080433E
:10B540004FF08051C3F87825D1F83001082805D193
:10B55000D1F83411022908BFC3F838260122C3F8F4
:10B5600080250020704700BF00E0014048B1054B36
:10B57000054A1B68B3FBF2F35843044B43F0010345
:10B58000184770474409002040420F00A0A305005F
:10B59000BFF34F8F0549064BCA6802F4E0621343BC
:10B5A000CB60BFF34F8F00BFFDE700BF00ED00E0B1
:10B5B0000400FA0508B5054A054B136010463C2304
:10B5C00053601CF03FFD002008BD00BF2028002074
:10B5D0003FC00F00F7B506460D461446124F3846D9
:10B5E0002CF0B5F9E0B1BB68AAB21B683146384609
:10B5F0009847002802DB002003B0F0BD002CFBD1EF
:10B60000AC42F8D22F1B042F28BF04272BF0DBFD00
:10B610003A46019001A930192EF0CDFA3C44EFE7EB
:10B620006FF01200E8E700BFB49E05002DE9F0417D
:10B6300090F8283003F01F03012B04460F4600F159
:10B6400028062FD0022B18D08BB394F8291020464F
:10B6500022F002FE024678B3304622F0E7FE1D4D8E
:10B66000002834D113693BB33A4631462046984707
:10B670000346FFF7B3FB2B5024E0818DC9B223F0C2
:10B68000CCF905460028E0D0304622F0CFFE024635
:10B6900068688368CAB99B6873B13A463146BDE8A9
:10B6A000F0411847818DC9B223F09EF9E9E790F87F
:10B6B000291023F0D5F9E4E7FFF790FB054B6FF075
:10B6C00085021A500020BDE8F081DB68E4E7D3680A
:10B6D000C9E700BF0C0000002DE9F04F0B7E33F0EE
:10B6E000800893B004460D46164640F08E847AB129
:10B6F0000846FFF705FE6B7EDF0703D49E0711D5D2
:10B700002B7E7BB9204613B0BDE8F04F22F0BABEC5
:10B710004A7E00F12809900708D5802B0CD12846D5
:10B72000FFF7EEFD404613B0BDE8F08F910700F043
:10B730002784002B40F02484D2072FD52B8A082B96
:10B7400040F00684EA681368A3625368C9F80430BD
:10B750002946002022F01AFC054610B1FFF7D0FD63
:10B76000EFE0484622F062FEE28D70B9B2B12946A0
:10B77000A0692AF067FF0146002800F02D842046CA
:10B7800013B0BDE8F04F23F0EEBA3AB111462046AF
:10B7900023F0E4FA0546002800F01E84FFF71EFBA4
:10B7A00094F82880B14F002318F0600FC351C8F3FC
:10B7B000411307D0032B40F0BD81FFF70FFB6FF063
:10B7C000850337E0484622F031FE94F829300028FE
:10B7D00040F04E81013B0A2BEFD801A252F823F032
:10B7E00057B90200BBB70200E3B90200BBB70200C1
:10B7F0000DB80200BBB70200BBB70200BBB7020026
:10B800007DB80200BBB70200DFB80200618D7F295E
:10B81000D3D8A38D002BD0D1E38D002BCDD118F040
:10B820001F0FCAD194F83030022B05D1FFF7D6FA9A
:10B830004FF0FF333B5076E0A069036993F8803006
:10B840001B0707D5C9B222F053FE804628B1002D50
:10B850006CD167E7012384F8393094F83030012B3C
:10B860000AD1638D43B984F83030FFF7B7FA3B58FB
:10B87000002B00F0858056E00123F4E7204622F0FB
:10B880004AFC628DFF2A014697D8E38D002B94D1A4
:10B8900094F82830D80690D194F83030002BC5D0D9
:10B8A0002AB1D2B2204622F0C5FF0028BED0618D59
:10B8B00094F838308B42D8D0C9B2204622F0C1FF6C
:10B8C00080460028C3D1628D002A14BF02230123C1
:10B8D00084F830300521204623F0E6FAC5E708F069
:10B8E0001F08B8F1010F7FF468AFE38D002B7FF4E0
:10B8F00064AF628DFF2A3FF660AFA18DFF293FF64E
:10B900005CAF94F83030022B90D1D2B2C9B220464D
:10B9100023F0A7F910F1020F804640F01081FFF7E5
:10B920005DFA47F8008065B14FF000082846FFF740
:10B93000E7FCB8F1000F7FF4F5AEFFF74FFA3B5884
:10B94000F3B1484622F072FD0346A069002B00F0D7
:10B950004F83802155E3E38D002B7FF42EAF94F8C5
:10B960003030002B3FF462AF012BA18D02D10029B2
:10B970007FF45CAF18F01F080CD0B8F1020F16D09E
:10B98000E38D002B40F0D782204622F065FD002891
:10B99000D7D1B7E600297FF449AF638D012BEFD1F2
:10B9A00094F86C3061F3C30384F86C30E8E7B4F8C2
:10B9B0002AA0BAF1000FE3D15FFA81F84146204690
:10B9C00023F042FA0346FFF709FA3B50013302D154
:10B9D0004FF0FF383BE752464146204622F02CFD0F
:10B9E00043E7E38D002B7FF4E8AE628DA38D022A3E
:10B9F0005FFA83FA11D108F01F085AEA08087FF4A9
:10BA0000DCAEA0690122190A22F04FFD00287FF464
:10BA1000D4AE012384F8393027E794F83010002998
:10BA20003FF404AF012902D1002B7FF4FFAE18F0E0
:10BA30001F0811D0B8F1020FA2D1002AA0D151469F
:10BA4000204623F0ECF90346FFF7C8F93B500133D9
:10BA5000BED001225146C0E7002B7FF4E7AE012A99
:10BA60008ED194F86C3043F008039DE70C00000081
:10BA70000A2B3FF6A2AE01A252F823F0A9BA0200A7
:10BA8000BBB70200BBB70200BBB70200BBB70200E6
:10BA9000BBB7020023BB0200BBB70200B3BE02006B
:10BAA000BBB70200DDBE0200E38D022B7FF485AE42
:10BAB00094F83030002B3FF4B9AE012BA18D02D1A8
:10BAC00000297FF4B3AE18F01F0811D0B8F1020FAF
:10BAD0001CD04FF0000805F10C0A504622F09EFCE5
:10BAE000E38D984218D2FFF779F96FF00B03A1E6C6
:10BAF00000297FF49BAE94F86C304FEA930808F06D
:10BB00000208C3F3001348EA0308E4E7C9B2204679
:10BB100023F0A9F98046DEE74146504622F08FFA2D
:10BB2000A3E6B4F82AA018F01F0F4FEA1A235FFA11
:10BB30008AFA09D029462046FFF778FD8046B8F1F9
:10BB4000000F7FF484AE90E6013B0E2B3FF635AE3E
:10BB500001A252F823F000BF95BB0200D5BB020042
:10BB60007FBC0200BBB70200BBB7020077BC02007B
:10BB700077BC0200BBB70200BBB70200BBB7020034
:10BB8000BBB70200BBB70200BBB70200BBB70200E5
:10BB9000C1BD020005F10C08404622F03FFC83467F
:10BBA0002046B4F82EA022F0B6FA20B101287FF486
:10BBB00004AE616F00E0216F002900F02A820A784C
:10BBC000DA4528BFDA46524528BF5246404622F0A1
:10BBD00025FA4AE6204622F09EFA0AF10102019077
:10BBE0000146D2B2204622F0FFFD804600283FF4F5
:10BBF000E4AD05F10C0AD0F804B0504622F00EFC7A
:10BC00009BF80020824228BF02465946504622F047
:10BC100005FAD8F80CB0BBF1000F09D1298AE38DE1
:10BC200099427FF622AEC91A504622F012FA1CE65B
:10BC3000DBF8040083681B6B13B9DBF800B0EAE79C
:10BC4000019998470028F8D0A0F1040858F8041F7B
:10BC50000029F2D00A78002AEFD05046CDE902211F
:10BC600022F0DCFB029A0399904238BF82B2504620
:10BC700022F0D4F9EAE7204622F04DFA9DE552463B
:10BC80000321204622F028FB824600283FF495AD90
:10BC900022F0BFFBB4F82EB09AF81530C8B99AF864
:10BCA00014808DF828808DF82930DAF8103005F1ED
:10BCB0000C0A1B88ADF82A30504622F0AFFBC34572
:10BCC0005A4628BF4246824228BF02460AA9504629
:10BCD0007DE7DAF808208DF81530C14B1340C14AD2
:10BCE0004FF0000893428DF8148058D1102106A817
:10BCF0002BF074F9021EFFF660AD0AA9102ADFF8D6
:10BD0000E8E20DF1180C084628BF1022424501F167
:10BD1000020133D8920002325FFA82F88DF8148063
:10BD2000034605F10C0A5046029322F077FBD845F2
:10BD3000424628BF5A46904228BF104602288346F2
:10BD4000804628BF4FF0020B5A46A8EB0B0805A906
:10BD5000504622F063F94FEA58030193029B9B4639
:10BD600003EB5802934521D118F0010F3FF47DAD4C
:10BD7000019A995C504622F05AF976E51CF8013B8D
:10BD80004FEA131A03F00F031EF80AA01EF803303F
:10BD900001F802AC01F8013C08F10108B6E79AF895
:10BDA0001480DAF810308DF81480BAE71BF8011B04
:10BDB0005046CDE9023222F042F9DDE90232D1E704
:10BDC000204622F0A8F938B101282CD0FFF706F858
:10BDD0006FF085033B5048E5236F002B00F019817D
:10BDE0005B88B3F5007FF1D9804B0A9300238DF86F
:10BDF0002C30E36C04F14C0B9B4508BF0023BDF8CD
:10BE00002A10A3B15A7D0F2A08D11A7D0A44ADF831
:10BE10002A209DF82C2001328DF82C20226D93428F
:10BE200003D01B68EBE7636FD7E7BDF82A100191D9
:10BE300005F10C0A504622F0F1FAB4F82E8001996F
:10BE4000884528BF8846804528BF80464246052A47
:10BE500028BF05220AA95046019222F0DFF8019A74
:10BE6000B8EB02083FF401ADE36C5B453FF4FDAC79
:10BE7000002B3FF4FAAC5A7D0F2A14D11A7D1969B0
:10BE80000193424528BF4246504622F0C7F8019B25
:10BE90001A7D424594BFA8EB0208A8EB0808B8F148
:10BEA000000F3FF4E2AC226D93423FF4DEAC1B681E
:10BEB000DEE794F83030002B3FF4B8ACE38D012B73
:10BEC0007FF47BAC05F10C08404622F0A7FA00286D
:10BED0003FF409AE94F8381040464CE708F01F08CC
:10BEE000B8F1010F7FF4A2AC204622F091FC0028AB
:10BEF0003FF49CACB4F82CA0BAF1FF0F3FF65DAC58
:10BF000043681B795345FFF458AC5FFA8AF30F2B53
:10BF10003FF653ACE38D012B7FF44FAC05F10C08D9
:10BF2000404622F07BFA00283FF4DDAD04EB0A0323
:10BF300093F83A10D0E7484622F078FA18B9284624
:10BF4000FFF7DEF920E52946204622F00CFF08B174
:10BF5000284603E4A069036993F8801011F00401F6
:10BF60007FF4D0AB2AF082FB054600283FF4E9AC11
:10BF70000146204622F0F7FE00283FF4C3ABE7E776
:10BF800052077FF5DEAC002B3FF4C9AB2846FFF724
:10BF9000B7F994F83930002B3FF4C4AB94F829304A
:10BFA000052B05D1618DA069C9B222F0A1FA064620
:10BFB00094F82930032B09D1638D022B06D1A18D72
:10BFC000A0690022090A22F070FA0646002384F8CC
:10BFD0003930B046FFF7A6BB6FF00B06B1E400BFE7
:10BFE00000FF020000030200EEF70500050F050048
:10BFF000E38D002B3FF4ADAC16F10C0118BF01210D
:10C00000C9012AF036FAFFF77DBB6FF00408FFF78D
:10C0100089BB6FF015081AE40B78062B10B414D105
:10C020000369D3F89C20EFF31184202383F3128853
:10C03000BFF36F8F4B6800201860506A58B9C2E98F
:10C04000083384F31188BFF36F8F044810BC0022BB
:10C0500000232BF06ABD03605362F2E7FC0B002063
:10C060002DE9FF4120264FF0FF335E484FF0FF32AD
:10C0700001A91DF0F9F8039B1B69D3F89C40236AC2
:10C0800093B1EFF3118286F31288BFF36F8F216AA9
:10C0900029B1606A0B682362814208BF636282F340
:10C0A0001188BFF36F8FC9B99DF80430062BDAD021
:10C0B000072BD8D801A252F823F000BF0FC102000D
:10C0C00003C102002FC1020015C1020053C10200CA
:10C0D00049C1020067C00200DDC102000B7ED1F839
:10C0E0001E205D06204609D1FFF7F6FA0246002819
:10C0F000C5D00721204622F0D7FEC0E722F084FCFD
:10C10000F4E700220121204622F0CEFEABE7002218
:10C110001146F8E794F86C3043F0040301A984F861
:10C120006C30204622F00CFA00220321EBE794F851
:10C130006C3023F0040301A984F86C30204622F00F
:10C14000FFF900220221DEE701A9204622F0F8F9DA
:10C1500089E794F86C30A76923F0040384F86C3005
:10C16000D7F808803B69BFF35B8FD3F8A030BFF3EB
:10C170005B8F9A072FD5D8F83C3038469847D8F8C7
:10C180002430002138469847D8F8403005463846D4
:10C190009847ADB92946204622F053FB054678B9A9
:10C1A000A0692AF082FA831E5842584194F86C30F4
:10C1B00084F8305023F0680343EA401384F86C306D
:10C1C00000220421204622F06FFE002D3FF44BAFE9
:10C1D0002A46072197E74FF0FF35F1E7029A06213B
:10C1E00091E700BFFC0B002030B589B0002200238E
:10C1F000CDE9062300246FF00703CDE90334CDE930
:10C2000001441A4B1A4900944FF4806219481DF0FA
:10C2100019FD194917482BF0DDFE184B18498B42C0
:10C2200007D3184B184900208B4210D3002009B0C7
:10C2300030BD03F11402BFF35B8F52E8000F42E8F8
:10C240000045002DF9D1BFF35B8F1833E7E703F109
:10C250001402BFF35B8F52E8004F42E80005002D47
:10C26000F9D1BFF35B8F1833DEE700BF61C0020076
:10C27000C07A0020A810002013C00500EC0F002099
:10C2800004100020041000200410002038B50246DD
:10C290000949054680692AF06EFA044648B985F8CE
:10C2A0003800284622F0A3F9044610B1A8692AF004
:10C2B00095FA204638BD00BF19C0020070B5084C81
:10C2C000084E0546B44202D30024204670BD636880
:10C2D00028461968FAF72EFF0028F6D01834F1E73F
:10C2E000EC0F00200410002070B50646EFF311811A
:10C2F000202383F31288BFF36F8F1B4D2A6881F3CD
:10C300001188BFF36F8F526892F86C20D20705D462
:10C31000BDE87040212200231DF0B2BBEFF3118273
:10C3200083F31288BFF36F8F2C682CB16968236880
:10C330002B608C4208BF6B6082F31188BFF36F8F54
:10C3400044B1606804F10801C36998470748214671
:10C350002BF09BFB2B6833B130460022BDE87040C8
:10C3600000231DF059BB70BD28280020FC0A0020C6
:10C3700030B585B0CDE900120546002214480023EF
:10C3800003A91CF0D7FE0246E8B9039BDDE90001D2
:10C390005D60083383E80300EFF31180202383F30B
:10C3A0001288BFF36F8F039B1A600A4A516861B904
:10C3B000C2E9003380F31188BFF36F8F0648002273
:10C3C00000231DF029FB05B030BD0B605360F1E781
:10C3D000FC0A002028280020000000200B7803F031
:10C3E0001F03012B00B506D14B78432B09D003F076
:10C3F000FD03842B05D0FEF7F1FC034B6FF08502A3
:10C400001A5000205DF804FB0C00000010B500225B
:10C4100004460023024821F064FD00B1047610BDFB
:10C42000EC0C002010B504690B4904F148002BF016
:10C430006EFDD4F81A10228B52EA31424FF00003FD
:10C4400008D16376A37602232376032104F11B002F
:10C4500021F04CFE002010BD5DC402002DE9FF411B
:10C4600050F8483C0446002128381E6922F056FD49
:10C47000002844D0356995F8247077BB2B6858683C
:10C4800021F049FE224B234A3946002814BF90462A
:10C490009846102268462DF0B5FB42F6A123ADF870
:10C4A0000030AB6830699B7AADF804301022082365
:10C4B0006946CDE90288ADF8063022F026FE002854
:10C4C00002DB032385F8243040F6CD4200232046CA
:10C4D00004B0BDE8F0411DF0D3BA042F07D101210B
:10C4E000304622F044FE0028EEDB0123EAE7022F6B
:10C4F00002D1052385F8243004B0BDE8F08104F8AA
:10C50000240C304622F033FE0028F5D0DCE700BFD3
:10C51000001BB70000389C1C70B50B7803F060035B
:10C52000202B88B0154605D0FEF758FC134B862209
:10C530001A501FE04B78802B08D0852BF4D1104A7D
:10C54000D069116A01AB03C308220EE00C4B01ACA9
:10C5500003F1180618685968224603C20833B3422B
:10C560001446F7D1186810601C2201A905F10C00CF
:10C5700021F054FD002008B070BD00BF0C00000089
:10C5800040A305002DE9F04F03691C690B7E90461E
:10C59000A268814692F85700984285B00F4640F055
:10C5A000BC80B8F1000F40F09280098A0B2940F25C
:10C5B0008E80FE68B3880C2B40F089803268714B06
:10C5C0009A4240F08480F3881B2903F101032385FC
:10C5D0007DD9338999427AD1B1F5006F77D87389C3
:10C5E0000B2B74D9A1F11002934270D8F518AA88C8
:10C5F0000F2A6CD9F058DFF890C120F080706045A8
:10C6000065D1E888002862D19208901E083303287B
:10C6100033445CD802F18042033A03EB820033F8E2
:10C620002220002A53D14288002A50D11A8812B100
:10C630005888002844D140F6CD40002116F024FC53
:10C640000546002843D0394627F0CFFF95F837300C
:10C6500043F0010385F8373073891E44083636F8F5
:10C66000043C083BC3F38F030393039B984521DAF3
:10C6700033880293B6F802A0E3B1BAF1000F19D0E3
:10C680004FF0FF324FF0FF336069CDE90023002304
:10C690001A46514616F0F6FC834658B1284627F054
:10C6A0009EFF0299284627F0E9FF002821DA584624
:10C6B00027F002FF0023AB60284627F0FDFE06E0CE
:10C6C000914204D302448A4203F10403AEDD3846AA
:10C6D000FEF716FE032104F1200022F04FFC012199
:10C6E00022F01CFC08B3484605B0BDE8F04F22F02C
:10C6F00083BD52462946584627F0DFFF0028D6DB87
:10C700006069594626F035FB002802DA584627F0C2
:10C71000D3FE08F101080436A7E792F850009842CA
:10C7200007D104F12C001CF0F7FE002005B0BDE895
:10C73000F08F92F830209A421CD1B8F1000F06D049
:10C74000002384F824303846FEF7DAFDEDE794F84C
:10C750002430032B08D1042384F824302122002321
:10C7600004F148001DF08CF994F82430012BEAD133
:10C770000223E6E7D9F8040005B0BDE8F04F22F047
:10C780004BBB00BF4E434D484E434D30F7B5284C90
:10C79000054616461F46BFF35B8F2368BFF35B8FCA
:10C7A000DA0726D518B96FF0010003B0F0BD01A972
:10C7B00021F034FA0228024622D11E4928462DF0E3
:10C7C00029FA0028EFD1BFF35B8F2368BFF35B8F9B
:10C7D000C3F3C0051B070CD4E43C152221463846A0
:10C7E000B047062807D81522294620462DF00AFA18
:10C7F00065750020D9E70723B0FBF3F06075F8E713
:10C800000328D0D128460C492DF004FA054600280B
:10C81000C9D1302204F19C013846B0470F28E8D82E
:10C820003022294604F19C002DF0ECF9E1E700BF2D
:10C830008C01002044BF0500A6C405002DE9F0438B
:10C8400089B09D79DDF840905E791F7993F803C037
:10C8500093F802E093F801801B780C46B9F1000FC1
:10C8600015D0CDE90639CDE904E81346CDE9027CBF
:10C87000CDE900560D4A1FF05BFD002813DBA042F6
:10C880002CBF6FF01500002009B0BDE8F083CDE9A2
:10C890000583CDE903CE1346CDE90167044A00952F
:10C8A0001FF046FDE9E76FF01500EDE7AAC40500AB
:10C8B000CEC4050070B504468CB01E461546AAB11C
:10C8C00029B10A4602A8042120F005FB02A9009123
:10C8D0002B462246242103A8FFF7B0FF70B9109A17
:10C8E000314603A8FDF7A2FC0CB070BD0346054A13
:10C8F000242103A81FF01CFD2328F0D96FF0150098
:10C90000F2E700BFEFC4050007B5064B06485A7DA5
:10C91000C2EBC202009200221146FFF7CBFF03B028
:10C920005DF804FBA800002044BF050007B5074BD5
:10C930000748A3F5C07300225B7D1B0100931146DD
:10C94000024BFFF7B7FF03B05DF804FB280200209D
:10C95000A6C4050030B504468DB015469AB129B17C
:10C960000A4602A8042120F0B6FA02A900912B463B
:10C970002246242103A8FFF761FF60B903A821F034
:10C9800025F90DB030BD0346044A242103A81FF049
:10C99000CFFC2328F2D96FF01500F2E7EFC40500B1
:10C9A00007B5009313460A4601460348FFF782FF86
:10C9B00003B05DF804FB00BF4DC605000A46014602
:10C9C0000148FFF7C7BF00BF4DC6050007B500937C
:10C9D00013460A4601460348FFF76CFF03B05DF8B3
:10C9E00004FB00BF47C605000A4601460148FFF7A1
:10C9F000B1BF00BF47C6050007B5009313460A46FE
:10CA000001460348FFF756FF03B05DF804FB00BF83
:10CA100038C605000A4601460148FFF79BBF00BF24
:10CA200038C6050007B500220346009103481146A9
:10CA3000FFF740FF03B05DF804FB00BF3FC60500F1
:10CA400008B502481CF078FF002008BDD40500207E
:10CA500008B502481CF070FF002008BDC405002086
:10CA600070B51B4CBFF35B8F2368BFF35B8F13F074
:10CA7000010F25461FD014F8CF3CA4F1E406E3B122
:10CA8000BFF35B8F2368BFF35B8F5A0701D400F0BD
:10CA9000ADFBBFF35B8F55E8003F23F4006245E830
:10CAA00000210029F7D1BFF35B8F1B0503D5FFF7EA
:10CAB000C7FFFFF7CDFF002009E001F061FA30B9B0
:10CAC000737D002BDCD101F09BFA0028D8D070BD1B
:10CAD0008C01002007B5009313460A46014603481F
