:020000022000DC
:1070000040800020C182020053500300AD82020084
:10701000AD820200AD820200AD82020000000000DD
:10702000000000000000000000000000F9820200E3
:10703000AD82020000000000F9840200AD8202006F
:107040007585020075850200758502007585020050
:107050007585020075850200758502007585020040
:107060007585020075850200758502007585020030
:107070007585020075850200758502007585020020
:107080007585020075850200758502007585020010
:107090007585020075850200758502007585020000
:1070A00075850200758502007585020075850200F0
:1070B00075850200758502007585020075850200E0
:1070C00075850200758502007585020075850200D0
:1070D00075850200758502007585020075850200C0
:1070E00075850200758502007585020075850200B0
:1070F00075850200758502007585020075850200A0
:1071000053B94AB9002908BF00281CBF4FF0FF310E
:107110004FF0FF3000F00CB8ADF1080C6DE904CE73
:1071200000F01AF8DDF804E0DDE9022304B070474E
:10713000704700BF10F8012B11F8013B012A28BF4E
:107140009A42F7D0D01A7047034613F8012B002A51
:10715000FBD1181A013870472DE9F0478C468E464E
:10716000089E154604461946002B40F0D080724513
:1071700047D9B2FA82F74FB1C7F120030EFA07FCE4
:1071800020FA03F3BD4043EA0C0CBC404FEA154E15
:10719000A8B2BCFBFEF8230C0EFB18CC08FB00F9D0
:1071A00043EA0C43994528D9EB1808F1FF3204D281
:1071B000994502D9A8F102022B44A3EB0903A4B21A
:1071C000B3FBFEFC0EFB1C330CFB00F044EA034453
:1071D000A04214D92C190CF1FF3304D2A04202D9D9
:1071E000ACF102032C44241A43EA02401EB1FC40D5
:1071F000002334607360BDE8F0874246DDE76346F4
:10720000F1E7002A79D0B2FA82F3002B3FD0194679
:10721000C1F1200302FA01F52EFA03F20EFA01FE83
:1072200020FA03F343EA0E034FEA154E00FA01F485
:10723000B2FBFEFCAFB20EFB1C201A0C0CFB07F8D5
:1072400042EA004290455AD9AA180CF1FF3004D204
:10725000904502D9ACF102002A44A2EB08029BB28D
:10726000B2FBFEFC0EFB1C220CFB07F743EA0243B9
:107270009F4246D9EB180CF1FF3204D29F4202D94B
:10728000ACF102022B44DB1B42EA004202E0AEEB0F
:10729000020301224FEA154EAFB2B3FBFEFC200CF5
:1072A0000EFB1C330CFB07F840EA034398452AD930
:1072B000EB180CF1FF3004D2984502D9ACF1020072
:1072C0002B44A3EB0803A4B2B3FBFEFC0EFB1C3360
:1072D0000CFB07F744EA0344A74216D92C190CF11A
:1072E000FF3304D2A74202D9ACF102032C44E41BC1
:1072F00043EA00400F46114678E71F2188E76046C1
:10730000ABE76246BFE76046DBE76346EFE77345FE
:1073100006D916B9002108466DE7C6E9000EF9E75F
:10732000B3FA83F787B9734501D3824207D8841A29
:107330006EEB030301209C461EB900215BE7384633
:10734000FAE7C6E9004CF8E7C7F1200CBB4022FA87
:107350000CF51D4320FA0CF12EFA0CF30EFA07FE81
:1073600041EA0E014FEA154900FA07F4B3FBF9F8B8
:107370001FFA85FE09FB18300B0C08FB0EFA43EAD6
:1073800000439A4502FA07F240D9EB1808F1FF30A2
:1073900004D29A4502D9A8F102002B44A3EB0A03B8
:1073A00089B2B3FBF9F809FB183308FB0EFE41EA7A
:1073B00003418E452CD9691808F1FF3304D28E455C
:1073C00002D9A8F10203294443EA0040A0FB029835
:1073D000A1EB0E014145CE46434602D306D14C45B2
:1073E00004D2B9EB020E68EB05030138002EA4D0DD
:1073F000B4EB0E0261EB030101FA0CFC22FA07F375
:107400004CEA0303F940C6E9003196E74046C5E778
:107410004346D9E72DE9F047ADF5567D112202210B
:10742000012002F02DFD061EC0F2A880012103916B
:1074300004230093062203AB02F070FE514B0020A0
:10744000CDE90530082205A9304602F079FD002873
:10745000C0F29480DFF83091DFF830814C4F04ABFC
:1074600008221A60019356AD07AB00934FF40072E7
:1074700000232946304602F01BFEEF28EFDD2B7873
:10748000012BECD1F02271E0352902F1010366D124
:10749000911C814264DAEC5C002C61D015F801A0EB
:1074A0000AF0FD03012BDAD10BAC4FF496720021E8
:1074B000204614F058FE4FF4817323800623A370F6
:1074C0006B6863605DAB0FCB12AD85E80F00BAF15E
:1074D000010F40F23513A4F8F03014BF0523022346
:1074E00084F8F230362384F8F3302A4A2A4BC4F861
:1074F000EC70C4E93D23294A332384F8FF30042388
:10750000116884F8003145F20113A4F80231CDF876
:1075100033114FF478635168A4F804311289CDF81F
:1075200037110A231E4984F806314FF6FF70ADF873
:107530003B2109AB4FF0FF32C4E90498A4F8FC00EA
:1075400084F81101C3E900120822CDE90032214676
:1075500000234FF48972304602F074FD7FE721B1B9
:10756000984208DDEB5C023313441A46824202DA89
:10757000A95CFF2988D14FF0000A91E70DF5567DEF
:10758000BDE8F08701000043C0A80402C0A80401C0
:107590006382536304C0A804010104FFDCC8030034
:1075A000010000442DE9F04781EAE174A4EBE174A5
:1075B0000A236425002107465B48B4FBF3F6B4FBBD
:1075C000F5F903FB164605FB1945B5FBF3FA0DF07B
:1075D000C2F9564800210DF0BEF9554800210DF0C2
:1075E000BAF94FF00008B8454CDB4FF48030002169
:1075F0000DF0DFF94FF00008C84558D14FF40040B6
:1076000000210DF0D6F9092D66DD4FF0000847483E
:1076100001210DF0A0F943F2343000210DF0C9F939
:10762000424800210DF097F908F1010843F2343087
:1076300000210DF0BEF9C245E9DC4FF40040002105
:107640000DF0B7F9002E5CD04FF00008384801214A
:107650000DF081F943F2343000210DF0AAF93448DD
:1076600000210DF078F908F1010843F234300021CF
:107670000DF09FF94645E9D14FF4003000210DF09F
:1076800098F9AEE7284801210DF065F942F26760EC
:1076900000210DF08EF9244800210DF05CF942F232
:1076A000676000210DF085F908F101089BE71E488D
:1076B00001210DF050F943F2343000210DF079F939
:1076C000194800210DF047F943F2343000210DF044
:1076D00070F908F101088FE7632CAEDD1348012132
:1076E0000DF039F940F6CD4000210DF062F90F4858
:1076F00000210DF030F943F2343000210DF059F93A
:107700009BE70B4801210DF026F940F6CD40002102
:107710000DF04FF9314606480DF01DF943F23430B3
:1077200000210DF046F9A7E7D8C60300D0C6030034
:10773000C8C603002DE9F04FADF2DC4DAF4813F0A1
:107740006CFE10B1AE480DF01AF9AC4813F065FEAE
:1077500010B1AC480DF013F9A84813F05EFE10B15B
:10776000A9480DF00CF9A949A9480DF06AFE014697
:1077700010B10120FFF716FFA649A5480DF061FEE4
:1077800001460028F5D1A449A1480DF05AFE014652
:107790000028EED1A1499E480DF053FE0146002875
:1077A000E7D19F4A9A480EF033F9024610B10146DC
:1077B0000320DFE79B49964801230EF003FA0146B8
:1077C00008B10420D6E7984991480EF0F2FB014633
:1077D00008B10520CEE78E480DF066FD014608B1E0
:1077E0000620C7E78A480DF08FFD014608B1072043
:1077F000C0E7854801210DF0AEF804F0E7FC04462F
:1078000010B901210820B5E74FF080520AADD2F837
:10781000A430D2F8A81069700A0A62F03F022A70F8
:107820001A0EAA701A0C5BBAEA70AB8005F062F807
:1078300030237E49009322462B46012003F092FF1D
:10784000011E01DA0A2095E7204605F017F800210D
:1078500020460DF075F8B8B1082120460DF070F8FB
:1078600090B1694800210DF076F8714903AA012012
:1078700005F088F90023032203A9204604F0B4FD93
:1078800040B90121092075E740F6CD4000210DF0F7
:1078900090F8DCE7674904AA012005F073F904AA0F
:1078A00003A920460FF07BFD4FF4804000210DF02E
:1078B00080F8544801210DF04EF8012106220846B7
:1078C00002F0DEFA071EC0F2EF805B4B0022CDE92A
:1078D0000632082206A902F033FB0A21384602F0DC
:1078E0005BFB4FF00808CDF8148005AA08A93846BC
:1078F00002F07CFB041E05DA4FF4A47000210DF0A9
:1079000058F8F0E74048012136AD0DF024F8002684
:1079100000214FF48062284614F025FC4FF4FA79D8
:10792000314640F2FF3BB2464023ABEB0102CDE9CA
:1079300000AA2944204602F0BBFB00281CDD0644B7
:107940003E49284614F068FC00283FD03C492846B0
:1079500014F062FC0646002840D0012129480CF0B2
:10796000FAFF384B1D682846FFF7EEFB2946024612
:1079700020460DF020F80DE00AD0002140F26760AB
:10798000A9F132090DF015F8B9F1000F3146CBDC41
:10799000002EDBD10121204602F0A4FA002540236D
:1079A000CDE90055802216A9204602F081FB00286F
:1079B000F5DC40F2676000210CF0FBFF20460EF082
:1079C00019FD114800210CF0C6FF8CE740F2FE3390
:1079D0009E423146BADC4FF4FA79A5E71A492846A7
:1079E00014F01AFC08B13146B8E71849284614F0DB
:1079F00013FC78B316492D22BAE700BFCCC30300AD
:107A0000D8C60300D0C60300C8C60300F800002093
:107A1000F8070020E0000020C8000020B00000208F
:107A200010010020E7C803003F4903000000905008
:107A3000F1C80300FDC8030001000050CDC90300D8
:107A40000BC90300A800002017C9030024C90300C4
:107A500035C903001749284614F0DEFB28B916493A
:107A6000284614F0D9FB0028C4D0144BDFF850A0EE
:107A70001D682846FFF768FB2946024620460CF0A1
:107A80009AFF002543F6252943F62426A9EB050293
:107A90000AEB050120460CF08EFF00287FF77AAF35
:107AA0000544B542F2DD75E74FF0FF300DF2DC4DD5
:107AB000BDE8F08F63C903006AC90300AC00002071
:107AC0006ACF0300014B1B68184700BF3C01002030
:107AD00030B5044685B00D4610220021684614F0EA
:107AE00042FB02238DF802302A46044B01932146C3
:107AF00068460CF0DFFC05B030BD00BFC57A02005F
:107B000080B505460E46174698460CF097F8034692
:107B100000F042FDDFF81890044649F80030424674
:107B200030463946A84754F8090000F0CFFC00BFA2
:107B3000080000002DE9F047058B0446280717468A
:107B40000CD501290CBF45F0100545F02005258313
:107B500087F31188BFF36F8FBDE8F087022905F026
:107B6000070540F0948020460DF051F9052864D8AF
:107B700001A353F820F000BF517B02008F7C02006C
:107B80003B7C0200FD7B0200177C0200297C020086
:107B900001F007035A1F012A1FD8002221F0070114
:107BA000062BD4F8008089B2C4E9002209D14346EB
:107BB00003E0628B013262831B68002BF9D141F034
:107BC0000201218320460DF022F94FF00009002820
:107BD0006DD041F02001218369E0042B0AD121F00E
:107BE000070189B2218320460DF011F910B141F04F
:107BF000200121834FF00008C14658E02369D3F8E3
:107C00000090238B23F0070343F0060323834FF0F8
:107C1000000846464BE02369D3F80490238B23F0F9
:107C2000070343F00403F1E72369D3F80890238B9B
:107C300023F0070343F00503E8E74FF00008C146CF
:107C4000E7E7012243F00803238387F31188BFF39A
:107C50006F8F002A3BD1B8F1000F4AD1B9F1000F64
:107C600002D02D492046C847EFF31187202383F324
:107C70001288BFF36F8F238B23F008039BB22383FB
:107C8000D9063FD523F01002228303F00705666969
:107C9000218B002EBFF67CAF0023D4F8008021F0AA
:107CA0000701C4E9003341F0010121839946238B88
:107CB00003F0070AAA4502D0A268002AC1D1B8F190
:107CC000000F02D1B9F1000FDAD00022BAE7A168A3
:107CD0000029C0D00D680029BDD04F6833465246F8
:107CE0002046B8471DB12B6829461D46F3E72B46B1
:107CF000FAE74146334652462046D8F800800DF058
:107D0000B2F8A8E79A067FF523AF23F0200222837A
:107D100003F0070527E700BF934E0300014B036004
:107D200000207047E0C6030007B51B491B480DF053
:107D300088FB70BB1A4919480DF083FB48BB1949F1
:107D400016480DF07EFB20BB174914480DF079FB57
:107D5000F8B90146154A11480DF05AFEC8B9024655
:107D600013490E4801230DF02DFF90B90123009314
:107D7000014602230948EF220DF06DFA48B9074881
:107D80000DF092FA28B9054803B05DF804EB0DF048
:107D9000BBBA03B05DF804FBB40100207C070020EF
:107DA0009C010020840100206C0100204001002083
:107DB0005ACA030008B50348034A0021121A0DF0FD
:107DC00040F908BD90080020603F00200748084A9D
:107DD000084908B5121A0DF036F90748074A08494C
:107DE000BDE80840121A0DF02EB900BF00000020B7
:107DF0008C080020380A0400000000200000002049
:107E0000380A040038B505460C4699B1D1E901237A
:107E10000F4809680CF0D3FFD4E90423E1680D484A
:107E20000CF0CDFFE1690C480CF0C9FFA1690B48CB
:107E30000CF0C5FF012D05D1EFF30581084810397D
:107E40000CF0BDFF21462846BDE838400AF008BEC8
:107E500073CA0300A3CA0300D3CA0300E3CA030022
:107E600012CB030030BFFFF7FDBF00BF2DE9F0418B
:107E70000B4EDFF8308006EB0807CC1B0546324678
:107E80000949204614F048F9A01942460021083C4F
:107E900014F069F9EC6707F10800BDE8F08100BF54
:107EA00000000000080000008CC603002DE9F84324
:107EB000324D80463248894617460CF080FFAB6A47
:107EC000DE0622D52F480CF07AFF1124AB6A1D077D
:107ED00003D52D480CF073FF1224284DAB6A980788
:107EE00015D52A480CF06BFF6E6BAB6A190642D5AC
:107EF000274831460CF063FFB9F1000F03D0AB6A9D
:107F000023F08003AB62132403E01024DEE76FF05C
:107F100015061A4DAB6ADA0703D51E480CF04FFF61
:107F20001424AB6A9B0603D51B480CF048FF1524AC
:107F3000124B9A6AD50602D49A6A90070AD55B68F2
:107F4000190507D54146304600F076FA10B180F3A6
:107F500009880224094B9A6A920642BF5A6A22F49F
:107F600000525A629A6A42F0FF029A6200233B7002
:107F70002046BDE8F8836FF01506C4E700ED00E089
:107F800026CB03003DCB030071CB030085CB030060
:107F90009ECB0300B5CB0300D5CB030010B51D4C21
:107FA0001D480CF00CFFA36A990130D51B480CF05A
:107FB00006FF1E20A36ADA0103D519480CF0FFFE64
:107FC0001F20144CA36A1B0303D516480CF0F7FEC0
:107FD0002120A36A590303D513480CF0F0FE222098
:107FE0000C4CA36A9A0303D510480CF0E8FE23203A
:107FF000A36ADB0303D50E480CF0E1FE2420054AFA
:10800000936A6FEA03436FEA1343936210BD1D2026
:10801000D0E700BF00ED00E005CC03001ECC03005C
:1080200032CC03004DCC03006CCC030092CC030097
:10803000ADCC030070B5244C064624480D460CF028
:10804000BEFEA36AD90435D521480CF0B8FE17202E
:10805000A36A1A0503D51F480CF0B1FE18201A4C6C
:10806000A36A9B050FD51C480CF0A9FEA16BA36A5F
:10807000180407D519480CF0A2FE1EB1A36A23F418
:108080000043A3621920104CA36A590503D5144874
:108090000CF095FE1A20A36ADA050DD511480CF0F4
:1080A0008EFE1B20084A936A43F47F4393620023A9
:1080B0002B7070BD1620CBE7A36A9B04F2D50A484B
:1080C0000CF07DFE1C20EDE700ED00E0D9CC0300B4
:1080D000F0CC030071CB030002CD03001CCD0300E4
:1080E00032CD03004ECD0300D5CB03002DE9F04186
:1080F0005D4B5F688AB00446C7F30806002585F328
:108100001188BFF36F8F02F07F43B3F17F4F06D129
:1081100002F00C03082B13D154480CF050FE00253C
:108120002C464FF00008F31E8DF80780092B00F253
:108130008C80DFE803F00A80847C8A8A8A8A8A88B5
:1081400010074CBF0C460125EBE74948464E0CF0A2
:1081500036FE8DF80780F36A9A0704D545480CF07F
:108160002EFE00232AE0F36A002B01DA4248F6E7EC
:10817000F36A5B00F5D541480CF021FE7369A269F2
:1081800043F480737361BFF34F8FBFF36F8F32F887
:10819000023C726922F480727261BFF34F8FBFF3A9
:1081A0006F8F03F47F42B2F55F4F27D1DBB2022B12
:1081B00024D1216832480CF002FE23689DF8072084
:1081C000CAB902AE04F1200720686168324603C2D2
:1081D0000834BC421646F7D1099A002D41D0C2F3AB
:1081E000080121B96FEA52226FEA4222099202A9DC
:1081F0001846FFF707FE0AB0BDE8F0811A4B9A6AED
:10820000D2B232B10DF1070201212046FFF74EFE36
:108210000FE09A6A12F47F4F05D00DF1070101209B
:10822000FFF708FF05E09B6AB3F5803F99D3FFF79E
:10823000B5FE0346C2E70DF107020021E5E70DF1A7
:1082400007010020ECE70F4889E70F4B0F49104862
:1082500017F4F87FA6F1100208BF19460CF0AFFD25
:108260007FE76FF30802C1E700ED00E095CD030062
:10827000C1CD0300D9CD0300FBCD03000ACE03001E
:108280002ACE030047CE030067CD03007CCD030058
:108290006CCE0300044B5A6942F010025A615A69CD
:1082A00022F008025A61704700ED00E0EFF3088009
:1082B000EFF3098101B57246FFF718FF01BD00BF5A
:1082C0000B4880F3088809F085FF202080F311888F
:1082D00008484FF40461401880F30988EFF31480D4
:1082E0000221084380F31488BFF36F8F00F06CF80D
:1082F00040800020806600201EF0040F0CBFEFF3CA
:108300000880EFF30980816911F8021C0229FFD06F
:1083100001B572460CF099FE01BD00BF40B20028C5
:1083200007DB044A4109012300F01F00834042F8A3
:108330002130704700E100E040B200280CDB430927
:10834000064900F01F0020330122824041F823201B
:10835000BFF34F8FBFF36F8F704700BF00E100E0A6
:10836000054B420900F01F0053F82220012303FAB5
:1083700000F01040704700BF00E100E040B200286C
:10838000A8BF00F1604001F10101B8BF064B4FEA00
:108390004111ACBF00F5614000F00F00C9B2B4BF9D
:1083A000195480F80013704714ED00E0044B054A9F
:1083B00023F07F039360BFF34F8FBFF36F8F70473E
:1083C0000070020000ED00E008B5FFF7EFFF0B4A78
:1083D000D2F8883023F47003C2F88830EFF31483A6
:1083E00023F0040383F31488BFF36F8FFFF7E2FCDD
:1083F000FFF7ECFC00F0B2F80AF0FAFB00ED00E049
:1084000042F8203C009B42F81C3C0A49019B42F880
:10841000183C029B42F8143C21F001014FF080739C
:1084200042F8043C42F8081C0023203A0265C0F8D8
:1084300080307047017B0200094A0346906870B1A2
:1084400013F1160FC06E05D0A0F14002934205D380
:10845000834203D2814228BF00207047002070472A
:10846000183F002008B515460B4A0C4B9060C26FB0
:108470001A600E4600F0A2F82C4686F30988002008
:10848000034B98472046002100220023014C20473F
:108490006F500300017B0200183F0020C00F002036
:1084A000014B10221A61704700ED00E0054B5A693C
:1084B0009B689A421FBF044A536843F0805353603D
:1084C000704700BF183F002000ED00E0084B9B689C
:1084D00083420BD1EFF3058343B1064B5A6842F058
:1084E00080525A605A6A22F400425A620BF0ACBBC6
:1084F000183F002000ED00E015498A684FF0300079
:108500001044EFF3098C80E8F01F202080F31288DC
:10851000BFF36F8F0F4F4FF000664A698A603E606D
:10852000D06F0D4C2060D2F880000023C2F880305C
:1085300080F3118804B5104600F040F8BDE804400F
:1085400002F1300090E8F01F8CF3098870470000BA
:10855000183F002004ED00E0C00F00200448002375
:108560002021C2180133302B82F80013F9D1704753
:1085700000E100E008B5EFF30583064A103B02EB8B
:10858000C30152F8330049688847BDE80840FFF747
:108590008DBF00BF58C40300014800687047000049
:1085A000C00F0020024B034A0348012100F076B8B7
:1085B0000000042000000020E0C60300C36E054A4E
:1085C000403B1360044B4021C2E9011310460121D6
:1085D00000F06EB8C40F002000000B15084AC2F866
:1085E00098000B6823F01F03034343F01003C2F805
:1085F0009C308B6843F00103C2F8A030704700BF85
:1086000000ED00E02DE9F043DFF8608085B00E4614
:108610001F4604464FF00009B14523DA6068D8B11F
:108620003FB1411E08421BD11F2819D923681942A6
:1086300016D1236801930CF03DFDA3680343039317
:10864000D8F89050C5F30725D0B2013DA84207D80D
:1086500001A9FFF7C3FF421C09F101090C34DBE754
:108660006FF01502104605B0BDE8F08300ED00E0A4
:10867000044B0522C3F89420BFF34F8FBFF36F8FD5
:10868000704700BF00ED00E0BFF35F8F024B002298
:10869000C3F89420704700BF00ED00E010B5034C14
:1086A00001232278FFF7AEFF207010BD4C3F002061
:1086B00008B50B4A00231278FFF7A4FF10F1160F3C
:1086C00007D0084A0021D2F89030C3F3072398421C
:1086D00000DB08BDC2F89800C2F8A0100130F2E734
:1086E0004C3F002000ED00E02DE9F0435A4B5B4D7C
:1086F000D3F890302C68C3F307239C4285B000F276
:10870000A780FFF7C1FF00200C2684421AD1544EE7
:10871000DFF8449134706846FFF700FB514C524D2E
:1087200080460027B84514D133784B490020D1F852
:108730009020C2F307229342C0F28480FFF798FF93
:10874000002045E0696806FB0011FFF747FF013094
:10875000DBE7009800EB07114FEA071CCB682340CA
:10876000B3F5000F4DD00AD8B3F5001F33D0B3F5E1
:10877000800F3BD0B3F5801F13D00137D2E7B3F1A0
:10878000007F47D0B3F1805F4DD0B3F1807FF4D14B
:1087900050F80C3088684A680CF08CFC40F0887007
:1087A00009E050F80C3088684A680CF083FC40F00F
:1087B000885040F43020CDE901230390D9F890305F
:1087C0003078C3F30723013B984234D96FF015008A
:1087D00005B0BDE8F08350F80C3088684A680CF0AA
:1087E00069FC40F0885040F40020E4E750F80C3079
:1087F00088684A680CF05EFC40F0C06040F40030CD
:10880000D9E750F80C3088684A680CF053FC40F007
:108810008270D0E750F80C3088684A680CF04AFC47
:1088200040F48020C7E750F80C3088684A680CF0A4
:1088300041FC2843BFE701A9FFF7D0FE337801339D
:1088400033709AE7C1F89830C1F8A00001336EE7A1
:108850004FF0FF30BCE700BF00ED00E0ECC60300C6
:108860004C3F00200000F0FF0000021108B506494F
:10887000064821F00701C1F1005202F580220CF0F8
:108880005BFA002008BD00BF97360120D00F002002
:1088900070B54169867A0B4D044659B1437ADB07BE
:1088A00006D42C2303FB06535B6A1B689B6898471E
:1088B000002363612C20214600FB0650BDE8704078
:1088C00012F082BF4C060020024B2C2202FB00302B
:1088D000704700BF4C060020827A064B2C2101FB1A
:1088E00002339A6A1B7F1B33801A23F00303B0FB09
:1088F000F3F070474C06002038B5074B827A2C24E1
:1089000004FB02335B6AD3E901240C601568FFF7AE
:10891000E3FF04FB005038BD4C0600202DE9F04376
:1089200085B005466846039190461C4613F020FA30
:10893000DDE90067EFF31189202383F31288BFF389
:108940006F8F6B8B002B41D02A8B9A4225D9002246
:10895000002328460AF0A6FB0446F0B189F31188EB
:10896000BFF36F8F039B002B41D032463B466846D6
:1089700013F023FAA27A264B2C2101FB0233204666
:108980005B6A1B6803A91D68DDE90023A8476061D5
:1089900070BB2046FFF77CFF24E0698B4B1E6B8386
:1089A00089F31188BFF36F8F2B7F2A8BAC6A1B333F
:1089B00023F00303521A02FB0344154B154AEB1A2A
:1089C0009B105343A3722B7FE372CBE789F311888B
:1089D000BFF36F8F2346424628460AF063FB0446E6
:1089E0000028BFD10024204605B0BDE8F0836361B4
:1089F000012300252381039B6382E27A6560294677
:108A000004F1180013F0AFFB63692582E360EAE725
:108A10004C060020A38B2EBA70B50D4C2C2500B946
:108A200070BD037A4668002BFAD0013BDBB20372BB
:108A3000002BF5D1C3604360837A05FB03431B6AB7
:108A400013B198473046EAE7FFF722FFFAE700BF85
:108A50004C060020202800B508D9FFF79DFD094BE2
:108A600009221A504FF0FF305DF804FB30235843C1
:108A7000054BBFF35B8F1B58BFF35B8F002BECD014
:108A80000020F1E70C000000E40F002030B5302397
:108A90001049434308330B44BFF35B8F1A68BFF39D
:108AA0005B8FB2B1BFF35B8F541E53E8005F9542FA
:108AB00004D143E8004CBCF1000FF6D1BFF35B8F4B
:108AC000EAD1012A05D1302358430A1800230B505C
:108AD000536030BDDC0F002038B504461546FFF763
:108AE000B9FF01300DD0084A30236343D0184068E5
:108AF000086015B10C3313442B6030235C431059CC
:108B000038BD0020FCE700BFDC0F002070B54FF03F
:108B1000FF331D484FF0FF320CF086FB1B4B002546
:108B2000BFF35B8F1A68BFF35B8F82B10135212DD4
:108B300003F13003F4D1FFF72FFD154B17221A5024
:108B40004FF0FF3510480CF071FB284670BD302403
:108B50006C43BFF35B8F53E8000F013043E8000123
:108B60000029F8D1BFF35B8F0A4E331932515A6096
:108B70009A6204F10C00304412F04CFD04F1200024
:108B8000304412F03CFFDDE748050020E40F0020F0
:108B90000C000000DC0F00202DE9F04116463024C7
:108BA0000F4A4443101911514660C362B6B1F368CD
:108BB000A3B1FFF7F1FC0B4F0C3450F807801319E9
:108BC000054640F2051230460CF01FFBB8F15F0F6E
:108BD00004D0EB595F2B08BF45F80780BDE8F08152
:108BE000DC0F00200C0000002DE9F0410546FFF7E6
:108BF00031FF431C044621D03026DFF84C806E4301
:108C000006F10C0747444FF0FF324FF0FF33384670
:108C10000CF00AFB08EB06035A68946844B1DB6A5F
:108C200058F8060013F4404F0BD02946A0470446DD
:108C300038460CF0FBFA2846FFF728FF2046BDE82F
:108C4000F081A047F3E700BFDC0F00200C4B0122AE
:108C5000C3F840254FF080434FF08051C3F878258A
:108C6000D1F83001082805D1D1F83411022908BF04
:108C7000C3F838260122C3F880250020704700BFC2
:108C800000E0014048B1054B054A1B68B3FBF2F315
:108C90005843044B43F0010318477047E00300209A
:108CA00040420F00C0C6030008B5054A054B1360DB
:108CB00010463F23536009F063FB002008BD00BF4E
:108CC0000C160020FFFF0F00F7B506460D461446B0
:108CD000124F384612F0A1FBE0B1BB68AAB21B6884
:108CE000314638469847002802DB002003B0F0BD2B
:108CF000002CFBD1AC42F8D22F1B042F28BF042735
:108D000011F0E7FF3A46019001A9301913F004FA77
:108D10003C44EFE76FF01200E8E700BFE8C3030050
:108D20002DE9F04190F8283003F01F03012B044691
:108D30000F4600F128062FD0022B18D08BB394F8E1
:108D4000291020460CF023FB024678B330460CF085
:108D500008FC1D4D002834D113693BB33A46314617
:108D6000204698470346FFF717FC2B5024E0818DDF
:108D7000C9B20CF0EDFE05460028E0D030460CF0FC
:108D8000F0FB024668688368CAB99B6873B13A46CB
:108D90003146BDE8F0411847818DC9B20CF0BFFEE5
:108DA000E9E790F829100CF0F6FEE4E7FFF7F4FB92
:108DB000054B6FF085021A500020BDE8F081DB689A
:108DC000E4E7D368C9E700BF0C0000002DE9F04FCD
:108DD0000B7E33F0800893B004460D46164640F0F3
:108DE0008E847AB10846FFF717FE6B7EDF0703D447
:108DF0009E0711D52B7E7BB9204613B0BDE8F04FFE
:108E00000CF0DBBB4A7E00F12809900708D5802BC7
:108E10000CD12846FFF700FE404613B0BDE8F08FA6
:108E2000910700F02784002B40F02484D2072FD52F
:108E30002B8A082B40F00684EA681368A362536803
:108E4000C9F80430294600200CF074F9054610B129
:108E5000FFF7E2FDEFE048460CF083FBE28D70B9CE
:108E6000B2B12946A06911F01BFC0146002800F0B0
:108E70002D84204613B0BDE8F04F0DF00FB83AB185
:108E8000114620460DF005F80546002800F01E8426
:108E9000FFF782FB94F82880B14F002318F0600F91
:108EA000C351C8F3411307D0032B40F0BD81FFF736
:108EB00073FB6FF0850337E048460CF052FB94F8E3
:108EC0002930002840F04E81013B0A2BEFD801A247
:108ED00052F823F04B900200AF8E0200D7900200B0
:108EE000AF8E0200018F0200AF8E0200AF8E020033
:108EF000AF8E0200718F0200AF8E0200D38F02008E
:108F0000618D7F29D3D8A38D002BD0D1E38D002B89
:108F1000CDD118F01F0FCAD194F83030022B05D1F3
:108F2000FFF73AFB4FF0FF333B5076E0A06903694F
:108F300093F880301B0707D5C9B20CF074FB80464C
:108F400028B1002D6CD167E7012384F8393094F8FB
:108F50003030012B0AD1638D43B984F83030FFF7EC
:108F60001BFB3B58002B00F0858056E00123F4E703
:108F700020460CF06BF9628DFF2A014697D8E38DED
:108F8000002B94D194F82830D80690D194F8303042
:108F9000002BC5D02AB1D2B220460CF0E6FC002846
:108FA000BED0618D94F838308B42D8D0C9B22046FB
:108FB0000CF0E2FC80460028C3D1628D002A14BF69
:108FC0000223012384F83030052120460DF007F8F4
:108FD000C5E708F01F08B8F1010F7FF468AFE38D13
:108FE000002B7FF464AF628DFF2A3FF660AFA18D46
:108FF000FF293FF65CAF94F83030022B90D1D2B20B
:10900000C9B220460CF0C8FE10F1020F804640F0B5
:109010001081FFF7C1FA47F8008065B14FF00008F2
:109020002846FFF7F9FCB8F1000F7FF4F5AEFFF723
:10903000B3FA3B58F3B148460CF093FA0346A069E3
:10904000002B00F04F83802155E3E38D002B7FF44C
:109050002EAF94F83030002B3FF462AF012BA18D7E
:1090600002D100297FF45CAF18F01F080CD0B8F1D2
:10907000020F16D0E38D002B40F0D78220460CF073
:1090800086FA0028D7D1B7E600297FF449AF638D6F
:10909000012BEFD194F86C3061F3C30384F86C308A
:1090A000E8E7B4F82AA0BAF1000FE3D15FFA81F83B
:1090B000414620460CF063FF0346FFF76DFA3B5034
:1090C000013302D14FF0FF383BE75246414620467C
:1090D0000CF04DFA43E7E38D002B7FF4E8AE628D90
:1090E000A38D022A5FFA83FA11D108F01F085AEA09
:1090F00008087FF4DCAEA0690122190A0CF070FAAE
:1091000000287FF4D4AE012384F8393027E794F89F
:10911000301000293FF404AF012902D1002B7FF465
:10912000FFAE18F01F0811D0B8F1020FA2D1002A2B
:10913000A0D1514620460CF00DFF0346FFF72CFA54
:109140003B500133BED001225146C0E7002B7FF4D3
:10915000E7AE012A8ED194F86C3043F008039DE706
:109160000C0000000A2B3FF6A2AE01A252F823F039
:109170009D910200AF8E0200AF8E0200AF8E020002
:10918000AF8E0200AF8E020017920200AF8E020077
:10919000A7950200AF8E0200D1950200E38D022B4D
:1091A0007FF485AE94F83030002B3FF4B9AE012B3C
:1091B000A18D02D100297FF4B3AE18F01F0811D0A1
:1091C000B8F1020F1CD04FF0000805F10C0A504610
:1091D0000CF0BFF9E38D984218D2FFF7DDF96FF07C
:1091E0000B03A1E600297FF49BAE94F86C304FEAA4
:1091F000930808F00208C3F3001348EA0308E4E701
:10920000C9B220460CF0CAFE8046DEE74146504611
:109210000BF0E2FFA3E6B4F82AA018F01F0F4FEA04
:109220001A235FFA8AFA09D029462046FFF778FD0B
:109230008046B8F1000F7FF484AE90E6013B0E2B20
:109240003FF635AE01A252F823F000BF899202002A
:10925000C992020073930200AF8E0200AF8E02002B
:109260006B9302006B930200AF8E0200AF8E020080
:10927000AF8E0200AF8E0200AF8E0200AF8E0200F2
:10928000AF8E0200B594020005F10C0840460CF0C8
:1092900060F983462046B4F82EA00BF0D7FF20B12A
:1092A00001287FF404AE616F00E0216F002900F017
:1092B0002A820A78DA4528BFDA46524528BF524644
:1092C00040460BF078FF4AE620460BF0BFFF0AF15C
:1092D000010201900146D2B220460CF020FB8046EC
:1092E00000283FF4E4AD05F10C0AD0F804B0504674
:1092F0000CF02FF99BF80020824228BF0246594605
:1093000050460BF058FFD8F80CB0BBF1000F09D154
:10931000298AE38D99427FF622AEC91A50460BF096
:1093200065FF1CE6DBF8040083681B6B13B9DBF8F0
:1093300000B0EAE7019998470028F8D0A0F10408A6
:1093400058F8041F0029F2D00A78002AEFD05046BE
:10935000CDE902210CF0FDF8029A0399904238BF42
:1093600082B250460BF027FFEAE720460BF06EFF73
:109370009DE55246032120460CF049F8824600281C
:109380003FF495AD0CF0E0F8B4F82EB09AF8153033
:10939000C8B99AF814808DF828808DF82930DAF849
:1093A000103005F10C0A1B88ADF82A3050460CF03D
:1093B000D0F8C3455A4628BF4246824228BF0246DB
:1093C0000AA950467DE7DAF808208DF81530C14B20
:1093D0001340C14A4FF0000893428DF8148058D1D1
:1093E000102106A811F080FB021EFFF660AD0AA94D
:1093F000102ADFF8E8E20DF1180C084628BF102209
:10940000424501F1020133D8920002325FFA82F83C
:109410008DF81480034605F10C0A504602930CF0B7
:1094200098F8D845424628BF5A46904228BF104671
:1094300002288346804628BF4FF0020B5A46A8EB0D
:109440000B0805A950460BF0B6FE4FEA58030193EE
:10945000029B9B4603EB5802934521D118F0010F64
:109460003FF47DAD019A995C50460BF0ADFE76E578
:109470001CF8013B4FEA131A03F00F031EF80AA071
:109480001EF8033001F802AC01F8013C08F10108B4
:10949000B6E79AF81480DAF810308DF81480BAE73D
:1094A0001BF8011B5046CDE902320BF095FEDDE9B9
:1094B0000232D1E720460BF0C9FE38B101282CD08A
:1094C000FFF76AF86FF085033B5048E5236F002BE8
:1094D00000F019815B88B3F5007FF1D9804B0A93C6
:1094E00000238DF82C30E36C04F14C0B9B4508BF36
:1094F0000023BDF82A10A3B15A7D0F2A08D11A7D86
:109500000A44ADF82A209DF82C2001328DF82C2039
:10951000226D934203D01B68EBE7636FD7E7BDF87A
:109520002A10019105F10C0A50460CF012F8B4F81B
:109530002E800199884528BF8846804528BF8046EF
:109540004246052A28BF05220AA9504601920BF07F
:1095500032FE019AB8EB02083FF401ADE36C5B45C3
:109560003FF4FDAC002B3FF4FAAC5A7D0F2A14D126
:109570001A7D19690193424528BF424650460BF0B7
:109580001AFE019B1A7D424594BFA8EB0208A8EB86
:109590000808B8F1000F3FF4E2AC226D93423FF4AB
:1095A000DEAC1B68DEE794F83030002B3FF4B8AC3B
:1095B000E38D012B7FF47BAC05F10C0840460BF0EA
:1095C000C8FF00283FF409AE94F8381040464CE735
:1095D00008F01F08B8F1010F7FF4A2AC20460CF090
:1095E000B2F900283FF49CACB4F82CA0BAF1FF0FFC
:1095F0003FF65DAC43681B795345FFF458AC5FFA06
:109600008AF30F2B3FF653ACE38D012B7FF44FAC65
:1096100005F10C0840460BF09CFF00283FF4DDAD3F
:1096200004EB0A0393F83A10D0E748460BF099FF91
:1096300018B92846FFF7F0F920E5294620460CF036
:109640002DFC08B1284603E4A069036993F8801053
:1096500011F004017FF4D0AB11F036F80546002874
:109660003FF4E9AC014620460CF018FC00283FF41A
:10967000C3ABE7E752077FF5DEAC002B3FF4C9AB85
:109680002846FFF7C9F994F83930002B3FF4C4ABF2
:1096900094F82930052B05D1618DA069C9B20BF072
:1096A000C2FF064694F82930032B09D1638D022BA3
:1096B00006D1A18DA0690022090A0BF091FF064690
:1096C000002384F83930B046FFF7A6BB6FF00B06D5
:1096D000B1E400BF00FF020000030200EF09040034
:1096E000050F0500E38D002B3FF4ADAC16F10C0126
:1096F00018BF0121C90110F0EAFEFFF77DBB6FF032
:109700000408FFF789BB6FF015081AE40B78062BE5
:1097100010B414D10369D3F89C20EFF311842023F3
:1097200083F31288BFF36F8F4B6800201860506A74
:1097300058B9C2E9083384F31188BFF36F8F044826
:1097400010BC0022002311F056BF03605362F2E701
:10975000F00500202DE9FF4120264FF0FF335E4841
:109760004FF0FF3201A909F077FB039B1B69D3F887
:109770009C40236A93B1EFF3118286F31288BFF302
:109780006F8F216A29B1606A0B682362814208BF2A
:10979000636282F31188BFF36F8FC9B99DF80430FB
:1097A000062BDAD0072BD8D801A252F823F000BF3D
:1097B00003980200F797020023980200099802001C
:1097C000479802003D9802005B970200D198020082
:1097D0000B7ED1F81E205D06204609D1FFF7F6FA70
:1097E00002460028C5D0072120460CF0F8FBC0E750
:1097F0000CF0A5F9F4E70022012120460CF0EFFB64
:10980000ABE700221146F8E794F86C3043F004030C
:1098100001A984F86C3020460BF02DFF00220321B3
:10982000EBE794F86C3023F0040301A984F86C3062
:1098300020460BF020FF00220221DEE701A920468E
:109840000BF019FF89E794F86C30A76923F0040343
:1098500084F86C30D7F808803B69BFF35B8FD3F88E
:10986000A030BFF35B8F9A072FD5D8F83C3038462D
:109870009847D8F82430002138469847D8F8403027
:10988000054638469847ADB9294620460CF074F88D
:10989000054678B9A06910F036FF831E584258413A
:1098A00094F86C3084F8305023F0680343EA401396
:1098B00084F86C300022042120460CF090FB002D2F
:1098C0003FF44BAF2A46072197E74FF0FF35F1E70A
:1098D000029A062191E700BFF005002030B589B05B
:1098E00000220023CDE9062300246FF00703CDE911
:1098F0000334CDE901441A4B1A4900944FF48062B5
:10990000194809F021FF1949174812F082F8184B3D
:1099100018498B4207D3184B184900208B4210D3AB
:10992000002009B030BD03F11402BFF35B8F52E891
:10993000000F42E80045002DF9D1BFF35B8F1833CB
:10994000E7E703F11402BFF35B8F52E8004F42E8F0
:109950000005002DF9D1BFF35B8F1833DEE700BFA0
:1099600055970200C04700201809002055CA03007F
:10997000740800208C0800208C0800208C0800202F
:1099800038B5024609490546806910F022FF0446B1
:1099900048B985F8380028460BF0C4FE044610B1DB
:1099A000A86910F049FF204638BD00BF0D9702009E
:1099B00070B5084C084E0546B44202D30024204638
:1099C00070BD636828461968FDF7B4FB0028F6D01F
:1099D0001834F1E7740800208C08002070B50646A2
:1099E000EFF31181202383F31288BFF36F8F1B4D98
:1099F0002A6881F31188BFF36F8F526892F86C2048
:109A0000D20705D4BDE870402122002309F0BABD79
:109A1000EFF3118283F31288BFF36F8F2C682CB1A0
:109A2000696823682B608C4208BF6B6082F31188E1
:109A3000BFF36F8F44B1606804F10801C3699847B0
:109A40000748214611F087FD2B6833B130460022CC
:109A5000BDE87040002309F061BD70BD1416002000
:109A60000405002030B585B0CDE90012054600227E
:109A70001448002303A909F055F90246E8B9039BED
:109A8000DDE900015D60083383E80300EFF3118036
:109A9000202383F31288BFF36F8F039B1A600A4A57
:109AA000516861B9C2E9003380F31188BFF36F8F49
:109AB00006480022002309F031FD05B030BD0B60DF
:109AC0005360F1E704050020141600200000002078
:109AD0000B7803F01F03012B00B506D14B78432B05
:109AE00009D003F0FD03842B05D0FEF755FD034B91
:109AF0006FF085021A5000205DF804FB0C00000096
:109B000010B500220446002302480BF0E9FA00B128
:109B1000047610BD4C06002010B504690B4904F111
:109B2000480011F03EFFD4F81A10228B52EA31425D
:109B30004FF0000308D16376A37602232376032136
:109B400004F11B000BF076FB002010BD519B0200BE
:109B50002DE9FF4150F8483C0446002128381E6991
:109B60000CF077FA002844D0356995F8247077BB5B
:109B70002B6858680BF06AFB224B234A39460028B1
:109B800014BF904698461022684612F0ECFA42F64E
:109B9000A123ADF80030AB6830699B7AADF8043092
:109BA000102208236946CDE90288ADF806300CF092
:109BB00047FB002802DB032385F8243040F6CD4222
:109BC0000023204604B0BDE8F04109F0DBBC042FBF
:109BD00007D1012130460CF065FB0028EEDB0123A4
:109BE000EAE7022F02D1052385F8243004B0BDE84E
:109BF000F08104F8240C30460CF054FB0028F5D01A
:109C0000DCE700BF001BB70000389C1C70B50B7868
:109C100003F06003202B88B0154605D0FEF7BCFC8E
:109C2000134B86221A501FE04B78802B08D0852BCF
:109C3000F4D1104AD069116A01AB03C308220EE0C7
:109C40000C4B01AC03F1180618685968224603C290
:109C50000833B3421446F7D1186810601C2201A9DA
:109C600005F10C000BF0A7FA002008B070BD00BF92
:109C70000C00000090C603002DE9F04F03691C6939
:109C80000B7E9046A268814692F85700984285B0B4
:109C90000F4640F0BC80B8F1000F40F09280098A76
:109CA0000B2940F28E80FE68B3880C2B40F089802F
:109CB0003268714B9A4240F08480F3881B2903F18B
:109CC000010323857DD9338999427AD1B1F5006F9B
:109CD00077D873890B2B74D9A1F11002934270D8F5
:109CE000F518AA880F2A6CD9F058DFF890C120F037
:109CF0008070604565D1E888002862D19208901E86
:109D00000833032833445CD802F18042033A03EB62
:109D1000820033F82220002A53D14288002A50D1F1
:109D20001A8812B15888002844D140F6CD4000214D
:109D300003F050FD0546002843D039460EF083FC61
:109D400095F8373043F0010385F8373073891E44A6
:109D5000083636F8043C083BC3F38F030393039B98
:109D6000984521DA33880293B6F802A0E3B1BAF13C
:109D7000000F19D04FF0FF324FF0FF336069CDE98B
:109D8000002300231A46514603F022FE834658B1B1
:109D900028460EF052FC029928460EF09DFC002841
:109DA00021DA58460EF0B6FB0023AB6028460EF0D1
:109DB000B1FB06E0914204D302448A4203F104035A
:109DC000AEDD3846FEF728FE032104F120000CF03A
:109DD00070F901210CF03DF908B3484605B0BDE823
:109DE000F04F0CF0A4BA5246294658460EF093FCA8
:109DF0000028D6DB606959460CF0E9FF002802DA3A
:109E000058460EF087FB08F101080436A7E792F8E0
:109E10005000984207D104F12C0009F075F9002098
:109E200005B0BDE8F08F92F830209A421CD1B8F10D
:109E3000000F06D0002384F824303846FEF7ECFDEE
:109E4000EDE794F82430032B08D1042384F8243060
:109E50002122002304F1480009F094FB94F82430F7
:109E6000012BEAD10223E6E7D9F8040005B0BDE8EA
:109E7000F04F0CF06CB800BF4E434D484E434D3090
:109E80002DE9F041144CDFF8548005460E46174684
:109E9000444508D3FEF780FB114B6A221A504FF05D
:109EA000FF30BDE8F0812368AB4200D08BB9A368D6
:109EB0003A4631462846984758B1FEF76DFB084BA5
:109EC0000022C2503146E3683A462846BDE8F041D8
:109ED00018471034DCE700BF7CC603008CC60300C3
:109EE0000C00000037B50D4601AA6946FEF7F4FDE7
:109EF000044648B9FEF750FB104B09221A504FF0A8
:109F0000FF34204603B030BD009B1B6923B9FEF728
:109F100043FB0A4B8622F1E701984FF0FF324FF0E6
:109F2000FF330CF063FA009B29461B6920469847D3
:109F3000044601980CF05CFAE3E700BF0C00000057
:109F400073B50D461646694601AAFEF7C5FD0446DF
:109F5000B0B1009B5B69DBB101984FF0FF324FF06D
:109F6000FF330CF043FA009B20465B6932462946DA
:109F70009847044601980CF03BFA204602B070BDA9
:109F80000923FEF709FB034A4FF0FF341350F4E7AF
:109F90005F23F6E70C00000037B50D4601AA6946BD
:109FA000FEF79AFD0446A8B1009BDB69D3B1019886
:109FB0004FF0FF324FF0FF330CF018FA009B2046B1
:109FC000DB6929469847044601980CF011FA2046AF
:109FD00003B030BD0923FEF7DFFA034A4FF0FF3428
:109FE0001350F4E75F23F6E70C00000073B50D464D
:109FF0001646694601AAFEF76FFD0446B0B1009B04
:10A000001B6ADBB101984FF0FF324FF0FF330CF0C9
:10A01000EDF9009B20461B6A3246294698470446C4
:10A0200001980CF0E5F9204602B070BD0923FEF757
:10A03000B3FA034A4FF0FF341350F4E75F23F6E717
:10A040000C0000002DE9FF410D46164602A903AAA7
:10A050001F46FEF741FD0446E8B1029B5B6A13B35D
:10A0600003984FF0FF324FF0FF330CF0BFF90B9B1A
:10A0700001930A9B0093029B2046D3F8248032462A
:10A080003B462946C047044603980CF0B1F92046E8
:10A0900004B0BDE8F0810923FEF77EFA034A4FF0D1
:10A0A000FF341350F3E75F23F6E700BF0C00000016
:10A0B0002DE9FF410D46164602A903AA1F46FEF7E9
:10A0C0000BFD0446E8B1029B9B6A13B303984FF063
:10A0D000FF324FF0FF330CF089F90B9B01930A9B81
:10A0E0000093029B2046D3F8288032463B462946FF
:10A0F000C047044603980CF07BF9204604B0BDE845
:10A10000F0810923FEF748FA034A4FF0FF34135059
:10A11000F3E75F23F6E700BF0C0000002DE9FF41E5
:10A120000D46164602A903AA1F46FEF7D5FC0446B3
:10A13000D8B1029B1B6B03B303984FF0FF324FF073
:10A14000FF330CF053F90A9B0093029B2046D3F88F
:10A15000308032463B462946C047044603980CF0FF
:10A1600047F9204604B0BDE8F0810923FEF714FA50
:10A17000034A4FF0FF341350F3E75F23F6E700BFC5
:10A180000C00000010B5044609B10C2A05D01623B6
:10A19000FEF702FA0D4A135010BD0B68002BF6D0E3
:10A1A000886860B10CF02EF938B994F98E00002857
:10A1B00009DC02F00BF80028E9D05823E8E7081D75
:10A1C0000DF0DFF9EEE70CF01DF9F4E70C000000EC
:10A1D000F7B507460E461446FEF798FC051E18DB39
:10A1E0003CB97B1E012B04D8022E17D0012E08BFCC
:10A1F0000624F1B201ABA2B2B8B202F0ADFF061E66
:10A200000EDA28460BF014F8FEF7C6F9104B76422A
:10A210001E504FF0FF35284603B0F0BD1124E8E78B
:10A22000019800234360C365603011F084FA0198FF
:10A23000783011F0E4FB062C02D101980DF052FBAE
:10A24000044A01994FF440432846FEF7A5FCE2E793
:10A250000C0000004CC703002DE9F04389B0DDE994
:10A2600010980C4658EA0901129F06464D4613D035
:10A2700014F1690F02D014F10B0F0DD1684611F0E3
:10A280009CFDDDE9002313430ED114F1690F14BFC7
:10A290006FF068046FF00B04FEF77EF9354B6442F3
:10A2A0001C504FF0FF304AE0B8F1FF3F08BFB9F152
:10A2B000FF3F0DD04FF47A71A5FB013201FB08225C
:10A2C000DB0B43EA42433A689A4294BF3A603B60F0
:10A2D000D6F8800008B108F095FE693432D0B6F89F
:10A2E0008C3003F0C003402B2CD196F98E000CF07B
:10A2F00089F830460FF02DFE00220346022103A804
:10A3000011F069FE3C684FF4004540F2E73000214F
:10A310004FF47A720023E4FB0501FCF7F1FE0246DC
:10A320000B46012103A809F039FF3B685B00642B51
:10A3300028BF64233B60D6F8800098B9002009B09C
:10A34000BDE8F0833C684FF4004540F2E73000215F
:10A350004FF47A720023E4FB0501FCF7D1FE11F003
:10A3600009FCE2E74FF0FF324FF0FF3308F0D8FD71
:10A37000E4E700BF0C000000F8B540F20313994277
:10A38000044600F09080B1F5827F0ED2042924D0DB
:10A39000B1F5817F2DD0032919D0FEF7FDF86F4B61
:10A3A0005F221A504FF0FF3016E045F21B439942EE
:10A3B00000F0C68045F22143994200F0BF8040F290
:10A3C00005139942E9D11368C0F880300FE090F886
:10A3D0005C00C0F340008003F8BD1268C36D5504F3
:10A3E00002D543F0020301E023F00203E3650020FD
:10A3F000F2E7D2E900158B889768D8071BD52B6840
:10A400009F4202D16FF00B00E6E704F160021A618F
:10A410002B685A7B042060F305025A732A68937BE9
:10A4200023F0200393732A68D36823F4FE13D360C8
:10A430002B6814332B608B885A072CD5B4F88C30DA
:10A4400003F0C003402B02D06FF07700C4E794F90B
:10A450008E000BF0D7FF2E68B742D3D0B4F88C3003
:10A46000C3F34103012B20461AD10FF075FD306173
:10A470002B685A7B022161F305025A732A68937B89
:10A4800023F0200393732A68D36823F4FE13D36068
:10A490002B6814332B60E36D13F0050FA7D0D3E7BF
:10A4A0000FF057FDE3E7D2E90056AB88DB070ED586
:10A4B0003368DB6813F4EE1F02D1C36DDF0703D5E9
:10A4C000EB8843F00103EB80336814333360AB88CF
:10A4D00058071ED5B4F88C3003F0C003402B28D1A8
:10A4E00094F98E000BF08EFF3368DB6813F4FE1FC7
:10A4F0000CD0E36DD90709D4B4F88C30C3F3410311
:10A50000022B02BFEB8843F00403EB803368143363
:10A510003360E36D5A0742BFEB8843F00803EB80DA
:10A52000E36DDB077FF563AFEB8843F01003EB804F
:10A530005DE7EB8843F00403EB80EAE7C36D50E787
:10A540000023146819461A460BF0A0FF6FF0004371
:10A55000984294BF2060236049E700BF0C000000D0
:10A5600037B5002B069C05461CD1009314490022E8
:10A57000002302F0F1FE05F1600011F0DCF805F1B6
:10A58000780011F03CFA04F16000294611F011F94D
:10A5900028460DF0A7F904F1780003B0BDE830407B
:10A5A0000BF04FBF0ADA5B426360E36D43F00403D4
:10A5B000E36504F1600011F0CAF8ECE703B030BDC8
:10A5C0008765030013B5B0F88C30C3F34103032B48
:10A5D0004FF00001044600914FF000024FF00003DD
:10A5E00019D10DF0C0FC04236360E36D43F0040354
:10A5F000E36520460BF027FF204602F085FE031E90
:10A6000006DAFDF7C9FF054A5B4213504FF0FF33EE
:10A61000184602B010BD02F09FFEE4E70C000000F7
:10A6200037B505460C4619BBB0F88C300091C3F322
:10A630004103032B4FF000024FF000030DD10DF04A
:10A6400092FC031E0CDAFDF7A7FF0E4A5B42135083
:10A650004FF0FF34204603B030BD02F07DFEF0E73E
:10A66000EB6D43F00103EB6528460BF0ECFEF1E7E0
:10A67000FDF792FF4C1E012C024B94BF862216223E
:10A680001A50E5E70C00000013B504460DF06BF915
:10A69000031E07DAFDF780FF0D4A5B4213504FF0AF
:10A6A000FF3007E0B4F88C30C3F38113023B012B79
:10A6B00002D9002002B010BD636800930549002351
:10A6C0000022204602F048FE031EF2DAE2E700BF55
:10A6D0000C000000876503002DE9F043B0F88C30D2
:10A6E0009146C3F38112032A85B00446884607D1F8
:10A6F000FDF752FF2E4B5F221A504FF0FF3038E02B
:10A70000C3F34103022B33D0012BC56D09D1FDF7F3
:10A7100043FF15F0040F264B01D06268ECE7782266
:10A72000EAE715F0020518BF224D436819BF00265D
:10A7300000274FF4C0360027012A1DD100931E497F
:10A740000022002302F008FE002805DA4342FDF74C
:10A7500023FF174A1350D0E763680293CDE90067DF
:10A760002B464A46414620460DF053FB0028EDDBC0
:10A77000002005B0BDE8F0830293CDE900672B46C9
:10A780004A460DF046FB031E03DAFDF705FF5B4268
:10A79000DFE7E36DDB07EBD4636800930649002332
:10A7A0000022204602F0D8FD031EE1DAEDE700BFEB
:10A7B0000C000000196603008765030013B5B0F8AC
:10A7C0008C3003F0C003C02B044608D1FDF7E4FE33
:10A7D0000D4B5F221A504FF0FF3002B010BD0DF04C
:10A7E0006BF9031E05DAFDF7D7FE074A5B421350EB
:10A7F000F1E7002305490094002220460DF0B3FB49
:10A80000031EF0DB0020E8E70C00000061A5020059
:10A810002DE9F04F8FB016460A224FF0FF384FF067
:10A82000FF390B925A06CDE90C89189F04460D4654
:10A8300003D4C36D13F0020328D000220023CDE916
:10A840000C2308A811F094FADDE90C2308A8DDE92F
:10A85000088911F08DFADDE90823CDE90623E36DBF
:10A86000DB071BD46368009329490023002220469C
:10A8700002F072FD031E11DAFDF78EFE254A5B42DF
:10A8800013504FF0FF300FB0BDE8F08F0CAA052138
:10A8900002F0A8FE4FF4A0220023D2E74FF0000AF6
:10A8A0000DF12C0BDDE90C23616837B3CDE90223F0
:10A8B000199B04910093CDF804A03B4632462946EB
:10A8C00020460DF0DFFB0028DDDADDE90C23014630
:10A8D000CDE90023CDF808B042464B462046FFF7AD
:10A8E000BBFC0130CDD0DDE9062308A811F065FAE4
:10A8F000DDE90823CDE90C23D4E7CDE9002302915B
:10A900003B463246294620460DF05EFBDBE700BFA2
:10A91000876503000C000000F7B5B0F88C3003F039
:10A92000C003C02B04460E46174609D1FDF734FE7E
:10A930003F4B5F221A504FF0FF35284603B0F0BD61
:10A94000C36D5A0704D5FDF727FE6268384BF1E75F
:10A950009D0710D44FF0FF334FF0FF326946CDE929
:10A9600000230BF0DDFE031E05DAFDF715FE304A6D
:10A970005B421350DFE7002204F16000002308F07F
:10A9800091FB044620B9FDF707FE294B0B22D1E7C6
:10A990000EF04DFEFEF7BAF8051E06DA20460BF063
:10A9A00052FD204602F0B0FCC5E704F1600010F053
:10A9B00028FFA8B190F83730990711D5E36D43F01F
:10A9C0000103E36528460AF033FC20460BF03BFD0B
:10A9D000204602F099FCFDF7DFFD154B7122A9E737
:10A9E000B4F88C305A0508D5FDF7D6FD104B71220E
:10A9F0001A5028460AF01CFCD0E723F40073A4F890
:10AA00008C303A46314620460BF0FEFC40B12846D9
:10AA10000AF00EFCFDF7C0FD054B86221A50BDE77B
:10AA2000044A4FF4404321462846FEF7B5F884E730
:10AA30000C0000004CC703002DE9F04F8FB01F46FB
:10AA400003924FF0FF334FF0FF32CDE90423189B00
:10AA50000C465906DDE9195A064603D4C36D13F0B6
:10AA6000020331D000220023CDE90423189B13F008
:10AA70000203009306F1600B3AD01022002109A8CE
:10AA8000DDE9048911F06FFB04238DF83130CDF836
:10AA900034B001214B46424609A809F07FFB00F182
:10AAA0000B010B29034619D840F68102CA40D20790
:10AAB00014D5584610F0A1FE8046F8B9FDF76CFD9C
:10AAC000884B0B221A500EE004AA042102F08AFDE2
:10AAD00004A930460BF024FE031EC7DAFDF75CFD27
:10AAE000804A5B4213504FF0FF300FB0BDE8F08F4B
:10AAF000DDE90423584608F0D5FADDE7C368019381
:10AB000003690293002D6DD0BAF1000F6AD0DAF814
:10AB100000B0B6F88A600DF090FD98F83720C2F3C7
:10AB200002122A8098F83720C2F30212012A17D0A5
:10AB30006FF08509019BC8F80C30029BC8F81030F3
:10AB4000B9F1000F48D0C9F10002FDF725FD6549B4
:10AB5000009B0A50002BC6D140460DF0DBFCC2E73B
:10AB600000231422BBF1070FCDE9093229D909A925
:10AB700040460DF036FF834610B96FF06809D9E7FB
:10AB80000A9940460DF0A8FD0028F6D198F83A1031
:10AB900040460DF0A1FD81460028EED1DBF80C10F7
:10ABA0006960F6B2112E0FD107A9099108210A9107
:10ABB00009A940460DF015FF0028DED00188698004
:10ABC000B8E76FF01509B5E7062EB1D109A90791CD
:10ABD0001421089107A9ECE72A88012A0DD108223F
:10ABE000CAF80020002C46D0E2680AB1A26842B937
:10ABF000FDF7D2FC3B4B0C2264E7022A70D11822ED
:10AC0000EEE740460DF0DEFD87423E4628BF064691
:10AC10000546B2464FF0000BBAF1000F0FD1AF421C
:10AC200003D2A26942F02002A2612269002A4ED01A
:10AC3000606978B30F2848D8C4F814A02AE0A26845
:10AC400052F80B1002EB0B0021B9FDF7A5FC254BC8
:10AC5000162237E74268524528BF524640460392C3
:10AC60000DF050FD0BF1080B039A08B169226CE757
:10AC7000AAEB020AD0E740460DF0A4FD87423E460B
:10AC800028BF064605460399324640460DF03AFD78
:10AC90000028EBD1009BE3B940460DF03BFC189B2C
:10ACA00013F0200F0CBF304628461EE78A440731B8
:10ACB00021F00707103717448742BDD821F007015C
:10ACC0000A4411680029F1D1B6E71044F9E762613E
:10ACD000E0E7019BC8F80C30029BC8F81030DEE7B3
:10ACE000862232E70C0000002DE9F04F90468DB02F
:10ACF0001E464FF0FF324FF0FF33CDE90823B0F886
:10AD00008C30DDF858A00D46D90704460ED5C3F3A4
:10AD10004103022B0ED08023FDF73EFC594A13500D
:10AD20004FF0FF3630460DB0BDE8F08F0923F3E752
:10AD30008623F1E71AF0400F02D1C36D9A0715D5AB
:10AD400000220023CDE90823002EEBD0CDE90586B3
:10AD5000DDE908790AF4807BADB1B8F1000F12D1BA
:10AD6000EB685BB96FF015004342D5E713F00503BC
:10AD7000EAD108AA042102F035FCE5E7AB681A68BD
:10AD80005B6805920793CDE90A7902A8DDE90A23F9
:10AD900010F0EEFFDDE90223CDE900234FF00008BB
:10ADA0004646069B73B3E36D13F0040014D060684D
:10ADB0004042002820EAE076D6DBDDE91712204683
:10ADC0000BF022FB0028B3D11AF0020FAAD13146B2
:10ADD00020460DF081F9A5E7DB07EAD457EA09031D
:10ADE00012D1D5B9534606AA05A920460BF04EFB51
:10ADF000831950EA030643D157EA09071AD0BBF179
:10AE0000000F35D13046D4E70AA92046CDE90A79AA
:10AE10000BF086FC0028E4DACBE7534607AA05A925
:10AE200020460BF033FB064450EA060305D157EAEF
:10AE3000090302D16FF00A0096E7AA6852F83810A9
:10AE4000014405910699091A069107994FEAC8032A
:10AE50000029D4D1E96808F101088845D2D0083327
:10AE6000D118D2584B68059207930AB1002BD4D160
:10AE7000DDE900230AA810F0A0FFDDE90A7990E7D8
:10AE80001E46BCE70C000000F0B585B01C46DDE9AD
:10AE90000A6713460AB3B0F88C20C2F38112951EDC
:10AEA000012D08D80A46CDE9016700940021FFF77B
:10AEB000C3FD05B0F0BD012A07D10A46CDE90167FF
:10AEC00000940021FFF710FFF3E7FDF765FB044B4B
:10AED00086221A504FF0FF30EBE71046E9E700BF3B
:10AEE0000C000000F0B5B0F88C30C3F3811C85B0C5
:10AEF000644699B18E68D6B10023CF681D460436EA
:10AF0000AF4218D1023C012C1AD80C1D02940C68D7
:10AF1000CDE900240022FFF78FFD06E01623FDF7A0
:10AF20003BFB0D4A13504FF0FF3005B0F0BD0C2332
:10AF3000F5E78623F3E756F835E001357344DFE79C
:10AF4000BCF1010FF5D10C1D02940C68CDE9002471
:10AF50000022FFF7C9FEE8E70C00000073B50D46BC
:10AF6000062D1C461146069B58D008DC002D5DD0EE
:10AF7000012D13D0FDF710FB594B6D2238E0292D20
:10AF8000F8D1132A00F0A98000F3A280102A00F063
:10AF9000A180122AEED122460E210AE00F2A3AD0D1
:10AFA00013DC032A29D0042A1BD0022AE2D122462C
:10AFB000092102F017FB031E27DAFDF7EDFA484AD4
:10AFC0005B4213504FF0FF3020E0262A20D0272A82
:10AFD000D0D11B68042B07D1B0F88C30C3F3C20367
:10AFE00009E01B68042B05D0FDF7D6FA3C4B16226E
:10AFF0001A50E7E74368236007E0B0F88C20C2F3FB
:10B0000081121B68042BEFD12260002002B070BDBA
:10B01000B0F88A20F5E722460A21CAE7012AA9D119
:10B02000224602B0BDE870400EF06CBF202A13D05B
:10B0300008DC022A0DD00E2A47D0012A9AD12246D6
:10B040000821B6E7212A3DD0222A93D12246172192
:10B05000AFE722461021ACE7B0F88C20C2F3C20261
:10B06000012A04D0FDF798FA1D4B6A22C0E704229A
:10B070001B6801920CB1934205D0FDF78DFA184B75
:10B0800016221A500BE001AB6A46132102F0AAFA0D
:10B09000031E08DAFDF780FA114A5B4213504FF0A5
:10B0A000FF352846B2E7009808B92560F9E70CF0AB
:10B0B0003AF920B9FDF770FA094B0222E1E743683B
:10B0C0002360EEE722460D2173E72246142170E744
:10B0D000432AB3E722460F216BE72246162168E791
:10B0E0000C000000F7B50F46062F1C460646089BCD
:10B0F00011467FD009DC002F00F08480012F29D079
:10B10000FDF74AFA754B6D223BE0292FF8D11A2A38
:10B1100000F3D2800F2AF3DDA2F110010A29EFD843
:10B1200001A252F821F000BFC5B20200CBB202006A
:10B13000D1B20200D7B2020001B1020001B1020097
:10B1400001B1020001B1020001B1020001B102002F
:10B1500063B102000F2A22D006DC022A13D00D2A86
:10B16000CED1002003B0F0BD192AC9D1B0F88C208F
:10B17000C2F3C2010139012914D9FDF70DFA574B69
:10B180006A221A5092E02246092102F08DF9031E2C
:10B19000E7DAFDF701FA514A5B42135086E0224696
:10B1A0000A21F2E713B144B1217821B922F40062F7
:10B1B000A6F88C20D5E7082B04D0FDF7EDF9474B16
:10B1C0001622DEE7204601F00DFC031EE1DB0BF04A
:10B1D00019F920B9FDF7E0F9404B1322D1E7B6F891
:10B1E0008C3043F40063A6F88C3001F035FB86F810
:10B1F0008E00B6E7012A83D1224603B0BDE8F040B5
:10B200000EF054BE242A3FF77BAF1F2A07DC012A29
:10B2100055D0022A7FF474AF22461021B5E7A2F17F
:10B220002105032D03D8DFE805F039443D3D002218
:10B2300000921CB10C2B0AD0082B21D0FDF7ACF9E1
:10B24000264B16221A504FF0FF3738468AE7A0687F
:10B25000B0B10BF0D7F80090009808B101F0FCFAFB
:10B26000042301900DEB03021321304602F01CF978
:10B27000031EEADAFDF790F9184A5B421350E2E741
:10B280006368002BE8D06946201D0CF068F80028A0
:10B29000E2D1FDF781F9114B0222D3E722460D21BD
:10B2A000304672E71A462146FEF76CFF4FF0FF303A
:10B2B00058E722461721F3E7432A7FF421AF2246BD
:10B2C000082162E722460F21EAE722461321E7E739
:10B2D00022460E21E4E722461621E1E70C00000099
:10B2E00013B503461446B3F88C200846C2F3811107
:10B2F000032908D1FDF750F9184B5F221A504FF07F
:10B30000FF3002B010BD00B124B9FDF745F9134B71
:10B310001622F3E712F4807F04D1FDF73DF90F4BBD
:10B320008022EBE7012903D1C2F34102022AF4D1C2
:10B330001A8D012AE9D1ADF800205A8DADF802200E
:10B340002268DB6A0193082A28BF0822694610F0A8
:10B35000E3FE082323600020D3E700BF0C000000B9
:10B36000F0B51546028C012A85B00E464FF0000458
:10B3700023D1436ACDE90244EBB108230DEB03016D
:10B3800001AA01930CF0BEFE031E07DA5B42FDF733
:10B3900003F90D4A13504FF0FF300AE0019F2A686D
:10B3A000BA4228BF3A4602A9304610F0B5FE2F60D7
:10B3B000204605B0F0BD1623E9E7FDF7EDF8024B96
:10B3C00016221A50E7E700BF0C000000F0B58DB060
:10B3D000164605460C4630220021684610F0C3FE92
:10B3E00001238DF800308DF8076055B32B6843B307
:10B3F0005A68154B9A4224D128460BF0D1F9876838
:10B40000064628460BF0D1F9C3041AD5CFB13D69E1
:10B41000BDB12388012B14D18DF801304FF4BC430A
:10B42000ADF802306379A2798DF8052003F07F032F
:10B43000E2798DF806208DF804306A4607213046FF
:10B44000A8470DB0F0BD00BF680700202DE9F84304
:10B45000D1F80880D8F80C3005460C4613B9022004
:10B46000BDE8F883B8F810200D2AF8D9D3F80620E3
:10B47000C1F826205A894A850320062281F8240033
:10B4800081F825201E68C4F82E609E88668684F8A0
:10B490002C0084F82D209B892E319EB25BBAA386A6
:10B4A00008469FB20BF0ACF981466DB32B684BB1E7
:10B4B0005A7C062A28D103F1120010F05CFEB0FA83
:10B4C00080F35B09B9F1000F05D194F82E20D20763
:10B4D00001D4002BC3D00E2108F10C0009F08DFE21
:10B4E000A3689BB9224B234A23499342B7D2988938
:10B4F000B84207D15868884204D1D3F80880B8F11F
:10B50000000F05D11033F0E70023DBE75B68E8E7C5
:10B51000224639462846C0470028A1D002289ED09E
:10B5200048F688639E429BD094F83730C3F30213E9
:10B53000012B13D1A368DB685B885BBA9BB22D2B10
:10B540008ED8A268002A8BD0118A994236BF5B1A26
:10B5500013829BB2526828BF0023F3E7022B7FF4CB
:10B560007FAFA368DB689B885BBA2833E6E700BF40
:10B570005CC603007CC603006807002000487047D3
:10B580000D0A04002DE9F34780460BF009F98A8E75
:10B59000D0F8089057BA0E46BFB2B9F1000F00F0CC
:10B5A000B080D9F81C302BB96FF08505284602B061
:10B5B000BDE8F08791F83730C3F30213012B5DD15A
:10B5C000B2F5006F5AD18B688D69DC6801F0BAFB67
:10B5D000226903689A4227D13446082794F82D300F
:10B5E0004BB9494B1A68C4F82D209A889B79A4F866
:10B5F000312084F8333040F6CD4200230E2120461E
:10B6000002F0A8F8824600283AD16FF00B05B7F592
:10B61000C16FCBD130460CF05DFFA368D9684046BE
:10B62000103100F085FC5EE004F11001284600F0C6
:10B6300035FE0028D0D1B368D968103108460BF028
:10B64000A2F802460028C7D101AB304600F036FA16
:10B6500005460028C0D0012809D130460CF05AFF19
:10B66000019CA78E7FBABFB2002FB7D19CE70228FA
:10B670009CD130460CF04EFF002597E73446F3E7A7
:10B6800050F80C5F0E2109F090FDB7F5C16F2ED078
:10B6900094F83730C3F30213012B28D1A368DA687A
:10B6A000103210460BF06FF808B3294610460BF025
:10B6B00015F9D4F82630C5F80630638D6B815146F4
:10B6C000AF8120460CF04DFF20460CF0B6FF4046FF
:10B6D0000BF066F8D9F81C3021469847054600283B
:10B6E00095D1A3684BB920460CF014FF5EE7D4F85F
:10B6F0002E302B60638EAB80DBE71A8A5B681544C3
:10B70000F0E76FF0010551E78FCE030038B505462D
:10B710000BF041F8012303760F49456104460430DC
:10B7200010F0FEF828460BF040F8420542BF237E99
:10B7300043F00403237628460BF037F8C30404D5FE
:10B74000064A0748002100F053FD00F005FC637E27
:10B7500043F00203637638BD93680300CDB3020063
:10B76000382600202DE9F04707468CB08A461C4653
:10B770009046002A00F00F811368002B00F00B8127
:10B780001E68D6F808903022002168466D4610F0F9
:10B79000EAFCB9F1000F00F0FB80D9F8103023B9B2
:10B7A0006FF085000CB0BDE8F08714B96FF015009C
:10B7B000F8E7149B302BF9D1784B013F4AEB030A91
:10B7C000102F7AF1000AF1D20F2FEFD801A353F80E
:10B7D00027F000BF15B8020047B8020081B8020088
:10B7E000CDB80200F5B8020023B90200ADB70200DF
:10B7F000ADB70200ADB70200ADB70200ADB70200B1
:10B80000ADB702003DB902005BB90200ADB702005E
:10B8100075B90200002140460BF07EF8002875D172
:10B820002068A3880090ADF804306A46D9F810303B
:10B83000304698470028B5DB0323062221464046C0
:10B840000BF01BFDAEE74FF4007130460BF056F8DD
:10B850000028A5D023797BB1023B012BA6D9206813
:10B8600061682B4603C3A06818600121D9F8103025
:10B870002A463046984795E7A368642BEFD995E7A9
:10B880004FF4003130460BF039F8002888D0637946
:10B89000012B8BD02379032B0BD1414B226A9A4287
:10B8A00084D8D4E904128B424FF000039341FFF493
:10B8B0007DAF2A4604F1300720686168134603C350
:10B8C0000834BC421A46F7D10221CFE74FF4802159
:10B8D00030460BF013F800283FF462AF2379042BB5
:10B8E0003FF464AF206861686B4603C3A0681860CA
:10B8F0000321BBE74FF4002130460AF0FFFF002888
:10B900003FF44EAF40460BF013F810B16FF00C004F
:10B9100048E7206861686B4603C3A068186004218B
:10B92000A4E74FF4806130460AF0E8FF00283FF4B6
:10B9300037AF23788DF80030052197E740460AF0AD
:10B94000F7FF0028E2D12068A288A3790090ADF823
:10B9500004208DF80630092188E74FF48011304625
:10B960000AF0CCFF00283FF41BAF23788DF800309D
:10B970000A217BE74FF4805130460AF0BFFF0028D0
:10B980003FF40EAF616820686B4603C307216DE783
:10B990006FF0010006E700239B68FFDEFFFF6FAF3B
:10B9A000FFC99A3B07B500230246044900930120D2
:10B9B00001F0A4FA03B05DF804FB00BF000090D0D2
:10B9C00007B50023024604490093022001F096FACD
:10B9D00003B05DF804FB00BF000090D008B5084B31
:10B9E0005A683AB11B68002123B19A4204D1044835
:10B9F0000AF0B4FF104608BD19461B68F4E700BF03
:10BA0000582600202DE9F8430AF0D4FFDFF89C8087
:10BA100006464FF0FF3226484FF0FF330AF0F9FF99
:10BA2000D8F8004024B12568224FC6F5FA6924B938
:10BA3000BDE8F8431E480BF025B8636809EB030224
:10BA4000002A18DC012120460BF02AF822460021AA
:10BA500040460AF083FF002323607B6833B9C7E9BF
:10BA6000004435B12B682C461D46E0E71C607C6025
:10BA7000F7E72B46F7E79C1B14F5FA6F13D004F594
:10BA8000FA6440F2E73000214FF400454FF47A7237
:10BA90000023E4FB0501FBF733FB02460B46064897
:10BAA00007F070FDC4E700221346F8E76026002087
:10BAB0004426002068260020A00900202DE9F04F30
:10BAC00087B0894690460393054620B96FF015006C
:10BAD00007B0BDE8F08F8368002BF7D05AB98069B2
:10BAE0000BF0F9FB38B9AB695B6823B103F140098E
:10BAF0001B6C002BEAD0804E80484FF0FF324FF095
:10BB0000FF330AF086FF3768A969002305934A4688
:10BB100005AB38460AF0A8FF0446002832D1DFF80A
:10BB2000E0A10346DAF800000AF09EFF064600286E
:10BB300049D174480468002C41D0224631460AF0AD
:10BB40000DFFAB690293B8F1000F4FD140F6CD4223
:10BB50000023CDE900230298434642461C2101F010
:10BB600025FF0646002842D1002C40F0C0806348E3
:10BB70000AF088FF039B002E1E600CBF6FF00B00C5
:10BB80000120A5E7B84207D00599024630460AF0E1
:10BB9000E5FE21460AF0DBFE58480AF073FFA06874
:10BBA0000AF0EFFE811C05F124000AF034FF05F1D4
:10BBB0002C0004F110010AF02EFF002088E7FFF7A7
:10BBC0000DFF0446BDE728460CF084FC05460146FF
:10BBD00006F118000FF002FE20B148480AF052FFAB
:10BBE000022075E728460CF095FCAAE72E4640F6A1
:10BBF0000603B38696F83730B068012262F3061365
:10BC000086F837301C210C3009F0CFFAB36806F102
:10BC1000240BDF68002C56D028460CF05BFC29462C
:10BC200004F118000FF0C5FDB369A360D9F8003026
:10BC3000E360A0680AF0A5FE811C58460AF0EBFEFE
:10BC400000232360DAF80430CBBBCAE900440AF0D1
:10BC5000B1FE60602C4810F069F8084305D12B480C
:10BC60004FF48032002307F08DFCFFF787FC01467C
:10BC700006F12C000AF0CFFE0821B970062100233E
:10BC80000122397104213B70FB707971BB71C7F8D7
:10BC90001230FB827A70FA71494607F118000AF0F7
:10BCA0006DFED6F82630BB60738DBB819CB9AB6846
:10BCB000D9680C3107F10E000AF060FE57E71C60EE
:10BCC000CAF80440C3E702980AF05BFE811C58469C
:10BCD0000AF0A1FEC9E7A368414658684A460AF03F
:10BCE000A3FE01460028E5D1C7F80E003FE705484E
:10BCF00021460AF02CFE3AE7582600204426002070
:10BD00006026002068260020B0090020A00900203D
:10BD10002DE9F34705469DF828900F4616469846AC
:10BD20000AF06CFE38B94FF0FF324FF0FF3305F1E7
:10BD300028000AF06EFE4848DFF820A14FF0FF32DD
:10BD40004FF0FF330AF065FE00230193DAF800009C
:10BD500001AB3A4629460AF087FE044620B1024666
:10BD6000019950460AF0FAFDDAF8003013B93C4860
:10BD70000FF025FE002C44D1B8F1000F0BD039484C
:10BD800001AB00683A4629460AF06EFE18B13368E6
:10BD90000361B3888382B9F1000F0ED031480023CC
:10BDA00001932946006801AB3A460AF05DFE014660
:10BDB00060B133680361B388838227480AF062FE6A
:10BDC000284602B0BDE8F0470AF05EBE2648046887
:10BDD0009CB9FFF703FE04460028EED00AF0EAFD06
:10BDE000C4E901053B68E36033682361B3881D48FB
:10BDF000A38221460AF0ABFDDFE722460AF0AEFD42
:10BE0000ECE733682361B3881648A38221460AF021
:10BE10009EFD04F11807A369002BCED04FF0FF332D
:10BE20004FF0FF32384607F03DF983680646D9687F
:10BE30002C300AF0F0FD65B12B6853B15B683146D8
:10BE40005B68284698470028E5DA30460CF062FB2C
:10BE5000E1E700235B68FFDE442600206026002027
:10BE6000A009002058260020682600202DE9F04176
:10BE7000DFF8A88005464FF0FF3229484FF0FF3326
:10BE80000AF0C7FDD8F8004014B12668002784B92D
:10BE9000244F3C681CB126684FF000081CBB3B686F
:10BEA00013B921480FF08BFDBDE8F0411C480AF0A2
:10BEB000E9BD45B1A368AB4205D027468EB13368D2
:10BEC00034461E46E3E7204600210AF0E9FD3946E4
:10BED000404622460AF042FD144821460AF037FD4A
:10BEE000ECE73346ECE745B1A368AB4205D0A0468A
:10BEF0008EB1336834461E46D0E7204601210AF051
:10BF0000CFFD4146384622460AF028FD0748214623
:10BF10000AF01DFDECE73346ECE700BF5826002091
:10BF20004426002060260020A0090020682600206A
:10BF300008B50A4601460748002300680AF094FD48
:10BF400020B101210AF0ACFD002008BD6FF0010016
:10BF5000FBE700BF6026002038B5124D2B7803BBED
:10BF6000114A124CC2E90033114AC4E90033C2E954
:10BF7000003310480FF0DFFB0F4920460AF0E7FCC2
:10BF800001F148000FF0D7FB20460C490AF0DFFC16
:10BF90000B490C480FF005FD0B480FF03BFB01234C
:10BFA0002B7038BD4D3F0020602600206826002001
:10BFB000582600208826002070260020A026002079
:10BFC00005BA0200A0090020442600200068044BA6
:10BFD00000BA6FF30F00C31A58425841704700BFB0
:10BFE0000000FEA938B54FF0FF324FF0FF33054691
:10BFF0001D480BF073F81D4B1B687BB11A684FF09E
:10C00000FF344FF47A705BB9631C1BD118480FF0F2
:10C01000D6FCBDE8384014480BF069B81A46EEE784
:10C02000D9691B8C491B00FB0313002B09DD9C42C3
:10C0300028BF1C461AB1116813460A46E3E71146A9
:10C04000FAE700244FF4004540F2E73000214FF4B6
:10C050007A720023E4FB0501FBF752F802460B4617
:10C06000034807F08FFAD4E75C050020382700204A
:10C07000D00900202DE9F341054616460C469846A6
:10C080000BF02EF86A6842B900272CE05440B4FA4D
:10C0900084F4183C2344DBB221E09169164B21F073
:10C0A0007D4101F0FF219942EED11388012BEBD1A4
:10C0B000171D3846FFF78AFF4045E5D15368D2691E
:10C0C00013400193601E01A9002310F8014F11F8DD
:10C0D000012B9442DAD10833DBB2202BF5D1327830
:10C0E0009A42D1D8337005F114000BF000F83846AD
:10C0F00002B0BDE8F08100BF000100022DE9F34766
:10C100000BF095F8254D80464FF0FF3224484FF054
:10C11000FF330AF0E3FF2C682CB1002726684FF4A8
:10C120007A7AB94644B94046FFF75CFF1C4802B032
:10C13000BDE8F0470AF0DBBFE369228CA3EB0803FC
:10C140000AFB0233002B05DD27462EB33368344645
:10C150001E46E7E7A388012B08D110230093A269AC
:10C16000104904F10803202000F0C8FE23686FB9CD
:10C170006A682B60944200D16B6094F82230C4F856
:10C18000009069F3000384F82230DEE73B606B68BF
:10C190009C4208BF6F60F0E73346D8E7382700209D
:10C1A0005C050020000030E0002808DD431E054843
:10C1B00000EB8310044B984228BF002070470020FA
:10C1C000704700BFFC0600203C070020054B064AD4
:10C1D000934205D0054A1068002808BF18467047EA
:10C1E00000207047FC0600203C070020402700206C
:10C1F000F8B50E4D04464FF0FF330D4816464FF08C
:10C20000FF320F460AF06AFF214628460AF0F8FE80
:10C210002B6823606B682C6003B96C60C4E90176FD
:10C220000348BDE8F8400AF062BF00BFDC260020EA
:10C230005C05002038B504460D460AF051FF062182
:10C2400020460AF018FF10B3636843B105B12B60B4
:10C25000002504F114000AF04AFF284638BD4FF0CB
:10C26000FF324FF0FF330B480AF038FF0A4B9A6C4D
:10C270003AB963609C6405B12B6006480AF037FF49
:10C28000E6E704480AF033FF6FF00205E1E76FF0DC
:10C290008505DEE75C050020EC26002070B50D4624
:10C2A00068B1BDE870400AF06EBF294620460AF02A
:10C2B0006AFF18B94034B442F7D3002070BD014C76
:10C2C000014EF8E7FC0600203C0700202DE9F34171
:10C2D000002305468DF807300E4600294ED008464B
:10C2E000FFF774FE034628BBFDB10DF10702284697
:10C2F000FFF7C0FE04460CE0384600230DF10702AC
:10C300003146FFF7B7FE4037002818BF04464745BF
:10C31000F2D3A4BB012128460BF002F8044670BBFF
:10C3200002B0BDE8F04100F009BD174FDFF85C80B6
:10C330002C46ECE7EDB1012128460AF0EEFFD9E7E3
:10C34000204601230DF107023146FFF793FE4034EA
:10C35000002818BF07464445F2D3FFF737FF3146A0
:10C3600001230DF10702FFF785FE044638B93C466C
:10C37000CFE7054CDFF814802F46ECE70C4620464B
:10C3800002B0BDE8F08100BFFC0600203C070020A1
:10C39000F8B5134C134F06460D46BC4201D3002599
:10C3A0001BE020460AF09CFE63682BB904F11400E0
:10C3B0000AF09DFE4034F0E7DA7E9207F6D51A883F
:10C3C000012AF3D1326859689142EFD105B12C604E
:10C3D00004F114001D460AF08AFE2846F8BD00BF8D
:10C3E000FC0600203C0700202DE9FF470646884652
:10C3F00091461F460AF074FE03A93046FFF71AFF64
:10C4000006F1140A68BB7568EB7E99071ED5D8F84B
:10C4100000106A68914219D1DA0610D4BFF35B8F1D
:10C4200005F1140353E8001F013143E80012002A0C
:10C43000F8D1BFF35B8FEB7E43F01003EB765046F1
:10C440000AF055FE284604B0BDE8F087039CB9F118
:10C45000020F254602D1237E042B04D0E37E9B07E6
:10C4600031D50025EBE7002CE9D0D8F80010626840
:10C47000914206D000931549231D3246022000F058
:10C480003DFDE37E114923F0120343F01203E376EE
:10C4900001232380D8F800206260B7FA87F7E27E94
:10C4A000636163767F096FF07F4367F30002E361A6
:10C4B0000423E27684F81890324600930120E318B2
:10C4C00000F01CFDBBE7002CDBD1B8E7000030E03A
:10C4D000F8B5144C144F06460D46BC4201D3002457
:10C4E0001EE01DB12B680BB1A34208D120460AF013
:10C4F000F7FD636804F114001BB90AF0F8FD40343D
:10C50000EBE793F83C20D207F7D51EB1596A3268A1
:10C510009142F2D105B12C6003F120040AF0E7FD4D
:10C520002046F8BDFC0600203C0700202DE9F04322
:10C53000036885B000219F7E04460AF09CFD002818
:10C5400055D102252368002B00F0BA8026469D763F
:10C5500020460AF0C5FD56F8149B0FF007FC4FF477
:10C560007A72A0FB020302FB0131C00B40EA41409A
:10C57000C90BC9E9080130460AF0B9FD23689B7E62
:10C58000AB424FF0000840F09B80062D5ED1062F95
:10C5900000F09680082120460AF079FD43464A497A
:10C5A000CDF800802246022000F0A8FC20460AF0C8
:10C5B00055FD030700F1848020460AF091FD2946CD
:10C5C00020460AF058FD002836D003A92046FFF780
:10C5D00031FE88BB03460546FBB130460AF087FDB5
:10C5E0006DB32B685BB3183B4BB39B69FAE72046EE
:10C5F0000AF026FD0EF011FF68B1092120460AF06D
:10C600003AFD00289DD00A2120460AF034FDC0F1F1
:10C610000605EDB296E7032594E7039B93F83C20CB
:10C62000D707DAD59107D8D403F1380598630123E9
:10C630000028D2D12846CEE730460AF058FD062120
:10C64000204605B0BDE8F0430AF015BD062F37D1EE
:10C65000082120460AF02EFD22461B49CDF8008015
:10C660004346012000F04AFC20460AF0F7FC02078E
:10C670000AD420460AF034FD394620460AF0FBFC75
:10C6800070B930460AF033FD30460AF030FD2046DE
:10C6900003F096FC204605B0BDE8F0430AF020BD4B
:10C6A00003A92046FFF7C6FD0028EAD1039991F8B7
:10C6B0003C30DB07E5D5203120460AF097FEE0E765
:10C6C00005B0BDE8F08300BF000010D02DE9F743AE
:10C6D00005468846174699460AF00BFD044620B9E0
:10C6E0006FF0150003B0BDE8F08304F11402BFF34E
:10C6F0005B8F6669BFF35B8F002EF1D0BFF35B8F5A
:10C70000701E52E8003FB34203D142E80001002905
:10C71000F7D1BFF35B8FE8D1012E05DDB9F1000F32
:10C72000E0D0C9F80040DDE7E37EB8F1010F23F067
:10C730000203E37601D00020D4E7002FFBD0284687
:10C740000AF0CEFC6B683BB1042300930549E31863
:10C750002A46022000F0D2FB05F114000AF0C7FCC3
:10C76000E9E700BF000030E0F8B54FF0FF330546C1
:10C7700017460E484FF0FF320E460AF0AFFC0C4B46
:10C780001B680BB11C6823B9BDE8F84007480AF0E4
:10C79000AEBC5B683A463146284698471CB12268D1
:10C7A00023461446EFE72246FAE700BF5C05002067
:10C7B000E4260020F7B50023CDE90033254B84693A
:10C7C0001B6805465BB190F82D20062A00F12E016A
:10C7D0003BD80DF102008DF801200FF09DFC0921DE
:10C7E00020466F690AF047FC88B30D2120460AF005
:10C7F00042FC38B94FF0FF324FF0FF3304F128000C
:10C800000AF06CFC20460AF016FC294643682046D4
:10C8100098470D21064620460AF02DFC18B904F170
:10C8200028000AF064FC002E02DA28460BF072FEA3
:10C830001FB1314638460AF008FC9DF8013023B19B
:10C84000324669462046FFF78FFF03B0F0BD6FF018
:10C850007206EAE7E4260020064B984206D3064A11
:10C86000904203D2C01A8011013070474FF0FF3060
:10C87000704700BFFC0600203C07002037B5054686
:10C880000AF02EFC002128460AF0F5FB50BB284692
:10C890000AF0D1FB044680B1846874B128460AF0DE
:10C8A000CFFB0EF0BAFD00B328460AF0C4FB01210D
:10C8B000836828469847041E0DDB002128460AF0AD
:10C8C000E6FB002308200A4900932A4600F016FBE5
:10C8D0002846FFF72BFE05F114000AF008FC20465D
:10C8E00003B030BD6FF07704F5E76FF00504F2E7B1
:10C8F000000010D037B505460AF0F2FB00212846AB
:10C900000AF0B9FBF8B128460AF095FB044628B1B5
:10C9100084681CB12846A047041E0DDB0021284670
:10C920000AF0C8FB00230420084900932A4600F0BF
:10C93000E5FA2846FFF7FAFD05F114000AF0D7FBE7
:10C94000204603B030BD6FF07704F5E7000010D04B
:10C9500008B503460AF06FFB084A824208D14BB182
:10C960001B683BB19B68987E431E5842584108BDE6
:10C970000020FCE700239B7EFFDE00BF680700204D
:10C980002DE9F0410D460646F8B1F1B10846FAF737
:10C99000DBFB08281CD8114FDFF84480441C4745B6
:10C9A00008D32246294606F108000FF0B5FB002007
:10C9B000BDE8F081B74206D02246294607F10800BB
:10C9C0000FF0D9FB38B14037E9E76FF01500EFE71A
:10C9D0006FF05A00ECE76FF07700E9E7FC06002003
:10C9E0003C07002070B50546B8B10D4C0D4EB44261
:10C9F00002D36FF0010070BD2846FAF7A5FB294667
:10CA0000024604F108000FF0D3FB20B92046BDE830
:10CA10007040FFF721BF4034E9E76FF01500EAE707
:10CA2000FC0600203C0700202DE9F0433B483C4C2D
:10CA30003C4DDFF8F4803D4E85B04FF0FF324FF0B3
:10CA4000FF330AF04BFB01F009F82746AC421AD33A
:10CA5000374B384ADB1B9B09954238BF002363B133
:10CA6000354B364936484FF4A072A3F844200EF0F7
:10CA700098FF344B0022C3E90022284805B0BDE8E6
:10CA8000F0430AF034BB0022C4E90222227420469B
:10CA90000AF0D6FAD0F80890B9F1000F18D0D9F8FA
:10CAA0000030ABB1062120460AF0F1FA04F114007F
:10CAB0000EF0B0FD04F128000EF0ACFDD9F8003006
:10CAC0002046984794F83C3023F0030384F83C3028
:10CAD000237A83B92046FFF73BFF70B11A4A1368E7
