:020000022000DC
:107000000053002009A2020073D40300F5A102007E
:10701000F5A10200F5A10200F5A1020000000000A8
:1070200000000000000000000000000041A202007B
:10703000F5A102000000000041A40200F5A1020039
:10704000B9A402000D590300B9A40200B9A40200BA
:10705000B9A40200B9A40200B9A40200B9A40200B4
:10706000B9A40200B9A40200B9A40200B9A40200A4
:10707000B9A40200B9A40200B9A40200B9A4020094
:10708000B9A40200B9A40200B9A40200B9A4020084
:10709000B9A40200B9A40200B9A40200B9A4020074
:1070A000B9A40200B9A40200B9A40200B9A4020064
:1070B000B9A40200B9A40200B9A40200B9A4020054
:1070C000B9A40200B9A40200B9A40200B9A4020044
:1070D000B9A40200B9A40200B9A40200B9A4020034
:1070E000B9A40200B9A40200B9A40200B9A4020024
:1070F000B9A40200B9A40200B9A40200B9A4020014
:1071000053B94AB9002908BF00281CBF4FF0FF310E
:107110004FF0FF3000F00CB8ADF1080C6DE904CE73
:1071200000F010F8DDF804E0DDE9022304B0704758
:10713000704700BF034613F8012B002AFBD1181A31
:10714000013870472DE9F0478C468E46089E15465B
:1071500004461946002B40F0D080724547D9B2FA58
:1071600082F74FB1C7F120030EFA07FC20FA03F3B0
:10717000BD4043EA0C0CBC404FEA154EA8B2BCFB24
:10718000FEF8230C0EFB18CC08FB00F943EA0C4375
:10719000994528D9EB1808F1FF3204D2994502D954
:1071A000A8F102022B44A3EB0903A4B2B3FBFEFC3B
:1071B0000EFB1C330CFB00F044EA0344A04214D93C
:1071C0002C190CF1FF3304D2A04202D9ACF1020316
:1071D0002C44241A43EA02401EB1FC4000233460D0
:1071E0007360BDE8F0874246DDE76346F1E7002AB9
:1071F00079D0B2FA82F3002B3FD01946C1F12003B7
:1072000002FA01F52EFA03F20EFA01FE20FA03F358
:1072100043EA0E034FEA154E00FA01F4B2FBFEFCFE
:10722000AFB20EFB1C201A0C0CFB07F842EA00421E
:1072300090455AD9AA180CF1FF3004D2904502D9D2
:10724000ACF102002A44A2EB08029BB2B2FBFEFCA6
:107250000EFB1C220CFB07F743EA02439F4246D970
:10726000EB180CF1FF3204D29F4202D9ACF10202BA
:107270002B44DB1B42EA004202E0AEEB0203012298
:107280004FEA154EAFB2B3FBFEFC200C0EFB1C33D5
:107290000CFB07F840EA034398452AD9EB180CF198
:1072A000FF3004D2984502D9ACF102002B44A3EB85
:1072B0000803A4B2B3FBFEFC0EFB1C330CFB07F768
:1072C00044EA0344A74216D92C190CF1FF3304D227
:1072D000A74202D9ACF102032C44E41B43EA00406C
:1072E0000F46114678E71F2188E76046ABE7624604
:1072F000BFE76046DBE76346EFE7734506D916B99B
:10730000002108466DE7C6E9000EF9E7B3FA83F7F6
:1073100087B9734501D3824207D8841A6EEB030301
:1073200001209C461EB900215BE73846FAE7C6E912
:10733000004CF8E7C7F1200CBB4022FA0CF51D43C6
:1073400020FA0CF12EFA0CF30EFA07FE41EA0E01B8
:107350004FEA154900FA07F4B3FBF9F81FFA85FE66
:1073600009FB18300B0C08FB0EFA43EA00439A4560
:1073700002FA07F240D9EB1808F1FF3004D29A451F
:1073800002D9A8F102002B44A3EB0A0389B2B3FB94
:10739000F9F809FB183308FB0EFE41EA03418E455C
:1073A0002CD9691808F1FF3304D28E4502D9A8F10F
:1073B0000203294443EA0040A0FB0298A1EB0E011E
:1073C0004145CE46434602D306D14C4504D2B9EBE3
:1073D000020E68EB05030138002EA4D0B4EB0E02B8
:1073E00061EB030101FA0CFC22FA07F34CEA0303F8
:1073F000F940C6E9003196E74046C5E74346D9E77C
:107400002DE9F843D0E90738856903EB08042F34E8
:10741000A5420F46164619D8DFF86C80A3FB080179
:1074200017A3D3E90023FFF76BFE0346601BA0FB05
:10743000080123F07F4412A3D3E90023FFF760FE85
:1074400020F07F403C603060BDE8F883DFF8389082
:107450000BA3D3E90023A5FB0901FFF751FE20F0A0
:107460007F440A480A2106A3D3E90023E8FB090167
:10747000FFF746FE20F07F403C603060BDE8F883B7
:107480008D49FD1A0700000000CA9A3B00166BF1F7
:10749000002800F03E812DE9F04FC54C94F85E3095
:1074A000DA078DB000F13181627F94F8293004EB66
:1074B000820204EB8303166AD3F82C800EB33546A0
:1074C00015F8020BC0F3801007F09CFB0368C6F8A8
:1074D00002308388AB8033785B0606D506212846C8
:1074E00006F01CF8002800F04681454615F8020B0E
:1074F000C0F3801007F086FB0368C8F80230838869
:10750000AB80337813F00E0F40F08B8063691BB1B2
:107510000C200DB0BDE8F08F07F0F4FF8146002885
:1075200000F0328107F0FAFF8246002800F029813E
:107530000AF00EF90546002800F02C81C06E4FF6C7
:10754000FF73AB8405F1100B002800F01F8105F1DB
:10755000600205F15C0105F0EDFFB5F8583023F449
:10756000EF6323F0070343F48C7343F00103A5F8A2
:10757000583095F8373003F03F0363F07F0385F808
:10758000373095F8723023F0070385F8723095F89C
:107590003C3023F00F03002785F83C304FF4C02324
:1075A000C5F86E312846C5E91277EF66A5F8707008
:1075B00085F839706F85C5F82E702F65A5F8407174
:1075C000A5F87471A5F86A710BF042FD85F8447155
:1075D000C5F848910AF030FB95F87C3160F302035E
:1075E00085F87C310AF02EFB95F87C3160F3C503F9
:1075F00085F87C3195F8423167F3410385F84231D3
:1076000005F1C4000BF05EFBC4E9159AC4F814B090
:10761000C5E902772F702D610EF01EFE002840F0A4
:10762000AC80237E0121C3F342030DF12B008DF8C2
:107630002B3006F021F9024600286CD04146304636
:1076400009F0B0FC5B4A5C4BB4F85C800721E0FBBE
:10765000023100251846C4E9025553A3D3E900239B
:107660002570FFF74DFD606007F090FA00F1090703
:10767000B8F1000F07D1357805F00F05A5F1010528
:10768000B5FA85F56D09207E636865F3000010F09A
:107690000105207646D0494A099200201060022553
:1076A000474ADFF8208104930BAE01930592032132
:1076B000CDE90200069400903B46CDF81C80089668
:1076C0002A460B9507F086F9314607F09DFF10BB5F
:1076D0003D4905914AF2D8330093CDE90300CDE945
:1076E0000100CDF81C80089606943B460122032138
:1076F0000B9507F053F9314607F086FF58B994F817
:107700005E3043F0010384F85E3000200DB0BDE828
:10771000F08F09F0E1BB6369002B3FF4F9AE09F08B
:10772000B1FBF5E6254A2948049303F24713069472
:10773000029591211360A8FB000301FB0831214B46
:1077400007931F4B05934FF6FF7309924FF0020802
:1077500003930BAE14A3D3E90023CDF82C80089635
:10776000FFF7CEFC3B46CDE90050424628460321B8
:1077700007F030F9BFE71220CBE609F083FB0320C6
:10778000C7E6484607F0C4FE0720C2E605F16400DC
:10779000E866DCE6504607F0C7FE484607F0B8FE4C
:1077A000F2E700BFAFF300808D49FD1A070000002B
:1077B000E81E002000CA9A3B8C49FD1ADC1E0020FE
:1077C0001D10030089EC0200410D0300002AE7842C
:1077D00070B5037E8AB0C3F342030D46044601210F
:1077E0000DF1230016468DF8233006F045F831469A
:1077F0000246284609F0D6FB1D4A1E4B0721E0FB36
:107800000231184618A3D3E90023FFF779FC636817
:107810009842054621D21B1A00220192164A029371
:10782000164BA21AA3FB02320221920900230A443A
:1078300009AE099112490591CDE90333032106965A
:10784000D2B20093184607F01BF9314607F0DCFE70
:1078500038B9656000200AB070BDFBD9C21A002398
:10786000DBE70C200AB070BD8D49FD1A070000004F
:1078700000CA9A3B8C49FD1AE81E0020ABAAAAAAAE
:1078800089EC0200000000002DE9F04F05468BB0A6
:107890008B46012002219946144610F071F900220E
:1078A00002218246012005F099FE2F494FF4C07253
:1078B000284605F01FFEC61C2C4B0093F6B201951E
:1078C0004B4632460121002007F028F910F0FD0F49
:1078D00042D1274BA4FB0348204621A3D3E9002330
:1078E0004146FFF70DFC089506956B680493214B04
:1078F00020F07F47A7FB0331E01A1F4B07934FF09F
:1079000007021E4B059302FB07114FF6FE7368EB4F
:10791000010103934FF47A720023FFF7F1FBCDF8D6
:1079200000B0CDE901704B4632460121002007F03E
:1079300035F810F0FD0F0DD1BAF1000F02D10BB0E8
:10794000BDE8F08F0122022110460BB0BDE8F04FD8
:1079500005F044BE00DEEFE700DEBAE7AFF30080DB
:107960008D49FD1A07000000E00C002029160300D5
:1079700000CA9A3B8D49FD1A1116030055560300A3
:107980002DE9F0418468A28C4FF6FF739A428CB0C7
:1079900000F0DA80054620460BF0ACFD2B7D012B74
:1079A00000F00081022B00F0D28033B994F87230DD
:1079B00003F01803182B00F0378194F84471002F5E
:1079C00040F0C8802B8AE68D94F93720CDE90A77FC
:1079D000002B00F0C680002AC0F23C810023A4F8EE
:1079E0007031AB7CA28D03F00303551C012BADB2AB
:1079F00000F0D480B4F87431002B00F0D980AB4291
:107A000040F252815B1B9BB2062BA4F874314FF0FD
:107A100000028CBF00230123E2851F4694F83C201E
:107A200063F3820284F83C2029460DF127022046A8
:107A30000BF04AFB743000F03181B4F86E312BB199
:107A4000AB4240F2DA805B1BA4F86E31B4F86A31C5
:107A50002BB1AB4240F2E1805B1BA4F86A31E58DAB
:107A600017B9AE4200F0C7800135ADB294F8B53019
:107A700013F001060AD1DDE90AC3002B4FD1BCF196
:107A8000000F00F003811E46194649E094F93720A3
:107A900023F00103002A84F8B530C0F2A38094F8E3
:107AA0005800C0F3C00100F007000EF057FA01467D
:107AB00094F8583094F8596003F003022832C3F365
:107AC0004003D200DA40E38B03F23F10B2F5A07F0F
:107AD0002CBF801800F5A07006F003022832D200F7
:107AE000C6F34006F240B2F5A07F2CBF831800F524
:107AF000A07358188E4A8F4B0721E0FB02311846BD
:107B000089A3D3E90023FFF7FBFA616820F07F40E7
:107B10008142DDE90AC380F0B380461A606000212B
:107B2000A28C24690694CDE903570332824D029159
:107B3000CDE900C6D2B201210020059506F0A0FFD4
:107B400010F0FD0F40F0B5800CB0BDE8F0813D278E
:107B500084F84471394620460CB0BDE8F0410AF083
:107B60002BB9002AB8BF84F8B970AB7CA28D03F0A2
:107B70000303551C012BADB210D0B4F87031002BAB
:107B80003FF438AFAB4240F29B805B1BA4F87031EE
:107B9000B4F87431002B7FF432AF3FE70023A4F830
:107BA00074313BE70023A4F86E31A4F86A3104E78E
:107BB000E38C052B8BBF40F2E2424FF4FA725A433A
:107BC00003FB0222B4F8723142F2107101FB03236D
:107BD000013BB3FBF2F39BB2A4F87431002B7FF4AA
:107BE0000EAF1BE794F85900012100F007000EF0DA
:107BF000B7F901465CE73D4638E707F0D5FC01469A
:107C0000002864D00023A4F86E31A38CC3801B230A
:107C10000371006807F09AFC18E70023A4F86A31A2
:107C200020460BF0E3FA1AE7218DB4F86C218B1D86
:107C30009A42C4BF931F5B1AB4F86811CCBF9BB2C1
:107C40001346994256D0A4F86831A4F86A31A4F8D2
:107C50006E21B2E694F8B930002B3CD0013B84F899
:107C6000B93004F1C40840460BF06EF8002855D036
:107C700040460BF069F8002842D00023E385ADE6CA
:107C8000091A6060A3BB51EA0C021ED115B9002F7E
:107C90003FF45AAF00263146334641E79DF827109E
:107CA00020460AF089F84FE7082120460AF084F8B8
:107CB0004AE707F0D3FC84423FF446AF00DE43E7D7
:107CC0003E2120460AF078F83EE71E4628E70123C9
:107CD000A4F86E31BAE60AAA0BA92846FFF790FB72
:107CE000DDE90A231343BCD0237884F8B930B8E720
:107CF000002615E7B4F86E1100297FF45EAEA4E704
:107D00000246D4E9170105F02DFC0028B5D194F8FE
:107D10003C301B0744BF238DE3855FE6FF200AF05C
:107D20000DF8A5E7AFF300808D49FD1A07000000AC
:107D300000CA9A3B8C49FD1A691603000000000036
:107D40002DE9F04F87B0B0F84071BDF84C9000912C
:107D5000CDE90423B0F80431BDF840A01F44BFB200
:107D60000446A7EB090390F85800D4F8FC809EB2B3
:107D7000BDF844300193C0F3C001BDF8483003960C
:107D800000F0070002930EF0E9F8E58C052D40F2B3
:107D9000BE8015FB06F5ADB240F2E24BBAF1050F1D
:107DA00040F2A98094F8592094F8581002F0030387
:107DB0002833C2F34002DB00D34001F00302283233
:107DC000B3F5A47FC1F340014FEAC20222FA01F2E7
:107DD00038BF4FF4A473B2F5A47F2CBF9B1803F5F2
:107DE000A47303F2D5131844774A784B0721E0FBBC
:107DF000023118464FF09613E3619623238470A353
:107E0000D3E90023FFF77CF9564620F07F4040F28B
:107E1000E2430BFB05F103FB06F64B1E3344B3FBB9
:107E2000F6F31FFA83FB06FB0BF3994260605D4695
:107E300053D26548591AA1FB000161A3D3E900237D
:107E4000FFF75EF920F07F408044B4F80421B4F8D5
:107E50004031A9EB07094D44ADB213442B44A4F8BB
:107E60004031638D13441D4494F837306585DB0938
:107E700055D100DE00273546019B2385029BA4F8DF
:107E8000723131462046A4F826A00BF049F9504B38
:107E9000218D3344881DB3FBF6F39AB29042A4F8C7
:107EA0006C2104D2C1F57F41FA310A4492B2009BA1
:107EB000A4F8682113B10023A4F8743143462A467C
:107EC00039462046FFF7E0FC94F8423143F00103C5
:107ED00084F8423107B0BDE8F08F3B48C91AA1FBD6
:107EE000000137A3D3E90023FFF70AF920F07F4010
:107EF000A8EB0008A9E74FF096130AF10106E36129
:107F000096232384B6B20A204FF4FA7381E7039BC9
:107F1000013515FB03F5ADB24FF4FA7B3EE7216C5A
:107F2000A36C294F01FB0233039A01FB1233A364B4
:107F30000023C4F8C0300EF0E1F9054694F8B8000B
:107F4000C0F342000EF0DCF9054406FB05F5214BB9
:107F50001E4805F5742505F23F25A3FB0535AD0C3C
:107F6000A36C25640BFB05FB72085B44963A9342B5
:107F700028BF1346C4E91123049B40F2E24909FBE0
:107F800003F307212365EBFB07010DA3D3E90023CE
:107F9000FFF7B6F8104B059AA8EB0008A3FB0230D8
:107FA000800A09FB00F0A0FB070105A3D3E9002329
:107FB000FFF7A6F8751B20F07F475DE7AFF3008061
:107FC0008D49FD1A0700000000CA9A3B8C49FD1A32
:107FD0007FC3C90183DE1B435917B7D100000000DE
:107FE0002DE9F04F0D460968B0F82EE0D1F8009069
:107FF0000146144651F82EAB52F8086B91F802C0B6
:10800000834691B0D0F81E00BBF822109BF81C707C
:10801000A4F808E082F802C0DBF82A206260DBF8EE
:108020003A20C4F82220ADF83C109BF83E100E9088
:1080300084F8261010AB13E9030004F122020C901F
:10804000ADF834101046052105F016FC94F82720F1
:1080500000F03F0060F3050284F827209BF83F20E2
:10806000C2F3040184F82810BBF83410E18201281F
:10807000C7F380170DD902F01F021B3202F01F0256
:108080000B2A06D889B2063989B240F67A42914263
:1080900019D90021C9F8081094F82C2061F30002C6
:1080A00084F82C200125DBF80C408BF80450504656
:1080B000594607F03FFA20682571214611B0BDE806
:1080C000F04F07F043BA2A6800215160BBF8362010
:1080D0002283B4F81680BBF832300A9340F2E242B1
:1080E000304602FB08F80BF02FF89BF83F1096F88B
:1080F000B800490961F3430086F8B8000EF0FEF8B5
:108100000B9096F8B800C0F342000EF0F9F80B9906
:10811000084408FB00F0A64900F5742000F23F2057
:10812000A1FB00104FEA5801800C9639206361636F
:108130009BF8311040F2E24201FB02F26264BBF8AC
:108140003820A6F87221414630460AF0E9FF994AE4
:108150009949C6F878114244B2FBF8F290B2A6F8F9
:108160006C01218B01F1060C604504DDC1F57F41F6
:10817000FA31014488B25946A6F8680111F81C2F5B
:10818000C907C2F3401200F10381BDF83410ABF807
:1081900023100C988BF81E704FF48071CBF81F00E1
:1081A000ABF81C10E18AABF82610218BABF8281035
:1081B000B6F87211ABF82A1096F8B8100B92C1F30A
:1081C00042018BF82C10304609F0CEFA5946A082B5
:1081D000ABF8060050466F6807F0ACF90B9AA18A1D
:1081E000D7F800A0F9801C233B71002A40F0BC8026
:1081F0003A773946504607F0A9F994F849A094F81F
:1082000048200AF0070A02F00702012150460B92AB
:108210000DF0A6FE0B9A02F003032833C2F34002CE
:10822000DB00D3400AF003022832B3F5A47FCAF37F
:10823000400A4FEAC20238BF4FF4A47322FA0AF28E
:10824000B2F5A47F2CBF9B1803F5A47303F2D513DA
:10825000DFF868A10746034459480721E3FB0A01F8
:108260004FF09613C4E903334FA3D3E90023FEF77D
:1082700047FF20F07F407060EB680A98226B40F265
:10828000E24101FB003404F2B3440221A41A0120AC
:10829000A8EB0208002205F0A1F9484609F04EF8C3
:1082A000E41B41A3D3E900230746A4FB0A01FEF720
:1082B00027FFCDF80490AB684249009120F07F4A37
:1082C000BA1C363BD2B253440121002006F026FCF2
:1082D00001285FD099F81830DB0751D4304609F0F7
:1082E00043FA364CA8FB04482FA3D3E90023834666
:1082F00041462046FEF704FFAB68334A0792A3F1DC
:108300003609324B069620F07F47A7FB0331E01A6F
:108310002F4B05934FF4F8730893736804934FF051
:10832000070303FB071168EB010100244FF47A7285
:1083300000230394FEF7E4FE0BF10305EDB2CDE953
:108340000170CDF800A04B462A460121204606F0D8
:1083500025FB10F0FD0F23D101220221104611B0A0
:10836000BDE8F04F05F03AB994F8273043F04003E8
:1083700084F82730201D0DF05BFA0122208537E7B5
:108380000023012200931846114606F091FBA5E751
:1083900000DEFAE607F062F981459BD000DE99E73E
:1083A00000DED9E7AFF300808D49FD1A0700000019
:1083B00083DE1B437FC3C901404B4C0000CA9A3B7C
:1083C0008C49FD1ADD5603002D5603008D49FD1A18
:1083D0005556030000000000F0B5C468636883B020
:1083E0000546002B40D10EF0C5FF00200EF0E6FF41
:1083F000002108460EF0D4FF0022252108200FF0AE
:108400003BF8374B019301A80FF022F8354940F2B1
:108410005B600FF0D3F8237AC3F3420262F30613D2
:10842000237220460EF0F0F827682E6838460DF0CB
:108430004FFD06446A6806F1090101200FF0E6F9D4
:108440000FF0A6FA204608F085FF811C3246C9B21B
:1084500038460DF03FFD054698B920460DF014FD55
:1084600068B9002003B0F0BD93F82C309B07BAD058
:108470001D4821460EF052FF0FF04AF8F1E700DEEA
:10848000EFE71A4A1A491B4840F2114314F092FCD4
:10849000194B0721A5FB030301FB05310EA3D3E90B
:1084A0000023FEF72DFE15490246154814F082FC04
:1084B000002585F31188BFF36F8F0323184602DF71
:1084C000104821460EF02AFF0FF022F86FF08B00C3
:1084D000C8E700BFAFF3008000CA9A3B000000006D
:1084E000D6BE898E55555500116003006C0A0400F4
:1084F000B80A0400340A04008D49FD1A000C040077
:10850000BC0A04000D6303002DE9F043C468A28A8D
:108510004FF6FF739A4283B000F0FD8006460EF0DE
:1085200099FA3389628B208C94F82710A3831A441C
:1085300092B2104480B2431C23840023638301F071
:108540003F034906E28300F1A48094F828100093C9
:1085500004F1290004F122030DF02CF90546D4E9B9
:108560000C31A26BA08BA36303FB0022E36B8A4256
:1085700094BF9B185B188B4228BF0B46626CE36369
:10858000236C94F849101A4494F82C3061F30613C4
:108590000021C4E9101294F8622084F82C3012F003
:1085A000040200F089800EF0E5FE00200EF006FFC8
:1085B000201D0EF04DFF2389A17A40F25B6043EA53
:1085C00001410EF0FBFF28460DF094FC214658486F
:1085D0000EF0A4FEA0890FF00DF994F8482094F84D
:1085E0004900C2F3C003002102F0070200F00700B7
:1085F0000FF04AF820460EF0C7FAD4F8008037682A
:1086000040460DF065FC0744726807F1090100203F
:108610000FF0FCF881460FF08FF900200FF0A6F95B
:10862000E36B94F8490003F12F02636C012100F021
:10863000070003EB42050EF05DFF4D44054494F83E
:10864000490000F00700022834D004280CBF4FF482
:10865000BC73282301211D440EF04EFF28440FF067
:108660005DF9A18A03313A46C9B240460DF032FCA9
:108670000546A8B1B37A13F002062BD000252D4889
:1086800021460EF04BFE0EF043FF284603B0BDE836
:10869000F083218D04F122020DF0CEF805465EE74D
:1086A00020460DF0F1FB00283CD10025284603B000
:1086B000BDE8F0831823CDE7D4E9130104F052FF9D
:1086C00000287FF470AF94F8623043F0040384F81C
:1086D000623068E7184A194919484FF4AC7314F02E
:1086E00069FB18480721A5FB000301FB05310EA318
:1086F000D3E90023FEF704FD13490246134814F0A2
:1087000059FB86F31188BFF36F8F0323184602DFEE
:108710006FF08B05B3E70E4821460EF0FFFD0EF01B
:10872000F7FEC2E700DEC0E700CA9A3B0000000087
:10873000A16D0300F15F0300E80A0400B80A040019
:10874000340A04008D49FD1A0C0C0400BC0A040014
:10875000116003002DE9F341002000F041FD0446C3
:1087600070B900214FF4C03017F0F4FB204814F02A
:1087700014FB204817F0F2F830B91F4814F00DFB35
:10878000002002B0BDE8F0811C4814F006FB194B34
:10879000D3F8088026464C21D8F80C301548984765
:1087A0001448D8F810306A462F219847009B73B1BF
:1087B0001E443C2596FBF5F52F1B002F0DDD0024F4
:1087C0000F48013414F0E9FAA742F9D12C460021F0
:1087D00040F6CD4017F0BEFBDDE7F7D00027641B65
:1087E00003E0084814F0D9FA0137BC42F9DCEDE7A0
:1087F0002C0D0400340404004D0D04006C0D040025
:108800009E0D0400A30D0400014B1B68184700BF18
:10881000C0020020014B1860704700BFC00200205A
:1088200030B5044685B00D4610220021684617F089
:10883000B0FC02238DF802302A46044B01932146F6
:10884000684613F0DBFE05B030BD00BF09880200AA
:1088500080B505460E461746984613F033FC03468E
:1088600001F03CFEDFF81890044649F8003042461B
:1088700030463946A84754F8090001F0CBFD00BF47
:10888000080000002DE9F047058B0446280717462D
:108890000CD501290CBF45F0100545F020052583B6
:1088A00087F31188BFF36F8FBDE8F087022905F0C9
:1088B000070540F09480204614F0A4FA052864D8F7
:1088C00001A353F820F000BFA1880200DF89020055
:1088D0008B8902004D8902006789020079890200B4
:1088E00001F007035A1F012A1FD8002221F00701B7
:1088F000062BD4F8008089B2C4E9002209D143468E
:1089000003E0628B013262831B68002BF9D141F0D6
:1089100002012183204614F075FA4FF00009002867
:108920006DD041F02001218369E0042B0AD121F0B0
:10893000070189B22183204614F064FA10B141F096
:10894000200121834FF00008C14658E02369D3F885
:108950000090238B23F0070343F0060323834FF09B
:10896000000846464BE02369D3F80490238B23F09C
:10897000070343F00403F1E72369D3F80890238B3E
:1089800023F0070343F00503E8E74FF00008C14672
:10899000E7E7012243F00803238387F31188BFF33D
:1089A0006F8F002A3BD1B8F1000F4AD1B9F1000F07
:1089B00002D02D492046C847EFF31187202383F3C7
:1089C0001288BFF36F8F238B23F008039BB223839E
:1089D000D9063FD523F01002228303F0070566690C
:1089E000218B002EBFF67CAF0023D4F8008021F04D
:1089F0000701C4E9003341F0010121839946238B2B
:108A000003F0070AAA4502D0A268002AC1D1B8F132
:108A1000000F02D1B9F1000FDAD00022BAE7A16845
:108A20000029C0D00D680029BDD04F68334652469A
:108A30002046B8471DB12B6829461D46F3E72B4653
:108A4000FAE74146334652462046D8F8008014F0F3
:108A500005FAA8E79A067FF523AF23F020022283C8
:108A600003F0070527E700BF89CE0300014B036031
:108A70000020704748070400F0B40D4B0D4E5F6AAC
:108A80000D4BB34203D36FF08500F0BC70475C68B8
:108A9000BC420AD31D6945B194F802C08488E4B28F
:108AA000A44502D12B46F0BC18472433E9E700BFA8
:108AB0008011002060090020180900202DE9F047EE
:108AC000144CDFF85480DFF8549005460E461746E4
:108AD000444503D36FF08500BDE8F0876268D9F89C
:108AE00024309A4213D3A3698BB1A9889078C9B274
:108AF000884205D13A4631462846BDE8F047184736
:108B00005279012A03D13A463146284698472434FF
:108B1000DEE700BF18090020600900208011002056
:108B20002DE9F0410B4CDFF8308005460E46174624
:108B3000444502D36FF0850009E063690BB9243422
:108B4000F6E73A463146284698470028F7D1BDE86F
:108B5000F08100BF180900206009002010B504460C
:108B600015F0D1FE10F1780F00D050B9054A20461B
:108B700014F0E4FAD2F8C43023EA0003C2F8C43097
:108B8000002010BD80110020024B00221A605A60A4
:108B9000704700BF3B12002070B50B4B0B4CA3423B
:108BA00001D3002070BD196A1E7F00220439D5B29E
:108BB000AE4201D82433F2E7013211F83250854237
:108BC000F5D10120EEE700BF180900206009002060
:108BD00073B58488E4B263060D468DF8074007D06C
:108BE0002046FFF7D9FF78B10D4B93F8BA0058B182
:108BF0000B4E204655B10FF099FCF3691BB10DF1F6
:108C0000070108209847012002B070BD0FF0B6FCA4
:108C1000F369002BF7D00DF107010920F2E700BF3F
:108C20008011002008B509480378C3F341130A33C3
:108C300050F823303BB100F1080200F110019847D1
:108C4000C043C00F08BD1846FCE700BF80110020DC
:108C500004282DE9F14FDFF8989004460F4616D00E
:108C600001282DD1DFF88C8098F8B93043B300F09B
:108C7000D9FD214D4D4520D2D5F820B04FF0000A46
:108C80002B7F5FFA8AF6B34204D82435F2E7FFF768
:108C90007BFFE7E70BEBC6060AF1010A307915F016
:108CA00032FE0246307914F049FAD8F8C430002A6E
:108CB00023EA0003C8F8C430E2DA002388F8B930A8
:108CC0000D4D4D4508D30B4B1B6A6BB13946204601
:108CD00001B0BDE8F04F1847EB681BB13A4621469A
:108CE000284698472435ECE701B0BDE8F08F00BF77
:108CF00060090020801100201809002073B58678D3
:108D00008DF80060037942791C4C43EA0223ADF8E8
:108D10000230C378304603F003038DF8043014F0BA
:108D20000DFAD4F8C430184205460BD0304600F096
:108D30005BFD3046FFF712FF17F06EF810B9962072
:108D400013F0A2F968460FF0CDFB10F1780F03D0B5
:108D500010B1002002B070BD9DF800000FF04AFC79
:108D600010F1780F01D00028F3D1D4F8C4300120DD
:108D70002B4384F8B900C4F8C430EBE7801100201D
:108D80002DE9F047A94EB36904460F4690466BB9EA
:108D9000237803F01F03012B00F0A280022B00F0C8
:108DA000078143B16FF01500BDE8F08798470028B0
:108DB000EED10020F8E794F900206178002A2FDA3C
:108DC000062910D00829D8F8002024D00029E9D19C
:108DD00001231370517096F8C3305B0043F0010318
:108DE0001370022320E16288100A011F0129054641
:108DF000D8D90728D6D8D1B2726A1478002CD1D02D
:108E00005678AE4203D1994200F0088101332244E2
:108E1000F3E7137808E196F8BA301370012303E101
:108E200001390829BED801A353F821F0C78E0200EA
:108E3000A58D0200D78E0200A58D0200518E020082
:108E4000A58D0200A58D0200A58D02005F8E020097
:108E50006088C0B20FF034FB0028AAD0A2E7638874
:108E60003BB1FF27756A0020B8462B786BB9002804
:108E700098D0FFF789FE638886F8BA30F369002B33
:108E800097D06B490320984793E76B78042B0DD05C
:108E9000052B0ED0022B06D16F796388BB4208BF29
:108EA00040F00100C0B22B781D44DEE795F8038046
:108EB000F9E76388BB42F6D1B8F1000FF3D1284639
:108EC000FFF71CFFEFE76388012B7FF46BAF0023F4
:108ED00086F8C3306DE76388012B7FF463AFF7E753
:108EE00096F8BA30002B3FF45DAFA388756A5FFA3D
:108EF00083FC2A46117800293FF454AF50780228A9
:108F000004D192F804E0E64500F294800A44F1E7C7
:108F10000A704A7038604CE7154499E00B2A7FF4D8
:108F200041AF00274FF0FF08C146BA4606E06B7814
:108F3000042B0FD0052B21D02B781D442B78002B30
:108F4000F5D1F36913B1514607209847002F7FF4FC
:108F500030AF27E795F80280A38895F803909845ED
:108F6000EAD163889945E7D1B8F1070F1DD806EB20
:108F70000803AA4683F8BB900127DDE7A388434591
:108F8000DAD16388DBB24B450AD0AF78384600F0BF
:108F90002BFC3846FFF7E2FDB0FA80F77F09CBE7FC
:108FA0002846FFF7ABFE0746C6E7AA460027C3E7F9
:108FB00094F900206378002A1ADA002B7FF4F2AECD
:108FC000A388DDB25B060AD02846FFF7E5FD00283E
:108FD0003FF4E8AE96F8BA30002B3FF4E3AED8F891
:108FE0000040284621460FF0E9FA00236370F8E6B6
:108FF000012B08D0032B7FF4D5AE6388002B7FF4C0
:10900000D1AE012103E0618800297FF4CBAE204678
:10901000FFF7DEFD00287FF4CCAEC3E60228C8F8D7
:1090200000207FF4F6AE53883B60C2E6801100203A
:109030003A12002094F9001062780029BFF66EAF52
:10904000D8F80010002A3FF463AF0A2A7FF4AAAED2
:109050002A78002A3FF4A6AE687804287FF45CAF33
:10906000A87883427FF458AF072B96BF9B19002343
:1090700093F8BB300B70D1E613B5164C237DF3B9D2
:10908000E268A168019201AB802014F065F8019AB2
:10909000A3681344A360E3689B1AE3606BB962B1F1
:1090A0002369E2889A4208DD94F8C82093FBF2F124
:1090B00002FB11330BB90123237502B010BD00234D
:1090C0001A4619468020237502B0BDE810400FF003
:1090D000BBBA00BF8011002030B585B00023024626
:1090E0000D460193002858D1002935D108220B469E
:1090F0000DEB020115F020FC002804DA80200FF0AF
:1091000015FA05B030BD2A4C029A2260039A6260BB
:1091100004F13802A2609DF90820BDF80E302575D3
:10912000002AC4E903550ADB802B04D980200FF004
:10913000FDF90020E3E713B1C4E90333E1E7FFF7EA
:1091400071FD0028DAD0E28823699A42D4BFE26038
:10915000E360FFF791FFD4E7154CD4E90215002D29
:1091600001AB04DC15F0E8FB0028CADAC6E72A46A2
:1091700015F0E2FB0028D9DB019AA3681344A36031
:10918000E3689B1AE360002BBBD104F13803A360B2
:10919000FFF748FD0028DCD1B0E78028B1D1044BAF
:1091A000DA68002AD5D11B7D002BD2D1A9E700BFF8
:1091B00080110020054B064A9A62064ADA62064A86
:1091C0001A63064A58629A61002070478011002095
:1091D000818D0200798A0200218B0200BD8A020083
:1091E0002DE9F3410446454D45484FF0FF334FF01C
:1091F000FF3212F003F995F8B830002B78D16E6A7F
:1092000076B900F0CBF8FFF7D5FF6E6A46B94FF09C
:10921000FF343B4812F064F9204602B0BDE8F0810B
:1092200038482C62E8610FF023FB0FF01BF9041E95
:10923000EFDB00F019FB041EEBDB7378012B5AD136
:10924000F379002B57D00026684685F8C830ADF872
:1092500002308DF804608DF800600FF043F9041EB1
:10926000D7DB802768468DF800700FF03BF9041EAD
:10927000CFDB254930460FF0E7FA041EC9DB22494F
:1092800038460FF0E1FA041EC3DB204CDFF8808083
:1092900044451AD300200FF0ADF9041EB9DBD5F810
:1092A000C430802043F00103C5F8C4300FF0A2F9A8
:1092B000041EAEDBD5F8C43043F48033C5F8C430A7
:1092C000012385F8B8300024A3E7276A0026227F0F
:1092D000F3B29A4201D82434DAE707EBC30257F815
:1092E000331010790FF0B0FA01360028EFD08EE776
:1092F0006FF077048DE76FF015048AE78011002086
:10930000E0060020518C0200D990020018090020CC
:109310006009002030B51F4B8BB005AA03F1100582
:1093200018685968144603C40833AB422246F7D183
:109330001B78237001AC10220021204616F029FF73
:1093400012220021144816F024FF1021204615F0A7
:1093500006FC00281ADD0828B8BF082009380E4A84
:109360000444002114F8013F0AA800EB131003F095
:109370000F0328336B44013110F8140C13F8143C1C
:1093800010700829537002F10202EBD102480BB0B1
:1093900030BD00BFA80D0400693200202DE9F04F58
:1093A000724B93F800B087B0BBF1000F03D0704848
:1093B00007B0BDE8F08F6E4C00264FF0011AB046A2
:1093C0003546B14623783BB96A4B02349C42F3D10F
:1093D000664A01231370EAE76378052B05D8DFE8B6
:1093E00003F08F07038F1F3BA14623781C44E9E756
:1093F000402304A88DF810B0ADF812308DF814B0E9
:1094000015F06DFA40B1082304A8ADF8123015F03C
:1094100066FA08B1ADF812B0BDF81230E371E4E7B6
:10942000E378002BE1D1A3786BB108F101085FFA72
:1094300088F8DAE76B689C4207D024354E4B9D4292
:10944000F8D30020B4E74D4DF8E7AB68002BECD023
:10945000414620469847E8E7002DF2D000222B7FB6
:109460009A42EED2296AA07801EBC2010B799842A8
:1094700044D10127E07800F003008DF81400207932
:1094800094F805C040EA0C20ADF8120094F90200EF
:109490000028FBB228DA07F110004FF0010C0CFA9B
:1094A00000F010EA0A0F26D143F080008DF810007A
:1094B00004A8CDE90213019215F011FADDE90121AA
:1094C000039BC0B99DF81020A27012F0800F18BF46
:1094D00010330A7118BFDBB24FF0010214BF9A407B
:1094E000BA404AEA020A80E70120B84010EA0A0FAF
:1094F00001D11846DAE70137102FBBD10132AEE7B0
:10950000032E1AD1FFF706FF074650B1FDF712FEF2
:10951000024630B11028A8BF10223946A01C16F010
:1095200011FE23786FF002011A19091B04EB530393
:10953000D14213D50136F6B257E7002EF1D1B9F179
:10954000000F3FF47EAFA4EB090389F80230C3F3A8
:10955000072389F8033089F80480EBE702F801BC9F
:1095600013F8010902F8020DE2E700BF683200209B
:10957000300800201509002060090020180900208B
:1095800010B5094B00211A461C78844204D15C684E
:1095900014B102EB811010BD0131042903F1400325
:1095A000F2D10020F7E700BF4C1200202DE9F34173
:1095B00050F8283C10F82C6C103304460AD103698B
:1095C00050F8202C980736D5D2B9590715D5002365
:1095D00044F8283C54F8283C10330BD054E9077564
:1095E00054F8148C16F018FC00284FD02E48214651
:1095F00016F0C8FB02B0BDE8F08143F0040323611C
:1096000054F8241C01AB304613F0A6FD10B16FF0E6
:109610001503DDE7019A54F8243C134444F8243C34
:1096200054F8203C9B1A44F8203C54F81C3C13444A
:1096300044F81C3CCEE754F8241C01AB30460FF034
:1096400079F80028E3D1019D54F8243C2B4444F8D8
:10965000243C54F8203C5B1B44F8203C54F81C3C50
:109660002B4444F81C3C002DB1D030460FF006F9D5
:10967000B5FBF0F303FB1055002DA8D154F8203CA6
:10968000002BA4D030460FF09DF8A3E744F8180C47
:10969000A4F1100011F0A6FF002DABD042463946D0
:1096A0003046A847A6E700BF600900204B1E012BEB
:1096B00073B506460D460FD8FFF762FF044668B93A
:1096C000012D09D101AB01220DF1030130460FF04C
:1096D00031F8019B002BF5D102B070BD16F09CFB58
:1096E00004F12C0108B1012D05D1084602B0BDE8F6
:1096F0007040FFF75BBF034802B0BDE8704016F052
:1097000041BB00BF600900202DE9F74F06460191DB
:109710001546984613F068FD044600285BD1EFF328
:10972000118A202383F31288BFF36F8FDFF8ACB068
:1097300000220023584611F089FF70B9DFF8A0908D
:10974000A70109EB8414636813F1100F14D101937E
:10975000584611F047FF019B06E00134042C0BF141
:10976000400BE5D16FF00B038AF31188BFF36F8FC5
:10977000184603B0BDE8F08F019B2061C4E90235B3
:109780000C9B63610D9BA36130466FF00F0309F8DA
:109790000760C4F83C8063600FF070F858B1304641
:1097A0000FF06CF8B5FBF0F303FB10551DB1E36B44
:1097B00043F00403E36318F0020F07D007F12C0114
:1097C0000848494416F0DEFA0023CDE730460EF093
:1097D000F9FF0346C8E76FF00F03C9E768120020DE
:1097E0004C1200206009002010B5EFF311842023F3
:1097F00083F31288BFF36F8FFFF7C2FE50B1436847
:10980000103307D16FF08B03436000F12C01044843
:1098100016F0B8FA84F31188BFF36F8F10BD00BF44
:1098200060090020F8B50E4C04252027EFF31186BF
:1098300087F31288BFF36F8F6368103307D16FF01F
:109840008B030848636004F12C0116F09BFA86F341
:109850001188BFF36F8F013D04F14004E6D1F8BDDC
:109860004C1200206009002038B5094C0025094938
:10987000204616F06BFA0122A4F1100011460135C2
:1098800016F0DCF9042D04F14004F0D1002038BDBD
:1098900078120020AD9502000169012381F84B3058
:1098A0000B6833B191F849301BB10248083116F00A
:1098B00069BA7047600900200169012381F84A30C4
:1098C0000B6833B191F848301BB10248083116F0EB
:1098D00059BA70476009002070B50569EFF3118629
:1098E000202383F31288BFF36F8FD5F8900013F015
:1098F000E2FB044686F31188BFF36F8F30B1044852
:109900000022002305F1180112F096F8204670BDE0
:109910006009002070B5012382F8483013680D46B5
:1099200014463BB192F84A3023B10E4802F10801C7
:1099300016F028FAD4F890305A89DB889A4205D17B
:109940007DB904F1180140F6CD4204E004F118019C
:10995000002DF8D00022BDE870400248002312F02C
:109960006BB870BD6009002070B50E468188044652
:10997000C9B21548154613F013FC10B394F9002032
:109980006378002A16DB202B04D0222B0ED06FF038
:1099900085000AE02B681A6840F8102C9A8820F895
:1099A0000C2C9B7900F80A3C002070BD638800F8FD
:1099B000093CF9E7212BEAD11038072328603360EE
:1099C000F2E76FF01200F0E75013002008B50146EF
:1099D000034813F0F3FB10B1012300F8073C08BD66
:1099E000501300200D4A03460021A0F848101068CB
:1099F000C3F8940090889279A3F8980083F89A208D
:109A000083F89C1083F89B10A3F89E1083F8A01095
:109A1000402203F14C0016F0BCBB00BF300704002D
:109A200010B504690023C4F8A8300C4BC4F8A40096
:109A3000596804F1A80269B9C3E9002204F10800D9
:109A4000074916F083F904F11800064916F0C5F924
:109A5000002010BD0A605A60F0E700BF50130020DC
:109A600013D20300319B020030B54FF4003342683B
:109A700005690D4C85B042F2A100CDE90103002338
:109A800085F89D30106AADF80C1000790A2201A902
:109A900013F062FB95F89D3023B9012015F042FFC9
:109AA000013CF7D105B030BDA186010073B5046952
:109AB0008DF80710002384F848302025EFF3118635
:109AC00085F31288BFF36F8F0122D4F890000DF157
:109AD000070113F0F0FA86F31188BFF36F8F0128A6
:109AE00010D016F099F9B0B10F4BBFF35B8F012284
:109AF00053E8001F002903D143E800200028F7D1D4
:109B0000BFF35B8F2122002304F11801074811F0F5
:109B100093FF02B070BD94F8A130002BE4D0002177
:109B2000212016F017FAC9E74C1300206009002025
:109B3000F0B5D0F88C305B681B6A1F7D85B0054698
:109B4000384613F051FB064650BB95F886303BB3C0
:109B5000A86F0146C38831F80A2F9B1A9BB2B3F550
:109B6000806F28BF4FF4806303AA13F055FA0446B0
:109B7000B0B18306A5F1180308BF00F1FF3485F8E2
:109B800030600193074B0399009322460223384625
:109B9000FFF7BAFDA86F224600F10A0113F072FA2E
:109BA00005B0F0BD1599020037B514460A1E0546EA
:109BB00021DDD4F88C0004F14C0113F07CFA012370
:109BC00084F8493023683BB194F84B3023B11148F5
:109BD00004F1080116F0D6F8D4F88C209388918906
:109BE00012695B1A9BB2D31A3F2B04D8012384F865
:109BF000A03003B030BD94F89E30002BF9D0064B56
:109C0000009301940123402204F14C012846FFF700
:109C10007BFDEEE760090020A99B020073B50D46AD
:109C200001461D4813F0B0FA044610B3691EA0F1B6
:109C3000A40605291DD8DFE801F01E1C031E2428F8
:109C400010F8061CA9B903685D68012300F8063CFA
:109C50002B6A3246187BFFF7A7FF14F85C2C42B939
:109C60002B6A187D0D4B0093019602231146FFF7D6
:109C70004BFD02B070BD304602B0BDE87040FFF74A
:109C8000B1BE012304F8053CF3E710F8053C002BB6
:109C9000EFD00023F6E700BF501300201599020013
:109CA00013B500240749084800944FF0FF334FF4E0
:109CB000806211F081FE0549034816F0B3F8204692
:109CC00002B010BDC032002060090020DA0D04008F
:109CD00010B5DFF824C086B04FF42814CDE904C4D1
:109CE0000824029404AC0194BDF82040009414F0C0
:109CF00009FC06B010BD00BF1800280008B50348D5
:109D0000034A0021121A13F0ACFB08BD60090020C1
:109D1000BC3200200748084A084908B5121A13F057
:109D2000A2FB0748074A0849BDE80840121A13F089
:109D30009ABB00BF0000002060090020201404002E
:109D400000000020000000202014040038B5054663
:109D50000C4699B1D1E901230F48096813F01DF8A9
:109D6000D4E90423E1680D4813F017F8E1690C48C1
:109D700013F013F8A1690B4813F00FF8012D05D16A
:109D8000EFF305810848103913F007F821462846FB
:109D9000BDE8384011F0B0B9E30D0400130E040023
:109DA000430E0400530E0400820E040030BFFFF780
:109DB000FDBF00BF2DE9F0410B4EDFF8308006EB10
:109DC0000807CC1B054632460949204616F0BAF969
:109DD000A01942460021083C16F0DBF92C6707F178
:109DE0000800BDE8F08100BF000000000400000092
:109DF0001C0704002DE9F843324D8046324889465D
:109E0000174612F0CAFFAB6ADE0622D52F4812F0C1
:109E1000C4FF1124AB6A1D0703D52D4812F0BDFF06
:109E20001224284DAB6A980715D52A4812F0B5FFC1
:109E30006E6BAB6A190642D52748314612F0ADFF6A
:109E4000B9F1000F03D0AB6A23F08003AB62132497
:109E500003E01024DEE76FF015061A4DAB6ADA074F
:109E600003D51E4812F099FF1424AB6A9B0603D554
:109E70001B4812F092FF1524124B9A6AD50602D4A1
:109E80009A6A90070AD55B68190507D5414630469E
:109E900000F076FA10B180F309880224094B9A6A1F
:109EA000920642BF5A6A22F400525A629A6A42F0FB
:109EB000FF029A6200233B702046BDE8F8836FF0F2
:109EC0001506C4E700ED00E0960E0400AD0E040098
:109ED000E10E0400F50E04000E0F0400250F04002F
:109EE000450F040010B51D4C1D4812F056FFA36A23
:109EF000990130D51B4812F050FF1E20A36ADA01E9
:109F000003D5194812F049FF1F20144CA36A1B0304
:109F100003D5164812F041FF2120A36A590303D547
:109F2000134812F03AFF22200C4CA36A9A0303D57F
:109F3000104812F032FF2320A36ADB0303D50E483A
:109F400012F02BFF2420054A936A6FEA03436FEA5D
:109F50001343936210BD1D20D0E700BF00ED00E069
:109F6000750F04008E0F0400A20F0400BD0F040043
:109F7000DC0F0400021004001D10040070B5244C16
:109F8000064624480D4612F008FFA36AD90435D5C9
:109F9000214812F002FF1720A36A1A0503D51F48B3
:109FA00012F0FBFE18201A4CA36A9B050FD51C4823
:109FB00012F0F3FEA16BA36A180407D5194812F03A
:109FC000ECFE1EB1A36A23F40043A3621920104CD7
:109FD000A36A590503D5144812F0DFFE1A20A36ABC
:109FE000DA050DD5114812F0D8FE1B20084A936AF5
:109FF00043F47F43936200232B7070BD1620CBE7A0
:10A00000A36A9B04F2D50A4812F0C7FE1C20EDE7B4
:10A0100000ED00E04910040060100400E10E0400AF
:10A02000721004008C100400A2100400BE10040082
:10A03000450F04002DE9F0415D4B5F688AB004468E
:10A04000C7F30806002585F31188BFF36F8F02F070
:10A050007F43B3F17F4F06D102F00C03082B13D1DD
:10A06000544812F09AFE00252C464FF00008F31ECB
:10A070008DF80780092B00F28C80DFE803F00A805E
:10A08000847C8A8A8A8A8A8810074CBF0C460125FC
:10A09000EBE74948464E12F080FE8DF80780F36AE0
:10A0A0009A0704D5454812F078FE00232AE0F36AA7
:10A0B000002B01DA4248F6E7F36A5B00F5D5414828
:10A0C00012F06BFE7369A26943F480737361BFF38E
:10A0D0004F8FBFF36F8F32F8023C726922F48072A7
:10A0E0007261BFF34F8FBFF36F8F03F47F42B2F5FE
:10A0F0005F4F27D1DBB2022B24D12168324812F006
:10A100004CFE23689DF80720CAB902AE04F120076F
:10A1100020686168324603C20834BC421646F7D153
:10A12000099A002D41D0C2F3080121B96FEA5222E9
:10A130006FEA4222099202A91846FFF707FE0AB009
:10A14000BDE8F0811A4B9A6AD2B232B10DF1070222
:10A1500001212046FFF74EFE0FE09A6A12F47F4F6E
:10A1600005D00DF107010120FFF708FF05E09B6A0C
:10A17000B3F5803F99D3FFF7B5FE0346C2E70DF173
:10A1800007020021E5E70DF107010020ECE70F4889
:10A1900089E70F4B0F49104817F4F87FA6F110021A
:10A1A00008BF194612F0F9FD7FE76FF30802C1E717
:10A1B00000ED00E005110400311104004911040014
:10A1C0006B1104007A1104009A110400B711040005
:10A1D000D7100400EC100400DC110400044B5A6991
:10A1E00042F010025A615A6922F008025A6170471F
:10A1F00000ED00E0EFF30880EFF3098101B572464E
:10A20000FFF718FF01BD00BF0B4880F3088810F06E
:10A210000FFB202080F3118808484FF40461401898
:10A2200080F30988EFF314800221084380F3148837
:10A23000BFF36F8F00F06CF8005300204045002002
:10A240001EF0040F0CBFEFF30880EFF30980816963
:10A2500011F8021C0229FFD001B5724613F005F96E
:10A2600001BD00BF40B2002807DB044A41090123B9
:10A2700000F01F00834042F82130704700E100E009
:10A2800040B200280CDB4309064900F01F002033D0
:10A290000122824041F82320BFF34F8FBFF36F8F1D
:10A2A000704700BF00E100E0054B420900F01F00CD
:10A2B00053F82220012303FA00F01040704700BF3A
:10A2C00000E100E040B20028A8BF00F1604001F1C9
:10A2D0000101B8BF064B4FEA4111ACBF00F5614028
:10A2E00000F00F00C9B2B4BF195480F800137047D2
:10A2F00014ED00E0044B054A23F07F039360BFF3A5
:10A300004F8FBFF36F8F70470070020000ED00E0C9
:10A3100008B5FFF7EFFF0B4AD2F8883023F470033B
:10A32000C2F88830EFF3148323F0040383F3148816
:10A33000BFF36F8FFFF7E2FCFFF7ECFC00F0B0F823
:10A3400010F0A2FF00ED00E042F8203C009B42F834
:10A350001C3C0A49019B42F8183C029B42F8143C01
:10A3600021F001014FF0807342F8043C42F8081CD0
:10A370000023203A02654367704700BF51880200FE
:10A38000094A0346906870B113F1160F006E05D0AC
:10A39000A0F14002934205D3834203D2814228BFF9
:10A3A00000207047002070471C32002008B5154679
:10A3B0000B4A0C4B9060026F1A600E4600F0A0F83A
:10A3C0002C4686F309880020034B9847204600213D
:10A3D00000220023014C20478FD403005188020043
:10A3E0001C32002058130020014B10221A617047C4
:10A3F00000ED00E0054B5A699B689A421FBF044A72
:10A40000536843F080535360704700BF1C320020F4
:10A4100000ED00E0084B9B6883420BD1EFF305830E
:10A4200043B1064B5A6842F080525A605A6A22F48D
:10A4300000425A6211F04CBE1C32002000ED00E0D8
:10A4400014498A684FF030001044EFF3098C80E81B
:10A45000F01F202080F31288BFF36F8F0E4F4FF054
:10A4600000664A698A603E60106F0C4C2060506F35
:10A470000023536780F3118804B5104600F040F8BC
:10A48000BDE8044002F1300090E8F01F8CF3098829
:10A49000704700001C32002004ED00E0581300203B
:10A4A000044800232021C2180133302B82F8001306
:10A4B000F9D1704700E100E008B5EFF30583064AE3
:10A4C000103B02EBC30152F8330049688847BDE8EE
:10A4D0000840FFF78FBF00BF500404000148006828
:10A4E0007047000058130020024B034A0348012123
:10A4F00000F076B80000042000000020D40704001B
:10A50000036E054A403B1360044B4021C2E901132E
:10A510001046012100F06EB85C13002000000B15FE
:10A52000084AC2F898000B6823F01F03034343F066
:10A530001003C2F89C308B6843F00103C2F8A030CE
:10A54000704700BF00ED00E02DE9F043DFF86080C8
:10A5500085B00E461F4604464FF00009B14523DA88
:10A560006068D8B13FB1411E08421BD11F2819D9DC
:10A570002368194216D12368019312F0ABFFA36838
:10A5800003430393D8F89050C5F30725D0B2013D9B
:10A59000A84207D801A9FFF7C3FF421C09F101092E
:10A5A0000C34DBE76FF01502104605B0BDE8F08310
:10A5B00000ED00E0044B0522C3F89420BFF34F8F59
:10A5C000BFF36F8F704700BF00ED00E0BFF35F8FF8
:10A5D000024B0022C3F89420704700BF00ED00E05A
:10A5E00010B5034C01232278FFF7AEFF207010BD99
:10A5F0007B32002008B50B4A00231278FFF7A4FF36
:10A6000010F1160F07D0084A0021D2F89030C3F39A
:10A610000723984200DB08BDC2F89800C2F8A010DA
:10A620000130F2E77B32002000ED00E02DE9F0433D
:10A630005A4B5B4DD3F890302C68C3F307239C42F0
:10A6400085B000F2A780FFF7C1FF00200C268442EE
:10A650001AD1544EDFF8449134706846FEF706FA7A
:10A66000514C524D80460027B84514D133784B49A0
:10A670000020D1F89020C2F307229342C0F28480D8
:10A68000FFF798FF002045E0696806FB0011FFF71F
:10A6900047FF0130DBE7009800EB07114FEA071C8A
:10A6A000CB682340B3F5000F4DD00AD8B3F5001F97
:10A6B00033D0B3F5800F3BD0B3F5801F13D00137F3
:10A6C000D2E7B3F1007F47D0B3F1805F4DD0B3F153
:10A6D000807FF4D150F80C3088684A6812F0FAFE96
:10A6E00040F0887009E050F80C3088684A6812F031
:10A6F000F1FE40F0885040F43020CDE90123039072
:10A70000D9F890303078C3F30723013B984234D90D
:10A710006FF0150005B0BDE8F08350F80C30886884
:10A720004A6812F0D7FE40F0885040F40020E4E779
:10A7300050F80C3088684A6812F0CCFE40F0C060D7
:10A7400040F40030D9E750F80C3088684A6812F0BD
:10A75000C1FE40F08270D0E750F80C3088684A683B
:10A7600012F0B8FE40F48020C7E750F80C3088683B
:10A770004A6812F0AFFE2843BFE701A9FFF7D0FEF9
:10A780003378013333709AE7C1F89830C1F8A000EC
:10A7900001336EE74FF0FF30BCE700BF00ED00E093
:10A7A000E00704007B3200200000F0FF00000211EF
:10A7B00008B5024B1B689847002008BD68130020AD
:10A7C000034B044A1860937843F002039370704778
:10A7D000681300205C03002008B50649064821F0F4
:10A7E0000701C1F1005202F5802212F093FA002015
:10A7F00008BD00BF2F7400206C13002070B54169A4
:10A80000867A0B4D044659B1437ADB0706D42423DC
:10A8100003FB0653DB691B689B6898470023636151
:10A820002420214600FB0650BDE8704015F0FCB91D
:10A8300034070020024B242202FB0030704700BF87
:10A8400034070020827A064B242101FB02331A6A66
:10A850001B7D1B33801A23F00303B0FBF3F070471A
:10A860003407002038B5074B827A242404FB0233D6
:10A87000DB69D3E901240C601568FFF7E3FF04FBF3
:10A88000005038BD340700202DE9F04385B005465F
:10A890006846039190461C4615F007FCDDE9006709
:10A8A000EFF31189202383F31288BFF36F8F6B8A34
:10A8B000002B41D02A8A9A4225D90022002328461B
:10A8C00010F05EFE0446F0B189F31188BFF36F8F7C
:10A8D000039B002B41D032463B46684615F00AFCEC
:10A8E000A27A264B242101FB02332046DB691B6838
:10A8F00003A91D68DDE90023A847606170BB2046FD
:10A90000FFF77CFF24E0698A4B1E6B8289F3118874
:10A91000BFF36F8F2B7D2A8A2C6A1B3323F003032E
:10A92000521A02FB0344154B154AEB1A9B10534372
:10A93000A3722B7DE372CBE789F31188BFF36F8F8E
:10A9400023464246284610F01BFE04460028BFD18D
:10A950000024204605B0BDE8F08363610123002593
:10A960002381039B6382E27A6560294604F1180023
:10A9700015F00FFC63692582E360EAE734070020E5
:10A98000398EE33870B50D4C242500B970BD037ABB
:10A990004668002BFAD0013BDBB20372002BF5D1E5
:10A9A000C3604360837A05FB03439B6913B19847F7
:10A9B0003046EAE7FFF722FFFAE700BF340700203E
:10A9C0000C4B0122C3F840254FF080434FF08051DB
:10A9D000C3F87825D1F83001082805D1D1F8341111
:10A9E000022908BFC3F838260122C3F880250020B9
:10A9F000704700BF00E0014048B1054B054A1B68A5
:10AA0000B3FBF2F35843044B43F00103184770477C
:10AA10004806002040420F004007040008B5054AE0
:10AA2000054B136010463C2353600FF0D7FF002006
:10AA300008BD00BF781300203FC00F0030B5037879
:10AA4000012B11D0022B21D06BB9154B0A4603F113
:10AA5000100453F8045B42F8045BA342F9D1438825
:10AA60001A0A8A70CB7030BD0D4B0A4603F11004F0
:10AA700053F8045B42F8045BA342F9D143681A0C13
:10AA8000180E4A700870C3F30722EAE700F11003BA
:10AA9000013913F8012901F8012F9842F9D1E2E7B1
:10AAA000D213040010B512F014FE15F0B5F90446E7
:10AAB00008B911F025FABFF35B8F064B1B68BFF393
:10AAC0005B8F0BB10A2098471CB9BDE8104011F00C
:10AAD0002BBA10BD8013002038B50446084812F088
:10AAE00014FD054648B1631EDBB21F2B96BF054A15
:10AAF0000021D15C0C3012F058FD284638BD00BF53
:10AB0000E8070020E21304000F2810B50CD80D2828
:10AB10000CD90A4812F0F9FC044618B104210C3093
:10AB200012F043FD204610BD1328F2D009B10448AD
:10AB3000F0E7BDE810400220FFF7CEBF0C08002070
:10AB40007C07002010B586B003AB002400930749B2
:10AB5000074805944FF0FF334FF48062CDE903447A
:10AB600010F02AFF204606B010BD00BF00370020BD
:10AB7000000A00202DE9F047884616468246002844
:10AB800070D0BFF35B8FDFF8E090002359E8004FEF
:10AB900049E80032002AF9D1BFF35B8F002C61D065
:10ABA0002046FFF74FFE314D0C2303FB0050274694
:10ABB0004388534511D0BFF35B8F59E8003F49E804
:10ABC0000072002AF9D1BFF35B8F002B4AD01F46D9
:10ABD0003846BDE8F047FFF7D5BEA64208D020466C
:10ABE00012F08EFC328AF16804F10C0012F0D4FCF1
:10ABF0002046FFF727FE0C2606FB00504368ABB14A
:10AC0000B8F1000F12D12046FFF71CFE06FB0050E2
:10AC100001214268536803F01F00814010685B09FE
:10AC200000EB8300137ACBB112F0AFFD2046FFF7A3
:10AC300009FE0C2606FB00508368002BC8D0204676
:10AC4000FFF700FE704305F800802046FFF7FAFD8D
:10AC500006FB0055A86810F0C5FCB9E7C94312F01F
:10AC6000A3FDE3E7BDE8F0879002002084130020F5
:10AC7000094BBFF35B8F1A68BFF35B8F02F00B02C7
:10AC8000BFF35B8F53E8001F43E800200028F9D191
:10AC9000BFF35B8F704700BF34020020F8B5024657
:10ACA0000B46104812F031FC0446C0B104210C30B0
:10ACB00012F061FC2046FFF7C5FD0B4D0C2707FB8A
:10ACC0000050002646802046FFF7BCFD07FB0050E1
:10ACD00086602046FFF7B6FD07FB00556E602046F4
:10ACE000F8BD00BFC407002084130020034B0146B9
:10ACF000D3F84C0182689268104700BF60010020C1
:10AD00000148042112F041BD340200200048704780
:10AD10007E1204000149024815F034B8FC030020FB
:10AD2000000A002070B505460C4639B1CB684A6967
:10AD30009B1A032B0ED86FF0150509E04FF0FF307A
:10AD40004FF0FF31FFF7AAFF044618B96FF068050E
:10AD5000284670BD2046FFF775FD144B0C2202FB00
:10AD60000033A618032130465D8012F026FC0580D2
:10AD7000238A033B83700121304612F026FC40F603
:10AD800035439D4209D12046FFF7B0FF0546002814
:10AD9000DED02046FFF7F6FDDAE70548214614F03D
:10ADA00038FF0025FFF7B6FFD2E700BF841300206D
:10ADB0009C0200202DE9F043064685B017460C465C
:10ADC00069B94FF0FF304FF0FF31FFF767FF0446DE
:10ADD00058B96FF06805284605B0BDE8F083887A59
:10ADE000FFF728FD304B834258D1012200216846ED
:10ADF00014F024FF2046FFF725FDDFF8B0900C2368
:10AE000003FB0090C0F808D0204612F082FB0146F8
:10AE10003046FFF787FF054618B12046FFF7B2FD21
:10AE2000D9E74FF4A0220023684610F00FFC8046BB
:10AE300090B14FF4F1731E4A1E491F4811F0BAFF3A
:10AE40001E484246314611F0B5FF85F31188BFF325
:10AE50006F8F0323184602DF2046FFF7F3FC0C2315
:10AE6000584319F80060AEB12046093EFFF78AFD4D
:10AE7000092E0CD8DFE806F0050B0B08150B0B0BA1
:10AE80000B126FF06E05A6E76FF00C05A3E76FF0ED
:10AE90000405A0E7002FC0D03C609CE76FF01505CB
:10AEA00099E76FF00B0596E7C40700208413002094
:10AEB000FF11040082120400611204008B120400CE
:10AEC000F7B50022114640F60340FFF773FF044632
:10AED000002853D1FFF7CCFE214601AA41F203001E
:10AEE000FFF768FF0446002848D1019ABD4DD1689C
:10AEF000D1F80100D1F8051005F1780303C310461D
:10AF0000FFF740FD214601AA41F20100FFF752FF81
:10AF1000044698BB0198C3685A7885F870205A880F
:10AF2000A5F872201A7985F87120B3F80720A5F8E2
:10AF30007420B3F80530A5F87630FFF723FD2146DD
:10AF400001AA41F20200FFF735FF0446B0B9019FA4
:10AF5000FA6805F18006531C413218685968344676
:10AF600003C4083393422646F7D13846FFF70AFD5B
:10AF700095F87C305E0604D46FF01204204603B0CE
:10AF8000F0BD01AA002142F20300FFF713FF0446BF
:10AF90000028F3D1019B944EDA68D2F80100D2F870
:10AFA000051003C61846FFF7EDFC214601AA42F240
:10AFB0000200FFF7FFFE04460028DFD1019CE36892
:10AFC000B3F8012091B249B1D97839B1A5F8FC2084
:10AFD000DA78114606F1200014F030FE2046FFF723
:10AFE000D1FC95F87C601F2316F02006A5F81031DF
:10AFF00019D14FF0FF304FF0FF31FFF74FFE0446FD
:10B00000002800F0EC8002210C3012F0BFFA01237E
:10B01000037046702146324640F66D40FFF7CAFE87
:10B0200004460028AAD195F89C301C0712D501AA25
:10B03000002142F21C00FFF7BDFE044600289DD10E
:10B040000198C368D3F80120D3F80530C5E9382347
:10B05000FFF798FC4FF0FF304FF0FF31FFF71EFE77
:10B060000446002800F0BB8008210C3012F08EFA54
:10B0700095F8D83095F8D92013F0020F14BF2F237C
:10B080000F2312F0090F18BF43F40063002203706E
:10B090001B0A43708270C270027142718271C27168
:10B0A000214642F20100FFF785FE044600287FF4A6
:10B0B00065AF95F87C30B5F8FC1098067BD4C9B91B
:10B0C00001AA41F20500FFF775FE044600287FF44F
:10B0D00055AFB5F8FC30019C4BB9E368B3F80120DB
:10B0E000A5F8FC209A884148114614F0A7FD204697
:10B0F000FFF748FC4FF0FF304FF0FF31FFF7CEFD78
:10B10000044600286BD008210C3012F03FFA1023BF
:10B1100003708823437002230022C37020238270AF
:10B12000027142718271C371214640F60140FFF7FE
:10B1300041FE044600287FF421AF014601AA4FF6E4
:10B140000140FFF737FE044620BB0198FFF71AFCC9
:10B15000214601AA4FF60240FFF72CFE0446C8B96B
:10B160000198C368B3F80130A5F8C130FFF70AFCB5
:10B1700095F8C1305A070DD501AA21464FF6034074
:10B18000FFF718FE30B90198C3685B7885F8C030C6
:10B19000FFF7F8FBEB799BB900F042FA0446002870
:10B1A0007FF4ECAE00F0BCFD044600287FF4E6AE70
:10B1B000FFF7A6FDE2E600299CD16FF00404DDE66E
:10B1C0002E78002EE8D195F8C1309B0624D54FF09B
:10B1D000FF304FF0FF31FFF761FD044640B96FF0DB
:10B1E0006804CBE6600100203802002060020020E5
:10B1F00006210C3012F0CAF9D5F801300360084B73
:10B200009B888380214632464FF60640FFF7D2FDE9
:10B2100004460028C0D0B1E66FF08504AEE600BF5A
:10B220006101002010B5FFF74BFE034B1B6813B103
:10B23000BDE81040184710BD9C13002038B510F031
:10B240005FFE284DD5F83C31002B48D0002200236A
:10B2500005F5907010F0FAF9002840D10022002383
:10B2600005F59E7010F08CF9044668B91E4A1F4916
:10B270001F4840F6AA4311F09DFD84F31188BFF3E7
:10B280006F8F0323184602DFD5F8300120B1FFF796
:10B2900079FB0023C5F83031204612F03AF9C5F8A1
:10B2A00030012046FFF722FD98B1124810F09AF9BC
:10B2B0002046FFF7C7FA104B0C2202FB00301F217B
:10B2C00040882246FFF756FC2046FFF75BFBFFF75E
:10B2D00021FDFFF71FFDBDE8384010F025BE00F04E
:10B2E00077FBF8E760010020FF110400D012040092
:10B2F00061120400800200208413002070B54FF01A
:10B30000FF320D464FF0FF3300210646FFF7FCFBEE
:10B31000044660B90A4A0B490B481A2311F04AFD4A
:10B3200084F31188BFF36F8F0323184602DF0221D5
:10B3300004F10C0012F02AF906704570204670BD29
:10B34000D4120400D012040061120400F8B50A4DB2
:10B35000EF7906460024E3B29F4202D86FF0010065
:10B3600007E02946304612F06FFA0735631C08B132
:10B370002046F8BD1C46EEE76001002070B5144E73
:10B3800006223146044614F00CFFE0B14FF0FF30C6
:10B390004FF0FF31FFF782FC0546A8B10622214697
:10B3A0000C3012F0F9F80022294642F20500FFF7AE
:10B3B00001FD40B93346226843F86929A288B2806A
:10B3C000012283F8682070BD6FF06800FBE700BFC2
:10B3D000C901002073B504460D4689B117492846B6
:10B3E00012F032FA60B9164A2968C4EBC404A318F3
:10B3F0001151AA889A80AA799A71002002B070BD72
:10B400006E46304612F057F90028F7D13046FFF764
:10B410009DFF0028F5DA0A4A0098B179C4EBC4040C
:10B42000A3181051B08898809971002DE5D0125959
:10B430002A609A88AA809B79AB71DEE7BF1304006B
:10B440006001002070B5044611B16FF0150070BDA9
:10B45000F0B1234912F0F8F9D0B92046FFF776FF92
:10B46000002837DA237863B91E4AD37993BB206862
:10B470001060A179A088917101219080D171184646
:10B48000E5E7012BE1D1A37903F0C003C02BDCD1A8
:10B49000144DEB79012B20D0BFF35B8FD5F8D4305E
:10B4A000BFF35B8FDB0707D4002CCED00C492046BE
:10B4B00012F0CAF90028C8D1EE792146731C304633
:10B4C000EB71FFF787FF08B93046C0E7EB79013B26
:10B4D000EB71BCE76FF07700B9E76FF00B00B6E7F0
:10B4E000BF130400600100202DE9F3410446D8B1E8
:10B4F00001AA002141F20900FFF75CFC054698B95A
:10B50000019E1249D6F80C8008F101070622384640
:10B5100014F047FE28B10E490622384614F041FEC9
:10B5200030B93046FFF72EFA002002B0BDE8F081B6
:10B53000D8F80130C4F80130BB88A4F80530304693
:10B540002570FFF71FFA0120EFE700BFCC130400BE
:10B55000C613040007B56846FFF7C6FF044BD87151
:10B5600018B169460020FFF735FF03B05DF804FB12
:10B5700060010020F0B5294DEE7989B0002E46D14A
:10B5800095F8C230DB0722D56A4631464FF60940AE
:10B59000FFF710FCD8B9DDF800C0DCF80C40637888
:10B5A000012B1E4628BF012673B1A31C02AA123428
:10B5B00018685968174603C70833A3423A46F7D1BB
:10B5C000186838609B88BB806046FFF7DBF9EE7136
:10B5D000002416260127EB79E0B2984202D3B3B1DA
:10B5E000002012E008AB06FB0033694653F8182C24
:10B5F00033F8143CCDF80120ADF805308DF800701B
:10B60000FFF7E8FE01340028E5D009B0F0BD0021C5
:10B61000084609B0BDE8F040FFF714BF6001002004
:10B6200010B50A4CE3790BB1002010BDFFF792FF73
:10B630000028FAD1E379002BF6D1FFF79BFF002811
:10B64000F3D1601CBDE81040FFF798BE60010020F8
:10B6500070B50C4B1C68054644B154F8143C143CBE
:10B6600013B1697A284698476469F5E7064C074E96
:10B67000B44200D370BD236813B1697A2846984755
:10B680001834F5E7D41300200C0704000C0704005D
:10B6900010B50446FFF7D6F8044901EB0011204627
:10B6A00012F054F8BDE81040FFF734BBA01300209F
:10B6B00070B5D1E9015600220446C1E901220648CD
:10B6C00014F0A7FA3DB1314620462B466FF06D02CB
:10B6D000BDE87040184770BD1407002070B50546DE
:10B6E0000F48002200230FF0B1FFB8B90D4B1C68C2
:10B6F00034B154F80C3C143C03B198476469F7E743
:10B70000094C0A4EB44204D32846BDE8704010F0FC
:10B710004DB9A36803B198471834F3E770BD00BF73
:10B7200004070020D41300200C0704000C070400B9
:10B730002DE9F041044620270025EFF3118287F31D
:10B740001288BFF36F8FE16929B1206A0B68E3614A
:10B75000814208BF236282F31188BFF36F8F71B1FA
:10B76000D1E901680748C1E9015514F052FA1EB148
:10B77000002241462046B047FFF7CCFADDE7BDE89E
:10B78000F08100BF1407002030B50446FEF7A6FE86
:10B790000D4A0D460D490858D2F88010884289B0EC
:10B7A00005D1204609B0BDE83040FFF7C1BF2434C1
:10B7B0002146104614F0E6FA1DB16946204614F001
:10B7C000F1FA09B030BD00BF4010002008000000B1
:10B7D00008B500F1C803BFF35B8F53E8002F013AAF
:10B7E00043E800210029F8D1BFF35B8FAAB90B4BC6
:10B7F000984212D303F1D00290420ED2C01AD02345
:10B80000B0FBF3F203FB120038B905480FF0EAFE73
:10B81000BDE80840034810F0C9B808BDA00A0020E0
:10B82000040700200C04002010B5044612F038F87C
:10B8300010F066FB104AD2F8141104F1BC0361B990
:10B84000C4F8BC10D2F8181159B9C2E9453310F048
:10B850006BFBBDE81040FFF75DBA8B4205D009686D
:10B86000EDE70B60C2F81831F1E710F05DFB204600
:10B87000FFF7AEFFEDE700BF6001002070B5857AED
:10B880008D42044613D081720DB912F009F8A37AE3
:10B89000012B09D1344D05F580766169002950D11D
:10B8A000BDE87040FFF736BA072B01D0ABB170BDD1
:10B8B0000023C4E90D33E378012BF8D1A378012BE1
:10B8C00004BF032384F8983004F140004FF4203281
:10B8D000BDE87040002310F0D9B8082DE7D801A3C7
:10B8E00053F825F0AFB8020009B902002FB90200E1
:10B8F00039B9020039B9020039B902002FB9020082
:10B90000AFB80200AFB8020004F14005284614F0B9
:10B9100070FA20460121FFF737FF204611F0B7FFEC
:10B9200028460022BDE87040002310F0E3B8637A97
:10B9300013B12046FFF78CFE2046BDE87040FFF7AC
:10B9400047BFA2690B686361914208BFA3612046AB
:10B95000FFF7AEFEB5F8FC30002B14BF30460020D8
:10B960000FF040FE99E700BF60010020034BC01AB2
:10B97000034B00115843C0B2704700BFA00A00201B
:10B98000C54EECC470B51C46144305460E4608D09F
:10B99000FEF7A4FD0B4908580B49D1F880108842E6
:10B9A00001D1002213460949002D14BF284608463C
:10B9B00011F0ABFD044618B1711D0C3011F0DBFD28
:10B9C000204670BD08000000401000203407002011
:10B9D0002DE9F04F87B0002303930593AD4B5A8AAE
:10B9E00032B1AD4DD5F8144134B907B0BDE8F08F90
:10B9F0001B68002BF5D1F8E754F8BC3903B1BC3B08
:10BA0000A649002601E01C461346B5F8FC20002A92
:10BA100000F03D81D5F808214AB904F1BC06002B9D
:10BA2000E3D0D3F8BC20002AEDD0BC3AEBE70A689B
:10BA3000002AF2D0D4F8A820002AEED0D4F8AC2006
:10BA4000002AEAD0D4F8B020002AE6D0A37A072B47
:10BA500068D120469047002864D0BFF35B8FD4F8AC
:10BA6000C030BFF35B8F022B5CDC204611F018FF67
:10BA700004460028B9D0A37A072B40F0FF80D4F801
:10BA8000A830B5F8FC1004AA2046984707460028BD
:10BA900000F0D480B5F8FC20049B9A4206D30146FE
:10BAA000D4F8AC6005AB03AA2046B047059B0193D0
:10BAB0003B8ADDF80C90002B00F0E3803846DDF87F
:10BAC00010A011F059FE8046002840F0DD80B5F846
:10BAD000FC30DFF8CCB1002B14BF58460020002208
:10BAE00000230FF0B3FD78B96C48002200230FF05B
:10BAF00047FD064600283BD1B5F8FC30002B18BFA7
:10BB00005E4630460FF06EFD6FF00B053846FEF7CF
:10BB100039FFB9F1000F00F08D8001992A462046C7
:10BB2000C84787E0D4F8BC3004F1BC02C6B9D5F8E8
:10BB30001811C5F814318A4201D1C5F81831002313
:10BB4000C4F8BC302046D4F8B0309847002892D0D2
:10BB5000A37A072B40F092802046FFF765FE8AE724
:10BB60003360D5F818319A4208BFC5F81861E6E786
:10BB7000019BC0F804908360B5F8FCB04548DA45F5
:10BB80004FF000024FF000034FF0000198BF1FFA82
:10BB90008AFBFEF779FE814650B1FEF753FE414B1A
:10BBA0005A4603EB00133946484611F0AAFD814678
:10BBB000B5F8FC3094F8C4709A458CBF4FF001087A
:10BBC000023784F8C48098BFFFB204F1C008BFF305
:10BBD0005B8F58E8003F013348E80032002AF8D173
:10BBE000BFF35B8F00233360A3695BBBC4E90566C9
:10BBF000A378012B29D0BFF35B8F58E8003F013BAE
:10BC000048E80032002AF8D1BFF35B8F314604F1D7
:10BC1000140011F021FE4846FEF7B4FE20463146DE
:10BC2000FFF746FDB5F8FC301D48002B08BF00208B
:10BC30000FF0D8FC1321204611F04EFE2046FFF7EE
:10BC4000C7FDD2E61E60A661D2E709F10C0A042105
:10BC5000504611F0B2FC238807F0FD0743EA073392
:10BC60000380B9F81030043B43800221504611F0A4
:10BC7000ACFC4846FFF73AF80028BCD1FFF74AF879
:10BC8000DCE76FF0790541E76FF004053EE7936864
:10BC9000FFDE00BFA0070020600100201407002085
:10BCA00060020020A013002070B505460A480E4629
:10BCB00011F0F6FD044620B18378012B04D0FFF784
:10BCC00087FD0024204670BD3246294611F024FE2F
:10BCD0000028F7D12046F2E7A00A0020F8B5054673
:10BCE0000E480E46174611F0DBFD044620B183785E
:10BCF000012B03D0FFF76CFD00240DE036B1324676
:10BD0000294611F009FE08B92046F3E7A37ABB42A1
:10BD1000FAD1237AAB42F7D12046F8BDA00A002021
:10BD200010B50E4813F047FF0D490C4813F071FF92
:10BD30000C490A4813F06DFF0B49084813F069FFDE
:10BD400012F00EFB01F056FB044628B912F0AEFDCE
:10BD5000044608B911F0A4FE204610BD14070020C7
:10BD6000B0130020BC130020C8130020044B186837
:10BD700018B9044A5A600B6070476FF00B007047A7
:10BD8000DC1300208408040070B5044652EA030066
:10BD900008D0FEF7A3FB074D074ED5F8805030586A
:10BDA000854201D10022134620460431BDE870408F
:10BDB000FFF7E8BD401000200800000023281FD82E
:10BDC0001A2804D8431E182B0ED906207047A0F15C
:10BDD0001B03082B1ED8DFE803F0051D1B231D19CC
:10BDE000251D0500032070470F4A012383401A4098
:10BDF000C2B90E4A1A40002A0CBF06200120704723
:10BE000000F07F03522B05D10020704701207047BE
:10BE10000520704710F0400F14BF00200620704727
:10BE20000420704702207047AAAA8A02545545018F
:10BE30002DE9F74F054608468946FEF703FD274FD3
:10BE4000D9F80C6018234343FA180446916801910D
:10BE5000BFF35B8FE86CBFF35B8FC1073BD5D9F8AD
:10BE60000C00007810710022FA503378D22B0ED1DA
:10BE70002B684946186812F016FD40B101904846FB
:10BE8000FEF780FD019B184603B0BDE8F08F182334
:10BE90005C4307EB040800231A464946281DD9F8DD
:10BEA0000C60D9F814B0B9F810A0C8F8085011F017
:10BEB0008AFD03460028E6D0D9F81420A9F810A07E
:10BEC000A6EB0B0612FA86F6019AC9F80C603851F7
:10BED000C8F80820D7E76FF01503D4E72C1400202A
:10BEE00070B50E46438D418B8B4202F1010228BF93
:10BEF0000B469A42054632D83046FFF75FFF6FF097
:10BF00001403034113F0010310D0FEF7E7FA154BB9
:10BF10001958154BD3F8803099421ED0134B1B682B
:10BF20005A1A18BF4FF0FF32134601E04FF4702247
:10BF30000F480021FFF728FF044660B1FEF782FC9E
:10BF40000C4B182202FB0033012104F10C009D6010
:10BF500011F01CFB0670204670BD0022E4E70024AF
:10BF6000F9E700BF08000000401000207414002012
:10BF7000580700202C140020011F014813F04ABD6F
:10BF80008C060020F8B54FF47022074600230D48B8
:10BF90000E4611F0BAFA044690B100F10C050921E1
:10BFA000284611F0E8FA2046FEF74CFC064B182212
:10BFB00002FB0033012128469F6011F0E7FA06706A
:10BFC0002046F8BD580700202C14002008B5EFF3D8
:10BFD0001181202383F31288BFF36F8F0023036046
:10BFE0000C4B5A689AB9C3E9000081F31188BFF37A
:10BFF0006F8F09480FF0DAFC002807DA002383F37B
:10C000001188BFF36F8F0323184602DF08BD10604D
:10C010005860EAE724140020440400207FB5CB6870
:10C020001D8804468DB15E8876B1AE420DD31022D4
:10C030000021684614F0ADF805212046FFF7A2FF65
:10C04000019058B9112007E0354601232A46042102
:10C05000204611F0B6FE002004B070BD6B4631469C
:10C06000084A0094284611F0C9FEDDE9011323B9FE
:10C070000846FEF787FC0A23E8E7204611F0CBFDCF
:10C08000E9E700BF33DC030010B500F148030446C4
:10C09000BFF35B8F53E8001F41F0010143E800123A
:10C0A000002AF7D1BFF35B8F201F11F01EFE04F1B1
:10C0B0006400044913F091FE2068BDE8104001F0CF
:10C0C0005FB900BF65E30300F0B51D46036885B0A6
:10C0D00004460E4618680121174612F0A4FB38B931
:10C0E00004F14C0011F0AEFE50BB122005B0F0BDC3
:10C0F00065B310220021684614F04BF839462046FB
:10C10000FFF740FF029018B3BDF82830ADF80430B7
:10C1100001238DF80C3029466B460E4A00942846C0
:10C1200011F06CFE9DF80C3002995BB10846FEF7E9
:10C1300029FC9DF80C302A463146204611F041FE7C
:10C140000020D3E7204611F066FDF9E70120CDE796
:10C150001120CBE7E1E103002DE9FF41036804462C
:10C160000D461868012112F05EFB40B904F14C0045
:10C1700011F068FEA0BB122004B0BDE8F0811022CF
:10C180000021684614F005F80F212046FFF7FAFE5B
:10C19000029038B3009405F10C074FF001082B8A88
:10C1A000012B04D80299204611F035FD18E03846DD
:10C1B00011F02CFA6B460C4A8DF80C8001460646AD
:10C1C00011F01CFE9DF80C30002BE8D00298FEF711
:10C1D000D9FB9DF80C3032460E21204611F0F1FDBE
:10C1E0000020C9E71120C7E7E1E103002DE9FF4185
:10C1F000036804460D461868012112F014FB40B98B
:10C2000004F14C0011F01EFEA0BB122004B0BDE8EA
:10C21000F08110220021684613F0BBFF2121204647
:10C22000FFF7B0FE029038B3009405F10C074FF011
:10C2300001082B8A012B04D80299204611F0EBFC4F
:10C2400018E0384611F0E2F96B460C4A8DF80C8084
:10C250000146064611F0D2FD9DF80C30002BE8D0C7
:10C260000298FEF78FFB9DF80C30324620212046C5
:10C2700011F0A7FD0020C9E71120C7E75DE1030029
:10C280002DE9F0430F4687B00446062107F10C0064
:10C2900011F0ACF90588EDB1B0F80280B8F1000FEB
:10C2A00017D0A84516D3002382888DF800308DF86A
:10C2B000043001A94FF420536846D7F80C90ADF82C
:10C2C0000220ADF8063011F0A9F9064660B10A2344
:10C2D00001E0454601232A460621204611F071FD62
:10C2E000002007B0BDE8F0830146142201A83F7C7E
:10C2F00013F04FFF07212046FFF744FE0290D8B10C
:10C300000A238DF81530414601AB0C4A01942846AA
:10C31000CDE903698DF8147011F070FD9DF81530AA
:10C3200002992BB10846FEF72DFB9DF81530D2E798
:10C33000204611F070FCD3E71120D2E711DF030093
:10C340002DE9F0410E8A043EF6B2022E04468CB06E
:10C35000084601D0102E76D104210C3011F046F998
:10C360000DF1040805884788011D3246404611F04A
:10C3700082F9002869D085B377B3BD422DD86068B3
:10C38000012112F050FA064678BB8DF8000042F603
:10C39000020369464046ADF8023011F03FF920B380
:10C3A00042F6030306A940468DF81860ADF81A302E
:10C3B00011F034F9C8B1012D03D14FF6FF739F423C
:10C3C00013D004F14C0011F03DFD002814BF0020F3
:10C3D00012200CB0BDE8F0813D4601232A46082119
:10C3E000204611F0EEFC0020F3E7182200210DEBAF
:10C3F000020013F0CEFE09212046FFF7C3FD08908E
:10C40000F8B101210C30CDE9064811F0BFF8002346
:10C41000099003700A238DF82C30394606AB0C4A7C
:10C42000284611F0EBFC9DF82C3008992BB10846FA
:10C43000FEF7A8FA9DF82C30D0E7204611F0EBFB70
:10C44000D1E71120C5E70420C3E70E20C1E700BFF4
:10C4500051C702002DE9F0410E8A043EF6B2022EC9
:10C4600004468CB0084601D0102E64D104210C3053
:10C4700011F0BCF80DF1080805884788011D324607
:10C48000404611F0F8F8002857D0A5B300268FB326
:10C49000BD4230D84FF4205301A940468DF80460C6
:10C4A000ADF8063011F0BAF848BB1422002107A8F5
:10C4B00013F06FFE11212046FFF764FD099000285C
:10C4C00037D001210C30CDE9074811F05FF8002387
:10C4D0000A90394603701A4A0B93284607AB11F0AD
:10C4E0008DFCDDE909131B78FBB90846FEF74AFA13
:10C4F0000A2301E03D4601232A4610210EE042F6C0
:10C50000010307A940468DF81C60ADF81E3011F0FC
:10C5100085F80028C9D010232A461946204611F074
:10C5200050FC00200CB0BDE8F081204611F073FBF8
:10C53000F7E71120F6E70420F4E70E20F2E700BF4A
:10C5400099C60200F0B51D4603680E46003987B053
:10C55000044618BF01211868174612F064F940B963
:10C5600004F14C0011F06EFC002844D0002007B00C
:10C57000F0BD002D41D018220021684613F009FEBD
:10C5800047BB23681E4A1B6800930023ADF8123096
:10C590000C9B0393BDF83430ADF8103001238DF8B7
:10C5A000143029466B4628468DF8086011F026FCA9
:10C5B0009DF81430C3B1002FD8D00198FEF7E2F9EE
:10C5C000002ED3D09DF814302A461221204611F0B7
:10C5D000F8FBCBE7002213212046FFF781FC0190F6
:10C5E0000028CED11120C2E701990029BED02046F3
:10C5F00011F011FBBAE71220B9E70120B7E700BF3D
:10C60000A5DB03002DE9F0410B8A04460D46002B03
:10C610003AD00668012105F10C0010F0E7FFB37A6B
:10C62000072B074630D154F8043C6BB30178194E00
:10C63000043C002316F8330088424FEAC30806EB97
:10C64000C30211D1298A5378994220D353682946CD
:10C650002046984703464644B278012A14D19BB13C
:10C66000397889B100220CE001330C2BE2D1084665
:10C67000FFF7A4FB2122C24012F0010204D119B13C
:10C680000623204611F09DFB0020BDE8F081042325
:10C69000E1E700BFAC0804002DE9FF4105460E4666
:10C6A0004FF000084FF42053006817688DF8088099
:10C6B00002A91446ADF80A3010F0B0FFA0B142F65E
:10C6C000010328688DF80C8003A9ADF80E3010F036
:10C6D000A5FF48B123691BB15A88B24200D25E80DF
:10C6E000012004B0BDE8F0816168286810F096FF71
:10C6F00010B100232361F3E7E368A0681A786AB1F8
:10C70000B7F82AC0798B038A8C4594BFC3EB0C031E
:10C71000C3EB0103934201DA0020E2E704210C306D
:10C7200010F034FF2061068023695E80074B009380
:10C730000194A26800232946384611F086FC00289F
:10C74000EADB2069003818BF0120CAE7A3DD030037
:10C750002DE9F34717680546894600685168D7F800
:10C7600004A0144610F05AFF804600284BD19522B1
:10C770002946504611F071FF0646207540B1E36826
:10C780001B780BB184F81480002002B0BDE8F0875C
:10C790002946504612F04AF810B908232375F3E7EA
:10C7A000A068267510F0B9FE02210C3010F0EEFEE4
:10C7B000164B2061A0F8009000930194A2683346C4
:10C7C0002946384611F041FC002807DA10F1FF0F26
:10C7D00026BF4042C0B20E202075D5E72369002B4A
:10C7E000D2D0A06811F067F97B8B7A8D9A4294BF02
:10C7F000C0EB0200C0EB0300E3681B78984294BFD3
:10C8000000200120C1E70120BFE700BFC7DA030015
:10C81000F7B5002304460E462B48002269460EF069
:10C82000BFFD0546D0B9FDF759FE284B1A58284BD5
:10C8300000981A602946242213F0ABFC009B25487F
:10C840001C60009C0195C4E90155C4E9075500220C
:10C85000002301A90EF0A4FD054620B16FF00B05E1
:10C86000284603B0F0BD0146A022019813F091FCC8
:10C870000198194B8360543013F09DF9019BBFF36D
:10C880005B8F4C3353E8002F43E800510029F9D166
:10C89000BFF35B8F019B1C60E369019F1BB904F12F
:10C8A0000C0013F088F9E269C7F89820226A07F1B2
:10C8B0009803E36102B92362019B17225A855A83C8
:10C8C00004333360CCE700BF70060020080000008E
:10C8D000741400208C0600201C0400202DE9F74F62
:10C8E0000646EFF31187202383F31288BFF36F8F7F
:10C8F000434D284611F0D5F82B680093044687F382
:10C900001188BFF36F8F002860D0FDF79BFF3D4972
:10C91000182202FB00F3C81851F803B00369019311
:10C920000021D0E9025790F80480B0F806A013F077
:10C9300030FCA07AFDF77EFF6169814651B1627AD1
:10C94000D00705D4D9F81C20126820469268904779
:10C95000002262612146484613F066F9B8F1000FE3
:10C9600024D01DB32B680BB31B68FBB1BBF1000FC8
:10C970001CD1281D11F064FC4046FFF71FFA052862
:10C9800014D8DFE800F0260313261303BFF35B8FF0
:10C99000EB6CBFF35B8FDA0708D52B6D33B14FF427
:10C9A0007022002305F168000FF0A4F8009B6BB122
:10C9B0003146002013F0E6F9002807DA002383F35C
:10C9C0001188BFF36F8F0323184602DF03B0BDE861
:10C9D000F08F2B68D3F80080BFF35B8FEB6CBFF355
:10C9E0005B8FDB07E2D5002FE0D0002403E0019944
:10C9F0004046B8470134A3B25345F8D3D6E700BF49
:10CA0000241400202C14002007B50B4602460021F8
:10CA1000FDF764FD01910E4909580E4800688842EF
:10CA200004D00D48D0F88000884201D1002213467E
:10CA300001A90A480EF0B4FC014638B90198102249
:10CA400013F0A7FB019803B05DF804FB0020FAE7A0
:10CA5000080000007414002040100020C4060020CC
:10CA600010B50446806818B1FDF78CFF0023A36061
:10CA700021460248BDE8104012F0CCBFC406002099
:10CA80002DE9F743044668300F4690461E4613F0E2
:10CA9000B0F9206D48B9201D00F028F86068132116
:10CAA00003B0BDE8F04310F017BF0F4B98424FF0B2
:10CAB000000317D045684360206DD0F80C90FFF755
:10CAC000CFFF00232068236511F03CF83DB12068BA
:10CAD000CDF80090006843463A463146A84703B077
