:020000022000DC
:107000008088002095BA02002FC6040081BA0200D1
:1070100081BA020081BA020081BA020000000000B9
:10702000000000000000000000000000CDBA0200D7
:1070300081BA020000000000CDBC020081BA02004B
:1070400045BD0200D50B040045BD020045BD020050
:1070500045BD020045BD020045BD020045BD020020
:1070600045BD020045BD020045BD020045BD020010
:1070700045BD020045BD020045BD020045BD020000
:1070800045BD020045BD020045BD020045BD0200F0
:1070900045BD020045BD020045BD020045BD0200E0
:1070A00045BD020045BD020045BD020045BD0200D0
:1070B00045BD020045BD020045BD020045BD0200C0
:1070C00045BD020045BD020045BD020045BD0200B0
:1070D00045BD020045BD020045BD020045BD0200A0
:1070E00045BD020045BD020045BD020045BD020090
:1070F00045BD020045BD020045BD020045BD020080
:1071000053B94AB9002908BF00281CBF4FF0FF310E
:107110004FF0FF3000F00CB8ADF1080C6DE904CE73
:1071200000F022F8DDF804E0DDE9022304B0704746
:10713000704700BF10F8012B11F8013B012A28BF4E
:107140009A42F7D0D01A7047034611F8012B03F882
:10715000012B002AF9D17047034613F8012B002AAE
:10716000FBD1181A013870472DE9F0478C468E463E
:10717000089E154604461946002B40F0D080724503
:1071800047D9B2FA82F74FB1C7F120030EFA07FCD4
:1071900020FA03F3BD4043EA0C0CBC404FEA154E05
:1071A000A8B2BCFBFEF8230C0EFB18CC08FB00F9C0
:1071B00043EA0C43994528D9EB1808F1FF3204D271
:1071C000994502D9A8F102022B44A3EB0903A4B20A
:1071D000B3FBFEFC0EFB1C330CFB00F044EA034443
:1071E000A04214D92C190CF1FF3304D2A04202D9C9
:1071F000ACF102032C44241A43EA02401EB1FC40C5
:10720000002334607360BDE8F0874246DDE76346E3
:10721000F1E7002A79D0B2FA82F3002B3FD0194669
:10722000C1F1200302FA01F52EFA03F20EFA01FE73
:1072300020FA03F343EA0E034FEA154E00FA01F475
:10724000B2FBFEFCAFB20EFB1C201A0C0CFB07F8C5
:1072500042EA004290455AD9AA180CF1FF3004D2F4
:10726000904502D9ACF102002A44A2EB08029BB27D
:10727000B2FBFEFC0EFB1C220CFB07F743EA0243A9
:107280009F4246D9EB180CF1FF3204D29F4202D93B
:10729000ACF102022B44DB1B42EA004202E0AEEBFF
:1072A000020301224FEA154EAFB2B3FBFEFC200CE5
:1072B0000EFB1C330CFB07F840EA034398452AD920
:1072C000EB180CF1FF3004D2984502D9ACF1020062
:1072D0002B44A3EB0803A4B2B3FBFEFC0EFB1C3350
:1072E0000CFB07F744EA0344A74216D92C190CF10A
:1072F000FF3304D2A74202D9ACF102032C44E41BB1
:1073000043EA00400F46114678E71F2188E76046B0
:10731000ABE76246BFE76046DBE76346EFE77345EE
:1073200006D916B9002108466DE7C6E9000EF9E74F
:10733000B3FA83F787B9734501D3824207D8841A19
:107340006EEB030301209C461EB900215BE7384623
:10735000FAE7C6E9004CF8E7C7F1200CBB4022FA77
:107360000CF51D4320FA0CF12EFA0CF30EFA07FE71
:1073700041EA0E014FEA154900FA07F4B3FBF9F8A8
:107380001FFA85FE09FB18300B0C08FB0EFA43EAC6
:1073900000439A4502FA07F240D9EB1808F1FF3092
:1073A00004D29A4502D9A8F102002B44A3EB0A03A8
:1073B00089B2B3FBF9F809FB183308FB0EFE41EA6A
:1073C00003418E452CD9691808F1FF3304D28E454C
:1073D00002D9A8F10203294443EA0040A0FB029825
:1073E000A1EB0E014145CE46434602D306D14C45A2
:1073F00004D2B9EB020E68EB05030138002EA4D0CD
:10740000B4EB0E0261EB030101FA0CFC22FA07F364
:107410004CEA0303F940C6E9003196E74046C5E768
:107420004346D9E700000000F0B5002285B01146C0
:1074300002AF40F6034007F007FA044600285BD18C
:1074400006F0A0FF21463A1D41F2030007F0FCF9C7
:107450000446002850D17A68294DD168D1F801003E
:10746000D1F8051005F1880303C3104604F05AFF54
:1074700021463A1D41F2010007F0E6F904460028D2
:107480003AD17868C3685A7885F880205A88A5F878
:1074900082201A7985F88120B3F80720A5F8842086
:1074A000B3F80530A5F8863004F03CFF21463A1DBC
:1074B00041F2020007F0C8F90446E8B9D7F804C061
:1074C000DCF80C2005F19006531C4132186859680D
:1074D000344603C4083393422646F7D1604604F08D
:1074E00021FF95F88C305A0610D4064A064801212F
:1074F00026F0E2FC6FF0120420460C37BD46F0BDCA
:10750000D0000020D1620500B43505003A1D0021ED
:1075100042F2030007F098F904460028ECD17A689B
:10752000B74BD168D1F80100D1F8051003C310465C
:1075300004F0F8FE21463A1D42F2020007F084F9F9
:1075400004460028D8D17E68F468B4F801309AB2B5
:1075500092B1E27882B1A5F80C31E378032B06D022
:1075600003220092A748A84A022124F005FEE278EF
:10757000A648114629F096FF304604F0D3FE95F850
:107580008C601F2316F02006A5F8203119D14FF08A
:10759000FF304FF0FF3106F01DFF0446002800F0D9
:1075A000DA8102210C3025F004F9012303704670C2
:1075B0002146324640F66D4007F046F90446002861
:1075C0009AD195F8AC301B0712D53A1D002142F232
:1075D0001C0007F039F9044600288DD17868C3688B
:1075E000D3F80120D3F80530C5E93C2304F09AFE16
:1075F00095F8E8309E0623D5B91C384607F0CCF93B
:10760000044600287FF478AF4FF0FF304FF0FF3191
:1076100006F0E0FE0646002800F09D8104210C30B3
:1076200025F0C7F83B8803807B884380224631469B
:1076300042F2240007F008F9044600287FF45CAF0A
:1076400095F8E8305C062BD54FF0FF304FF0FF3156
:1076500006F0C0FE0446002800F07D8102210C30B7
:1076600025F0A7F8B5F8C03103802146002242F288
:107670002E0007F0E9F8044600287FF43DAF0146EC
:107680003A1D42F22A0007F0DFF8044600287FF492
:1076900033AF7868C3685B7885F8223104F042FE26
:1076A0004FF0FF304FF0FF3106F094FE0646002801
:1076B00000F0518108210C3025F07BF895F8E84066
:1076C00014F0400F40F20223024608BF0323A00734
:1076D0004CBF43F02C0343F00C03A10695F8E910CE
:1076E00048BF43F0400311F0090F18BF43F4006393
:1076F00004F0010443EA0410002126F019FC0022E2
:10770000314642F2010007F09FF8044600287FF45A
:10771000F3AE95F88C30B5F80C1198065CD4C9B965
:107720003A1D41F2050007F08FF8044600287FF467
:10773000E3AEB5F80C317C684BB9E368B3F80120CF
:10774000A5F80C219A883148114629F0ABFE204655
:1077500004F0E8FD4FF0FF304FF0FF3106F03AFE45
:107760000446002800F0F78008210C3025F021F8AD
:1077700095F8E830D907024638D425484FF0005133
:1077800026F0D6FB2146002240F6014007F05CF8C7
:10779000044600287FF4B0AE01463A1D4FF6014082
:1077A00007F052F8002839D01A4A1648022126F06C
:1077B00083FB6B7D002B40F0BE8008F02DFA044661
:1077C00000287FF499AE09F083FE044600287FF478
:1077D00093AE06F0C3FF8FE60029BBD10E4A0948DD
:1077E000012126F069FB6FF0040485E602A1D1E9CE
:1077F0000001C5E7AFF30080908800020080002000
:10780000B8010020B4350500F5620500E001002054
:10781000108800025E6305003B6305007B68DC683E
:10782000B4F80130042B96BF584A594952F8231036
:107830006E468AB002AA5748D3614FF4007313848E
:10784000554BC2E9050142F8103F54484FF413511B
:1078500026F04AFBB4F80120B4F80330022AB546FA
:1078600049D1052B47D84E4A52F823106E468AB0AC
:1078700002AA4C48D3614FF400731384464BC2E90B
:10788000050142F8103F4FF41351444826F02CFBF9
:10789000637994F806C0D4F80900032BB54698BF65
:1078A000414AB4F8076094BF52F8231038496C4637
:1078B0008CB002AADFF8F4E0C2E9073C4FF4007391
:1078C00093853B4BC2E905E1C2E909604FF473516E
:1078D00042F8103F314826F007FBA546786804F0CF
:1078E00021FD3A1D00214FF6024006F0ADFF04468F
:1078F00018B1304A59E72649B8E77868C368B3F841
:107900000130A5F8D13004F00DFD95F8D1305A07BB
:107910007FF54FAF3A1D21464FF6034006F094FF26
:1079200008B1254A41E77868C3685B7885F8D030AC
:1079300004F0F8FC3DE72E78002E7FF43EAF95F87A
:10794000D1309B061FD54FF0FF304FF0FF3106F0CE
:1079500041FD044610B96FF06804CDE506210C30F6
:1079600024F027FFD5F801300360144B9B888380F7
:10797000214632464FF6064006F066FF04460028D0
:107980003FF41BAFB8E56FF08504B5E5C83B0500D3
:10799000D86005008263050004000001B4350500CD
:1079A000B03B05009B630500A03B0500B3630500E9
:1079B00007000001E063050009640500D100002014
:1079C0002DE9F843D0E90738856903EB08042F3423
:1079D000A5420F46164619D8DFF86C80A3FB0801B4
:1079E00017A3D3E90023FFF78BFB0346601BA0FB23
:1079F000080123F07F4412A3D3E90023FFF780FBA3
:107A000020F07F403C603060BDE8F883DFF83890BC
:107A10000BA3D3E90023A5FB0901FFF771FB20F0BD
:107A20007F440A480A2106A3D3E90023E8FB0901A1
:107A3000FFF766FB20F07F403C603060BDE8F883D4
:107A40008D49FD1A0700000000CA9A3B00166BF131
:107A5000002800F051812DE9F04FCB4C94F85E20C6
:107A600012F001058DB040F03481607EFF2300F0FC
:107A70000300A37618F0EEFC94F85E00420700F1D4
:107A80002C81627F94F8293004EB820204EB83039B
:107A9000166AD3F82C8086B1BB48314613F0D2F871
:107AA00033785B0605D506210EF016FF002800F09E
:107AB0005581B548414613F0C5F8337813F00E0FE1
:107AC00040F0918063691BB10C200DB0BDE8F08FD0
:107AD00010F016FF8146002800F0498110F01CFFCD
:107AE0008246002800F0408113F0CEFA05460028B7
:107AF00000F05A81D0F888004FF6FF73AB8405F18F
:107B0000100B002800F0358105F17C0205F17801A9
:107B10000EF0EEFEB5F8763023F4EF6323F00703A2
:107B200043F48C7343F00103A5F8763095F83730B1
:107B300003F03F0363F07F0385F8373095F88E300C
:107B400023F0070385F88E3095F83C3023F00F03BF
:107B5000002785F83C304FF4C023C5F88E31284605
:107B6000C5E91277C5F88870A5F88C7085F839706A
:107B70006F85C5F82E702F65A5F86071A5F8947112
:107B8000A5F88A7115F016FA85F86471C5F8689140
:107B900013F042FD95F89C3160F3020385F89C31A7
:107BA00013F040FD95F89C3160F3C50385F89C31D6
:107BB00095F8623167F34103012185F86231284667
:107BC00014F0C4F805F1E00015F014F8C4E9159AB2
:107BD000C4F814B0C5E902772F702D6119F0A4FC28
:107BE000002840F0BD80237E0121C3F342030DF144
:107BF0002B008DF82B300FF01DF8024600287DD0A9
:107C00004146304612F016FE604A614BB4F85C8083
:107C10000721E0FB023100251846C4E9025558A3AC
:107C2000D3E900232570FFF76BFA606010F098F934
:107C300000F10907B8F1000F07D1357805F00F05FD
:107C4000A5F10105B5FA85F56D09207E636865F338
:107C5000000010F00105207657D04E4A099200200E
:107C6000106002254C4ADFF8348104930BAE019377
:107C700005920321CDE90200069400903B46CDF821
:107C80001C8008962A460B9510F08EF8314610F0AD
:107C9000CDFE98BB424905914AF2D8330093CDE915
:107CA0000300CDE90100CDF81C80089606943B4600
:107CB000012203210B9510F05BF8314610F0B6FE5F
:107CC000E0B994F85E300120034384F85E3018F088
:107CD000A3FB00200DB0BDE8F08F2A4604F15F0140
:107CE000C0F3C00018F0EEFCFF28A0763FF4C9AE48
:107CF000284618F0C9FBC4E612F034BD6369002BB6
:107D00003FF4E2AE12F004FDDEE6224A2548049379
:107D100003F247130694029591211360A8FB000318
:107D200001FB08311D4B07931B4B05934FF6FF7367
:107D300009924FF0020803930BAE11A3D3E900237D
:107D4000CDF82C800896FFF7DBF93B46CDE90050D3
:107D500042462846032110F027F8AEE71220B4E689
:107D600012F0D6FC0320B0E6484610F0CFFD072005
:107D7000ABE605F18000C5F88800C5E6AFF30080EA
:107D80008D49FD1A070000000C2E002000CA9A3B06
:107D90008C49FD1A002E0020ADA803005D80030071
:107DA000D1A50300002AE784504610F0BBFD4846E9
:107DB00010F0ACFDDBE700BF70B5037E8AB0C3F303
:107DC00042030D46044601210DF1230016468DF8AD
:107DD00023300EF02FFF31460246284612F02AFDCE
:107DE0001D4A1E4B0721E0FB0231184618A3D3E9B8
:107DF0000023FFF785F963689842054621D21B1AD4
:107E000000220192164A0293164BA21AA3FB0232D9
:107E10000221520900230A4409AE09911249059131
:107E2000CDE9033303210696D2B20093184610F031
:107E300011F8314610F0FAFD38B9656000200AB03B
:107E400070BDFBD9C21A0023DBE70C200AB070BD5D
:107E50008D49FD1A0700000000CA9A3B8C49FD1AA3
:107E60000C2E00204FECC44E5D800300000000008B
:107E70002DE9F04F05468BB08B4601200221994633
:107E800014461BF037F900220221824601200EF031
:107E900083FD2F494FF4D47228460EF009FDC61C0D
:107EA0002C4B0093F6B201954B463246012100203F
:107EB00010F01EF810F0FD0F42D1274BA4FB034831
:107EC000204621A3D3E900234146FFF719F908957D
:107ED00006956B680493214B20F07F47A7FB033185
:107EE000E01A1F4B07934FF007021E4B059302FB4E
:107EF00007114FF6FE7368EB010103934FF47A729A
:107F00000023FFF7FDF8CDF800B0CDE901704B4636
:107F10003246012100200FF02BFF10F0FD0F0DD194
:107F2000BAF1000F02D10BB0BDE8F08F012202219F
:107F300010460BB0BDE8F04F0EF02EBD00DEEFE7AF
:107F400000DEBAE7AFF300808D49FD1A070000009C
:107F50005018002045AF030000CA9A3B8D49FD1A16
:107F60002DAF0300D1F803002DE9F0418468A28C05
:107F70004FF6FF739A428CB000F0C0800546204651
:107F800015F094FA2B7D012B00F0E680022B00F017
:107F9000B88033B994F88E3003F01803182B00F032
:107FA0001C8194F86471002F40F0AE802B8AE68D1E
:107FB00094F93720CDE90A77002B00F0AC80002A35
:107FC000C0F221810023A4F89031AB7CA28D03F094
:107FD0000303551C012BADB200F0BA80B4F8943104
:107FE000002B00F0BF80AB4240F237815B1B9BB29D
:107FF000062BA4F894314FF000028CBF002301231C
:10800000E2851F4694F83C2063F3820284F83C200A
:1080100029460DF12702204615F008F8743000F0CB
:108020001681B4F88E312BB1AB4240F2BF805B1B9E
:10803000A4F88E31B4F88A312BB1AB4240F2C6803D
:108040005B1BA4F88A31E58D17B9AE4200F0AC8015
:108050000135ADB294F8D13013F0010609D1DDE954
:108060000AC3B3BBBCF1000F00F0E9801E461946FD
:1080700030E094F9372023F00103002A84F8D1304E
:10808000C0F28A8094F87600C0F3C00100F00700C7
:1080900019F0C8F8B4F86E20B4F86C301344E28BD1
:1080A00003F23F13134418448D4A8E4B0721E0FB23
:1080B0000231184688A3D3E90023FFF721F861684D
:1080C00020F07F408142DDE90AC380F0B280461A89
:1080D00060600021A28C24690694CDE90357033225
:1080E000814D0291CDE900C6D2B201210020059553
:1080F0000FF0B0FE10F0FD0F40F0B4800CB0BDE802
:10810000F0813D2784F86471394620460CB0BDE803
:10811000F04113F041BB002AB8BF84F8D570AB7CA6
:10812000A28D03F00303551C012BADB210D0B4F89F
:108130009031002B3FF452AFAB4240F29A805B1B70
:10814000A4F89031B4F89431002B7FF44CAF59E788
:108150000023A4F8943155E70023A4F88E31A4F845
:108160008A311EE7E38C052B8BBF40F2E2424FF4CD
:10817000FA725A4303FB0222B4F8923142F21071B0
:1081800001FB0323013BB3FBF2F39BB2A4F8943150
:10819000002B7FF428AF35E794F87700012100F039
:1081A000070019F041F875E73D4653E710F0FAFB78
:1081B0000146002864D00023A4F88E31A38CC3802C
:1081C0001B230371006810F0BFFB33E70023A4F802
:1081D0008A31204614F0BCFF35E7218DB4F88C219C
:1081E0008B1D9A42C4BF931F5B1AB4F88811CCBF91
:1081F0009BB21346994256D0A4F88831A4F88A312C
:10820000A4F88E21CDE694F8D530002B3CD0013B6C
:1082100084F8D53004F1E008404614F02DFD002824
:1082200055D0404614F028FD002842D00023E385B5
:10823000C8E6091A6060A3BB51EA0C021ED115B949
:10824000002F3FF45BAF00263146334642E79DF8EE
:108250002710204613F0A0FA50E70821204613F01B
:108260009BFA4BE710F00CFC84423FF447AF00DE72
:1082700044E73E21204613F08FFA3FE71E4629E7E8
:108280000123A4F88E31D5E60AAA0BA92846FFF7E8
:1082900097FBDDE90A231343BCD0237884F8D5305B
:1082A000B8E7002616E7B4F88E1100297FF479AEFE
:1082B000A4E70246D4E91E010EF032FB0028B5D136
:1082C00094F83C301B0744BF238DE3857AE6FF20FA
:1082D00013F024FAA5E700BF8D49FD1A070000003E
:1082E00000CA9A3B8C49FD1A85AF030000000000CC
:1082F0002DE9F04F87B0B0F86071BDF84C90009157
:10830000CDE90423B0F82431BDF840A01F44BFB22A
:108310000446A7EB090390F87600D4F81C819EB2BE
:10832000BDF844300193C0F3C001BDF84830039656
:1083300000F00700029318F075FFE58C052D40F260
:10834000A38015FB06F5ADB240F2E24BBAF1050F82
:1083500040F28E80B4F86E20B4F86C30134403F20F
:10836000D5130344764A77480721E3FB02014FF017
:108370009613E361962323846FA3D3E90023FEF7CA
:10838000BFFE564620F07F4040F2E2430BFB05F271
:1083900003FB06F6531E3344B3FBF6F31FFA83FBCD
:1083A00060600BFB06F082425D4653D26449801A3E
:1083B000A0FB010160A3D3E90023FEF7A1FE20F09A
:1083C0007F408044B4F82421B4F86031A9EB070958
:1083D0004D44ADB213442B44A4F86031638D134473
:1083E0001D4494F837306585DB0955D100DE002740
:1083F0003546019B2385029BA4F8923131462046E5
:10840000A4F826A014F03EFE4F4B218D3344881D66
:10841000B3FBF6F39AB29042A4F88C2104D2C1F5D2
:108420007F41FA310A4492B2009BA4F8882113B12B
:108430000023A4F8943143462A4639462046FFF7E4
:1084400017FD94F8623143F0010384F8623107B0FC
:10845000BDE8F08F121A3A48A2FB000136A3D3E917
:108460000023FEF74DFE20F07F40A8EB0008A9E7AF
:108470004FF096130AF10106E36196232384B6B206
:108480000A204FF4FA7381E7039B013515FB03F5CE
:10849000ADB24FF4FA7B59E7216CA36C284F01FB76
:1084A0000233039A01FB1233A3640023C4F8DC30C7
:1084B00019F08CF8054694F8D400C0F3420019F086
:1084C00087F8054406FB05F5204B1E4805F5742585
:1084D00005F23F25A3FB0535AD0CA36C25640BFB12
:1084E00005FB72085B44963A934228BF1346C4E9E1
:1084F0001123049B40F2E24909FB03F307212365A2
:10850000EBFB07010CA3D3E90023FEF7F9FD104BA9
:10851000059AA8EB0008A3FB0230800A09FB00F0D3
:10852000A0FB070104A3D3E90023FEF7E9FD751BB7
:1085300020F07F475DE700BF8D49FD1A070000006E
:1085400000CA9A3B8C49FD1A7FC3C90183DE1B43D5
:108550005917B7D1000000002DE9F04F0D461668FD
:1085600095F8118009681446027FD1F8009093B005
:108570008346C2F38012D0F81E008DF83720B8F180
:10858000FF0FBBF822201090ADF8442057D110AB5C
:1085900093E803000E90ADF83C105A46BBF82E103D
:1085A00052F82EAB9278A2722181DBF82A20626009
:1085B000DBF83A20C4F8222004F122009BF83E2088
:1085C000027105210EF036FB94F8272000F03F00E1
:1085D00060F3050284F827209BF83F20C2F30401D2
:1085E00084F82810BBF83410E182012802F01F0241
:1085F00089B20AD91B3202F01F020B2A05D80639AC
:1086000089B240F67A42914225D90021C9F8081072
:1086100094F82C2061F3000284F82C20DBF80C4045
:108620000125504659468BF8045010F081F9206816
:108630002571214610F088F913B0BDE8F08F0EAA1D
:108640000DF13701404617F045FC9DF83720023206
:108650008DF83720A1E72A6800215160BBF8362049
:10866000E78A228340F2E24303FB07F73046BBF878
:1086700032300B9314F01AFD9BF83F2096F8D4107B
:10868000520962F3430186F8D41018F09FFF0A9054
:1086900096F8D400C0F3420018F09AFF0A9A1044EA
:1086A00007FB00F0AE4A00F5742000F23F20A2FB69
:1086B00000207A08800C963A206362639BF8312090
:1086C00040F2E24303FB02F26264BBF83820A6F8F2
:1086D00092213946304614F0D5FCA24AA249C6F888
:1086E00098113A44B2FBF7F290B2A6F88C01218BB4
:1086F00001F1060C604504DDC1F57F41FA3101440A
:1087000088B25A46A6F8880112F81C3FC3F34013FA
:10871000D2070A9300F115814FF48072ABF81C2048
:1087200099F81A0018F002F9002800F0EA80DBF846
:108730002420CBF82B20BBF82820ABF82F20B8F151
:10874000FF0F00F0F880BDF844201098ABF8292006
:10875000CBF825009DF837208BF81E200E98BDF829
:108760003C20CBF81F00ABF82320E28AABF8322084
:10877000228BABF83420B6F89221ABF8362096F86D
:10878000D420C2F342028BF83820304612F088FC25
:10879000A082ABF80600D5F804805046594610F088
:1087A000C7F81C23A28A88F804300A9BD8F800A0D6
:1087B000A8F80620002B40F0B180DDF828B088F83A
:1087C0001CB04146504610F0BFF894F86700B4F86A
:1087D0005CA0B4F85E80012100F0070018F024FDD1
:1087E000D04408F2D51808EB00038246DFF87C81FC
:1087F0005F480721E3FB08014FF09613C4E90333F8
:1088000055A3D3E90023FEF77BFC20F07F40706086
:10881000EB680B98226B40F2E24101FB003404F25A
:10882000B3440221A41A0120BF1A00220EF0B4F8AA
:10883000484612F0C5F9A4EB0A0447A3D3E9002384
:108840008246A4FB0801FEF75BFCCDF80490AB6800
:108850004849009120F07F480AF10202363BD2B22B
:108860004344012100200FF043FB01286BD099F80D
:108870001830DB074AD4304612F012FC3B4CA7FB01
:10888000044935A3D3E90023834649462046FEF731
:1088900037FCAB68384A0792A3F1360A374B069685
:1088A00020F07F47A7FB0331E01A354B05934FF4C7
:1088B000F8730893736804934FF0070303FB0711E1
:1088C00069EB010100244FF47A7200230394FEF750
:1088D00017FC0BF10305EDB2CDE90170CDF8008076
:1088E00053462A46012120460FF042FA10F0FD0FB0
:1088F0002FD10122022110460EF04EF813B0BDE830
:10890000F08FCBF82B00ABF82F0018E700230122E3
:108910000093184611460FF0B5FAACE794F82730EB
:1089200043F0400384F82730201D17F0BFF84FF0C4
:10893000010B208543E70021CBF82510ABF8291067
:1089400008E700DEE8E610F09BF881458FD000DEF6
:108950008DE700DECDE700BF8D49FD1A070000005E
:1089600083DE1B437FC3C901404B4C0000CA9A3BC6
:108970008C49FD1A59F90300A9F803008D49FD1A25
:10898000D1F80300000000002DE9F04F8DB0484EF3
:10899000484D82460FF0E4FAF16807460FF0E2FA1C
:1089A0007168F76040A3D3E900230446A1FB0501E9
:1089B000FEF7A6FB20F07F439C4257D30DF12F0119
:1089C0000DF12E0010F01EF8DFF8E8803568A5FBE9
:1089D000085935A3D3E9002328464946FEF790FB02
:1089E000CDF818A004467068334B0593A0FB08012E
:1089F0002DA3D3E900234FF00008CDE90788FEF747
:108A00007FFB2E4BCDF80C8024F07F44A4FB033178
:108A100020F07F40072202FB04110490E81A69EB62
:108A200001014FF47A720023FEF76AFB9DF82FB024
:108A30009DF82EA0CDF80080CDE901403B465A4676
:108A4000504603210FF094F910F0FD0404D06FF0AC
:108A50008B000DB0BDE8F08F19481A4A00231FF0B3
:108A60007FF890B930690DB0BDE8F08F30680EA383
:108A7000D3E90023A0FB0501FEF742FB20F07F4174
:108A800038460FF06FFA074698E79DF82F209DF8BB
:108A90002E000094234603210FF0F4F96FF07300C9
:108AA000D7E700BFAFF300808D49FD1A0700000033
:108AB000801B002000CA9A3B6D0B04008D49FD1AF3
:108AC00004340020447B0B0038B50F4D04460FF0F2
:108AD00047FAA9680FF046FA696803460B48B3FBEA
:108AE000F4F4A1FB00011C4405A3D3E90023FEF725
:108AF00007FB20F07F40844294BF0020012038BD56
:108B00008D49FD1A07000000801B002000CA9A3B17
:108B1000F0B5C468636883B00546002B54D119F0E2
:108B20002FFE002019F050FE0021084619F03EFEED
:108B300000222521082019F0A5FE414B019301A830
:108B400019F08CFE3F4940F25B6019F03DFF237A3B
:108B5000C3F3420262F306132372204618F0C6FEE6
:108B600017F06CFF637A03F0030348BBFBB9276877
:108B70002E68384618F010FB06446A6806F10901B1
:108B800001201AF069F81AF029F9204612F024F8A9
:108B9000811C3246C9B2384618F000FB054600BBBE
:108BA000204618F0D5FAD0B9002003B0F0BD01205E
:108BB00017F028FC4178821C007819F0EDFFD6E709
:108BC000181E18BF0120F3E793F82C309B07A6D09E
:108BD0001D48214619F0A8FD19F0A0FEE4E700DECB
:108BE000E2E71A4A1A491B4840F2114322F053FAAD
:108BF000194B0721A5FB030301FB05310EA3D3E9A4
:108C00000023FEF77DFA15490246154822F043FA83
:108C1000002585F31188BFF36F8F0323184602DF09
:108C20001048214619F080FD19F078FE6FF08B0096
:108C3000BBE700BFAFF3008000CA9A3B0000000012
:108C4000D6BE898E55555500E112040040410500FD
:108C50008C410500D04005008D49FD1AD442050025
:108C600090410500DD1504002DE9F043C468A28A97
:108C70004FF6FF739A4283B000F0FD80064619F06C
:108C8000E9F83389628B208C94F82710A3831A4467
:108C900092B2104480B2431C23840023638301F00A
:108CA0003F034906E28300F1A48094F82810009362
:108CB00004F1290004F1220316F0BAFE0546D4E9B6
:108CC0000C31A26BA08BA36303FB0022E36B8A42EF
:108CD00094BF9B185B188B4228BF0B46626CE36302
:108CE000236C94F867101A4494F82C3061F306133F
:108CF0000021C4E9101294F87E2084F82C3012F080
:108D0000040200F0898019F03BFD002019F05CFDA1
:108D1000201D19F0A3FD2389A17A40F25B6043EA8C
:108D2000014119F051FE284618F048FA21465848EA
:108D300019F0FAFCA08919F083FF94F8662094F8E2
:108D40006700C2F3C003002102F0070200F0070031
:108D500019F0A0FE204619F017F9D4F80080376802
:108D6000404618F019FA0744726807F1090100201B
:108D700019F072FF81461AF005F800201AF01CF86D
:108D8000E36B94F8670003F12F02636C012100F09C
:108D9000070003EB420519F0B3FD4D44054494F878
:108DA000670000F00700022834D004280CBF4FF4FD
:108DB000BC73282301211D4419F0A4FD284419F097
:108DC000D3FFA18A03313A46C9B2404618F0E6F90A
:108DD0000546A8B1B37A13F002062BD000252D4822
:108DE000214619F0A1FC19F099FD284603B0BDE811
:108DF000F083218D04F1220216F05CFE05465EE749
:108E0000204618F0A5F900283CD10025284603B0DB
:108E1000BDE8F0831823CDE7D4E91A010DF080FDF9
:108E200000287FF470AF94F87E3043F0040384F898
:108E30007E3068E7184A194919484FF4AC7322F09C
:108E40002AF918480721A5FB000301FB05310EA3F1
:108E5000D3E90023FEF754F913490246134822F0E0
:108E60001AF986F31188BFF36F8F0323184602DFC8
:108E70006FF08B05B3E70E48214619F055FC19F049
:108E80004DFDC2E700DEC0E700CA9A3B00000000CB
:108E9000AD210400BD120400BC4105008C41050059
:108EA000D04005008D49FD1AE042050090410500C3
:108EB000E1120400034B04480A461978013122F0FC
:108EC000DDB800BF57430020D04E0500024B0348D9
:108ED0001978013122F0D2B857430020F94E05002D
:108EE00030B5164D164C89B007F018F91422002140
:108EF00003A82AF032F829781248635C8DF80C3008
:108F00000722A023CDE90423F0230F4A0693002370
:108F100052F82120009350F8211003A806F022FFF8
:108F2000014638B929780948625C013122F0A6F877
:108F300009B030BD064822F0A1F8F9E757430020F8
:108F4000E30800201438050008380500214F05000B
:108F50005C4F050008B5094909480B780322013325
:108F6000B3FBF2F202EB42029B1A01220B7002F0F9
:108F70006FF8BDE80840FFF7B3BF00BF57430020BC
:108F80007F4F050070B50C49064614461D46FEF796
:108F9000D1F828B9094901222846A047002070BD10
:108FA00007493046FEF7C6F810B906490322F3E731
:108FB0006FF00100F3E700BF834F05005743002027
:108FC00069510500E30800201FB507240294044CF2
:108FD0000194BDF81840009426F0C4F904B010BD07
:108FE0002883050038B528F030FD4FF47A72A0FBD5
:108FF000020302FB01310C4AC30BD2E9004043EAF1
:1090000041431C1B4FEAD13140F2E93561EB0000CE
:10901000AC4270F1000006DBC2E900310348BDE854
:1090200038401EF06DBF38BD700C002000030020DA
:1090300008B50A4822F022F807F070F8084B1868C3
:1090400038B1084B01221A70BDE80840132125F001
:1090500039BABDE8084004481EF052BF864F0500EB
:10906000C81E002056430020F002002038B50C4DE9
:109070002B6883420C4603D107F08AFC00232B6047
:109080000848214621F0FAFF074B1A7832B1002236
:1090900006481A70BDE838401EF032BF0448F9E7B0
:1090A000C81E0020B74F050056430020F0020020E4
:1090B000D002002008B559B925F0E8F9054B186031
:1090C000054B06481978BDE80840013121F0D6BFAC
:1090D00008BD00BFC81E002057430020D74F050021
:1090E00030B483689C6984B1130207D505690123F4
:1090F0002D688B402B4218BF82F0C062044BA446FF
:10910000134030BC02F0B072604730BC704700BF03
:109110004000000638B528F098FC4FF47A72A0FBA6
:10912000020302FB01310C4AC30BD2E9004043EABF
:1091300041431C1B4FEAD13140F2DD5561EB000089
:10914000AC4270F1000006DBC2E900310348BDE823
:1091500038401EF0D5BE38BD680C0020E00200206B
:1091600010B5154821F08AFF06F0D8FF134B186898
:1091700010B1132125F0A6F9114821F07FFF114C01
:10918000204627F0C5FF60B1A3689B684BB14FF440
:1091900000424FF46C212046984710B90A4821F04C
:1091A0006DFF0A4821F06AFF4FF40040002128F0CB
:1091B0006CFB012000F01CFDF24F0500C81E0020D2
:1091C00032500500243205006F500500A150050003
:1091D00070B58EB000214FF4C03028F056FB5648D1
:1091E00021F04CFF554821F049FF554821F046FF3A
:1091F000544827F08DFF98B1534A5248032121F07B
:1092000023FD50484FF0B8620321FFF769FF4F4A32
:109210004F4B53604B4808231146936021F00EFDDD
:109220004C4827F075FFA0B1474A4A480B2121F06E
:109230000BFD48484FF0B8620B21FFF751FF464A3B
:10924000464B536043484FF400631146936021F04E
:10925000F5FC4348434C08F023F908AD002005F025
:109260001DFD23F0D2F8032301A92846019306F03F
:109270007FFA0199032905D16278FF2A02D0A378E9
:10928000FF2B56D1384821F0F9FE012006F0EAFA0A
:10929000022006F0E7FA95E80300ADF80C10090C7F
:1092A00002908DF80E1002AD95E803000490ADF821
:1092B0001410C0F30720C1F30741013061F03F01F2
:1092C00001268DF811008DF8161004A800218DF8E4
:1092D000106006F05FFA0028B8BF3046607095E86D
:1092E00003000690ADF81C10C0F30720C1F307413E
:1092F000023061F03F018DF819008DF81E1006A8AC
:1093000000218DF8186006F045FA0028B8BF022049
:109310001449A0700322154801F09AFEA3786278E0
:109320002178134821F0AAFEFFF7DAFD00200EB0E5
:1093300070BD21780F48F5E7CB500500F6500500C9
:10934000CC5005006031050011000100D81E00203E
:10935000E58F020044310500CC1E0020159102006B
:10936000A8020020E30800202251050065510500F5
:109370006D510500A95105002DE9F84F8A4600AF4F
:10938000002974D004680E1F361BF50826F0070666
:1093900004EB0608B8F802B01BF0010B16D1E94641
:1093A00088B06A46334BCDE90531032342F8103FBC
:1093B00031485B464FF4C25101F012FBCD468BF3AE
:1093C0001188BFF36F8F0423184602DF2946204619
:1093D00021F05FFC284434F83030C01A854217D0A1
:1093E000E94688B06A46254BCDE9053A032342F8A1
:1093F000103F214800234FF4C25101F0F1FA00233D
:10940000CD4683F31188BFF36F8F0423184602DF24
:10941000B8F8023023F00103A8F8023029462046AC
:1094200021F037FC05EB000804EBC8035B88DA0782
:1094300008D44146204621F075FC42462946204684
:1094400021F0B5FCA65BAE1B04EBC6035B88DB0713
:1094500009D43146204621F065FC2A463146204693
:1094600021F0A5FC35462946204621F017FCBD46D3
:10947000BDE8F88F625205005436050039520500E8
:109480002DE9F04F91B08407009302F0040302939A
:10949000C2F3C20303F10103DDF868A0039205469D
:1094A0000E46059340F09D81041D00284AD101F02D
:1094B0000706341DC6F10806009B00275A1E4FF010
:1094C00004084FF0FF3301930497B946BB46434667
:1094D0000DB1009921600598002800F3D7809048CD
:1094E0000099814203D38F488142C0F0CF80039915
:1094F00011F0020CA4EB050040F0D680B9F10F0F7B
:1095000000F2CF80002D00F0D68009F140010DEB74
:10951000010EC0F3870001990EF8200C0EF8101C04
:10952000BCF1000F00F0C38060F07F000EF8200C4B
:10953000013709F10109C5F10801043406914FF61C
:10954000DA7E8CE00729B7D86FF01B0011B0BDE8B8
:10955000F08F7A285BD84B280FD8472857D829286E
:109560002ED8252850D052D8202818BF23280CBF29
:109570004FF0010B4FF0000B71E04C382E2846D80D
:10958000DFE800F06D4545454545454545454545C0
:10959000484545454545454545564548485656562E
:1095A0006D486A456D4518481845457F7C484545D6
:1095B00048457C0000204FF0000B4FF0040835E0D8
:1095C0002A38C0B2012101FA00F010EA0E0F46D18C
:1095D00010F0625C2CD110EA010B40D06046013CD7
:1095E0004444B4FBF8F408FB04F425B1A3EB050CE8
:1095F000A444B445A8D8002870D005990139059134
:109600005AF8041B009163E70199013901914FF069
:10961000000B24E012F8010C6C2834D112F8023C43
:1096200000206C2B8346C8D14FF008084346D6E78C
:109630000AF1070A2AF0070A0734FAE802BC24F004
:10964000070435B106982044B0423FF67DAFC4E927
:1096500000BC08344FF0000B4FF00808434612F8E6
:10966000010F002853D0BBF1000F7FF472AF252803
:10967000F5D1019B013301934FF0010B4FF004082A
:10968000ECE7584697E700208346A8E70399880748
:109690007FF551AF601B4FF0010CB0F5007FFFF478
:1096A0002DAF6FF0150051E74FF0000CF5E704986F
:1096B000013004903DE7BCF1000F01D0013638E7DE
:1096C0000298023600287FF434AF0098CDE90632C4
:1096D000FDF742FDDDE9063206442AE7042B08D1F6
:1096E0000AF1040015B1DAF8001021600434824652
:1096F000B5E70AF1070323F0070303F1080A1DB1D8
:10970000D3E90001C4E9000108340823A7E7631B7B
:10971000B3F5806FC5D23DB9A6F10804E01815E78E
:109720006830050094880500029A28609B082B7019
:109730009DF81030AAB1EB70AF702FB108A80022CD
:10974000C5F1010C91450ED1C5F101030DF12008C1
:109750004FF0000A01930DF1300BD14512D1601B7F
:10976000F4E66B70E8E710F8013B190608D50CEB3E
:10977000040EB64503F07F033FF6E6AE04F8013B66
:109780000132DFE71FB198F90020002A17DB029BA6
:10979000D3B11AF80B2004F8012B0022019B1819F1
:1097A0001044B0423FF6D0AE98F8000004F8010B28
:1097B00000990392204629F0A9FB039A14440AF168
:1097C000010A08F10108C8E798F8002055F822308E
:1097D0000093029B45F822300098FDF7BDFC421C27
:1097E000DCE76FF00D00B1E62DE9F04F97B000AF68
:1097F000C7E90A3205468A4649B90378467880782F
:1098000000EB83002844564524D8A0EB050AD7F87E
:10981000803095F80280D7F8804003F00103FB61A7
:10982000EB787B62B8F1000F0CBF002404F0010458
:109830001BB1D7F880309A0715D4A4B9FB6A1BB1C5
:10984000BA6A514628469847564630465C37BD4668
:10985000BDE8F08F441C2046FDF77EFC013020441B
:109860000AF1010ACFE7D7F88030C3F3C0033B62A7
:109870002B78BB619B003B616B687B61BB6905EB2F
:10988000830BFB6A002B77D15646D844BCB11C46EB
:109890001BF8013B55F82300FDF75EFCD7F8843038
:1098A000013043B1D7F88830A34282BFD7F8843063
:1098B00023F814000134C3450644E9D1D846D7F84B
:1098C000803013F0050F0CBF4FF0020B4FF0010B6F
:1098D0004FF000097B6A9945B7D298F8013055F8E6
:1098E00023A0AE4B9A4508F10208C0F04B81AC4B67
:1098F0003A6A9A452CBF002301230AB318F8021CC8
:109900007869FB6221F099FBFB6AC8B1EA468AB02C
:109910006A46A44B05937B69CDE906314FF4007389
:10992000ADF82030A04B42F8103FA04800234FF480
:10993000125101F055F8023ED54609F10109C9E777
:1099400023B1FB6933B9A6EB0B06F6E7D7F88030F5
:109950009B07F2D55046FDF7FFFBD7F884304BB19B
:10996000D7F888309C423FBFD7F88420431C22F8A8
:10997000143001340644E0E7002C69D1B8F1000F3F
:109980006CD0D7F8803058076BD5C14607F1480036
:109990004246594629F0BAFA0BEB0803FB60002255
:1099A0000233796A8A425ED3D7F8802095F801B0F5
:1099B000F969920704EB0B03DBB254BF4FEA59027B
:1099C0000022002940F0A680D7F8801011F0040F83
:1099D00014BF494600216B70A970EA703969BA6AF0
:1099E000FB6A28469847061EFFF62FAFBB692B700F
:1099F0007B6AEB704946BA6AFB6A85F801B085F864
:109A0000028007F148009847B0F10009C0F2B68023
:109A10003B697A6A786A03EB4201FB68BA6A41449F
:109A200003EB4000AAEB0101FB6A98470028C0F253
:109A3000A780B14409EB00064FF0000B07F1380A8C
:109A4000A34569D30021BA6AFB6A08469847FCE639
:109A5000444607F138004FF0000999E74446C146F3
:109A60009AE7A14698E713F8016CDFF830C155F882
:109A7000260013F8021C6045C0F08A80DFF820C180
:109A80006045386A2CBF4FF0000B4FF0010B38B126
:109A90007869C7E9013221F0D0FAD7E90132F0B98B
:109AA000BBF1000F1ED0F96949B1611C04F1280017
:109AB00007F13004041904F8206CCCB20FE0D7F899
:109AC000801049070BD509F1280007F1300C09F186
:109AD000010100EB0C0909F8106C5FFA81F9013201
:109AE00002335EE7D7F880008007DED409F1280C46
:109AF00007F1300EF44409F101000CF8101C07F1D5
:109B0000580151FA80F009F102095FFA89F900F869
:109B1000106CE4E700215EE71BF80A3087F8373065
:109B200055F82390D7F884302BB3D7F888309B456D
:109B300021D2D7F8843033F81B80BA6AFB6A01213E
:109B400007F13700984700281ADB0644B8F1000FE8
:109B500006D14846FDF700FB00F101081FFA88F81E
:109B6000BA6AFB6A414648469847002808DB064423
:109B70000BF1010B64E74FF00008DEE74E4664E6A8
:109B8000064662E63B6A002B3FF4E0AE0023B5E6F2
:109B9000386A0028A6D04FF0000B79E7683005003E
:109BA000948805008F52050004000001EC35050083
:109BB000014B1860704700BF1003002080B50546B8
:109BC0000E46174698461EF075FD034602F0CCF887
:109BD000DFF81890044649F80030424630463946CE
:109BE000A84754F8090002F05BF800BF0800000025
:109BF00008B50446EFF31183202383F31288BFF3E3
:109C00006F8F1CF0AFFB204602F0D8FB024821F01A
:109C100035FA22F025FDFCE7435305002DE9F04716
:109C2000058B0446280717460CD501290CBF45F0C3
:109C3000100545F02005258387F31188BFF36F8F4A
:109C4000BDE8F087022905F0070540F09480204622
:109C500021F025FD052864D801A353F820F000BFAA
:109C6000399C0200779D0200239D0200E59C0200C2
:109C7000FF9C0200119D020001F007035A1F012AF8
:109C80001FD8002221F00701062BD4F8008089B2EA
:109C9000C4E9002209D1434603E0628B01326283AA
:109CA0001B68002BF9D141F002012183204621F0ED
:109CB000F6FC4FF0000900286DD041F0200121830F
:109CC00069E0042B0AD121F0070189B221832046E3
:109CD00021F0E5FC10B141F0200121834FF0000894
:109CE000C14658E02369D3F80090238B23F0070383
:109CF00043F0060323834FF0000846464BE02369F8
:109D0000D3F80490238B23F0070343F00403F1E717
:109D10002369D3F80890238B23F0070343F005034E
:109D2000E8E74FF00008C146E7E7012243F00803E7
:109D3000238387F31188BFF36F8F002A3BD1B8F1DB
:109D4000000F4AD1B9F1000F02D02D492046C84773
:109D5000EFF31187202383F31288BFF36F8F238BD8
:109D600023F008039BB22383D9063FD523F01002CA
:109D7000228303F007056669218B002EBFF67CAFB6
:109D80000023D4F8008021F00701C4E9003341F03A
:109D9000010121839946238B03F0070AAA4502D0CB
:109DA000A268002AC1D1B8F1000F02D1B9F1000FA9
:109DB000DAD00022BAE7A1680029C0D00D680029D6
:109DC000BDD04F68334652462046B8471DB12B6878
:109DD00029461D46F3E72B46FAE7414633465246ED
:109DE0002046D8F8008021F086FCA8E79A067FF587
:109DF00023AF23F02002228303F0070527E700BFEB
:109E000023B7040037B504460821C06A124D21F07B
:109E1000F1FE00234FF6FF72ADF804306368ADF831
:109E200000208DF80620E26819182B401344181AF8
:109E300060606846ADF8021021F034FE69462046A5
:109E400021F0F7FE211D204621F004FE63682B401F
:109E5000A36003B030BD00BF0000FFFF2DE9F74352
:109E60000F4681460821C06A144D21F0C3FE3C68AC
:109E7000241A80463C6004EA0506B4421CD3A0B212
:109E800010B903B0BDE8F08308236A46214648466E
:109E900021F0A7FD0028F4D16946A0B221F096FE7A
:109EA00038B1BDF80230BDF804203C602E401344A8
:109EB0001E44A4EB0804E0E70020E2E70000FFFFF7
:109EC0002DE9F04704468AB000F11407384627F020
:109ED00019FAA06A8368DB689847E06250B99F4A24
:109EE0009F48012121F0C3FD6FF0150528460AB0F7
:109EF000BDE8F087A06A8368DB6898470368013B88
:109F00001F2B01D9974AEBE7E368B3F5803F08D9E7
:109F10004FF4803200929248934A012122F02CF9AA
:109F2000E2E7A06A216807AA26F071FA08B18F4A11
:109F3000D6E7E5682DB1089BB5FBF3F203FB12559C
:109F40000DB18B4ACCE7238A012B01D8894AC7E798
:109F5000E36A029593F805804FF0FF334FF0FF322C
:109F600038461DF0D5FCE06A082121F043FEA946E1
:109F70000646238A1FFA85FA534544D8238A4B455F
:109F800000F02D8153450BD1029908234246891BCD
:109F9000204621F034FD18B902A9204621F05AFDCF
:109FA00002A92046FFF75AFF0546002840F0B2807C
:109FB000029961604FEA11494FEA0949C4F80890D3
:109FC000A3688B420DD8082303AA204621F009FD7F
:109FD000B8B903AB13F8012B904532D101300828F2
:109FE000F8D1636802A96FF30F032046029321F0B2
:109FF00031FDE36802994246204621F000FD002829
:10A000003CDA054686E0E1682B04891B13FA81F1EE
:10A01000424608232046029121F0F1FC78B102A9C2
:10A02000204621F017FD09F1010902990823424653
:10A0300020461FFA89F921F0E2FC00289ED0013564
:10A0400097E7A08803A921F0C1FD626810B9911BB0
:10A050006160B5E7BDF810A0BDF80E10E06AC4F865
:10A060000890514421F0C6FD48448242A060EED1E0
:10A07000BAF1000FEBD06FF01C054BE000F08B80C5
:10A0800063684FF6FF7906EB0308E368CDF80880B4
:10A090001FFA88F29B1B9A4223D3374A3048032188
:10A0A00021F0E5FC6168204621F0E3FC014680BB1D
:10A0B0006368324AE06813400344A3EB46036360DD
:10A0C0001340A360204621F055FE002899D1E36893
:10A0D000A288A3EB46039A421CD1204621F0C6FD7C
:10A0E0008FE7082305AA4146204621F07AFC002884
:10A0F00087D105A91FFA88F021F068FD38B1BDF8B5
:10A1000014304B4503D1BDF81830002B6AD0B04451
:10A11000BBE70D4638461DF06DFC002D7FF4E6AE22
:10A120000123A374E268238A0D4800920321144A94
:10A1300022F022F863689AB200920948114A1B0C77
:10A14000032122F019F8A3689AB2009204480E4A3B
:10A150001B0C032122F010F8C8E600BF8B5305004A
:10A160000C360500AD530500CA530500F353050036
:10A170000B5405001F540500915405000000FFFF1B
:10A1800042540500595405006B540500E26AA36867
:10A1900012681344A360D4E901318B4208D95B1AD9
:10A1A0004246204621F02BFC0028FFF62AAFEDD1D5
:10A1B0006168E36801EB46029A4288D1124BA068BD
:10A1C00001EA0302904282D0204621F052FC00288E
:10A1D0007FF417AF62680C4B1A40A26077E76FF00C
:10A1E0002C0597E7094A0A48032121F040FC6368DF
:10A1F00002A96FF30F032046029321F02BFC029972
:10A20000204621F036FC60E70000FFFF7C5405008B
:10A210000C3605002DE9F04F1E46837C95B00446B0
:10A220008946904653B96B4A6B48012121F01FFCC7
:10A230006FF00C05284615B0BDE8F08FC26A082102
:10A24000104621F0D7FCB1B20190104621F0D2FCAB
:10A25000E368019AA3EB820383420746C0F0B6800D
:10A260001EB1B8F1000F00F0B180D4F804A0CDF811
:10A2700010A005AA04A9204621F032FD05460028B9
:10A28000D8D1BDF814304B4507D0DDF810A0636875
:10A290005345EED1002E39D1CCE705A91FFA8AF03B
:10A2A00021F094FC0028F0D0BDF8183066B3B3421A
:10A2B0002CD14FEA1A43BDF816A0CDF800801B043C
:10A2C0009A44E36A1B685B4203F020030293B3469F
:10A2D000029B5B4528BF5B460CAA51462046039370
:10A2E00021F07FFB00284DD1039B00981A460CA952
:10A2F00028F03BFE50B9039B009ABBEB030B1A44BA
:10A300009A440092E4D195E7002B93D0002F3CD1E2
:10A31000BA4604F1140B4FF0FF324FF0FF335846AA
:10A320001DF0F6FA238A9D424DD0D4E901320AEBA2
:10A3300002018B422ED39BB263B3FF23ADF81E20E4
:10A34000002118220CA88DF82230ADF81C90ADF831
:10A35000206028F002FE0CA92046CDE90E8621F0EF
:10A3600053FC074648B907A821F09CFB07A92046E3
:10A3700021F05FFC074600B9374658461DF03AFB0E
:10A380003D4657E7C2DC054654E7019B1F441FFAD0
:10A3900087FABEE72046FFF735FD3DB9ADF82490BA
:10A3A000CDF82880ADF82C608DF82E5009A92046F4
:10A3B00021F0E0FC07460028DFD19DF82E30013562
:10A3C000002BAFD0D8E76FF01B07D6E76FF015056D
:10A3D00030E700BF775305000C3605002DE9FF4735
:10A3E0001E46837CBDF8309004460F4690464BB91C
:10A3F0002848294A012121F03AFB6FF00C0004B0F3
:10A40000BDE8F087C06A082121F0F4FBE368A3EB04
:10A410004003B3423AD3656801954FF0000A02AA9F
:10A4200001A9204621F05CFC0028E8D1BDF80830E5
:10A43000BB4206D102A9A8B221F0C8FB50441FFAC2
:10A4400080FA019B62689A4219D0CA4515D9BDF8B5
:10A450000C30C3B1CA4516D3BDF80A10B3426FF32E
:10A460000F0528BF334642462944204621F0B9FA59
:10A470000028C4D1BDF80C00C1E71D46CFE7BDF8E8
:10A480000830BB42E3D06FF00100B8E76FF0150071
:10A49000B5E700BF0C360500775305002DE9F047FE
:10A4A000DFF85480044607464FF0010994FAA4F5FA
:10A4B000B5FA85F509FA05F32E0108EB05156FEAE3
:10A4C000030A24EA03042B7B63B158F806301B69A6
:10A4D0006BB94644042273682846196807EA0A07DC
:10A4E00021F0C7FD002CE1D13846BDE8F0872846B1
:10A4F00098470028F6D1ECE79436050010B51049CE
:10A50000104888B0002227F0E8FA4FF40032002308
:10A51000CDE9062300240E23CDE90334CDE901441F
:10A52000094B0A4900944FF4407209481DF048FE57
:10A530000849074827F0E8F8204608B010BD00BFDA
:10A5400059A502000811002089A80200004500203A
:10A55000780C0020BF54050001481DF0CDBA00BFA3
:10A56000700A00202DE9F047804621480F4621F06F
:10A5700060FD0646002833D000252846BDE8F08758
:10A58000237B83B12368DB680BB12046984763685F
:10A5900083F8069023681B69D3B96368042219689D
:10A5A000204621F066FD013610345445E8D3B8F159
:10A5B000000FE2D0002DDFD02846FFF76FFF0546E1
:10A5C000002FF7D000214FF4A47027F05EF9F1E7D7
:10A5D000204698470028E0D009FA06F31D43E2E739
:10A5E000044CDFF814A005464FF00109DDE700BF79
:10A5F000F41E002094360500A4360500014B53F8E4
:10A60000200070473439050008B5034608462BB1D1
:10A61000044A136000F044FC002008BD6FF01500F0
:10A62000FBE700BF1403002010B5044C237813B9D6
:10A6300003481DF061FA0123237010BD5843002028
:10A64000700A002010B504460B4821F0F2FC5CB102
:10A65000BFF35B8F094B53E8001F013943E8001239
:10A66000002AF8D1BFF35B8F05481EF049FB05486F
:10A67000BDE810401DF040BAEC1E0020F01E002086
:10A6800008110020700A0020064BBFF35B8F0022E8
:10A6900053E8000F43E800210029F9D1BFF35B8F95
:10A6A000704700BFEC1E002070B5FFF7EDFF084CAF
:10A6B000084E0546B44200D370BD63685B792BB188
:10A6C00023685B6813B12946204698471034F1E7A8
:10A6D00094360500A436050010B5044C0449204604
:10A6E00020F0E6FD034B1C6010BD00BF6409002094
:10A6F00020390500E41E00200D4A0E48002310B545
:10A7000013700D4A13600D4A4FF400411360FFF7B8
:10A710007BFFFFF7E1FF0A4B0A4918468B4200D343
:10A7200010BD1A1A5C681211013222711033F5E75C
:10A73000594300202FC00400EC1E0020F01E002012
:10A7400094360500A4360500014600220148002386
:10A7500020F0CFBD64090020014820F066BE00BF94
:10A7600064090020024B0146186820F0B9BE00BF02
:10A77000E41E0020014820F0EEBE00BF6409002066
:10A7800070B52A4B1B78002B4ED0FFF7E5FF04462F
:10A79000002846D1264B274D1B68002B19DD27F0DA
:10A7A00054F94FF47A76A0FB063206FB0121D5E975
:10A7B0000020DB0B43EA41439B1A4FEAD13140F2C0
:10A7C000E93261EB0001934271F1000101D3FFF71F
:10A7D0006BFFD5E9003213F57A7342F10002C5E947
:10A7E00000320CB3BDE87040FFF7C4BF6B685B7903
:10A7F00023B12B6821461B68284698471035B5427F
:10A80000F4D32046FFF7AEFFBFF35B8F0A4B53E84C
:10A81000001F013943E80012002AF8D1BFF35B8F13
:10A82000B8E7064D064EEAE7002070BD5843002009
:10A83000EC1E002000110020F01E002094360500C0
:10A84000A436050070B50D4D297861B90120FFF7D8
:10A8500089FE0B4C0B4EB44206D3FFF791FF002844
:10A86000FBD101232B7070BD63685B791BB123683A
:10A8700020469B6898471034EDE700BF59430020FD
:10A8800094360500A436050000212DE9F84308465A
:10A89000FFF768FE044648B340F267684FF00009CE
:10A8A00001F062FA1A4B1B4A1B58136033B11A4B62
:10A8B0001B68092B02DD19481DF01EF9184F0025F1
:10A8C00044B12046FFF7EAFD044618B94FF0FF38BF
:10A8D0004FF0FF39FFF754FF064628B9B5B90F48C6
:10A8E00042464B461DF03CF93546E9E74FF0FF384C
:10A8F0004FF0FF39D4E72B689B691BB1002211464A
:10A90000284698471035BD42F5D3E8E7054DFAE7EC
:10A9100008000000E81E0020F01E0020700A002041
:10A92000A43605009436050013B5184821F081FBC4
:10A93000174B1B7873B1EFF31184202383F3128834
:10A94000BFF36F8FFFF71CFF84F31188BFF36F8F86
:10A9500002B010BD0F4B1B68002BF9D050B900227C
:10A960000023CDE900230C484FF4004200231EF0E1
:10A970008FF9EDE70928EBD107481EF0C1F9074828
:10A9800002B0BDE810401DF0B7B800BFF01E0020B7
:10A9900059430020E81E002008110020700A002002
:10A9A00010B5064B1B68044698472146A060044832
:10A9B00020F01CFDBDE81040FFF7B6BF14030020D7
:10A9C00064090020044A054B9B1AB1EBD30F34BF36
:10A9D00052F83100002070474435050094360500D8
:10A9E0002DE9F04F8FB004AFC1F34A26B8600D4691
:10A9F00090467B600C0D002E61D04FF000090A23B9
:10AA00004FF0040B07F1140AFE60C7E90799C7F875
:10AA100024900093CDF808B0CDF804A007F11C03F2
:10AA2000F9684A464046FEF7DFFEB0F5006F034680
:10AA30001CD36C468AB0D8F8041004AB2448C3E990
:10AA4000050140F2FF71D9611A464FF40071198473
:10AA5000204B42F8103F20484B464FF41251FFF76D
:10AA6000BFFFA5462C37BD46BDE8F08FC0F30A06F0
:10AA700004F11700184420F0070080083B60FFF73E
:10AA800063FE66F35325044680B13B68134A00F128
:10AA90001001C7E90839F961CDE901AB0A23009338
:10AAA000F96807F11C034046FEF79EFE66F3532546
:10AAB0007B68B9682A46204621F0FBFAD2E704F108
:10AAC000170020F007008008FFF73EFE0446EDE780
:10AAD000D4540500040000011436050085C00400AC
:10AAE0002DE9F04F87B0DDE9127ADDE9106B0546FC
:10AAF000884614469946BFB11021CDF800A03B46C8
:10AB00005A460020CDF814A0FEF7BAFCB0F5006F4D
:10AB100001460BD3194A1A4840F2FF73022107B0CD
:10AB2000BDE8F04F21F01EBB3946384604F007035C
:10AB300005F00704E40044EA831444EA402444EAAC
:10AB4000065406F11700084420F00700800803911E
:10AB5000FFF7FAFD054640B13FB10399CDF800A0DB
:10AB60003B465A461030FEF78BFC4B462246414688
:10AB7000284607B0BDE8F04F21F09BBA13550500F9
:10AB800014360500406820B1034BC01A40F3CF00D3
:10AB900070474FF0FF307047443505000EB403B5E1
:10ABA00003AB014653F8042B0448019301F062FA09
:10ABB00002B05DF804EB03B0704700BFC7C10400EA
:10ABC000CA0605D48B064CBF02490349FFF7E6BF0E
:10ABD000704700BF4C5505004B5505002DE9F04F5F
:10ABE00089B09846159B0693DDE916A39DF8509011
:10ABF000189F059204460D460493B9F1000F00F02A
:10AC0000B08007F48073079321F031FA07F0020B4C
:10AC10000246002874D078492046FFF7BFFF064659
:10AC2000BBF1000F08D017F0440F6BD173492A46CF
:10AC30002046FFF7B3FF064407F0010353B1704B02
:10AC4000704953F82920704B2046002A08BF1A4645
:10AC5000FFF7A4FF07F48073002B07F0080318BF69
:10AC60004FF00008002B79D0684B694953F8292030
:10AC70002046FFF793FF0546059B2BB165491A4611
:10AC80002046FFF78BFF0544B8F1000F05D062495D
:10AC900042462046FFF782FF054460483544069B44
:10ACA0001BB15F49224620F097F9049B002B00F06E
:10ACB0008E80DDF810803946B8F1100F204628BF8D
:10ACC0004FF01008FFF77CFF0026B54250DC00264D
:10ACD00033461AF8032053492046FFF75FFF013639
:10ACE000102E4BD0710703D14F492046FFF756FF76
:10ACF00046453346EDD34D492046FFF74FFFEEE77B
:10AD000006468DE74A4B1868002894D0494B4FF40B
:10AD10007A7B1B68B5FBF3F54FF46163B5FBF0F18B
:10AD200000FB11550BFB05F54FF03C0CB1FBF3F2AA
:10AD300003FB1211B5FBF0FEB1FBFCF300FB1E554B
:10AD40000CFB13110BFB05F50091B5FBF0F53A492F
:10AD5000CDE901E52046FFF721FF6CE707F0080584
:10AD60008AE7B8F1010F0CBF2C4834484D4696E7EE
:10AD70002D492046FFF712FF0136A6E7304920464D
:10AD80000026FFF70BFF33461AF803202D49A2F1E6
:10AD900020035F2B28BF2E222046FFF7FFFE01363F
:10ADA000102E0DD0720703D11F492046FFF7F6FE83
:10ADB000B0453346E8D81C492046FFF7EFFEEEE7E2
:10ADC000049BB3EB0803C24404937FF472AFB9F160
:10ADD000000F0AD0FB0704D50B4A0A492046FFF7AB
:10ADE000DDFE39462046FFF7EBFE204609B0BDE800
:10ADF000F04F21F0DBB900BF535505005755050052
:10AE0000443905001E6105004E55050058390500FE
:10AE10007C5505008255050086550500C7C1040014
:10AE200075C002008B55050093550500915505002E
:10AE3000FC1E0020F81E002060550500FDC1040026
:10AE4000955505009755050073B542F20F738B4277
:10AE500028BF0B4605680F4A0446052168461FF0C7
:10AE600001FC63680C495B6806460B22284621F00A
:10AE70008FF963683246694628465B6821F088F995
:10AE8000636806495B681B22284621F081F902B0FD
:10AE900070BD00BFA77F05004B8305002F83050011
:10AEA000074A00210123904206D8064A01B901232E
:10AEB0001360054B1860704740085B000121F2E702
:10AEC00040420F00F81E0020FC1E0020F8B5074F7E
:10AED0000D4604464618B44201D12846F8BD14F880
:10AEE000011BBB6801485B689847F4E77C310500AB
:10AEF000014B036000207047A039050070B5104B6E
:10AF00001C680D46B4B10F4B196800238B4202DB5D
:10AF10006FF0010070BD224612F8106B864202D01D
:10AF200001331446F2E7E06826F0F2F828B12C600D
:10AF30000020EFE76FF00C00ECE76FF01200E9E79C
:10AF400020030020A039050010B588B043680293A3
:10AF50008368C068CDE903320A680023CDE906237F
:10AF60000C4601AA0449059325F055FA079808B93B
:10AF7000059B236008B010BDF9C2040007B51B494A
:10AF80001B4821F073FD70BB1A49194821F06EFD72
:10AF900048BB1949164821F069FD20BB17491448E0
:10AFA00021F064FDF8B90146154A114822F045F830
:10AFB000C8B9024613490E48012322F018F990B986
:10AFC00001230093014602230948EF2221F058FC97
:10AFD00048B9074821F07DFC28B9054803B05DF861
:10AFE00004EB21F0A6BC03B05DF804FB980300203D
:10AFF000D40B0020800300206803002050030020B1
:10B0000024030020D45505001FB507240294044CE6
:10B010000194BDF81840009424F0A4F904B010BDC8
:10B020000109002010B5DFF824C086B04FF42814C1
:10B03000CDE904C40824029404AC0194BDF8204076
:10B04000009424F08FF906B010BD00BF180028004E
:10B050002DE9F0410C4B1C6805460E4617467CB1A5
:10B0600000F06AF963682046D3F8108032463B4608
:10B070002946C047044600F069F92046BDE8F08142
:10B080006FF00104F9E700BF241F002000230360D4
:10B09000044B5A6812B9C3E9000070471060586049
:10B0A000704700BF281F0020014B1860704700BF89
:10B0B000241F002030B585B00023CDE902330546BA
:10B0C000019000F039F9094B1C6844B9284600F09A
:10B0D000D5F8044600F03AF9204605B030BD636863
:10B0E00020461B6801A998472468EEE7281F002026
:10B0F0001FB5CDE90101039200F01EF9074B1C6852
:10B1000024B900F023F9204604B010BD636820463E
:10B110001B6801A998472468F2E700BF281F002098
:10B12000024B0022C3E90022704700BF281F002005
:10B13000024B0022C3E90022FFF7F2BF301F0020BC
:10B140002DE9F74307460C4609B100230B601F4D5C
:10B15000DFF87C9000264D450FD31E4B1D6885B34C
:10B1600055F8188C01AA41463846183D21F054F98B
:10B1700010B3D6B914BB2E461EE0D5F8008001AA44
:10B180004146384621F048F950B116B954B92E4617
:10B1900006E031680022404621F03EF90028F5D152
:10B1A0001835D8E7019B2360F1E73168002240465B
:10B1B00021F032F90028DDD1AD69D0E7019B236091
:10B1C000D9E7304603B0BDE8F08300BFA4360500E0
:10B1D0004C370500301F00202DE9F04784B002AF46
:10B1E0000446D7F8289078600D4616469846B9F17F
:10B1F000000F07D0D9F8001031BBD9F804A0BAF17C
:10B20000000F28D1391D2046FFF79AFF08B3D0F868
:10B210000C907868434632462946C847C8B16D4607
:10B220008AB002AA124BD061C2E905344FF4007310
:10B230001384104B42F8103F0F4800234FF4115174
:10B24000FFF7CEFBAD4604E03A1D21F0E5F80028FB
:10B25000D3D1002007E0D9F808300093786843463E
:10B2600032462946D0470837BD46BDE8F08700BFC3
:10B270000256050004000001643605002DE9F04780
:10B28000DFF8A890DFF8A8A080464FF0004700261E
:10B29000284C3D464C450DD3DAF80040002C40D0F8
:10B2A000183CB8F1000F24D1226952BBA469F5E71C
:10B2B0002F46EDE7B8F1000F03D122694AB91834DF
:10B2C000E8E720680022414621F0A6F80028F4D1E2
:10B2D000F5E76368BB4206DDAF4202D0AB42A8BFD0
:10B2E0002B461D46EBE7EAD19047002E08BF0646E5
:10B2F000E5E720680022414621F08EF80028D3D1EE
:10B30000D4E76368BB4206DDAF4202D0AB42A8BFC0
:10B310002B461D46CAE7C9D19047002E08BF0646F6
:10B32000C4E7AF42C4D13046BDE8F0874C370500D2
:10B33000301F0020A436050003484FF0FF324FF0C5
:10B34000FF331CF0E5BA00BF240A002001481CF0BE
:10B3500051BB00BF240A002038B5094DFFF7ECFFB0
:10B360002B785BB9FFF7E4FE00F068F8044608B9F3
:10B3700001232B70FFF7EAFF204638BD0024F9E7D0
:10B380005B4300202DE9F043048F013499B0064659
:10B390000F46A4B200F10808651EADB2B5F5004F26
:10B3A00047D04A2305AA2946404620F027FE04F547
:10B3B0007F543F34A4B28146214601230DF10B0294
:10B3C000404620F01BFEB9F1000F014610DC0028BA
:10B3D00010DC338FAB4209D132466B1E22F8383F66
:10B3E0004FF4004102234046FEF714FF2C46D3E7FA
:10B3F000002808DC2946404620F0FCFD2146404656
:10B4000020F0F8FDE5E709F160030DEB03090023E7
:10B4100009F84C3C084A009703AB05A8CDF80C800E
:10B42000ADF81040FFF7D8FE0028DFD019B0BDE816
:10B43000F0830020FAE700BF89C404007FB5012330
:10B44000694602200193FFF759FD044660BB02AA3A
:10B4500001A9022020F072FF044610B110F10C0F78
:10B4600022D10399B1F5803F23D2009A002394683A
:10B470001846084484421AD30133082BF9D10E4DE3
:10B4800069612B835368AB602846D368EB6321F076
:10B4900091F8044640B9094E6E602846FFF7F6FD64
:10B4A00028466E60FFF700FE204604B070BD9BB2D8
:10B4B000E5E76FF02004F7E7381F0020FC3A0500AD
:10B4C00008B50348034A0021121A21F0A8F808BD64
:10B4D000680C0020E84400200748084A084908B5DD
:10B4E000121A21F09EF80748074A0849BDE80840AB
:10B4F000121A21F096B800BF00000020680C00204E
:10B5000094880500000000200000002094880500B9
:10B510002DE9F047064600AF0C46002936D0E94633
:10B520008AB0D1E90012A3686D462148E8464FF081
:10B53000050ACDE90501CDE9072348F810AF1D48FC
:10B54000424600234FF42151FFF74AFACD46D4E991
:10B5500003126369AD461848C5F810A0C5E9050196
:10B56000C5E907231348002342464FF42151FFF752
:10B5700037FACD46E369114A0E48012120F0F2FD69
:10B58000A3690F4A0B48012120F0ECFD012E07D1E1
:10B59000EFF305830B4A0748103B314620F0E2FDEC
:10B5A000214630461BF0FAFEBD46BDE8F08700BFDD
:10B5B000275605004C3605005656050085560500F1
:10B5C00094560500C256050030BFFFF7FDBF00BF0F
:10B5D0002DE9F0410B4EDFF8308006EB0807CC1B5D
:10B5E000054632460949204627F090FCA0194246FC
:10B5F0000021083C27F0B1FCAC6707F10800BDE86A
:10B60000F08100BF00000000080000004C3705007A
:10B6100010B5204C2049214821F010F8A36A990167
:10B6200036D51E481E4921F009F81E20A36ADA010A
:10B6300004D51A481B4921F001F81F20154CA36AB4
:10B640001B0304D51548184920F0F8FF2120A36AF0
:10B65000590304D51148154920F0F0FF22200D4C64
:10B66000A36A9A0304D50D48114920F0E7FF23206F
:10B67000A36ADB0304D509480E4920F0DFFF24202C
:10B68000044A936A6FEA03436FEA1343936210BD5F
:10B690001D20CBE700ED00E0D55605004C36050037
:10B6A000ED560500005705001A57050038570500EC
:10B6B0005D5705007757050070B506460D46284CC6
:10B6C0002849294820F0BAFFA36AD9043CD5264866
:10B6D000264920F0B3FF1720A36A1A0504D5224893
:10B6E000234920F0ABFF18201D4CA36A9B0512D5FF
:10B6F0001D48204920F0A2FFA36BA26A100409D5BF
:10B700001D4A1948012120F02DFD1EB1A36A23F422
:10B710000043A3621920124CA36A590504D51248AC
:10B72000164920F08BFF1A20A36ADA050ED50E48C1
:10B73000134920F083FF1B20094A936A43F47F4397
:10B74000936200232B7070BD1620C5E7A36A9B048B
:10B75000F2D505480B4920F071FF1C20ECE700BF33
:10B7600000ED00E0A25705004C360500B857050073
:10B77000C9570500DC570500F55705000A580500B4
:10B78000255805003D5805002DE9F84380468946B7
:10B790001746354D3549364820F050FFAB6ADE0676
:10B7A00027D53449324820F049FF1124AB6A1D07E0
:10B7B00004D531492E4820F041FF12242A4DAB6AAE
:10B7C000980718D52D492A4820F038FF6E6BAB6AD0
:10B7D000190646D52A4A26483346012120F0C2FCE4
:10B7E000B9F1000F03D0AB6A23F08003AB621324DE
:10B7F00003E01024DAE76FF015061B4DAB6ADA0799
:10B8000004D520491A4820F019FF1424AB6A9B067E
:10B8100004D51D49164820F011FF1524124B9A6AD1
:10B82000D50602D49A6A90070AD55B68190507D530
:10B830004146304600F0EAF910B180F3098802244D
:10B84000094B9A6A920642BF5A6A22F400525A621F
:10B850009A6A42F0FF029A6200233B702046BDE8DC
:10B86000F8836FF01506C2E700ED00E06C580500A4
:10B870004C36050082580500C9570500B55805002B
:10B88000CD580500E35805003D5805002DE9F0416D
:10B89000684B8AB0D3F8048000AF0446C8F30806AA
:10B8A000002585F31188BFF36F8F02F07F43B3F15A
:10B8B0007F4F07D102F00C03082B12D15E495F487D
:10B8C00020F0BCFE00252C460023FB71F31E092B43
:10B8D00000F28F80DFE803F00A8588818D8D8D8DE1
:10B8E0008D8B10074CBF0C460125EDE7544953489A
:10B8F000504E20F0A3FE0023FB71F36A9A0705D592
:10B9000050494E4820F09AFE00232DE0F36A002BA8
:10B9100001DA4D49F5E7F36A5B00F5D54B49474835
:10B9200020F08CFE7369A26943F480737361BFF3E6
:10B930004F8FBFF36F8F32F8023C726922F480722E
:10B940007261BFF34F8FBFF36F8F03F47F42B2F585
:10B950005F4F2BD1DBB2022B28D123683C4A3748FA
:10B96000012120F0FFFB2368FA79DAB907F1080614
:10B9700004F1200C20686168324603C20834644533
:10B980001646F7D17A6A002D50D0C2F3080121B9CA
:10B990006FEA52226FEA42227A6207F108011846E2
:10B9A000FFF7B6FD2837BD46BDE8F081214B9A6A06
:10B9B000D2B22AB1FA1D01212046FFF7E5FE0EE0C2
:10B9C0009A6A12F47F4F04D0F91D0120FFF774FE2C
:10B9D00005E09B6AB3F5803F96D3FFF719FE034657
:10B9E000C2E7FA1D0021E7E7F91D0020EEE719493B
:10B9F00087E7194A194B18F4F87FE8468AB008BF60
:10BA000013466A461649CDE905134FF40073ADF8A5
:10BA10002030103E134B079642F8103F0748002392
:10BA20004FF41151FEF7DCFFC5466DE76FF30802D6
:10BA3000B2E700BF00ED00E0305905004C360500CC
:10BA40005B5905007259050093590500A15905007D
:10BA5000C0590500DC5905000259050017590500B9
:10BA6000005A050004000001044B5A6942F010021C
:10BA70005A615A6922F008025A61704700ED00E0ED
:10BA8000EFF30880EFF3098101B57246FFF7FEFE80
:10BA900001BD00BF0B4880F308881AF083FC20200A
:10BAA00080F3118808484FF40461401880F3098836
:10BAB000EFF314800221084380F31488BFF36F8FE3
:10BAC00000F06CF880880020C06E00201EF0040F8B
:10BAD0000CBFEFF30880EFF30980816911F8021CB5
:10BAE0000229FFD001B5724620F09DFD01BD00BFC7
:10BAF00040B2002807DB044A4109012300F01F007F
:10BB0000834042F82130704700E100E040B2002855
:10BB10000CDB4309064900F01F002033012282405C
:10BB200041F82320BFF34F8FBFF36F8F704700BFE3
:10BB300000E100E0054B420900F01F0053F822200D
:10BB4000012303FA00F01040704700BF00E100E05D
:10BB500040B20028A8BF00F1604001F10101B8BF68
:10BB6000064B4FEA4111ACBF00F5614000F00F00F9
:10BB7000C9B2B4BF195480F80013704714ED00E047
:10BB8000044B054A23F07F039360BFF34F8FBFF34D
:10BB90006F8F70470070020000ED00E008B5FFF7FE
:10BBA000EFFF0B4AD2F8883023F47003C2F88830D4
:10BBB000EFF3148323F0040383F31488BFF36F8F30
:10BBC000FFF77EFCFFF788FC00F0B0F81BF00CFDDF
:10BBD00000ED00E042F8203C009B42F81C3C0A4982
:10BBE000019B42F8183C029B42F8143C21F00101F1
:10BBF0004FF0807342F8043C42F8081C0023203ABE
:10BC00000265C367704700BFBD9B0200094A034637
:10BC1000906870B113F1160F806E05D0A0F140024C
:10BC2000934205D3834203D2814228BF002070474C
:10BC3000002070474C3C002008B515460B4A0C4BC1
:10BC40009060826F1A600E4600F0A0F82C4686F3D2
:10BC500009880020034B984720460021002200233A
:10BC6000014C204753C60400BD9B02004C3C002001
:10BC7000781F0020014B10221A61704700ED00E090
:10BC8000054B5A699B689A421FBF044A536843F0A8
:10BC900080535360704700BF4C3C002000ED00E033
:10BCA000084B9B6883420BD1EFF3058343B1064BEE
:10BCB0005A6842F080525A605A6A22F400425A622C
:10BCC0001CF0FEBC4C3C002000ED00E014498A68EA
:10BCD0004FF030001044EFF3098C80E8F01F202073
:10BCE00080F31288BFF36F8F0E4F4FF000664A69E2
:10BCF0008A603E60906F0C4C2060D06F0023D36749
:10BD000080F3118804B5104600F040F8BDE8044007
:10BD100002F1300090E8F01F8CF3098870470000B2
:10BD20004C3C002004ED00E0781F00200448002374
:10BD30002021C2180133302B82F80013F9D170474B
:10BD400000E100E008B5EFF30583064A103B02EB83
:10BD5000C30152F8330049688847BDE80840FFF73F
:10BD60008FBF00BF403205000148006870470000E7
:10BD7000781F0020024B034A0348012100F08AB8D3
:10BD80000000042000000020183B0500836E054AD7
:10BD9000403B1360044B4021C2E9011310460121CE
:10BDA00000F082B87C1F002000000B1508B5034688
:10BDB0001048D0F89020C2F30722013A934207D9E5
:10BDC0000D480E4A012120F0CDF96FF0150008BD95
:10BDD000C0F898300A6822F01F021A4342F010029D
:10BDE000C0F89C208A6842F00102C0F8A0201846E2
:10BDF000EDE700BF00ED00E02C360500175A050006
:10BE0000F0B50E4685B01F4604460025B5420DDA52
:10BE1000606810B397B1431E18420AD0104A114807
:10BE20002B46012120F09EF96FF01502104605B057
:10BE3000F0BD1F28F2D921680B42EFD1236801938E
:10BE400020F02AFCA36801A90343D0B20393FFF7B3
:10BE5000ADFF10F1160FE7D0421C01350C34D5E7C9
:10BE60003D5A05002C360500044B0522C3F89420EA
:10BE7000BFF34F8FBFF36F8F704700BF00ED00E03F
:10BE8000BFF35F8F024B0022C3F89420704700BFBE
:10BE900000ED00E010B5034C01232278FFF7B0FF5E
:10BEA000207010BD5C43002008B50B4A00231278B7
:10BEB000FFF7A6FF10F1160F07D0084A0021D2F8AD
:10BEC0009030C3F30723984200DB08BDC2F8980006
:10BED000C2F8A0100130F2E75C43002000ED00E062
:10BEE0002DE9F0435D485E49D0F890300C68C3F30B
:10BEF00007239C4285B000F2AE80FFF7C1FF49687E
:10BF00000022944201F10C011AD1564F564D3C705B
:10BF10006846FEF7EDFF554C554E81464FF0000840
:10BF2000C14520D13B784D490020D1F89020C2F383
:10BF300007229342C0F28980FFF796FF002050E06D
:10BF4000C0F8982051F80C3C23F01F03134343F032
:10BF50001003C0F89C3051F8043C43F00103C0F8D2
:10BF6000A0300132CDE7009800EB08114FEA081C21
:10BF7000CB682340B3F5000F49D00BD8B3F5001FB1
:10BF800032D0B3F5800F37D0B3F5801F14D008F14D
:10BF90000108C5E7B3F1007F42D0B3F1805F48D01C
:10BFA000B3F1807FF3D150F80C3088684A6820F0F4
:10BFB00073FB40F0887009E050F80C3088684A68DC
:10BFC00020F06AFB40F0885040F43020039001A933
:10BFD0003878CDE90123FFF7E9FE002831DA6FF068
:10BFE000150005B0BDE8F08350F80C3088684A6849
:10BFF00020F052FB3043E9E750F80C3088684A687B
:10C0000020F04AFB40F0007040F40030DEE750F8CA
:10C010000C3088684A6820F03FFB40F08270D5E71A
:10C0200050F80C3088684A6820F036FB40F48020D5
:10C03000CCE750F80C3088684A6820F02DFB284384
:10C04000C4E73B7801333B70A1E7C1F89830C1F8F1
:10C05000A000013369E74FF0FF30C2E700ED00E0D8
:10C06000243B05005C430020000002110000F0FFAB
:10C0700000000811F0B587B007460E4614460021AF
:10C08000102268461D4626F068FF02238DF8023014
:10C090002A46054B019321466846CDE904761EF0F9
:10C0A00071FB07B0F0BD00BFB9C6040008B5024B74
:10C0B0001B689847002008BD881F0020034B044AD6
:10C0C0001860937843F0020393707047881F002034
:10C0D000E003002008B50649064821F00701C1F138
:10C0E000005202F580221EF036FF002008BD00BF7E
:10C0F0000BB400208C1F002003484FF0FF324FF09C
:10C10000FF331BF005BC00BFF003002001481BF00B
:10C1100071BC00BFF003002038B50546FFF7ECFF07
:10C1200008482A4608211EF0A5FE044628B925B174
:10C13000FFF71AFE044B0C221A50FFF7E7FF2046C8
:10C1400038BD00BF8C1F00200C00000010B5044655
:10C15000FFF7D2FF21460348FDF70EF9BDE8104076
:10C16000FFF7D4BF8C1F002070B5A0FB015434B979
:10C170002846FFF7D1FF064640B9304670BDFFF7AD
:10C18000F3FD054B0C221A500026F6E72A462146FD
:10C1900026F0E3FEF1E700BF0C00000070B5416936
:10C1A000867A0B4D044659B1437ADB0706D4242323
:10C1B00003FB0653DB691B689B6898470023636198
:10C1C0002420214600FB0650BDE8704025F05CB9F4
:10C1D000B40A0020024B242202FB0030704700BF4B
:10C1E000B40A0020827A064B242101FB02331A6A2A
:10C1F0001B7D1B33801A23F00303B0FBF3F0704761
:10C20000B40A002038B5074B827A242404FB023399
:10C21000DB69D3E901240C601568FFF7E3FF04FB39
:10C22000005038BDB40A00202DE9F04385B0054622
:10C230006846039190461C4625F009FCDDE900673D
:10C24000EFF31189202383F31288BFF36F8F6B8A7A
:10C25000002B41D02A8A9A4225D900220023284661
:10C260001BF018FC0446F0B189F31188BFF36F8FFF
:10C27000039B002B41D032463B46684625F00CFC20
:10C28000A27A264B242101FB02332046DB691B687E
:10C2900003A91D68DDE90023A847606170BB204643
:10C2A000FFF77CFF24E0698A4B1E6B8289F31188BB
:10C2B000BFF36F8F2B7D2A8A2C6A1B3323F0030375
:10C2C000521A02FB0344154B154AEB1A9B105343B9
:10C2D000A3722B7DE372CBE789F31188BFF36F8FD5
:10C2E0002346424628461BF0D5FB04460028BFD112
:10C2F0000024204605B0BDE8F083636101230025DA
:10C300002381039B6382E27A6560294604F1180069
:10C3100026F023FE63692582E360EAE7B40A002081
:10C32000398EE33870B50D4C242500B970BD037A01
:10C330004668002BFAD0013BDBB20372002BF5D12B
:10C34000C3604360837A05FB03439B6913B198473D
:10C350003046EAE7FFF722FFFAE700BFB40A002001
:10C360000C4B0122C3F840254FF080434FF0805121
:10C37000C3F87825D1F83001082805D1D1F8341157
:10C38000022908BFC3F838260122C3F880250020FF
:10C39000704700BF00E0014048B1054B054A1B68EB
:10C3A000B3FBF2F35843044B43F0010318477047C3
:10C3B000B408002040420F0000380500BFF34F8F43
:10C3C0000549064BCA6802F4E0621343CB60BFF331
:10C3D0004F8F00BFFDE700BF00ED00E00400FA054D
:10C3E00008B5054A054B136010463C2353601AF00C
:10C3F000AFF8002008BD00BF981F00203FC00F000D
:10C400002DE9F04190F8283003F01F03012B04467A
:10C410000F4600F128062FD0022B18D08BB394F8CA
:10C420002910204620F0C8FA024678B3304620F0A2
:10C43000ADFB1D4D002834D113693BB33A4631465C
:10C44000204698470346FFF78FFC2B5024E0818D50
:10C45000C9B220F092FE05460028E0D0304620F018
:10C4600095FB024668688368CAB99B6873B13A460F
:10C470003146BDE8F0411847818DC9B220F064FE15
:10C48000E9E790F8291020F09BFEE4E7FFF76CFC49
:10C49000054B6FF085021A500020BDE8F081DB6883
:10C4A000E4E7D368C9E700BF0C0000002DE9F04FB6
:10C4B0000B7E33F0800893B004460D46164640F0DC
:10C4C0008E847AB10846FFF72DFF6B7EDF0703D419
:10C4D0009E0711D52B7E7BB9204613B0BDE8F04FE7
:10C4E00020F080BB4A7E00F12809900708D5802BF8
:10C4F0000CD12846FFF716FF404613B0BDE8F08F79
:10C50000910700F02784002B40F02484D2072FD518
:10C510002B8A082B40F00684EA681368A3625368EC
:10C52000C9F804302946002020F02CF9054610B146
:10C53000FFF7F8FEEFE0484620F028FBE28D70B9E7
:10C54000B2B12946A06923F06AFD0146002800F037
:10C550002D84204613B0BDE8F04F20F0B4BF3AB1AF
:10C560001146204620F0AAFF0546002800F01E8450
:10C57000FFF7FAFB94F82880B14F002318F0600F02
:10C58000C351C8F3411307D0032B40F0BD81FFF71F
:10C59000EBFB6FF0850337E0484620F0F7FA94F89C
:10C5A0002930002840F04E81013B0A2BEFD801A230
:10C5B00052F823F02BC702008FC50200B7C7020054
:10C5C0008FC50200E1C502008FC502008FC50200C1
:10C5D0008FC5020051C602008FC50200B3C602001B
:10C5E000618D7F29D3D8A38D002BD0D1E38D002B73
:10C5F000CDD118F01F0FCAD194F83030022B05D1DD
:10C60000FFF7B2FB4FF0FF333B5076E0A0690369C0
:10C6100093F880301B0707D5C9B220F019FB80467C
:10C6200028B1002D6CD167E7012384F8393094F8E4
:10C630003030012B0AD1638D43B984F83030FFF7D5
:10C6400093FB3B58002B00F0858056E00123F4E774
:10C65000204620F010F9628DFF2A014697D8E38D1D
:10C66000002B94D194F82830D80690D194F830302B
:10C67000002BC5D02AB1D2B2204620F08BFC002876
:10C68000BED0618D94F838308B42D8D0C9B22046E4
:10C6900020F087FC80460028C3D1628D002A14BF99
:10C6A0000223012384F830300521204620F096FF34
:10C6B000C5E708F01F08B8F1010F7FF468AFE38DFC
:10C6C000002B7FF464AF628DFF2A3FF660AFA18D2F
:10C6D000FF293FF65CAF94F83030022B90D1D2B2F4
:10C6E000C9B2204620F06DFE10F1020F804640F0E6
:10C6F0001081FFF739FB47F8008065B14FF0000863
:10C700002846FFF70FFEB8F1000F7FF4F5AEFFF7F4
:10C710002BFB3B58F3B1484620F038FA0346A0699A
:10C72000002B00F04F83802155E3E38D002B7FF435
:10C730002EAF94F83030002B3FF462AF012BA18D67
:10C7400002D100297FF45CAF18F01F080CD0B8F1BB
:10C75000020F16D0E38D002B40F0D782204620F048
:10C760002BFA0028D7D1B7E600297FF449AF638DB3
:10C77000012BEFD194F86C3061F3C30384F86C3073
:10C78000E8E7B4F82AA0BAF1000FE3D15FFA81F824
:10C790004146204620F008FF0346FFF7E5FA3B50EC
:10C7A000013302D14FF0FF383BE752464146204665
:10C7B00020F0F2F943E7E38D002B7FF4E8AE628DC1
:10C7C000A38D022A5FFA83FA11D108F01F085AEAF2
:10C7D00008087FF4DCAEA0690122190A20F015FADE
:10C7E00000287FF4D4AE012384F8393027E794F889
:10C7F000301000293FF404AF012902D1002B7FF44F
:10C80000FFAE18F01F0811D0B8F1020FA2D1002A14
:10C81000A0D15146204620F0B2FE0346FFF7A4FA0D
:10C820003B500133BED001225146C0E7002B7FF4BC
:10C83000E7AE012A8ED194F86C3043F008039DE7EF
:10C840000C0000000A2B3FF6A2AE01A252F823F022
:10C850007DC802008FC502008FC502008FC502008F
:10C860008FC502008FC50200F7C802008FC5020005
:10C8700087CC02008FC50200B1CC0200E38D022BF1
:10C880007FF485AE94F83030002B3FF4B9AE012B25
:10C89000A18D02D100297FF4B3AE18F01F0811D08A
:10C8A000B8F1020F1CD04FF0000805F10C0A5046F9
:10C8B00020F064F9E38D984218D2FFF755FA6FF033
:10C8C0000B03A1E600297FF49BAE94F86C304FEA8D
:10C8D000930808F00208C3F3001348EA0308E4E7EA
:10C8E000C9B2204620F06FFE8046DEE74146504642
:10C8F0001FF076FFA3E6B4F82AA018F01F0F4FEA46
:10C900001A235FFA8AFA09D029462046FFF778FDF4
:10C910008046B8F1000F7FF484AE90E6013B0E2B09
:10C920003FF635AE01A252F823F000BF69C90200FC
:10C93000A9C9020053CA02008FC502008FC50200B8
:10C940004BCA02004BCA02008FC502008FC502000D
:10C950008FC502008FC502008FC502008FC502007F
:10C960008FC5020095CB020005F10C08404620F06F
:10C9700005F983462046B4F82EA01FF07CFF20B1B5
:10C9800001287FF404AE616F00E0216F002900F000
:10C990002A820A78DA4528BFDA46524528BF52462D
:10C9A00040461FF00CFF4AE620461FF064FF0AF1E4
:10C9B000010201900146D2B2204620F0C5FA80461D
:10C9C00000283FF4E4AD05F10C0AD0F804B050465D
:10C9D00020F0D4F89BF80020824228BF0246594636
:10C9E00050461FF0ECFED8F80CB0BBF1000F09D197
:10C9F000298AE38D99427FF622AEC91A50461FF06C
:10CA0000F9FE1CE6DBF8040083681B6B13B9DBF846
:10CA100000B0EAE7019998470028F8D0A0F104088F
:10CA200058F8041F0029F2D00A78002AEFD05046A7
:10CA3000CDE9022120F0A2F8029A0399904238BF72
:10CA400082B250461FF0BBFEEAE720461FF013FFFC
:10CA50009DE55246032120461FF0EEFF8246002846
:10CA60003FF495AD20F085F8B4F82EB09AF8153063
:10CA7000C8B99AF814808DF828808DF82930DAF832
:10CA8000103005F10C0A1B88ADF82A30504620F012
:10CA900075F8C3455A4628BF4246824228BF02461F
:10CAA0000AA950467DE7DAF808208DF81530C14B09
:10CAB0001340C14A4FF0000893428DF8148058D1BA
:10CAC000102106A823F0D4FD021EFFF660AD0AA9CE
:10CAD000102ADFF8E8E20DF1180C084628BF1022F2
