:020000022000DC
:1070000080870020F1BB020093BF0400DDBB0200BB
:10701000DDBB0200DDBB0200DDBB020000000000A2
:1070200000000000000000000000000029BC020079
:10703000DDBB02000000000029BE0200DDBB020033
:10704000A1BE0200ED040400A1BE0200A1BE020028
:10705000A1BE0200A1BE0200A1BE0200A1BE0200AC
:10706000A1BE0200A1BE0200A1BE0200A1BE02009C
:10707000A1BE0200A1BE0200A1BE0200A1BE02008C
:10708000A1BE0200A1BE0200A1BE0200A1BE02007C
:10709000A1BE0200A1BE0200A1BE0200A1BE02006C
:1070A000A1BE0200A1BE0200A1BE0200A1BE02005C
:1070B000A1BE0200A1BE0200A1BE0200A1BE02004C
:1070C000A1BE0200A1BE0200A1BE0200A1BE02003C
:1070D000A1BE0200A1BE0200A1BE0200A1BE02002C
:1070E000A1BE0200A1BE0200A1BE0200A1BE02001C
:1070F000A1BE0200A1BE0200A1BE0200A1BE02000C
:1071000053B94AB9002908BF00281CBF4FF0FF310E
:107110004FF0FF3000F00CB8ADF1080C6DE904CE73
:1071200000F022F8DDF804E0DDE9022304B0704746
:10713000704700BF10F8012B11F8013B012A28BF4E
:107140009A42F7D0D01A7047034611F8012B03F882
:10715000012B002AF9D17047034613F8012B002AAE
:10716000FBD1181A013870472DE9F0478C468E463E
:10717000089E154604461946002B40F0D080724503
:1071800047D9B2FA82F74FB1C7F120030EFA07FCD4
:1071900020FA03F3BD4043EA0C0CBC404FEA154E05
:1071A000A8B2BCFBFEF8230C0EFB18CC08FB00F9C0
:1071B00043EA0C43994528D9EB1808F1FF3204D271
:1071C000994502D9A8F102022B44A3EB0903A4B20A
:1071D000B3FBFEFC0EFB1C330CFB00F044EA034443
:1071E000A04214D92C190CF1FF3304D2A04202D9C9
:1071F000ACF102032C44241A43EA02401EB1FC40C5
:10720000002334607360BDE8F0874246DDE76346E3
:10721000F1E7002A79D0B2FA82F3002B3FD0194669
:10722000C1F1200302FA01F52EFA03F20EFA01FE73
:1072300020FA03F343EA0E034FEA154E00FA01F475
:10724000B2FBFEFCAFB20EFB1C201A0C0CFB07F8C5
:1072500042EA004290455AD9AA180CF1FF3004D2F4
:10726000904502D9ACF102002A44A2EB08029BB27D
:10727000B2FBFEFC0EFB1C220CFB07F743EA0243A9
:107280009F4246D9EB180CF1FF3204D29F4202D93B
:10729000ACF102022B44DB1B42EA004202E0AEEBFF
:1072A000020301224FEA154EAFB2B3FBFEFC200CE5
:1072B0000EFB1C330CFB07F840EA034398452AD920
:1072C000EB180CF1FF3004D2984502D9ACF1020062
:1072D0002B44A3EB0803A4B2B3FBFEFC0EFB1C3350
:1072E0000CFB07F744EA0344A74216D92C190CF10A
:1072F000FF3304D2A74202D9ACF102032C44E41BB1
:1073000043EA00400F46114678E71F2188E76046B0
:10731000ABE76246BFE76046DBE76346EFE77345EE
:1073200006D916B9002108466DE7C6E9000EF9E74F
:10733000B3FA83F787B9734501D3824207D8841A19
:107340006EEB030301209C461EB900215BE7384623
:10735000FAE7C6E9004CF8E7C7F1200CBB4022FA77
:107360000CF51D4320FA0CF12EFA0CF30EFA07FE71
:1073700041EA0E014FEA154900FA07F4B3FBF9F8A8
:107380001FFA85FE09FB18300B0C08FB0EFA43EAC6
:1073900000439A4502FA07F240D9EB1808F1FF3092
:1073A00004D29A4502D9A8F102002B44A3EB0A03A8
:1073B00089B2B3FBF9F809FB183308FB0EFE41EA6A
:1073C00003418E452CD9691808F1FF3304D28E454C
:1073D00002D9A8F10203294443EA0040A0FB029825
:1073E000A1EB0E014145CE46434602D306D14C45A2
:1073F00004D2B9EB020E68EB05030138002EA4D0CD
:10740000B4EB0E0261EB030101FA0CFC22FA07F364
:107410004CEA0303F940C6E9003196E74046C5E768
:107420004346D9E700000000F0B5002285B01146C0
:1074300002AF40F6034007F0F7F9044600285BD19D
:1074400006F0B4FF21463A1D41F2030007F0ECF9C3
:107450000446002850D17A68294DD168D1F801003E
:10746000D1F8051005F1900303C3104605F008F8A4
:1074700021463A1D41F2010007F0D6F904460028E2
:107480003AD17868C3685A7885F888205A88A5F870
:107490008A201A7985F88920B3F80720A5F88C206E
:1074A000B3F80530A5F88E3004F0EAFF21463A1D06
:1074B00041F2020007F0B8F90446E8B9D7F804C071
:1074C000DCF80C2005F19806531C41321868596805
:1074D000344603C4083393422646F7D1604604F08D
:1074E000CFFF95F894305A0610D4064A0648012179
:1074F00026F088F96FF0120420460C37BD46F0BD27
:10750000D0000020C05F0500483205003A1D002170
:1075100042F2030007F088F904460028ECD17A68AB
:10752000A94BD168D1F80100D1F8051003C310466A
:1075300004F0A6FF21463A1D42F2020007F074F95A
:1075400004460028D8D17E68F468B4F801309AB2B5
:1075500092B1E27882B1A5F81431E378032B06D01A
:107560000322009299489A4A022124F093FAE27881
:107570009848114629F0D3FD304604F081FF95F874
:1075800094601F2316F02006A5F8283119D14FF07A
:10759000FF304FF0FF3106F031FF0446002800F0C5
:1075A000BE8102210C3024F0B6FD01230370467029
:1075B0002146324640F66D4007F036F90446002871
:1075C0009AD195F8B4301B0712D53A1D002142F22A
:1075D0001C0007F029F9044600288DD17868C3689B
:1075E000D3F80120D3F80530C5E93E2304F048FF65
:1075F00095F8F0309E0623D5B91C384607F0BCF943
:10760000044600287FF478AF4FF0FF304FF0FF3191
:1076100006F0F4FE0646002800F0818104210C30BB
:1076200024F079FD3B8803807B88438022463146E5
:1076300042F2240007F0F8F8044600287FF45CAF1B
:1076400095F8F0305C0610D53A1D002142F22A0070
:1076500007F0EAF8044600287FF44EAF7868C36864
:107660005B7885F82A3104F00BFF4FF0FF304FF0C4
:10767000FF3106F0C3FE0646002800F050810821C5
:107680000C3024F048FD95F8F04014F0400F40F223
:107690000223024608BF0323A0074CBF43F02C037C
:1076A00043F00C03A10695F8F11048BF43F04003E6
:1076B00011F0090F18BF43F4006304F0010443EA1A
:1076C0000410002126F0D5F80022314642F20100D4
:1076D00007F0AAF8044600287FF40EAF95F894301E
:1076E000B5F8141198065CD4C9B93A1D41F20500E9
:1076F00007F09AF8044600287FF4FEAEB5F814317E
:107700007C684BB9E368B3F80120A5F814219A8886
:107710003048114629F003FD204604F0B1FE4FF039
:10772000FF304FF0FF3106F069FE0446002800F0FC
:10773000F68008210C3024F0EEFC95F8F030D907E3
:10774000024638D424484FF0005126F092F82146E2
:10775000002240F6014007F067F8044600287FF455
:10776000CBAE01463A1D4FF6014007F05DF8002808
:1077700038D01A4A1548022126F044F82B7F002BF6
:1077800040F0BD8026F074FA044600287FF4B4AEC1
:1077900009F080FC044600287FF4AEAE06F0CEFF70
:1077A000AAE60029BBD10E4A0848012126F02AF892
:1077B0006FF00404A0E602A1D1E90001C5E700BF13
:1077C0009088000200800020C0010020483205009F
:1077D000E45F0500E8010020108800024D6005000C
:1077E0002A6005007B68DC68B4F80130042B96BF82
:1077F000584A594952F823106E468AB002AA57488F
:10780000D3614FF400731384554BC2E9050142F86C
:10781000103F54484FF4135126F007F8B4F80120F4
:10782000B4F80330022AB54649D1052B47D84E4A51
:1078300052F823106E468AB002AA4C48D3614FF426
:1078400000731384464BC2E9050142F8103F4FF420
:107850001351444825F0E9FF637994F806C0D4F841
:107860000900032BB54698BF414AB4F8076094BF9E
:1078700052F8231038496C468CB002AADFF8F4E0C5
:10788000C2E9073C4FF4007393853B4BC2E905E125
:10789000C2E909604FF4735142F8103F314825F0B6
:1078A000C4FFA546786804F0EBFD3A1D00214FF6B1
:1078B000024006F0B9FF044618B1304A5AE726499B
:1078C000B8E77868C368B3F80130A5F8D93004F098
:1078D000D7FD95F8D9305A077FF550AF3A1D2146AC
:1078E0004FF6034006F0A0FF08B1254A42E778684A
:1078F000C3685B7885F8D83004F0C2FD3EE72E7887
:10790000002E7FF43FAF95F8D9309B061FD54FF07E
:10791000FF304FF0FF3106F071FD044610B96FF0F3
:107920006804E9E506210C3024F0F5FBD5F80130B8
:107930000360144B9B888380214632464FF60640F5
:1079400006F072FF044600283FF41CAFD4E56FF048
:107950008504D1E5C0380500C65D050071600500ED
:107960000400000148320500A83805008A600500BF
:1079700098380500A260050007000001CF600500EF
:10798000F8600500D10000202DE9F843D0E9073860
:10799000856903EB08042F34A5420F46164619D813
:1079A000DFF86C80A3FB080117A3D3E90023FFF7DE
:1079B000A7FB0346601BA0FB080123F07F4412A332
:1079C000D3E90023FFF79CFB20F07F403C60306050
:1079D000BDE8F883DFF838900BA3D3E90023A5FBBB
:1079E0000901FFF78DFB20F07F440A480A2106A316
:1079F000D3E90023E8FB0901FFF782FB20F07F4079
:107A00003C603060BDE8F8838D49FD1A0700000036
:107A100000CA9A3B00166BF1002800F069812DE93D
:107A2000F04FBB4C94F85E2012F001058DB040F091
:107A30004C81607EFF2300F00300A37618F096F9D6
:107A400094F85E00420700F14481627F94F8293087
:107A500004EB820204EB8303166AD3F82C8086B110
:107A6000AB48314612F0DAFC33785B0605D50621C7
:107A70000EF01AFB002800F08481A548414612F060
:107A8000CDFC337813F00E0F40F0A98063691BB171
:107A90000C200DB0BDE8F08F10F01AFB81460028D5
:107AA00000F0788110F020FB8246002800F06F8102
:107AB00012F0E2FE0546002800F07381D0F888003D
:107AC0004FF6FF73AB8405F1100B002800F06481C2
:107AD00005F17C0205F178010EF0F2FA8D4AD2F838
:107AE0000130C5F8A331C5F8A931B5F8763012F8E0
:107AF000011B23F4EF6323F0070343F48C7343F07B
:107B00000103A5F876309388A5F8A731A5F8AD3123
:107B100095F8A23101F0010161F3000361F3410323
:107B200085F8A23195F8373003F03F0363F07F0307
:107B300085F8373095F88E3023F0070385F88E30BE
:107B400095F83C3023F00F03002785F83C304FF4C4
:107B5000C023C5F88E312846C5E91277C5F888706C
:107B6000A5F88C7085F839706F85C5F82E702F6573
:107B7000A5F86071A5F89471A5F88A7114F082FED9
:107B800085F86471C5F8689113F070F995F89C3127
:107B900060F3020385F89C3113F06EF995F89C317F
:107BA00060F3C50385F89C3195F8623167F34103B2
:107BB000012185F86231284613F030FD05F1E0001F
:107BC00014F080FCC4E9159AC4F814B0C5E9027732
:107BD0002F702D6119F034F9002840F0D480237EF5
:107BE0000121C3F342030DF12B008DF82B300EF071
:107BF00009FC024600287DD04146304612F002FAC8
:107C0000454A464BB4F85C800721E0FB0231002571
:107C10001846C4E902553CA3D3E900232570FFF7B9
:107C20006FFA60600FF084FD00F10907B8F1000FF2
:107C300007D1357805F00F05A5F10105B5FA85F5F1
:107C40006D09207E636865F3000010F00105207661
:107C50006ED0334A0992002010600225314ADFF8C5
:107C6000C88004930BAE019305920321CDE9020075
:107C7000069400903B46CDF81C8008962A460B954A
:107C80000FF07AFC314610F0B9FA98BB27490591FC
:107C90004AF2D8330093CDE90300CDE90100CDF8D5
:107CA0001C80089606943B46012203210B950FF099
:107CB00047FC314610F0A2FAE0B994F85E3001209A
:107CC000034384F85E3018F033F800200DB0BDE8AF
:107CD000F08F2A4604F15F01C0F3C00018F07EF96E
:107CE000FF28A0763FF4B1AE284618F059F8ACE66C
:107CF00012F020B96369002B3FF4CAAE12F0F0F81D
:107D0000C6E600BFAFF300808D49FD1A07000000F2
:107D10006C360020BF7E050000CA9A3B8C49FD1AD4
:107D2000603600207DA003002D780300A19D030094
:107D3000214A2248049303F24713069402959121A5
:107D40001360A8FB000301FB08311D4B07931D4B7B
:107D500005934FF6FF7309924FF0020803930BAEA1
:107D600013A3D3E90023CDF82C800896FFF7C8F9B8
:107D70003B46CDE900504246284603210FF0FCFB6C
:107D800097E7122085E612F0ABF8032081E648461B
:107D900010F0A4F907207CE605F18000C5F8880002
:107DA00096E6504610F0A6F9484610F097F9F1E72C
:107DB0008D49FD1A0700000060360020002AE78484
:107DC0002D7803007DA0030070B5037E8AB0C3F355
:107DD00042030D46044601210DF1230016468DF89D
:107DE00023300EF00FFB31460246284612F00AF906
:107DF0001F4A204B0721E0FB023118461AA3D3E9A2
:107E00000023FFF77DF963689842054622D21B1ACA
:107E100000220192184A02930221184B0991A21ADA
:107E2000CA40A3FB0232D20800230A4409AE144917
:107E30000591CDE9033303210696D2B2009318468B
:107E40000FF0F0FB314610F0D9F938B96560002029
:107E50000AB070BDFBD9C21A0023DAE70C200AB0C1
:107E600070BD00BFAFF300808D49FD1A0700000010
:107E700000CA9A3B8C49FD1A6C360020F712DA4B87
:107E80002D780300000000002DE9F04F05468BB06F
:107E90008B4601200221994614461AF0B7FD0022B4
:107EA0000221824601200EF05FF92F494FF4D8726B
:107EB00028460EF0E5F8C61C2C4B0093F6B201954F
:107EC0004B463246012100200FF0FAFB10F0FD0F67
:107ED00042D1274BA4FB0348204621A3D3E900232A
:107EE0004146FFF70DF9089506956B680493214B01
:107EF00020F07F47A7FB0331E01A1F4B07934FF099
:107F000007021E4B059302FB07114FF6FE7368EB49
:107F1000010103934FF47A720023FFF7F1F8CDF8D3
:107F200000B0CDE901704B463246012100200FF030
:107F300007FB10F0FD0F0DD1BAF1000F02D10BB00D
:107F4000BDE8F08F0122022110460BB0BDE8F04FD2
:107F50000EF00AB900DEEFE700DEBAE7AFF300800B
:107F60008D49FD1A07000000E01A00202DA703002C
:107F700000CA9A3B8D49FD1A15A70300A1F1030021
:107F80002DE9F0418468A28C4FF6FF739A428CB0C1
:107F900000F08B800546204614F0F0FE2B7D012B6F
:107FA00000F0E380022B00F0838033B994F88E3028
:107FB00003F01803182B00F01C8194F86461002E64
:107FC00079D12B8AE78D94F93720CDE90A66002B09
:107FD00078D0002AC0F223810023A4F89031AB7C32
:107FE000A28D03F00303551C012BADB200F0858078
:107FF000B4F89431002B00F0C180AB4240F23A81DA
:108000005B1B9BB20022062BA4F89431E28540F260
:10801000B28094F937309342C0F2318100236FE08F
:1080200094F9372023F00103002A84F8D130C0F2FC
:10803000BF8094F87600C0F3C00100F0070018F08C
:108040007DFDB4F86E20B4F86C301344E28B03F27B
:108050003F1313441844B24AB24B0721E0FB0231EC
:108060001846ADA3D3E90023FFF74AF8616820F072
:108070007F408142DDE90AC380F0E780471A6060F3
:108080000021A28C24690694CDE903560332A64D43
:108090000291CDE900C7D2B20121002005950FF071
:1080A000C1FA10F0FD0F40F0F4800CB0BDE8F08193
:1080B0003D2684F86461314620460CB0BDE8F041AD
:1080C00012F0D0BF002AB8BF84F8D560AB7CA28D77
:1080D00003F00303551C012BADB20ED0B4F8903160
:1080E000002B85D0AB4240F2DB805B1BA4F89031C3
:1080F000B4F89431002B80D102E00023A4F894312D
:1081000094F83C2063F3820284F83C2029460DF168
:108110002702204614F0F2FB743000F0A580B4F87A
:108120008E3123B1AB4254D95B1BA4F88E31B4F825
:108130008A3123B1AB4245D95B1BA4F88A31E58D66
:108140000EB9AF423CD00135ADB294F8D13013F046
:1081500001077FF465AFDDE90AC3002B90D1BCF1C4
:10816000000F79D01F4619468BE70023A4F88E3103
:10817000A4F88A3121E701263346C1E7E38C052BB9
:108180008BBF40F2E2424FF4FA725A4303FB0222E1
:10819000B4F8923142F2107101FB0323013BB3FBAF
:1081A000F2F39BB2A4F89431002B7FF426AFA7E73B
:1081B00094F87700012100F0070018F0C1FC40E7B7
:1081C0003546C2E70023A4F88A31204614F028FC83
:1081D000B5E70FF0CFFF0146002868D00023A4F8D0
:1081E0008E31A38CC3801B23037100680FF094FFB2
:1081F0009DE7218DB4F88C218B1D9A42C4BF931F3B
:108200005B1AB4F88811CCBF9BB21346994264D074
:10821000A4F88831A4F88A31A4F88E21CDE694F828
:10822000D530002B4AD0013B84F8D53004F1E0086A
:10823000404614F089F9002863D0404614F084F9D0
:10824000002850D00023E385C6E6091A6060002BA1
:1082500041D151EA0C0228D115B9002E3FF425AFC7
:10826000002739463B460CE79DF82710204612F0C0
:10827000F9FE1AE70821204612F0F4FE15E7D7B9F7
:10828000D4F8D8305A0813F001033ED1C4F8D820EE
:10829000C4E60FF0DDFF84423FF407AF00DE04E7E1
:1082A0003E21204612F0DEFEFFE61F46E9E60123EE
:1082B000A4F88E313BE71346012621E70AAA0BA951
:1082C0002846FFF761FBDDE90A231343AED023788C
:1082D00084F8D530AAE70027D3E6B4F88E11002938
:1082E0007FF46BAE96E70246D4E91E010DF000FF65
:1082F0000028A7D194F83C301B0744BF238DE385A9
:108300006AE6FF2012F06EFE97E742F000421E463A
:10831000C4F8D8203B46F3E68D49FD1A070000005B
:1083200000CA9A3B8C49FD1A6DA7030000000000AB
:108330002DE9F04F87B0B0F86071BDF84C90009116
:10834000CDE90423B0F82431BDF840A01F44BFB2EA
:108350000446A7EB090390F87600D4F81C819EB27E
:10836000BDF844300193C0F3C001BDF84830039616
:1083700000F00700029318F0E1FBE58C052D40F2B8
:10838000A38015FB06F5ADB240F2E24BBAF1050F42
:1083900040F28E80B4F86E20B4F86C30134403F2CF
:1083A000D5130344764A77480721E3FB02014FF0D7
:1083B0009613E361962323846FA3D3E90023FEF78A
:1083C0009FFE564620F07F4040F2E2430BFB05F251
:1083D00003FB06F6531E3344B3FBF6F31FFA83FB8D
:1083E00060600BFB06F082425D4653D26449801AFE
:1083F000A0FB010160A3D3E90023FEF781FE20F07A
:108400007F408044B4F82421B4F86031A9EB070917
:108410004D44ADB213442B44A4F86031638D134432
:108420001D4494F837306585DB0955D100DE0027FF
:108430003546019B2385029BA4F8923131462046A4
:10844000A4F826A014F086FA4F4B218D3344881DE2
:10845000B3FBF6F39AB29042A4F88C2104D2C1F592
:108460007F41FA310A4492B2009BA4F8882113B1EB
:108470000023A4F8943143462A4639462046FFF7A4
:1084800003FD94F8623143F0010384F8623107B0D0
:10849000BDE8F08F121A3A48A2FB000136A3D3E9D7
:1084A0000023FEF72DFE20F07F40A8EB0008A9E78F
:1084B0004FF096130AF10106E36196232384B6B2C6
:1084C0000A204FF4FA7381E7039B013515FB03F58E
:1084D000ADB24FF4FA7B59E7216CA36C284F01FB36
:1084E0000233039A01FB1233A3640023C4F8DC3087
:1084F00018F0F8FC054694F8D400C0F3420018F0D8
:10850000F3FC054406FB05F5204B1E4805F57425D4
:1085100005F23F25A3FB0535AD0CA36C25640BFBD1
:1085200005FB72085B44963A934228BF1346C4E9A0
:108530001123049B40F2E24909FB03F30721236561
:10854000EBFB07010CA3D3E90023FEF7D9FD104B89
:10855000059AA8EB0008A3FB0230800A09FB00F093
:10856000A0FB070104A3D3E90023FEF7C9FD751B97
:1085700020F07F475DE700BF8D49FD1A070000002E
:1085800000CA9A3B8C49FD1A7FC3C90183DE1B4395
:108590005917B7D1000000002DE9F04F04460B68D1
:1085A000067F1768D3F800A0638CD0F81E0095B042
:1085B00015464A7CADF84C30FF2AC6F38013884636
:1085C0000C9212908DF83F307CD199461A4612AB2E
:1085D00093E803000DF1400B1090ADF84410F6093C
:1085E0000AF16501D4F800C00A915B463046CDF827
:1085F0002CC012F047FC0A9900284BD197F8A23101
:108600000A9069F3410366F3000387F8A2311098DA
:10861000BBF80430C7F8A901A7F8AD31DAF8653026
:10862000C7F8A3318B88A7F8A731E38D94F83010F1
:10863000A9722B81D4F82A306B60D4F83A30C5F88F
:10864000223005F1220094F83E30037105210DF02F
:10865000D9FE95F8273000F03F0060F3050385F858
:10866000273094F83F30C3F3040185F82810A18E19
:10867000E982012803F01F0389B20BD91B3303F0F1
:108680001F030B2B06D8063989B240F67A4399426C
:108690000A9A2BD90022CAF8082095F82C300B989A
:1086A00062F3000385F82C30012621462671E46828
:1086B0000FF026FD2068267121460FF02DFD15B024
:1086C000BDE8F08F0DF1400B10460DF13F015A4609
:1086D00017F068F89DF83F90267F09F102095FFACC
:1086E00089F98DF83F9009F0010278E7D8F8003059
:1086F0005A60E38E2B83EB8A40F2E24606FB03F9D5
:108700001146638E0A93384614F038F994F83F30D6
:1087100097F8D4205B0963F3430287F8D42018F05C
:10872000E1FB0D9097F8D400C0F3420018F0DCFB99
:108730000D9BA94A034409FB03F303F5742303F2D9
:108740003F23A2FB03239B0C2B634FEA5903963B69
:108750006B6394F8313006FB03F36B64238FA7F847
:1087600092314946384614F0F5F89C4B9C4AC7F8BC
:1087700098214B44B3FBF9F39AB2A7F88C21298BCB
:10878000881D824204DDC1F57F41FA310A4492B26C
:10879000A7F888216B68C7F8D830234613F81C2F38
:1087A000C2F34016DA0700F10D814FF48073A38302
:1087B0009AF81A0017F046FD002800F0DE80636A80
:1087C000C4F82B30238DA4F82F300C9BFF2B00F026
:1087D000ED80BDF84C301298A4F82930C4F825007B
:1087E000BBF80430A4F8233010989DF83F30C4F84B
:1087F0001F00A377EB8A63862B8BA386B7F8923191
:10880000E38697F8D430C3F3420384F8383038460F
:1088100012F03EF8A882E08021460B98D8F8044078
:108820000FF06EFCAA8AD4F800B0E2801C232371FA
:10883000002E40F0A7802677214658460FF06CFCAA
:1088400095F86700B5F85C60B5F85E40012100F06E
:10885000070018F075F9344404F2D5148346044433
:10886000604E61484FF096130721C5E90333E4FBDE
:10887000060157A3D3E90023FEF742FC20F07F4016
:108880007860D8F80C300A982A6B40F2E24101FB7C
:10889000003404F2B3440221A9EB0205A41A01201A
:1088A00000220DF061FC504611F074FDA4EB0B04A6
:1088B00047A3D3E900238146A4FB0601FEF720FC71
:1088C000CDF804A0D8F808304849009120F07F4B3B
:1088D00009F10202363BD2B25B44012100200EF0C6
:1088E000EFFE012868D09AF81830DB0756D43846D6
:1088F00011F0CEFF3B4CA5FB044935A3D3E900237F
:10890000064649462046FEF7FBFBD8F80830384AB1
:108910000792A3F13608374B069720F07F45A5FB59
:108920000331E01A344B05934FF4F87308937B68D6
:1089300004934FF0070303FB051169EB01010024C9
:108940004FF47A7200230394FEF7DAFB0336F6B293
:10895000CDE90150CDF800B0434632460121204612
:108960000EF0EEFD10F0FD0F2ED101220221104677
:108970000DF0FAFB15B0BDE8F08FC4F82B00A4F899
:108980002F0022E795F8273043F0400385F8273081
:10899000281D16F0F3FC012628854CE70023012250
:1089A0000093184611460EF055FEA0E70022C4F8C9
:1089B0002520A4F8292013E70FF04AFC824592D025
:1089C00000DE90E700DEF0E600DECEE7AFF30080E9
:1089D0008D49FD1A0700000083DE1B437FC3C901D8
:1089E000404B4C0000CA9A3B8C49FD1A29F2030007
:1089F00079F103008D49FD1AA1F103000000000088
:108A00002DE9F04F8DB0484E484D82460EF090FE55
:108A1000F16807460EF08EFE7168F76040A3D3E957
:108A200000230446A1FB0501FEF76AFB20F07F430B
:108A30009C4257D30DF12F010DF12E000FF0CAFB10
:108A4000DFF8E8803568A5FB085935A3D3E9002392
:108A500028464946FEF754FBCDF818A00446706836
:108A6000334B0593A0FB08012DA3D3E900234FF05E
:108A70000008CDE90788FEF743FB2E4BCDF80C80AC
:108A800024F07F44A4FB033120F07F40072202FB47
:108A900004110490E81A69EB01014FF47A72002383
:108AA000FEF72EFB9DF82FB09DF82EA0CDF800808C
:108AB000CDE901403B465A46504603210EF040FDA9
:108AC00010F0FD0404D06FF08B000DB0BDE8F08F06
:108AD00019481A4A00231EF0CFFC90B930690DB036
:108AE000BDE8F08F30680EA3D3E90023A0FB050199
:108AF000FEF706FB20F07F4138460EF01BFE0746CE
:108B000098E79DF82F209DF82E000094234603211E
:108B10000EF0A0FD6FF07300D7E700BFAFF3008049
:108B20008D49FD1A07000000C81F002000CA9A3BAB
:108B3000850404008D49FD1AA83D0020447B0B00EC
:108B400038B50F4D04460EF0F3FDA9680EF0F2FDA6
:108B5000696803460B48B3FBF4F4A1FB00011C4415
:108B600005A3D3E90023FEF7CBFA20F07F4084422F
:108B700094BF0020012038BD8D49FD1A0700000078
:108B8000C81F002000CA9A3BF0B5C468636883B070
:108B90000546002B54D119F07FFA002019F0A0FAF5
:108BA0000021084619F08EFA00222521082019F02C
:108BB000F5FA414B019301A819F0DCFA3F4940F264
:108BC0005B6019F08DFB237AC3F3420262F3061354
:108BD0002372204618F016FB17F0BCFB637A03F0F3
:108BE000030348BBFBB927682E68384617F060FFBF
:108BF00006446A6806F10901012019F0B9FC19F070
:108C000079FD204611F0D4FB811C3246C9B23846AA
:108C100017F050FF054600BB204617F025FFD0B9DE
:108C2000002003B0F0BD012017F078F84178821CD5
:108C3000007819F03DFCD6E7181E18BF0120F3E7B5
:108C400093F82C309B07A6D01D48214619F0F8F95F
:108C500019F0F0FAE4E700DEE2E71A4A1A491B4885
:108C600040F2114321F0A5FE194B0721A5FB030398
:108C700001FB05310EA3D3E90023FEF741FA1549A4
:108C80000246154821F095FE002585F31188BFF3B3
:108C90006F8F0323184602DF1048214619F0D0F9E0
:108CA00019F0C8FA6FF08B00BBE700BFAFF300808C
:108CB00000CA9A3B00000000D6BE898E555555006B
:108CC000F90B0400383E0500843E0500C83D050050
:108CD0008D49FD1ACC3F0500883E0500F50E0400C5
:108CE0002DE9F043C468A28A4FF6FF739A4283B01D
:108CF00000F0FD80064618F039FD3389628B208C28
:108D000094F82710A3831A4492B2104480B2431CF3
:108D100023840023638301F03F034906E28300F1CB
:108D2000A48094F82810009304F1290004F1220390
:108D300016F0E6FA0546D4E90C31A26BA08BA363CA
:108D400003FB0022E36B8A4294BF9B185B188B42A3
:108D500028BF0B46626CE363236C94F867101A44D7
:108D600094F82C3061F306130021C4E9101294F832
:108D70007E2084F82C3012F0040200F0898019F073
:108D80008BF9002019F0ACF9201D19F0F3F92389B3
:108D9000A17A40F25B6043EA014119F0A1FA28464A
:108DA00017F098FE2146584819F04AF9A08919F0A1
:108DB000D3FB94F8662094F86700C2F3C003002147
:108DC00002F0070200F0070019F0F0FA204618F050
:108DD00067FDD4F800803768404617F069FE074405
:108DE000726807F10901002019F0C2FB814619F0F1
:108DF00055FC002019F06CFCE36B94F8670003F15C
:108E00002F02636C012100F0070003EB420519F00B
:108E100003FA4D44054494F8670000F00700022867
:108E200034D004280CBF4FF4BC73282301211D4407
:108E300019F0F4F9284419F023FCA18A03313A46C9
:108E4000C9B2404617F036FE0546A8B1B37A13F012
:108E500002062BD000252D48214619F0F1F819F013
:108E6000E9F9284603B0BDE8F083218D04F1220220
:108E700016F088FA05465EE7204617F0F5FD002853
:108E80003CD10025284603B0BDE8F0831823CDE788
:108E9000D4E91A010DF02CF900287FF470AF94F892
:108EA0007E3043F0040384F87E3068E7184A19499D
:108EB00019484FF4AC7321F07CFD18480721A5FB3D
:108EC000000301FB05310EA3D3E90023FEF718F9D7
:108ED00013490246134821F06CFD86F31188BFF355
:108EE0006F8F0323184602DF6FF08B05B3E70E4840
:108EF000214619F0A5F819F09DF9C2E700DEC0E798
:108F000000CA9A3B00000000C51A0400D50B0400FB
:108F1000B43E0500843E0500C83D05008D49FD1A9C
:108F2000D83F0500883E0500F90B0400024840F2D6
:108F30001F5200231EF014BD500C002013B507482B
:108F40000469836801A95B68984720B92368019880
:108F50005840C0F3007002B010BD00BFE42D050002
:108F6000024606480369DB78C3F3401393428368E3
:108F70004FF0005114BFDB681B691847E42D050052
:108F80002DE9F0412A4BDFF8AC8053F8206088B01F
:108F900004463046FEF7E0F83146054602462648CC
:108FA00029F0F1FD1422002103A888F8115029F0BE
:108FB00011FE224B1B5D8DF80C300322A023CDE95E
:108FC00004230127F023069300971D4B414603A875
:108FD00006F084FC10F10C0F04EB070510D1194AC0
:108FE00019482B46022122F04BFD184B18481C60F3
:108FF00040F2676200231EF0B3FC08B0BDE8F081C8
:1090000038B1144A00902B460F48394622F042FDF1
:10901000F3E7FFF7A5FF104821F0BEFC0F483246EA
:10902000294621F0B9FC0E4821F0B6FCE5E700BF67
:109030009034050048020020484D0020694D002072
:10904000883405000C4C0500C0320500F8220020D1
:10905000200C0020464C05007A4C05009E4C050073
:109060007B4C050070B5FFF769FF38B3144C154D04
:109070002368154E15480133032293FBF2F202EBED
:1090800042029B1A2B600123337021F085FC1048AB
:1090900021F082FC0F4821F07FFC06F0F7FD0E4B1B
:1090A000186820B1BDE87040132124F08CBE3070E8
:1090B00028682060BDE87040FFF762BF70BD00BF48
:1090C000102300200C230020684D00207A4C05005E
:1090D000BD4C05007B4C050008230020014B18689F
:1090E000FFF74EBFF822002010B50F4C0F4821F0BB
:1090F00053FC206818B107F003FA0023236000F046
:10910000A9F90020FFF72CFF094A0A4B117841B159
:1091100000211170084A10681860BDE81040FFF780
:109120002FBF1868F9E700BF08230020E34C0500B3
:10913000684D0020102300200C2300200346024A23
:109140000248012122F09CBC014D0500C0320500FF
:1091500008B521B1BDE808400846FFF7EFBF24F08D
:1091600016FE064B18600120FFF7FAFE044B054877
:109170001968BDE80840013121F00EBC0823002029
:10918000102300201C4D05002DE9FF417C4821F0F3
:1091900003FC7C4C204627F0F8FD68B97A487B4AEE
:1091A000012122F064FC6FF01200794A034601218C
:1091B000754822F065FC3BE0204627F0E6FD0028DC
:1091C000ECD0744A1C21204621F0ADF90028ECD1E6
:1091D0004FF4B0121D21204621F0A5F90028E4D15A
:1091E000A5682369AE69002E30D01B6813F0805F3C
:1091F00014BF4FF000734FF080634FF0A0721C213A
:109200002046B0470028D0D1634A644B53604FF0EA
:1092100080539360EB691BB15F4901222046984758
:109220005F49604828F050F85F49604828F04CF8E2
:10923000002005F0FDFC034658B15D4A524801216B
:1092400022F01EFC002004B0BDE8F0816FF0570052
:10925000ABE7FFF773FE002840D05648032121F00A
:109260009BFB28F02FFA4FF47A76A0FB060506FB4D
:109270000155C40B44EA45443746ED0B40F6B83877
:10928000FFF75CFE88B128F01DFAA0FB070306FB80
:109290000131C30B43EA41431B1B4FEAD13161EB60
:1092A0000501434571F100013BDB28F00BFA4FF457
:1092B0007A72A0FB020302FB0131C30B43EA414374
:1092C0001B1B4FEAD13140F6B83261EB05019342E6
:1092D00071F100012BDA384821F05EFB374C22F0A7
:1092E00046FD0023237001260021084606F0DCF825
:1092F000002806F1010541DA314A00902B46224848
:10930000012122F0C7FB0020032D04F8010F4FF0CC
:109310000206E9D100F092F82A4B1868FFF730FEF8
:1093200090E7002140F2676028F0ECF8A8E72648B3
:1093300021F032FB03A9022001F054FE034628B1BC
:10934000224A1148012122F09BFBC7E703981946E6
:10935000826822F06CFC0446039822F067FC14B18A
:109360001B4A2346EDE71B4821F016FB4FF4C030A3
:10937000002128F0C7F8012000F0AEFCC0B2C3E71E
:10938000394D0500E42D0500C03205005D4D050096
:10939000734D050011000100FC2200202D8F0200FA
:1093A00065900200500C0020DD900200200C00208F
:1093B0008A4D0500A04D0500F74D0500694D0020C0
:1093C000C54E0500102300202C4E0500494E050017
:1093D000654E0500824E05004B1E59425941014B16
:1093E000197070476C4D00201FB508240294044C7E
:1093F0000194BDF81840009425F050FC04B010BD55
:109400006F4D00201FB541240294044C0194BDF817
:109410001840009425F042FC04B010BD0E7E0500FB
:109420001FB504240294044C0194BDF81840009424
:1094300025F034FC04B010BD0A7E0500034A002369
:1094400013605360024A1370704700BF6F4D0020D5
:109450006C4D0020014B00221A7070476C4D0020AB
:109460002DE9F84F8A4600AF002974D004680E1F1A
:10947000361BF50826F0070604EB0608B8F802B01C
:109480001BF0010B16D1E94688B06A46334BCDE993
:109490000531032342F8103F31485B464FF4C25177
:1094A00001F012FBCD468BF31188BFF36F8F0423BD
:1094B000184602DF2946204621F079F8284434F87E
:1094C0003030C01A854217D0E94688B06A46254B2D
:1094D000CDE9053A032342F8103F214800234FF419
:1094E000C25101F0F1FA0023CD4683F31188BFF396
:1094F0006F8F0423184602DFB8F8023023F001030F
:10950000A8F802302946204621F051F805EB000862
:1095100004EBC8035B88DA0708D44146204621F0F3
:109520008FF842462946204621F0CFF8A65BAE1BB5
:1095300004EBC6035B88DB0709D43146204621F0E3
:109540007FF82A463146204621F0BFF835462946A5
:10955000204621F031F8BD46BDE8F88F6D4F05007B
:10956000F0320500444F05002DE9F04F91B084071B
:10957000009302F004030293C2F3C20303F1010358
:10958000DDF868A0039205460E46059340F09D81E4
:10959000041D00284AD101F00706341DC6F1080653
:1095A000009B00275A1E4FF004084FF0FF33019331
:1095B0000497B946BB4643460DB100992160059812
:1095C000002800F3D78090480099814203D38F4848
:1095D0008142C0F0CF80039911F0020CA4EB05008A
:1095E00040F0D680B9F10F0F00F2CF80002D00F0CF
:1095F000D68009F140010DEB010EC0F387000199FF
:109600000EF8200C0EF8101CBCF1000F00F0C38007
:1096100060F07F000EF8200C013709F10109C5F157
:109620000801043406914FF6DA7E8CE00729B7D89A
:109630006FF01B0011B0BDE8F08F7A285BD84B2883
:109640000FD8472857D829282ED8252850D052D8A7
:10965000202818BF23280CBF4FF0010B4FF0000B40
:1096600071E04C382E2846D8DFE800F06D454545BE
:109670004545454545454545484545454545454597
:1096800045564548485656566D486A456D451848F2
:109690001845457F7C48454548457C0000204FF0F3
:1096A000000B4FF0040835E02A38C0B2012101FA5E
:1096B00000F010EA0E0F46D110F0625C2CD110EAD7
:1096C000010B40D06046013C4444B4FBF8F408FB75
:1096D00004F425B1A3EB050CA444B445A8D8002894
:1096E00070D00599013905915AF8041B009163E780
:1096F0000199013901914FF0000B24E012F8010C9F
:109700006C2834D112F8023C00206C2B8346C8D15F
:109710004FF008084346D6E70AF1070A2AF0070A7D
:109720000734FAE802BC24F0070435B10698204457
:10973000B0423FF67DAFC4E900BC08344FF0000BE7
:109740004FF00808434612F8010F002853D0BBF130
:10975000000F7FF472AF2528F5D1019B01330193EF
:109760004FF0010B4FF00408ECE7584697E7002054
:109770008346A8E7039988077FF551AF601B4FF038
:10978000010CB0F5007FFFF42DAF6FF0150051E72D
:109790004FF0000CF5E70498013004903DE7BCF170
:1097A000000F01D0013638E70298023600287FF416
:1097B00034AF0098CDE90632FDF7CEFCDDE9063284
:1097C00006442AE7042B08D10AF1040015B1DAF89F
:1097D0000010216004348246B5E70AF1070323F044
:1097E000070303F1080A1DB1D3E90001C4E9000130
:1097F00008340823A7E7631BB3F5806FC5D23DB9D2
:10980000A6F10804E01815E7E42C050040820500E5
:10981000029A28609B082B709DF81030AAB1EB705B
:10982000AF702FB108A80022C5F1010C91450ED1EF
:10983000C5F101030DF120084FF0000A01930DF16D
:10984000300BD14512D1601BF4E66B70E8E710F8DD
:10985000013B190608D50CEB040EB64503F07F0357
:109860003FF6E6AE04F8013B0132DFE71FB198F99D
:109870000020002A17DB029BD3B11AF80B2004F852
:10988000012B0022019B18191044B0423FF6D0AEC4
:1098900098F8000004F8010B00990392204629F083
:1098A00072F9039A14440AF1010A08F10108C8E7A1
:1098B00098F8002055F822300093029B45F822309A
:1098C0000098FDF749FC421CDCE76FF00D00B1E6A3
:1098D0002DE9F04F97B000AFC7E90A3205468A4636
:1098E00049B903784678807800EB830028445645D0
:1098F00024D8A0EB050AD7F8803095F80280D7F875
:10990000804003F00103FB61EB787B62B8F1000F4C
:109910000CBF002404F001041BB1D7F880309A0773
:1099200015D4A4B9FB6A1BB1BA6A514628469847B8
:10993000564630465C37BD46BDE8F08F441C204695
:10994000FDF70AFC013020440AF1010ACFE7D7F8FD
:109950008030C3F3C0033B622B78BB619B003B614B
:109960006B687B61BB6905EB830BFB6A002B77D1CE
:109970005646D844BCB11C461BF8013B55F82300A1
:10998000FDF7EAFBD7F88430013043B1D7F88830CF
:10999000A34282BFD7F8843023F814000134C345B2
:1099A0000644E9D1D846D7F8803013F0050F0CBF34
:1099B0004FF0020B4FF0010B4FF000097B6A994505
:1099C000B7D298F8013055F823A0AE4B9A4508F16C
:1099D0000208C0F04B81AC4B3A6A9A452CBF002379
:1099E00001230AB318F8021C7869FB6220F0B3FF68
:1099F000FB6AC8B1EA468AB06A46A44B05937B6904
:109A0000CDE906314FF40073ADF82030A04B42F899
:109A1000103FA04800234FF4125101F055F8023EC8
:109A2000D54609F10109C9E723B1FB6933B9A6EBB2
:109A30000B06F6E7D7F880309B07F2D55046FDF7C6
:109A40008BFBD7F884304BB1D7F888309C423FBFAE
:109A5000D7F88420431C22F8143001340644E0E790
:109A6000002C69D1B8F1000F6CD0D7F880305807BE
:109A70006BD5C14607F148004246594629F083F8A4
:109A80000BEB0803FB6000220233796A8A425ED343
:109A9000D7F8802095F801B0F969920704EB0B0321
:109AA000DBB254BF4FEA59020022002940F0A680E1
:109AB000D7F8801011F0040F14BF494600216B70D5
:109AC000A970EA703969BA6AFB6A28469847061E87
:109AD000FFF62FAFBB692B707B6AEB704946BA6A01
:109AE000FB6A85F801B085F8028007F148009847C5
:109AF000B0F10009C0F2B6803B697A6A786A03EB7C
:109B00004201FB68BA6A414403EB4000AAEB010141
:109B1000FB6A98470028C0F2A780B14409EB000611
:109B20004FF0000B07F1380AA34569D30021BA6A48
:109B3000FB6A08469847FCE6444607F138004FF0B8
:109B4000000999E74446C1469AE7A14698E713F809
:109B5000016CDFF830C155F8260013F8021C60458F
:109B6000C0F08A80DFF820C16045386A2CBF4FF012
:109B7000000B4FF0010B38B17869C7E9013220F0D2
:109B8000EAFED7E90132F0B9BBF1000F1ED0F96946
:109B900049B1611C04F1280007F13004041904F8EC
:109BA000206CCCB20FE0D7F8801049070BD509F133
:109BB000280007F1300C09F1010100EB0C0909F84C
:109BC000106C5FFA81F9013202335EE7D7F880004A
:109BD0008007DED409F1280C07F1300EF44409F1B6
:109BE00001000CF8101C07F1580151FA80F009F13E
:109BF00002095FFA89F900F8106CE4E700215EE7DA
:109C00001BF80A3087F8373055F82390D7F884309E
:109C10002BB3D7F888309B4521D2D7F8843033F85E
:109C20001B80BA6AFB6A012107F1370098470028B8
:109C30001ADB0644B8F1000F06D14846FDF78CFA4E
:109C400000F101081FFA88F8BA6AFB6A41464846E3
:109C50009847002808DB06440BF1010B64E74FF03E
:109C60000008DEE74E4664E6064662E63B6A002BE5
:109C70003FF4E0AE0023B5E6386A0028A6D04FF0E6
:109C8000000B79E7E42C0500408205009A4F05009F
:109C90000400000180320500014B1860704700BFCE
:109CA000AC02002080B505460E46174698461EF0C9
:109CB0008DF9034602F006F9DFF81890044649F8DA
:109CC0000030424630463946A84754F8090002F0B1
:109CD00095F800BF0800000008B50446EFF31183B3
:109CE000202383F31288BFF36F8F1BF0C7FF20463A
:109CF00002F012FC024820F04FFE22F063F9FCE76C
:109D00004E5005002DE9F047058B044628071746FD
:109D10000CD501290CBF45F0100545F02005258321
:109D200087F31188BFF36F8FBDE8F087022905F034
:109D3000070540F09480204621F03FF9052864D8BB
:109D400001A353F820F000BF219D02005F9E020096
:109D50000B9E0200CD9D0200E79D0200F99D0200CE
:109D600001F007035A1F012A1FD8002221F0070122
:109D7000062BD4F8008089B2C4E9002209D14346F9
:109D800003E0628B013262831B68002BF9D141F042
:109D900002012183204621F010F94FF0000900282C
:109DA0006DD041F02001218369E0042B0AD121F01C
:109DB000070189B22183204621F0FFF810B141F05C
:109DC000200121834FF00008C14658E02369D3F8F1
:109DD0000090238B23F0070343F0060323834FF007
:109DE000000846464BE02369D3F80490238B23F008
:109DF000070343F00403F1E72369D3F80890238BAA
:109E000023F0070343F00503E8E74FF00008C146DD
:109E1000E7E7012243F00803238387F31188BFF3A8
:109E20006F8F002A3BD1B8F1000F4AD1B9F1000F72
:109E300002D02D492046C847EFF31187202383F332
:109E40001288BFF36F8F238B23F008039BB2238309
:109E5000D9063FD523F01002228303F00705666977
:109E6000218B002EBFF67CAF0023D4F8008021F0B8
:109E70000701C4E9003341F0010121839946238B96
:109E800003F0070AAA4502D0A268002AC1D1B8F19E
:109E9000000F02D1B9F1000FDAD00022BAE7A168B1
:109EA0000029C0D00D680029BDD04F683346524606
:109EB0002046B8471DB12B6829461D46F3E72B46BF
:109EC000FAE74146334652462046D8F8008021F052
:109ED000A0F8A8E79A067FF523AF23F0200222839B
:109EE00003F0070527E700BF3FB0040037B504467D
:109EF0000821C06A124D21F00BFB00234FF6FF72C0
:109F0000ADF804306368ADF800208DF80620E268F3
:109F100019182B401344181A60606846ADF80210F7
:109F200021F04EFA6946204621F011FB211D204602
:109F300021F01EFA63682B40A36003B030BD00BF60
:109F40000000FFFF2DE9F7430F4681460821C06A54
:109F5000144D21F0DDFA3C68241A80463C6004EA86
:109F60000506B4421CD3A0B210B903B0BDE8F0831B
:109F700008236A462146484621F0C1F90028F4D159
:109F80006946A0B221F0B0FA38B1BDF80230BDF890
:109F900004203C602E4013441E44A4EB0804E0E778
:109FA0000020E2E70000FFFF2DE9F04704468AB0F9
:109FB00000F11407384626F0E2FFA06A8368DB68E8
:109FC0009847E06250B99F4A9F48012121F0DDF98E
:109FD0006FF0150528460AB0BDE8F087A06A8368CF
:109FE000DB6898470368013B1F2B01D9974AEBE7D1
:109FF000E368B3F5803F08D94FF48032009292486D
:10A00000934A012121F046FDE2E7A06A216807AAF0
:10A0100026F03AF808B18F4AD6E7E5682DB1089BDB
:10A02000B5FBF3F203FB12550DB18B4ACCE7238A43
:10A03000012B01D8894AC7E7E36A029593F80580A6
:10A040004FF0FF334FF0FF3238461DF0EDF8E06A75
:10A05000082121F05DFAA9460646238A1FFA85FAEF
:10A06000534544D8238A4B4500F02D8153450BD1ED
:10A07000029908234246891B204621F04EF918B95F
:10A0800002A9204621F074F902A92046FFF75AFFE1
:10A090000546002840F0B280029961604FEA1149FC
:10A0A0004FEA0949C4F80890A3688B420DD80823E9
:10A0B00003AA204621F023F9B8B903AB13F8012B0A
:10A0C000904532D101300828F8D1636802A96FF3B6
:10A0D0000F032046029321F04BF9E36802994246B0
:10A0E000204621F01AF900283CDA054686E0E168AE
:10A0F0002B04891B13FA81F1424608232046029162
:10A1000021F00BF978B102A9204621F031F909F1CB
:10A11000010902990823424620461FFA89F921F0D5
:10A12000FCF800289ED0013597E7A08803A921F00C
:10A13000DBF9626810B9911B6160B5E7BDF810A04A
:10A14000BDF80E10E06AC4F80890514421F0E0F91F
:10A1500048448242A060EED1BAF1000FEBD06FF01C
:10A160001C054BE000F08B8063684FF6FF7906EB2F
:10A170000308E368CDF808801FFA88F29B1B9A4217
:10A1800023D3374A3048032121F0FFF86168204685
:10A1900021F0FDF8014680BB6368324AE068134055
:10A1A0000344A3EB460363601340A360204621F001
:10A1B0006FFA002899D1E368A288A3EB46039A427C
:10A1C0001CD1204621F0E0F98FE7082305AA41467B
:10A1D000204621F094F8002887D105A91FFA88F0BD
:10A1E00021F082F938B1BDF814304B4503D1BDF8E8
:10A1F0001830002B6AD0B044BBE70D4638461DF03E
:10A2000085F8002D7FF4E6AE0123A374E268238A6B
:10A210000D4800920321144A21F03CFC63689AB275
:10A2200000920948114A1B0C032121F033FCA3685A
:10A230009AB2009204480E4A1B0C032121F02AFC1A
:10A24000C8E600BF96500500A0320500B8500500D2
:10A25000D5500500FE500500165105002A51050095
:10A260009C5105000000FFFF4D51050064510500A1
:10A2700076510500E26AA36812681344A360D4E92A
:10A2800001318B4208D95B1A4246204621F045F83D
:10A290000028FFF62AAFEDD16168E36801EB4602C2
:10A2A0009A4288D1124BA06801EA0302904282D000
:10A2B000204621F06CF800287FF417AF62680C4B41
:10A2C0001A40A26077E76FF02C0597E7094A0A4821
:10A2D000032121F05AF8636802A96FF30F032046A7
:10A2E000029321F045F80299204621F050F860E7EA
:10A2F0000000FFFF87510500A03205002DE9F04F57
:10A300001E46837C95B004468946904653B96B4AF5
:10A310006B48012121F039F86FF00C05284615B083
:10A32000BDE8F08FC26A0821104621F0F1F8B1B201
:10A330000190104621F0ECF8E368019AA3EB820348
:10A3400083420746C0F0B6801EB1B8F1000F00F09E
:10A35000B180D4F804A0CDF810A005AA04A9204625
:10A3600021F04CF905460028D8D1BDF814304B45F2
:10A3700007D0DDF810A063685345EED1002E39D127
:10A38000CCE705A91FFA8AF021F0AEF80028F0D03A
:10A39000BDF8183066B3B3422CD14FEA1A43BDF86A
:10A3A00016A0CDF800801B049A44E36A1B685B4248
:10A3B00003F020030293B346029B5B4528BF5B4634
:10A3C0000CAA51462046039320F099FF00284DD156
:10A3D000039B00981A460CA928F004FC50B9039B73
:10A3E000009ABBEB030B1A449A440092E4D195E720
:10A3F000002B93D0002F3CD1BA4604F1140B4FF040
:10A40000FF324FF0FF3358461CF00EFF238A9D4267
:10A410004DD0D4E901320AEB02018B422ED39BB21C
:10A4200063B3FF23ADF81E20002118220CA88DF87D
:10A430002230ADF81C90ADF8206028F0CBFB0CA9C1
:10A440002046CDE90E8621F06DF8074648B907A8E9
:10A4500020F0B6FF07A9204621F079F8074600B999
:10A46000374658461CF052FF3D4657E7C2DC0546CA
:10A4700054E7019B1F441FFA87FABEE72046FFF707
:10A4800035FD3DB9ADF82490CDF82880ADF82C60AD
:10A490008DF82E5009A9204621F0FAF80746002829
:10A4A000DFD19DF82E300135002BAFD0D8E76FF00B
:10A4B0001B07D6E76FF0150530E700BF8250050097
:10A4C000A03205002DE9FF471E46837CBDF8309081
:10A4D00004460F4690464BB92848294A012120F0EE
:10A4E00054FF6FF00C0004B0BDE8F087C06A08218B
:10A4F00021F00EF8E368A3EB4003B3423AD365685A
:10A5000001954FF0000A02AA01A9204621F076F831
:10A510000028E8D1BDF80830BB4206D102A9A8B294
:10A5200020F0E2FF50441FFA80FA019B62689A42D1
:10A5300019D0CA4515D9BDF80C30C3B1CA4516D3D8
:10A54000BDF80A10B3426FF30F0528BF33464246E9
:10A550002944204620F0D3FE0028C4D1BDF80C00C9
:10A56000C1E71D46CFE7BDF80830BB42E3D06FF02E
:10A570000100B8E76FF01500B5E700BFA032050095
:10A58000825005002DE9F047DFF854800446074665
:10A590004FF0010994FAA4F5B5FA85F509FA05F327
:10A5A0002E0108EB05156FEA030A24EA03042B7B4E
:10A5B00063B158F806301B696BB9464404227368CE
:10A5C0002846196807EA0A0721F0E1F9002CE1D1D1
:10A5D0003846BDE8F087284698470028F6D1ECE7D2
:10A5E0003033050010B51049104888B0002227F01C
:10A5F000B1F84FF400320023CDE9062300240E23E6
:10A60000CDE90334CDE90144094B0A4900944FF4E4
:10A61000407209481DF060FA0849074826F0B1FE6B
:10A62000204608B010BD00BF41A602001011002056
:10A6300071A90200404F0020800C0020CA51050083
:10A6400001481CF0E5BE00BF240A00202DE9F047B8
:10A65000804621480F4621F07AF90646002833D07B
:10A6600000252846BDE8F087237B83B12368DB689B
:10A670000BB120469847636883F8069023681B69EE
:10A68000D3B9636804221968204621F080F90136A5
:10A6900010345445E8D3B8F1000FE2D0002DDFD0DC
:10A6A0002846FFF76FFF0546002FF7D000214FF433
:10A6B000A47026F027FFF1E7204698470028E0D055
:10A6C00009FA06F31D43E2E7044CDFF814A005463F
:10A6D0004FF00109DDE700BF2423002030330500DF
:10A6E00040330500014B53F820007047C835050082
:10A6F00008B5034608462BB1044A136000F044FC39
:10A70000002008BD6FF01500FBE700BFB00200207D
:10A7100010B5044C237813B903481CF079FE0123CB
:10A72000237010BD774D0020240A002010B5044688
:10A730000B4821F00CF95CB1BFF35B8F094B53E878
:10A74000001F013943E80012002AF8D1BFF35B8FE4
:10A7500005481DF061FF0548BDE810401CF058BEDB
:10A760001C2300202023002010110020240A002098
:10A77000064BBFF35B8F002253E8000F43E8002134
:10A780000029F9D1BFF35B8F704700BF1C23002065
:10A7900070B5FFF7EDFF084C084E0546B44200D3F4
:10A7A00070BD63685B792BB123685B6813B1294680
:10A7B000204698471034F1E7303305004033050058
:10A7C00010B5044C0449204620F000FA034B1C60ED
:10A7D00010BD00BF18090020B43505001423002067
:10A7E0000D4A0E48002310B513700D4A13600D4A30
:10A7F0004FF400411360FFF77BFFFFF7E1FF0A4BC7
:10A800000A4918468B4200D310BD1A1A5C6812110F
:10A81000013222711033F5E7784D00204BB9040066
:10A820001C23002020230020303305004033050086
:10A83000014600220148002320F0E9B91809002050
:10A84000014820F080BA00BF18090020024B0146E1
:10A85000186820F0D3BA00BF14230020014820F06C
:10A8600008BB00BF1809002070B52A4B1B78002BCD
:10A870004ED0FFF7E5FF0446002846D1264B274D72
:10A880001B68002B19DD26F01DFF4FF47A76A0FB24
:10A89000063206FB0121D5E90020DB0B43EA4143E8
:10A8A0009B1A4FEAD13140F2E93261EB0001934249
:10A8B00071F1000101D3FFF76BFFD5E9003213F509
:10A8C0007A7342F10002C5E900320CB3BDE8704072
:10A8D000FFF7C4BF6B685B7923B12B6821461B6807
:10A8E000284698471035B542F4D32046FFF7AEFF0F
:10A8F000BFF35B8F0A4B53E8001F013943E8001296
:10A90000002AF8D1BFF35B8FB8E7064D064EEAE7A1
:10A91000002070BD774D00201C230020081100206E
:10A9200020230020303305004033050070B50D4D65
:10A93000297861B90120FFF789FE0B4C0B4EB44218
:10A9400006D3FFF791FF0028FBD101232B7070BDC8
:10A9500063685B791BB1236820469B689847103475
:10A96000EDE700BF784D002030330500403305008F
:10A9700000212DE9F8430846FFF768FE044648B376
:10A9800040F267684FF0000901F09CFA1A4B1B4A2D
:10A990001B58136033B11A4B1B68092B02DD194891
:10A9A0001CF036FD184F002544B12046FFF7EAFDA4
:10A9B000044618B94FF0FF384FF0FF39FFF754FF46
:10A9C000064628B9B5B90F4842464B461CF054FD1F
:10A9D0003546E9E74FF0FF384FF0FF39D4E72B68F1
:10A9E0009B691BB100221146284698471035BD428D
:10A9F000F5D3E8E7054DFAE708000000182300202A
:10AA000020230020240A00204033050030330500B5
:10AA100013B5184820F09BFF174B1B7873B1EFF369
:10AA20001184202383F31288BFF36F8FFFF71CFF7D
:10AA300084F31188BFF36F8F02B010BD0F4B1B68FA
:10AA4000002BF9D050B900220023CDE900230C4897
:10AA50004FF4004200231DF0A7FDEDE70928EBD1DC
:10AA600007481DF0D9FD074802B0BDE810401CF0B2
:10AA7000CFBC00BF20230020784D002018230020E9
:10AA800010110020240A002010B5064B1B68044654
:10AA900098472146A060044820F036F9BDE81040F0
:10AAA000FFF7B6BFB002002018090020044A054B8A
:10AAB0009B1AB1EBD30F34BF52F83100002070471E
:10AAC000D0310500303305002DE9F04F8FB004AFD1
:10AAD000C1F34A26B8600D4690467B600C0D002EEF
:10AAE00061D04FF000090A234FF0040B07F1140A5C
:10AAF000FE60C7E90799C7F824900093CDF808B025
:10AB0000CDF804A007F11C03F9684A464046FEF759
:10AB1000DFFEB0F5006F03461CD36C468AB0D8F850
:10AB2000041004AB2448C3E9050140F2FF71D96168
:10AB30001A464FF400711984204B42F8103F204808
:10AB40004B464FF41251FFF7BFFFA5462C37BD46C9
:10AB5000BDE8F08FC0F30A0604F11700184420F096
:10AB6000070080083B60FFF763FE66F35325044649
:10AB700080B13B68134A00F11001C7E90839F96157
:10AB8000CDE901AB0A230093F96807F11C034046A5
:10AB9000FEF79EFE66F353257B68B9682A46204679
:10ABA00020F015FFD2E704F1170020F0070080081D
:10ABB000FFF73EFE0446EDE7DF510500040000010B
:10ABC000A8320500A1B904002DE9F04F87B0DDE9F6
:10ABD000127ADDE9106B0546884614469946BFB1E6
:10ABE0001021CDF800A03B465A460020CDF814A015
:10ABF000FEF7BAFCB0F5006F01460BD3194A1A48AC
:10AC000040F2FF73022107B0BDE8F04F20F038BFDB
:10AC10003946384604F0070305F00704E40044EA27
:10AC2000831444EA402444EA065406F11700084419
:10AC300020F0070080080391FFF7FAFD054640B1B8
:10AC40003FB10399CDF800A03B465A461030FEF7BD
:10AC50008BFC4B4622464146284607B0BDE8F04FE4
:10AC600020F0B5BE1E520500A8320500406820B194
:10AC7000034BC01A40F3CF0070474FF0FF307047CE
:10AC8000D03105000EB403B503AB014653F8042BD5
:10AC90000448019301F09CFA02B05DF804EB03B0A4
:10ACA000704700BFE3BA0400CA0605D48B064CBF48
:10ACB00002490349FFF7E6BF704700BF575205003E
:10ACC000565205002DE9F04F89B09846159B069322
:10ACD000DDE916A39DF85090189F059204460D4695
:10ACE0000493B9F1000F00F0B08007F4807307936C
:10ACF00020F04BFE07F0020B0246002874D0784982
:10AD00002046FFF7BFFF0646BBF1000F08D017F043
:10AD1000440F6BD173492A462046FFF7B3FF064420
:10AD200007F0010353B1704B704953F82920704B61
:10AD30002046002A08BF1A46FFF7A4FF07F48073D5
:10AD4000002B07F0080318BF4FF00008002B79D044
:10AD5000684B694953F829202046FFF793FF0546C1
:10AD6000059B2BB165491A462046FFF78BFF05442A
:10AD7000B8F1000F05D0624942462046FFF782FF36
:10AD8000054460483544069B1BB15F4922461FF0CD
:10AD9000B1FD049B002B00F08E80DDF81080394659
:10ADA000B8F1100F204628BF4FF01008FFF77CFFC6
:10ADB0000026B54250DC002633461AF803205349DA
:10ADC0002046FFF75FFF0136102E4BD0710703D1ED
:10ADD0004F492046FFF756FF46453346EDD34D49D0
:10ADE0002046FFF74FFFEEE706468DE74A4B18680F
:10ADF000002894D0494B4FF47A7B1B68B5FBF3F5E0
:10AE00004FF46163B5FBF0F100FB11550BFB05F549
:10AE10004FF03C0CB1FBF3F203FB1211B5FBF0FE5B
:10AE2000B1FBFCF300FB1E550CFB13110BFB05F5EE
:10AE30000091B5FBF0F53A49CDE901E52046FFF771
:10AE400021FF6CE707F008058AE7B8F1010F0CBF96
:10AE50002C4834484D4696E72D492046FFF712FF0F
:10AE60000136A6E7304920460026FFF70BFF3346A0
:10AE70001AF803202D49A2F120035F2B28BF2E22B0
:10AE80002046FFF7FFFE0136102E0DD0720703D1CA
:10AE90001F492046FFF7F6FEB0453346E8D81C4967
:10AEA0002046FFF7EFFEEEE7049BB3EB0803C24436
:10AEB00004937FF472AFB9F1000F0AD0FB0704D5F9
:10AEC0000B4A0A492046FFF7DDFE39462046FFF7C8
:10AED000EBFE204609B0BDE8F04F20F0F5BD00BF05
:10AEE0005E52050062520500D83505000C5E050073
:10AEF00059520500EC350500875205008D520500BA
:10AF000091520500E3BA0400D1C102009652050037
:10AF10009E5205009C5205002C230020282300206F
:10AF20006B52050019BB0400A0520500A252050097
:10AF300073B542F20F738B4228BF0B4605680F4A68
:10AF40000446052168461FF019F863680C495B68E0
:10AF500006460B22284620F0A9FD63683246694662
:10AF600028465B6820F0A2FD636806495B681B22E7
:10AF7000284620F09BFD02B070BD00BF8A7A050014
:10AF80006B7E05004F7E0500074A00210123904299
:10AF900006D8064A01B901231360054B18607047B3
:10AFA00040085B000121F2E740420F002823002007
:10AFB0002C230020F8B5074F0D4604464618B4422E
:10AFC00001D12846F8BD14F8011BBB6801485B6835
:10AFD0009847F4E7002E0500014B036000207047FE
:10AFE0003436050070B5104B1C680D46B4B10F4BDC
:10AFF000196800238B4202DB6FF0010070BD22460E
:10B0000012F8106B864202D001331446F2E7E06872
:10B0100025F0BBFE28B12C600020EFE76FF00C009C
:10B02000ECE76FF01200E9E7BC02002034360500BF
:10B0300010B588B0436802938368C068CDE90332D5
:10B040000A680023CDE906230C4601AA04490593AA
:10B0500025F01EF8079808B9059B236008B010BDBD
:10B0600059BC040007B51B491B4821F0B1F970BB5E
:10B070001A49194821F0ACF948BB1949164821F082
:10B08000A7F920BB1749144821F0A2F9F8B90146E5
:10B09000154A114821F083FCC8B9024613490E48ED
:10B0A000012321F056FD90B90123009301460223AC
:10B0B0000948EF2221F096F848B9074821F0BBF87B
:10B0C00028B9054803B05DF804EB21F0E4B803B0FB
:10B0D0005DF804FB34030020880B00201C030020D3
:10B0E00004030020EC020020C0020020DF52050013
:10B0F0001FB507240294044C0194BDF81840009435
:10B1000023F0CCFD04B010BDB408002010B5DFF86A
:10B1100024C086B04FF42814CDE904C40824029456
:10B1200004AC0194BDF82040009423F0B7FD06B0B4
:10B1300010BD00BF1800280010B5084C86B0247858
:10B140008DF81740012402940DF117040194BDF805
:10B150002040009423F0A2FD06B010BDBB080020E3
:10B1600080B50D4A0D4B00AF88B0012908BF1346CA
:10B170006A460B49CDE905134FF40073ADF81C3056
:10B18000084B42F8103F084800234FF4E651FFF700
:10B190009BFCBD4680BD00BFC2770500FE77050061
:10B1A0001553050003000001D03105002DE9F041E1
:10B1B0000C4B1C6805460E4617467CB100F06AF938
:10B1C00063682046D3F8108032463B462946C04784
:10B1D000044600F069F92046BDE8F0816FF00104F3
:10B1E000F9E700BF5423002000230360044B5A6892
:10B1F00012B9C3E90000704710605860704700BF83
:10B2000058230020014B1860704700BF54230020D2
:10B2100030B585B00023CDE902330546019000F03A
:10B2200039F9094B1C6844B9284600F0D5F80446A2
:10B2300000F03AF9204605B030BD636820461B682F
:10B2400001A998472468EEE7582300201FB5CDE9EF
:10B250000101039200F01EF9074B1C6824B900F0AD
:10B2600023F9204604B010BD636820461B6801A97D
:10B2700098472468F2E700BF58230020024B0022C1
:10B28000C3E90022704700BF58230020024B002270
:10B29000C3E90022FFF7F2BF602300202DE9F74346
:10B2A00007460C4609B100230B601F4DDFF87C9068
:10B2B00000264D450FD31E4B1D6885B355F8188CDD
:10B2C00001AA41463846183D20F058FD10B3D6B9C2
:10B2D00014BB2E461EE0D5F8008001AA4146384630
:10B2E00020F04CFD50B116B954B92E4606E0316835
:10B2F0000022404620F042FD0028F5D11835D8E75D
:10B30000019B2360F1E731680022404620F036FDC2
:10B310000028DDD1AD69D0E7019B2360D9E7304635
:10B3200003B0BDE8F08300BF40330500D033050013
:10B33000602300202DE9F04784B002AF0446D7F81F
:10B34000289078600D4616469846B9F1000F07D050
:10B35000D9F8001031BBD9F804A0BAF1000F28D1F8
:10B36000391D2046FFF79AFF08B3D0F80C90786893
:10B37000434632462946C847C8B16D468AB002AA3C
:10B38000124BD061C2E905344FF400731384104BA3
:10B3900042F8103F0F4800234FF41151FFF794FB80
:10B3A000AD4604E03A1D20F0E9FC0028D3D100208E
:10B3B00007E0D9F8083000937868434632462946BA
:10B3C000D0470837BD46BDE8F08700BF2E530500C3
:10B3D00004000001003305002DE9F047DFF8A890D4
:10B3E000DFF8A8A080464FF000470026284C3D46D5
:10B3F0004C450DD3DAF80040002C40D0183CB8F191
:10B40000000F24D1226952BBA469F5E72F46EDE76E
:10B41000B8F1000F03D122694AB91834E8E720686F
:10B420000022414620F0AAFC0028F4D1F5E7636829
:10B43000BB4206DDAF4202D0AB42A8BF2B461D4641
:10B44000EBE7EAD19047002E08BF0646E5E7206803
:10B450000022414620F092FC0028D3D1D4E7636853
:10B46000BB4206DDAF4202D0AB42A8BF2B461D4611
:10B47000CAE7C9D19047002E08BF0646C4E7AF42CD
:10B48000C4D13046BDE8F087D033050060230020EA
:10B490004033050003484FF0FF324FF0FF331BF0FD
:10B4A000C3BE00BFD809002001481BF02FBF00BF5A
:10B4B000D809002038B5094DFFF7ECFF2B785BB9B0
:10B4C000FFF7E4FE00F068F8044608B901232B708A
:10B4D000FFF7EAFF204638BD0024F9E77A4D002047
:10B4E0002DE9F043048F013499B006460F46A4B20B
:10B4F00000F10808651EADB2B5F5004F47D04A23EC
:10B5000005AA2946404620F007FA04F57F543F3447
:10B51000A4B28146214601230DF10B02404620F0E2
:10B52000FBF9B9F1000F014610DC002810DC338F65
:10B53000AB4209D132466B1E22F8383F4FF400412E
:10B5400002234046FEF7DAFE2C46D3E7002808DC4B
:10B550002946404620F0DCF92146404620F0D8F943
:10B56000E5E709F160030DEB0309002309F84C3C02
:10B57000084A009703AB05A8CDF80C80ADF8104041
:10B58000FFF7D8FE0028DFD019B0BDE8F083002017
:10B59000FAE700BFEDBD04007FB501236946022034
:10B5A0000193FFF71FFD044660BB02AA01A9022018
:10B5B00020F074FB044610B110F10C0F22D1039956
:10B5C000B1F5803F23D2009A0023946818460844BE
:10B5D00084421AD30133082BF9D10E4D69612B83B4
:10B5E0005368AB602846D368EB6320F095FC0446B3
:10B5F00040B9094E6E602846FFF7F6FD28466E609A
:10B60000FFF700FE204604B070BD9BB2E5E76FF087
:10B610002004F7E768230020F437050008B5034845
:10B62000034A0021121A20F0ACFC08BD200C0020B7
:10B63000084F00200748084A084908B5121A20F0A8
:10B64000A2FC0748074A0849BDE80840121A20F042
:10B650009ABC00BF000000201C0C002040820500A6
:10B660000000002000000020408205002DE9F04786
:10B67000064600AF0C46002936D0E9468AB0D1E92B
:10B680000012A3686D462148E8464FF0050ACDE94F
:10B690000501CDE9072348F810AF1D4842460023B5
:10B6A0004FF42151FFF710FACD46D4E90312636934
:10B6B000AD461848C5F810A0C5E90501C5E907233E
:10B6C0001348002342464FF42151FFF7FDF9CD46C0
:10B6D000E369114A0E48012120F0D2F9A3690F4A0B
:10B6E0000B48012120F0CCF9012E07D1EFF305839F
:10B6F0000B4A0748103B314620F0C2F9214630463C
:10B700001BF0D8FABD46BDE8F08700BF53530500D3
:10B71000E832050082530500B1530500C05305000F
:10B72000EE53050030BFFFF7FDBF00BF2DE9F0412C
:10B730000B4EDFF8308006EB0807CC1B054632467F
:10B740000949204627F01FFAA01942460021083C6B
:10B7500027F040FAAC6707F10800BDE8F08100BFB0
:10B760000000000008000000D033050010B5204C98
:10B770002049214820F014FCA36A990136D51E48BF
:10B780001E4920F00DFC1E20A36ADA0104D51A48D8
:10B790001B4920F005FC1F20154CA36A1B0304D590
:10B7A0001548184920F0FCFB2120A36A590304D551
:10B7B0001148154920F0F4FB22200D4CA36A9A038E
:10B7C00004D50D48114920F0EBFB2320A36ADB03CD
:10B7D00004D509480E4920F0E3FB2420044A936A6B
:10B7E0006FEA03436FEA1343936210BD1D20CBE75A
:10B7F00000ED00E001540500E83205001954050091
:10B800002C54050046540500645405008954050075
:10B81000A354050070B506460D46284C2849294812
:10B8200020F0BEFBA36AD9043CD52648264920F067
:10B83000B7FB1720A36A1A0504D52248234920F034
:10B84000AFFB18201D4CA36A9B0512D51D4820494B
:10B8500020F0A6FBA36BA26A100409D51D4A194863
:10B86000012120F00DF91EB1A36A23F40043A36265
:10B870001920124CA36A590504D51248164920F024
:10B880008FFB1A20A36ADA050ED50E48134920F063
:10B8900087FB1B20094A936A43F47F43936200238A
:10B8A0002B7070BD1620C5E7A36A9B04F2D505482E
:10B8B0000B4920F075FB1C20ECE700BF00ED00E019
:10B8C000CE540500E8320500E4540500F5540500A7
:10B8D0000855050021550500365505005155050050
:10B8E000695505002DE9F843804689461746354DD0
:10B8F0003549364820F054FBAB6ADE0627D534497B
:10B90000324820F04DFB1124AB6A1D0704D53149A4
:10B910002E4820F045FB12242A4DAB6A980718D513
:10B920002D492A4820F03CFB6E6BAB6A190646D5C0
:10B930002A4A26483346012120F0A2F8B9F1000F27
:10B9400003D0AB6A23F08003AB62132403E010241E
:10B95000DAE76FF015061B4DAB6ADA0704D520490C
:10B960001A4820F01DFB1424AB6A9B0604D51D4920
:10B97000164820F015FB1524124B9A6AD50602D4FE
:10B980009A6A90070AD55B68190507D54146304683
:10B9900000F0EAF910B180F309880224094B9A6A91
:10B9A000920642BF5A6A22F400525A629A6A42F0E0
:10B9B000FF029A6200233B702046BDE8F8836FF0D7
:10B9C0001506C2E700ED00E098550500E8320500D5
:10B9D000AE550500F5540500E1550500F955050083
:10B9E0000F560500695505002DE9F041684B8AB0F6
:10B9F000D3F8048000AF0446C8F30806002585F399
:10BA00001188BFF36F8F02F07F43B3F17F4F07D1EF
:10BA100002F00C03082B12D15E495F4820F0C0FAF7
:10BA200000252C460023FB71F31E092B00F28F80AA
:10BA3000DFE803F00A8588818D8D8D8D8D8B100751
:10BA40004CBF0C460125EDE754495348504E20F0B9
:10BA5000A7FA0023FB71F36A9A0705D550494E48AF
:10BA600020F09EFA00232DE0F36A002B01DA4D4905
:10BA7000F5E7F36A5B00F5D54B49474820F090FAAB
:10BA80007369A26943F480737361BFF34F8FBFF38F
:10BA90006F8F32F8023C726922F480727261BFF3D8
:10BAA0004F8FBFF36F8F03F47F42B2F55F4F2BD1FF
:10BAB000DBB2022B28D123683C4A374801211FF012
:10BAC000DFFF2368FA79DAB907F1080604F1200CE0
:10BAD00020686168324603C2083464451646F7D1CF
:10BAE0007A6A002D50D0C2F3080121B96FEA5222C0
:10BAF0006FEA42227A6207F108011846FFF7B6FDA5
:10BB00002837BD46BDE8F081214B9A6AD2B22AB1EE
:10BB1000FA1D01212046FFF7E5FE0EE09A6A12F4B5
:10BB20007F4F04D0F91D0120FFF774FE05E09B6AEA
:10BB3000B3F5803F96D3FFF719FE0346C2E7FA1D1F
:10BB40000021E7E7F91D0020EEE7194987E7194AC8
:10BB5000194B18F4F87FE8468AB008BF13466A46C6
:10BB60001649CDE905134FF40073ADF82030103EAF
:10BB7000134B079642F8103F074800234FF411512A
:10BB8000FEF7A2FFC5466DE76FF30802B2E700BFFC
:10BB900000ED00E05C560500E83205008756050020
:10BBA0009E560500BF560500CD560500EC56050013
:10BBB000085705002E560500435605002C57050072
:10BBC00004000001044B5A6942F010025A615A699C
:10BBD00022F008025A61704700ED00E0EFF30880A0
:10BBE000EFF3098101B57246FFF7FEFE01BD00BF0C
:10BBF0000B4880F308881AF061F8202080F3118840
:10BC000008484FF40461401880F30988EFF314806A
:10BC10000221084380F31488BFF36F8F00F06CF8A3
:10BC200080870020C06D00201EF0040F0CBFEFF3D2
:10BC30000880EFF30980816911F8021C0229FFD006
:10BC400001B5724620F0A1F901BD00BF40B2002845
:10BC500007DB044A4109012300F01F00834042F83A
:10BC60002130704700E100E040B200280CDB4309BE
:10BC7000064900F01F0020330122824041F82320B2
:10BC8000BFF34F8FBFF36F8F704700BF00E100E03D
:10BC9000054B420900F01F0053F82220012303FA4C
:10BCA00000F01040704700BF00E100E040B2002803
:10BCB000A8BF00F1604001F10101B8BF064B4FEA97
:10BCC0004111ACBF00F5614000F00F00C9B2B4BF34
:10BCD000195480F80013704714ED00E0044B054A36
:10BCE00023F07F039360BFF34F8FBFF36F8F7047D5
:10BCF0000070020000ED00E008B5FFF7EFFF0B4A0F
:10BD0000D2F8883023F47003C2F88830EFF314833C
:10BD100023F0040383F31488BFF36F8FFFF77EFCD7
:10BD2000FFF788FC00F0B0F81BF0EAF800ED00E047
:10BD300042F8203C009B42F81C3C0A49019B42F817
:10BD4000183C029B42F8143C21F001014FF0807333
:10BD500042F8043C42F8081C0023203A0265C367FD
:10BD6000704700BFA59C0200094A0346906870B165
:10BD700013F1160F806E05D0A0F14002934205D357
:10BD8000834203D2814228BF0020704700207047C1
:10BD9000F045002008B515460B4A0C4B9060826FA9
:10BDA0001A600E4600F0A0F82C4686F309880020A1
:10BDB000034B98472046002100220023014C2047D6
:10BDC000B7BF0400A59C0200F0450020A823002076
:10BDD000014B10221A61704700ED00E0054B5A69D3
:10BDE0009B689A421FBF044A536843F080535360D4
:10BDF000704700BFF045002000ED00E0084B9B6855
:10BE000083420BD1EFF3058343B1064B5A6842F0EE
:10BE100080525A605A6A22F400425A621CF0DCB81E
:10BE2000F045002000ED00E014498A684FF0300032
:10BE30001044EFF3098C80E8F01F202080F3128873
:10BE4000BFF36F8F0E4F4FF000664A698A603E6005
:10BE5000906F0C4C2060D06F0023D36780F3118863
:10BE600004B5104600F040F8BDE8044002F130008F
:10BE700090E8F01F8CF3098870470000F04500201F
:10BE800004ED00E0A8230020044800232021C2186C
:10BE90000133302B82F80013F9D1704700E100E044
:10BEA00008B5EFF30583064A103B02EBC30152F8D5
:10BEB000330049688847BDE80840FFF78FBF00BFDF
:10BEC000C42E05000148006870470000A823002028
:10BED000024B034A0348012100F08AB80000042005
:10BEE0000000002010380500836E054A403B1360B7
:10BEF000044B4021C2E901131046012100F082B831
:10BF0000AC23002000000B1508B503461048D0F8FC
:10BF10009020C2F30722013A934207D90D480E4AF6
:10BF200001211FF0ADFD6FF0150008BDC0F898307D
:10BF30000A6822F01F021A4342F01002C0F89C2047
:10BF40008A6842F00102C0F8A0201846EDE700BF61
:10BF500000ED00E0C832050043570500F0B50E467D
:10BF600085B01F4604460025B5420DDA606810B35F
:10BF700097B1431E18420AD0104A11482B4601219E
:10BF80001FF07EFD6FF01502104605B0F0BD1F28B2
:10BF9000F2D921680B42EFD12368019320F02EF8EB
:10BFA000A36801A90343D0B20393FFF7ADFF10F1DB
:10BFB000160FE7D0421C01350C34D5E76957050050
:10BFC000C8320500044B0522C3F89420BFF34F8FFD
:10BFD000BFF36F8F704700BF00ED00E0BFF35F8FCE
:10BFE000024B0022C3F89420704700BF00ED00E030
:10BFF00010B5034C01232278FFF7B0FF207010BD6D
:10C000007B4D002008B50B4A00231278FFF7A6FFEE
:10C0100010F1160F07D0084A0021D2F89030C3F370
:10C020000723984200DB08BDC2F89800C2F8A010B0
:10C030000130F2E77B4D002000ED00E02DE9F043F8
:10C040005D485E49D0F890300C68C3F307239C42EA
:10C0500085B000F2AE80FFF7C1FF4968002294422C
:10C0600001F10C011AD1564F564D3C706846FEF74F
:10C07000B3FF554C554E81464FF00008C14520D1C5
:10C080003B784D490020D1F89020C2F3072293421B
:10C09000C0F28980FFF796FF002050E0C0F898209A
:10C0A00051F80C3C23F01F03134343F01003C0F876
:10C0B0009C3051F8043C43F00103C0F8A030013239
:10C0C000CDE7009800EB08114FEA081CCB6823402D
:10C0D000B3F5000F49D00BD8B3F5001F32D0B3F53C
:10C0E000800F37D0B3F5801F14D008F10108C5E7E1
:10C0F000B3F1007F42D0B3F1805F48D0B3F1807FCD
:10C10000F3D150F80C3088684A681FF077FF40F090
:10C11000887009E050F80C3088684A681FF06EFF9C
:10C1200040F0885040F43020039001A93878CDE9E0
:10C130000123FFF7E9FE002831DA6FF0150005B0A2
:10C14000BDE8F08350F80C3088684A681FF056FF4D
:10C150003043E9E750F80C3088684A681FF04EFF1A
:10C1600040F0007040F40030DEE750F80C30886892
:10C170004A681FF043FF40F08270D5E750F80C305A
:10C1800088684A681FF03AFF40F48020CCE750F8F6
:10C190000C3088684A681FF031FF2843C4E73B78B9
:10C1A00001333B70A1E7C1F89830C1F8A00001331A
:10C1B00069E74FF0FF30C2E700ED00E01C380500F2
:10C1C0007B4D0020000002110000F0FF000008116C
:10C1D000F0B587B007460E46144600211022684687
:10C1E0001D4626F0F7FC02238DF802302A46054B47
:10C1F000019321466846CDE904761DF04FFF07B054
:10C20000F0BD00BF1DC0040008B5024B1B68984775
:10C21000002008BDB8230020034B044A186093781F
:10C2200043F0020393707047B8230020A803002056
:10C2300008B50649064821F00701C1F1005202F590
:10C2400080221EF016FB002008BD00BF5FAC00205E
:10C25000BC23002003484FF0FF324FF0FF331AF0A9
:10C26000E3BF00BFB803002001481BF04FB800BF78
:10C27000B803002038B50546FFF7ECFF08482A460A
:10C2800008211EF085FA044628B925B1FFF71AFEE9
:10C29000044B0C221A50FFF7E7FF204638BD00BFC1
:10C2A000BC2300200C00000010B50446FFF7D2FFAD
:10C2B00021460348FDF7D4F8BDE81040FFF7D4BF8E
:10C2C000BC23002070B5A0FB015434B92846FFF709
:10C2D000D1FF064640B9304670BDFFF7F3FD054B70
:10C2E0000C221A500026F6E72A46214626F072FC58
:10C2F000F1E700BF0C00000070B54169867A0B4D74
:10C30000044659B1437ADB0706D4242303FB0653C2
:10C31000DB691B689B6898470023636124202146E2
:10C3200000FB0650BDE8704024F0EBBE680A002018
:10C33000024B242202FB0030704700BF680A002035
:10C34000827A064B242101FB02331A6A1B7D1B33C0
:10C35000801A23F00303B0FBF3F07047680A002053
:10C3600038B5074B827A242404FB0233DB69D3E916
:10C3700001240C601568FFF7E3FF04FB005038BD93
:10C38000680A00202DE9F04385B005466846039110
:10C3900090461C4625F098F9DDE90067EFF3118916
:10C3A000202383F31288BFF36F8F6B8A002B41D059
:10C3B0002A8A9A4225D90022002328461AF0F6FF3D
:10C3C0000446F0B189F31188BFF36F8F039B002BF4
:10C3D00041D032463B46684625F09BF9A27A264B6F
:10C3E000242101FB02332046DB691B6803A91D6879
:10C3F000DDE90023A847606170BB2046FFF77CFFA2
:10C4000024E0698A4B1E6B8289F31188BFF36F8F1A
:10C410002B7D2A8A2C6A1B3323F00303521A02FB5A
:10C420000344154B154AEB1A9B105343A3722B7D03
:10C43000E372CBE789F31188BFF36F8F234642463F
:10C4400028461AF0B3FF04460028BFD10024204636
:10C4500005B0BDE8F0836361012300252381039BC0
:10C460006382E27A6560294604F1180026F0B2FB87
:10C4700063692582E360EAE7680A0020398EE338C1
:10C4800070B50D4C242500B970BD037A4668002BA9
:10C49000FAD0013BDBB20372002BF5D1C3604360DD
:10C4A000837A05FB03439B6913B198473046EAE75B
:10C4B000FFF722FFFAE700BF680A00200C4B0122B9
:10C4C000C3F840254FF080434FF08051C3F87825E2
:10C4D000D1F83001082805D1D1F83411022908BF5C
:10C4E000C3F838260122C3F880250020704700BF1A
:10C4F00000E0014048B1054B054A1B68B3FBF2F36D
:10C500005843044B43F00103184770477808002054
:10C5100040420F0080340500BFF34F8F0549064BA2
:10C52000CA6802F4E0621343CB60BFF34F8F00BFD1
:10C53000FDE700BF00ED00E00400FA0508B5054A7C
:10C54000054B136010463C23536019F08DFC00200E
:10C5500008BD00BFC82300203FC00F002DE9F041F7
:10C5600090F8283003F01F03012B04460F4600F11A
:10C5700028062FD0022B18D08BB394F82910204610
:10C580001FF0CCFE024678B330461FF0B1FF1D4DC0
:10C59000002834D113693BB33A46314620469847C8
:10C5A0000346FFF78FFC2B5024E0818DC9B220F0A9
:10C5B00096FA05460028E0D030461FF099FF024663
:10C5C00068688368CAB99B6873B13A463146BDE86A
:10C5D000F0411847818DC9B220F068FAE9E790F878
:10C5E000291020F09FFAE4E7FFF76CFC054B6FF091
:10C5F00085021A500020BDE8F081DB68E4E7D368CB
:10C60000C9E700BF0C0000002DE9F04F0B7E33F0AE
:10C61000800893B004460D46164640F08E847AB1E9
:10C620000846FFF72DFF6B7EDF0703D49E0711D569
:10C630002B7E7BB9204613B0BDE8F04F1FF084BFBE
:10C640004A7E00F12809900708D5802B0CD1284696
:10C65000FFF716FF404613B0BDE8F08F910700F0DA
:10C660002784002B40F02484D2072FD52B8A082B57
:10C6700040F00684EA681368A3625368C9F804307E
:10C68000294600201FF030FD054610B1FFF7F8FEE7
:10C69000EFE048461FF02CFFE28D70B9B2B1294699
:10C6A000A06923F0F9FA0146002800F02D84204605
:10C6B00013B0BDE8F04F20F0B8BB3AB111462046A8
:10C6C00020F0AEFB0546002800F01E84FFF7FAFBC1
:10C6D00094F82880B14F002318F0600FC351C8F3BD
:10C6E000411307D0032B40F0BD81FFF7EBFB6FF048
:10C6F000850337E048461FF0FBFE94F829300028F8
:10C7000040F04E81013B0A2BEFD801A252F823F0F2
:10C7100087C80200EBC6020013C90200EBC6020084
:10C720003DC70200EBC60200EBC60200EBC60200EA
:10C73000ADC70200EBC602000FC80200618D7F2961
:10C74000D3D8A38D002BD0D1E38D002BCDD118F001
:10C750001F0FCAD194F83030022B05D1FFF7B2FB7E
:10C760004FF0FF333B5076E0A069036993F88030C7
:10C770001B0707D5C9B21FF01DFF804628B1002D49
:10C780006CD167E7012384F8393094F83030012BFD
:10C790000AD1638D43B984F83030FFF793FB3B58DF
:10C7A000002B00F0858056E00123F4E720461FF0BF
:10C7B00014FD628DFF2A014697D8E38D002B94D19A
:10C7C00094F82830D80690D194F83030002BC5D09A
:10C7D0002AB1D2B2204620F08FF80028BED0618D59
:10C7E00094F838308B42D8D0C9B2204620F08BF86C
:10C7F00080460028C3D1628D002A14BF0223012382
:10C8000084F830300521204620F09AFBC5E708F077
:10C810001F08B8F1010F7FF468AFE38D002B7FF4A0
:10C8200064AF628DFF2A3FF660AFA18DFF293FF60E
:10C830005CAF94F83030022B90D1D2B2C9B220460E
:10C8400020F071FA10F1020F804640F01081FFF7DE
:10C8500039FB47F8008065B14FF000082846FFF724
:10C860000FFEB8F1000F7FF4F5AEFFF72BFB3B583E
:10C87000F3B148461FF03CFE0346A069002B00F0D0
:10C880004F83802155E3E38D002B7FF42EAF94F886
:10C890003030002B3FF462AF012BA18D02D1002973
:10C8A0007FF45CAF18F01F080CD0B8F1020F16D05F
:10C8B000E38D002B40F0D78220461FF02FFE00288A
:10C8C000D7D1B7E600297FF449AF638D012BEFD1B3
:10C8D00094F86C3061F3C30384F86C30E8E7B4F883
:10C8E0002AA0BAF1000FE3D15FFA81F84146204651
:10C8F00020F00CFB0346FFF7E5FA3B50013302D171
:10C900004FF0FF383BE75246414620461FF0F6FD08
:10C9100043E7E38D002B7FF4E8AE628DA38D022AFE
:10C920005FFA83FA11D108F01F085AEA08087FF469
:10C93000DCAEA0690122190A1FF019FE00287FF45D
:10C94000D4AE012384F8393027E794F83010002959
:10C950003FF404AF012902D1002B7FF4FFAE18F0A1
:10C960001F0811D0B8F1020FA2D1002AA0D1514660
:10C97000204620F0B6FA0346FFF7A4FA3B500133F5
:10C98000BED001225146C0E7002B7FF4E7AE012A5A
:10C990008ED194F86C3043F008039DE70C00000042
:10C9A0000A2B3FF6A2AE01A252F823F0D9C9020029
:10C9B000EBC60200EBC60200EBC60200EBC60200AB
:10C9C000EBC6020053CA0200EBC60200E3CD020030
:10C9D000EBC602000DCE0200E38D022B7FF485AE84
:10C9E00094F83030002B3FF4B9AE012BA18D02D169
:10C9F00000297FF4B3AE18F01F0811D0B8F1020F70
:10CA00001CD04FF0000805F10C0A50461FF068FDDD
:10CA1000E38D984218D2FFF755FA6FF00B03A1E6A9
:10CA200000297FF49BAE94F86C304FEA930808F02D
:10CA30000208C3F3001348EA0308E4E7C9B220463A
:10CA400020F073FA8046DEE7414650461FF07AFB3D
:10CA5000A3E6B4F82AA018F01F0F4FEA1A235FFAD2
:10CA60008AFA09D029462046FFF778FD8046B8F1BA
:10CA7000000F7FF484AE90E6013B0E2B3FF635AEFF
:10CA800001A252F823F000BFC5CA020005CB020084
:10CA9000AFCB0200EBC60200EBC60200A7CB020040
:10CAA000A7CB0200EBC60200EBC60200EBC60200F9
:10CAB000EBC60200EBC60200EBC60200EBC60200AA
:10CAC000F1CC020005F10C0840461FF009FD834639
:10CAD0002046B4F82EA01FF080FB20B101287FF47F
